ARM GAS  C:\Users\DEREKM~1\AppData\Local\Temp\cc6Opqfm.s 			page 1


   1              		.syntax unified
   2              		.cpu cortex-m3
   3              		.fpu softvfp
   4              		.eabi_attribute 20, 1
   5              		.eabi_attribute 21, 1
   6              		.eabi_attribute 23, 3
   7              		.eabi_attribute 24, 1
   8              		.eabi_attribute 25, 1
   9              		.eabi_attribute 26, 1
  10              		.eabi_attribute 30, 6
  11              		.eabi_attribute 34, 1
  12              		.eabi_attribute 18, 4
  13              		.thumb
  14              		.syntax unified
  15              		.file	"BUTTON_1.c"
  16              		.text
  17              	.Ltext0:
  18              		.cfi_sections	.debug_frame
  19              		.section	.text.BUTTON_1_Write,"ax",%progbits
  20              		.align	2
  21              		.global	BUTTON_1_Write
  22              		.thumb
  23              		.thumb_func
  24              		.type	BUTTON_1_Write, %function
  25              	BUTTON_1_Write:
  26              	.LFB0:
  27              		.file 1 "Generated_Source\\PSoC5\\BUTTON_1.c"
   1:Generated_Source\PSoC5/BUTTON_1.c **** /*******************************************************************************
   2:Generated_Source\PSoC5/BUTTON_1.c **** * File Name: BUTTON_1.c  
   3:Generated_Source\PSoC5/BUTTON_1.c **** * Version 2.20
   4:Generated_Source\PSoC5/BUTTON_1.c **** *
   5:Generated_Source\PSoC5/BUTTON_1.c **** * Description:
   6:Generated_Source\PSoC5/BUTTON_1.c **** *  This file contains API to enable firmware control of a Pins component.
   7:Generated_Source\PSoC5/BUTTON_1.c **** *
   8:Generated_Source\PSoC5/BUTTON_1.c **** * Note:
   9:Generated_Source\PSoC5/BUTTON_1.c **** *
  10:Generated_Source\PSoC5/BUTTON_1.c **** ********************************************************************************
  11:Generated_Source\PSoC5/BUTTON_1.c **** * Copyright 2008-2015, Cypress Semiconductor Corporation.  All rights reserved.
  12:Generated_Source\PSoC5/BUTTON_1.c **** * You may use this file only in accordance with the license, terms, conditions, 
  13:Generated_Source\PSoC5/BUTTON_1.c **** * disclaimers, and limitations in the end user license agreement accompanying 
  14:Generated_Source\PSoC5/BUTTON_1.c **** * the software package with which this file was provided.
  15:Generated_Source\PSoC5/BUTTON_1.c **** *******************************************************************************/
  16:Generated_Source\PSoC5/BUTTON_1.c **** 
  17:Generated_Source\PSoC5/BUTTON_1.c **** #include "cytypes.h"
  18:Generated_Source\PSoC5/BUTTON_1.c **** #include "BUTTON_1.h"
  19:Generated_Source\PSoC5/BUTTON_1.c **** 
  20:Generated_Source\PSoC5/BUTTON_1.c **** /* APIs are not generated for P15[7:6] on PSoC 5 */
  21:Generated_Source\PSoC5/BUTTON_1.c **** #if !(CY_PSOC5A &&\
  22:Generated_Source\PSoC5/BUTTON_1.c **** 	 BUTTON_1__PORT == 15 && ((BUTTON_1__MASK & 0xC0) != 0))
  23:Generated_Source\PSoC5/BUTTON_1.c **** 
  24:Generated_Source\PSoC5/BUTTON_1.c **** 
  25:Generated_Source\PSoC5/BUTTON_1.c **** /*******************************************************************************
  26:Generated_Source\PSoC5/BUTTON_1.c **** * Function Name: BUTTON_1_Write
  27:Generated_Source\PSoC5/BUTTON_1.c **** ****************************************************************************//**
  28:Generated_Source\PSoC5/BUTTON_1.c **** *
  29:Generated_Source\PSoC5/BUTTON_1.c **** * \brief Writes the value to the physical port (data output register), masking
  30:Generated_Source\PSoC5/BUTTON_1.c **** *  and shifting the bits appropriately. 
ARM GAS  C:\Users\DEREKM~1\AppData\Local\Temp\cc6Opqfm.s 			page 2


  31:Generated_Source\PSoC5/BUTTON_1.c **** *
  32:Generated_Source\PSoC5/BUTTON_1.c **** * The data output register controls the signal applied to the physical pin in 
  33:Generated_Source\PSoC5/BUTTON_1.c **** * conjunction with the drive mode parameter. This function avoids changing 
  34:Generated_Source\PSoC5/BUTTON_1.c **** * other bits in the port by using the appropriate method (read-modify-write or
  35:Generated_Source\PSoC5/BUTTON_1.c **** * bit banding).
  36:Generated_Source\PSoC5/BUTTON_1.c **** *
  37:Generated_Source\PSoC5/BUTTON_1.c **** * <b>Note</b> This function should not be used on a hardware digital output pin 
  38:Generated_Source\PSoC5/BUTTON_1.c **** * as it is driven by the hardware signal attached to it.
  39:Generated_Source\PSoC5/BUTTON_1.c **** *
  40:Generated_Source\PSoC5/BUTTON_1.c **** * \param value
  41:Generated_Source\PSoC5/BUTTON_1.c **** *  Value to write to the component instance.
  42:Generated_Source\PSoC5/BUTTON_1.c **** *
  43:Generated_Source\PSoC5/BUTTON_1.c **** * \return 
  44:Generated_Source\PSoC5/BUTTON_1.c **** *  None 
  45:Generated_Source\PSoC5/BUTTON_1.c **** *
  46:Generated_Source\PSoC5/BUTTON_1.c **** * \sideeffect
  47:Generated_Source\PSoC5/BUTTON_1.c **** *  If you use read-modify-write operations that are not atomic; the Interrupt 
  48:Generated_Source\PSoC5/BUTTON_1.c **** *  Service Routines (ISR) can cause corruption of this function. An ISR that 
  49:Generated_Source\PSoC5/BUTTON_1.c **** *  interrupts this function and performs writes to the Pins component data 
  50:Generated_Source\PSoC5/BUTTON_1.c **** *  register can cause corrupted port data. To avoid this issue, you should 
  51:Generated_Source\PSoC5/BUTTON_1.c **** *  either use the Per-Pin APIs (primary method) or disable interrupts around 
  52:Generated_Source\PSoC5/BUTTON_1.c **** *  this function.
  53:Generated_Source\PSoC5/BUTTON_1.c **** *
  54:Generated_Source\PSoC5/BUTTON_1.c **** * \funcusage
  55:Generated_Source\PSoC5/BUTTON_1.c **** *  \snippet BUTTON_1_SUT.c usage_BUTTON_1_Write
  56:Generated_Source\PSoC5/BUTTON_1.c **** *******************************************************************************/
  57:Generated_Source\PSoC5/BUTTON_1.c **** void BUTTON_1_Write(uint8 value)
  58:Generated_Source\PSoC5/BUTTON_1.c **** {
  28              		.loc 1 58 0
  29              		.cfi_startproc
  30              		@ args = 0, pretend = 0, frame = 16
  31              		@ frame_needed = 1, uses_anonymous_args = 0
  32              		@ link register save eliminated.
  33 0000 80B4     		push	{r7}
  34              		.cfi_def_cfa_offset 4
  35              		.cfi_offset 7, -4
  36 0002 85B0     		sub	sp, sp, #20
  37              		.cfi_def_cfa_offset 24
  38 0004 00AF     		add	r7, sp, #0
  39              		.cfi_def_cfa_register 7
  40 0006 0346     		mov	r3, r0
  41 0008 FB71     		strb	r3, [r7, #7]
  59:Generated_Source\PSoC5/BUTTON_1.c ****     uint8 staticBits = (BUTTON_1_DR & (uint8)(~BUTTON_1_MASK));
  42              		.loc 1 59 0
  43 000a 0B4B     		ldr	r3, .L2
  44 000c 1B78     		ldrb	r3, [r3]
  45 000e DBB2     		uxtb	r3, r3
  46 0010 23F01003 		bic	r3, r3, #16
  47 0014 FB73     		strb	r3, [r7, #15]
  60:Generated_Source\PSoC5/BUTTON_1.c ****     BUTTON_1_DR = staticBits | ((uint8)(value << BUTTON_1_SHIFT) & BUTTON_1_MASK);
  48              		.loc 1 60 0
  49 0016 0849     		ldr	r1, .L2
  50 0018 FB79     		ldrb	r3, [r7, #7]
  51 001a 1B01     		lsls	r3, r3, #4
  52 001c DBB2     		uxtb	r3, r3
  53 001e 03F01003 		and	r3, r3, #16
  54 0022 DAB2     		uxtb	r2, r3
ARM GAS  C:\Users\DEREKM~1\AppData\Local\Temp\cc6Opqfm.s 			page 3


  55 0024 FB7B     		ldrb	r3, [r7, #15]
  56 0026 1343     		orrs	r3, r3, r2
  57 0028 DBB2     		uxtb	r3, r3
  58 002a 0B70     		strb	r3, [r1]
  61:Generated_Source\PSoC5/BUTTON_1.c **** }
  59              		.loc 1 61 0
  60 002c 00BF     		nop
  61 002e 1437     		adds	r7, r7, #20
  62              		.cfi_def_cfa_offset 4
  63 0030 BD46     		mov	sp, r7
  64              		.cfi_def_cfa_register 13
  65              		@ sp needed
  66 0032 80BC     		pop	{r7}
  67              		.cfi_restore 7
  68              		.cfi_def_cfa_offset 0
  69 0034 7047     		bx	lr
  70              	.L3:
  71 0036 00BF     		.align	2
  72              	.L2:
  73 0038 30510040 		.word	1073762608
  74              		.cfi_endproc
  75              	.LFE0:
  76              		.size	BUTTON_1_Write, .-BUTTON_1_Write
  77              		.section	.text.BUTTON_1_SetDriveMode,"ax",%progbits
  78              		.align	2
  79              		.global	BUTTON_1_SetDriveMode
  80              		.thumb
  81              		.thumb_func
  82              		.type	BUTTON_1_SetDriveMode, %function
  83              	BUTTON_1_SetDriveMode:
  84              	.LFB1:
  62:Generated_Source\PSoC5/BUTTON_1.c **** 
  63:Generated_Source\PSoC5/BUTTON_1.c **** 
  64:Generated_Source\PSoC5/BUTTON_1.c **** /*******************************************************************************
  65:Generated_Source\PSoC5/BUTTON_1.c **** * Function Name: BUTTON_1_SetDriveMode
  66:Generated_Source\PSoC5/BUTTON_1.c **** ****************************************************************************//**
  67:Generated_Source\PSoC5/BUTTON_1.c **** *
  68:Generated_Source\PSoC5/BUTTON_1.c **** * \brief Sets the drive mode for each of the Pins component's pins.
  69:Generated_Source\PSoC5/BUTTON_1.c **** * 
  70:Generated_Source\PSoC5/BUTTON_1.c **** * <b>Note</b> This affects all pins in the Pins component instance. Use the
  71:Generated_Source\PSoC5/BUTTON_1.c **** * Per-Pin APIs if you wish to control individual pin's drive modes.
  72:Generated_Source\PSoC5/BUTTON_1.c **** *
  73:Generated_Source\PSoC5/BUTTON_1.c **** * \param mode
  74:Generated_Source\PSoC5/BUTTON_1.c **** *  Mode for the selected signals. Valid options are documented in 
  75:Generated_Source\PSoC5/BUTTON_1.c **** *  \ref driveMode.
  76:Generated_Source\PSoC5/BUTTON_1.c **** *
  77:Generated_Source\PSoC5/BUTTON_1.c **** * \return
  78:Generated_Source\PSoC5/BUTTON_1.c **** *  None
  79:Generated_Source\PSoC5/BUTTON_1.c **** *
  80:Generated_Source\PSoC5/BUTTON_1.c **** * \sideeffect
  81:Generated_Source\PSoC5/BUTTON_1.c **** *  If you use read-modify-write operations that are not atomic, the ISR can
  82:Generated_Source\PSoC5/BUTTON_1.c **** *  cause corruption of this function. An ISR that interrupts this function 
  83:Generated_Source\PSoC5/BUTTON_1.c **** *  and performs writes to the Pins component Drive Mode registers can cause 
  84:Generated_Source\PSoC5/BUTTON_1.c **** *  corrupted port data. To avoid this issue, you should either use the Per-Pin
  85:Generated_Source\PSoC5/BUTTON_1.c **** *  APIs (primary method) or disable interrupts around this function.
  86:Generated_Source\PSoC5/BUTTON_1.c **** *
  87:Generated_Source\PSoC5/BUTTON_1.c **** * \funcusage
ARM GAS  C:\Users\DEREKM~1\AppData\Local\Temp\cc6Opqfm.s 			page 4


  88:Generated_Source\PSoC5/BUTTON_1.c **** *  \snippet BUTTON_1_SUT.c usage_BUTTON_1_SetDriveMode
  89:Generated_Source\PSoC5/BUTTON_1.c **** *******************************************************************************/
  90:Generated_Source\PSoC5/BUTTON_1.c **** void BUTTON_1_SetDriveMode(uint8 mode)
  91:Generated_Source\PSoC5/BUTTON_1.c **** {
  85              		.loc 1 91 0
  86              		.cfi_startproc
  87              		@ args = 0, pretend = 0, frame = 8
  88              		@ frame_needed = 1, uses_anonymous_args = 0
  89              		@ link register save eliminated.
  90 0000 80B4     		push	{r7}
  91              		.cfi_def_cfa_offset 4
  92              		.cfi_offset 7, -4
  93 0002 83B0     		sub	sp, sp, #12
  94              		.cfi_def_cfa_offset 16
  95 0004 00AF     		add	r7, sp, #0
  96              		.cfi_def_cfa_register 7
  97 0006 0346     		mov	r3, r0
  98 0008 FB71     		strb	r3, [r7, #7]
  92:Generated_Source\PSoC5/BUTTON_1.c **** 	CyPins_SetPinDriveMode(BUTTON_1_0, mode);
  99              		.loc 1 92 0
 100 000a 0B49     		ldr	r1, .L5
 101 000c 0A4B     		ldr	r3, .L5
 102 000e 1B78     		ldrb	r3, [r3]
 103 0010 DBB2     		uxtb	r3, r3
 104 0012 5BB2     		sxtb	r3, r3
 105 0014 23F00E03 		bic	r3, r3, #14
 106 0018 5AB2     		sxtb	r2, r3
 107 001a 97F90730 		ldrsb	r3, [r7, #7]
 108 001e 03F00E03 		and	r3, r3, #14
 109 0022 5BB2     		sxtb	r3, r3
 110 0024 1343     		orrs	r3, r3, r2
 111 0026 5BB2     		sxtb	r3, r3
 112 0028 DBB2     		uxtb	r3, r3
 113 002a 0B70     		strb	r3, [r1]
  93:Generated_Source\PSoC5/BUTTON_1.c **** }
 114              		.loc 1 93 0
 115 002c 00BF     		nop
 116 002e 0C37     		adds	r7, r7, #12
 117              		.cfi_def_cfa_offset 4
 118 0030 BD46     		mov	sp, r7
 119              		.cfi_def_cfa_register 13
 120              		@ sp needed
 121 0032 80BC     		pop	{r7}
 122              		.cfi_restore 7
 123              		.cfi_def_cfa_offset 0
 124 0034 7047     		bx	lr
 125              	.L6:
 126 0036 00BF     		.align	2
 127              	.L5:
 128 0038 1C500040 		.word	1073762332
 129              		.cfi_endproc
 130              	.LFE1:
 131              		.size	BUTTON_1_SetDriveMode, .-BUTTON_1_SetDriveMode
 132              		.section	.text.BUTTON_1_Read,"ax",%progbits
 133              		.align	2
 134              		.global	BUTTON_1_Read
 135              		.thumb
ARM GAS  C:\Users\DEREKM~1\AppData\Local\Temp\cc6Opqfm.s 			page 5


 136              		.thumb_func
 137              		.type	BUTTON_1_Read, %function
 138              	BUTTON_1_Read:
 139              	.LFB2:
  94:Generated_Source\PSoC5/BUTTON_1.c **** 
  95:Generated_Source\PSoC5/BUTTON_1.c **** 
  96:Generated_Source\PSoC5/BUTTON_1.c **** /*******************************************************************************
  97:Generated_Source\PSoC5/BUTTON_1.c **** * Function Name: BUTTON_1_Read
  98:Generated_Source\PSoC5/BUTTON_1.c **** ****************************************************************************//**
  99:Generated_Source\PSoC5/BUTTON_1.c **** *
 100:Generated_Source\PSoC5/BUTTON_1.c **** * \brief Reads the associated physical port (pin status register) and masks 
 101:Generated_Source\PSoC5/BUTTON_1.c **** *  the required bits according to the width and bit position of the component
 102:Generated_Source\PSoC5/BUTTON_1.c **** *  instance. 
 103:Generated_Source\PSoC5/BUTTON_1.c **** *
 104:Generated_Source\PSoC5/BUTTON_1.c **** * The pin's status register returns the current logic level present on the 
 105:Generated_Source\PSoC5/BUTTON_1.c **** * physical pin.
 106:Generated_Source\PSoC5/BUTTON_1.c **** *
 107:Generated_Source\PSoC5/BUTTON_1.c **** * \return 
 108:Generated_Source\PSoC5/BUTTON_1.c **** *  The current value for the pins in the component as a right justified number.
 109:Generated_Source\PSoC5/BUTTON_1.c **** *
 110:Generated_Source\PSoC5/BUTTON_1.c **** * \funcusage
 111:Generated_Source\PSoC5/BUTTON_1.c **** *  \snippet BUTTON_1_SUT.c usage_BUTTON_1_Read  
 112:Generated_Source\PSoC5/BUTTON_1.c **** *******************************************************************************/
 113:Generated_Source\PSoC5/BUTTON_1.c **** uint8 BUTTON_1_Read(void)
 114:Generated_Source\PSoC5/BUTTON_1.c **** {
 140              		.loc 1 114 0
 141              		.cfi_startproc
 142              		@ args = 0, pretend = 0, frame = 0
 143              		@ frame_needed = 1, uses_anonymous_args = 0
 144              		@ link register save eliminated.
 145 0000 80B4     		push	{r7}
 146              		.cfi_def_cfa_offset 4
 147              		.cfi_offset 7, -4
 148 0002 00AF     		add	r7, sp, #0
 149              		.cfi_def_cfa_register 7
 115:Generated_Source\PSoC5/BUTTON_1.c ****     return (BUTTON_1_PS & BUTTON_1_MASK) >> BUTTON_1_SHIFT;
 150              		.loc 1 115 0
 151 0004 054B     		ldr	r3, .L9
 152 0006 1B78     		ldrb	r3, [r3]
 153 0008 DBB2     		uxtb	r3, r3
 154 000a 03F01003 		and	r3, r3, #16
 155 000e 1B09     		lsrs	r3, r3, #4
 156 0010 DBB2     		uxtb	r3, r3
 116:Generated_Source\PSoC5/BUTTON_1.c **** }
 157              		.loc 1 116 0
 158 0012 1846     		mov	r0, r3
 159 0014 BD46     		mov	sp, r7
 160              		.cfi_def_cfa_register 13
 161              		@ sp needed
 162 0016 80BC     		pop	{r7}
 163              		.cfi_restore 7
 164              		.cfi_def_cfa_offset 0
 165 0018 7047     		bx	lr
 166              	.L10:
 167 001a 00BF     		.align	2
 168              	.L9:
 169 001c 31510040 		.word	1073762609
ARM GAS  C:\Users\DEREKM~1\AppData\Local\Temp\cc6Opqfm.s 			page 6


 170              		.cfi_endproc
 171              	.LFE2:
 172              		.size	BUTTON_1_Read, .-BUTTON_1_Read
 173              		.section	.text.BUTTON_1_ReadDataReg,"ax",%progbits
 174              		.align	2
 175              		.global	BUTTON_1_ReadDataReg
 176              		.thumb
 177              		.thumb_func
 178              		.type	BUTTON_1_ReadDataReg, %function
 179              	BUTTON_1_ReadDataReg:
 180              	.LFB3:
 117:Generated_Source\PSoC5/BUTTON_1.c **** 
 118:Generated_Source\PSoC5/BUTTON_1.c **** 
 119:Generated_Source\PSoC5/BUTTON_1.c **** /*******************************************************************************
 120:Generated_Source\PSoC5/BUTTON_1.c **** * Function Name: BUTTON_1_ReadDataReg
 121:Generated_Source\PSoC5/BUTTON_1.c **** ****************************************************************************//**
 122:Generated_Source\PSoC5/BUTTON_1.c **** *
 123:Generated_Source\PSoC5/BUTTON_1.c **** * \brief Reads the associated physical port's data output register and masks 
 124:Generated_Source\PSoC5/BUTTON_1.c **** *  the correct bits according to the width and bit position of the component 
 125:Generated_Source\PSoC5/BUTTON_1.c **** *  instance. 
 126:Generated_Source\PSoC5/BUTTON_1.c **** *
 127:Generated_Source\PSoC5/BUTTON_1.c **** * The data output register controls the signal applied to the physical pin in 
 128:Generated_Source\PSoC5/BUTTON_1.c **** * conjunction with the drive mode parameter. This is not the same as the 
 129:Generated_Source\PSoC5/BUTTON_1.c **** * preferred BUTTON_1_Read() API because the 
 130:Generated_Source\PSoC5/BUTTON_1.c **** * BUTTON_1_ReadDataReg() reads the data register instead of the status 
 131:Generated_Source\PSoC5/BUTTON_1.c **** * register. For output pins this is a useful function to determine the value 
 132:Generated_Source\PSoC5/BUTTON_1.c **** * just written to the pin.
 133:Generated_Source\PSoC5/BUTTON_1.c **** *
 134:Generated_Source\PSoC5/BUTTON_1.c **** * \return 
 135:Generated_Source\PSoC5/BUTTON_1.c **** *  The current value of the data register masked and shifted into a right 
 136:Generated_Source\PSoC5/BUTTON_1.c **** *  justified number for the component instance.
 137:Generated_Source\PSoC5/BUTTON_1.c **** *
 138:Generated_Source\PSoC5/BUTTON_1.c **** * \funcusage
 139:Generated_Source\PSoC5/BUTTON_1.c **** *  \snippet BUTTON_1_SUT.c usage_BUTTON_1_ReadDataReg 
 140:Generated_Source\PSoC5/BUTTON_1.c **** *******************************************************************************/
 141:Generated_Source\PSoC5/BUTTON_1.c **** uint8 BUTTON_1_ReadDataReg(void)
 142:Generated_Source\PSoC5/BUTTON_1.c **** {
 181              		.loc 1 142 0
 182              		.cfi_startproc
 183              		@ args = 0, pretend = 0, frame = 0
 184              		@ frame_needed = 1, uses_anonymous_args = 0
 185              		@ link register save eliminated.
 186 0000 80B4     		push	{r7}
 187              		.cfi_def_cfa_offset 4
 188              		.cfi_offset 7, -4
 189 0002 00AF     		add	r7, sp, #0
 190              		.cfi_def_cfa_register 7
 143:Generated_Source\PSoC5/BUTTON_1.c ****     return (BUTTON_1_DR & BUTTON_1_MASK) >> BUTTON_1_SHIFT;
 191              		.loc 1 143 0
 192 0004 054B     		ldr	r3, .L13
 193 0006 1B78     		ldrb	r3, [r3]
 194 0008 DBB2     		uxtb	r3, r3
 195 000a 03F01003 		and	r3, r3, #16
 196 000e 1B09     		lsrs	r3, r3, #4
 197 0010 DBB2     		uxtb	r3, r3
 144:Generated_Source\PSoC5/BUTTON_1.c **** }
 198              		.loc 1 144 0
ARM GAS  C:\Users\DEREKM~1\AppData\Local\Temp\cc6Opqfm.s 			page 7


 199 0012 1846     		mov	r0, r3
 200 0014 BD46     		mov	sp, r7
 201              		.cfi_def_cfa_register 13
 202              		@ sp needed
 203 0016 80BC     		pop	{r7}
 204              		.cfi_restore 7
 205              		.cfi_def_cfa_offset 0
 206 0018 7047     		bx	lr
 207              	.L14:
 208 001a 00BF     		.align	2
 209              	.L13:
 210 001c 30510040 		.word	1073762608
 211              		.cfi_endproc
 212              	.LFE3:
 213              		.size	BUTTON_1_ReadDataReg, .-BUTTON_1_ReadDataReg
 214              		.section	.text.BUTTON_1_SetInterruptMode,"ax",%progbits
 215              		.align	2
 216              		.global	BUTTON_1_SetInterruptMode
 217              		.thumb
 218              		.thumb_func
 219              		.type	BUTTON_1_SetInterruptMode, %function
 220              	BUTTON_1_SetInterruptMode:
 221              	.LFB4:
 145:Generated_Source\PSoC5/BUTTON_1.c **** 
 146:Generated_Source\PSoC5/BUTTON_1.c **** 
 147:Generated_Source\PSoC5/BUTTON_1.c **** /* If interrupt is connected for this Pins component */ 
 148:Generated_Source\PSoC5/BUTTON_1.c **** #if defined(BUTTON_1_INTSTAT) 
 149:Generated_Source\PSoC5/BUTTON_1.c **** 
 150:Generated_Source\PSoC5/BUTTON_1.c ****     /*******************************************************************************
 151:Generated_Source\PSoC5/BUTTON_1.c ****     * Function Name: BUTTON_1_SetInterruptMode
 152:Generated_Source\PSoC5/BUTTON_1.c ****     ****************************************************************************//**
 153:Generated_Source\PSoC5/BUTTON_1.c ****     *
 154:Generated_Source\PSoC5/BUTTON_1.c ****     * \brief Configures the interrupt mode for each of the Pins component's
 155:Generated_Source\PSoC5/BUTTON_1.c ****     *  pins. Alternatively you may set the interrupt mode for all the pins
 156:Generated_Source\PSoC5/BUTTON_1.c ****     *  specified in the Pins component.
 157:Generated_Source\PSoC5/BUTTON_1.c ****     *
 158:Generated_Source\PSoC5/BUTTON_1.c ****     *  <b>Note</b> The interrupt is port-wide and therefore any enabled pin
 159:Generated_Source\PSoC5/BUTTON_1.c ****     *  interrupt may trigger it.
 160:Generated_Source\PSoC5/BUTTON_1.c ****     *
 161:Generated_Source\PSoC5/BUTTON_1.c ****     * \param position
 162:Generated_Source\PSoC5/BUTTON_1.c ****     *  The pin position as listed in the Pins component. You may OR these to be 
 163:Generated_Source\PSoC5/BUTTON_1.c ****     *  able to configure the interrupt mode of multiple pins within a Pins 
 164:Generated_Source\PSoC5/BUTTON_1.c ****     *  component. Or you may use BUTTON_1_INTR_ALL to configure the
 165:Generated_Source\PSoC5/BUTTON_1.c ****     *  interrupt mode of all the pins in the Pins component.       
 166:Generated_Source\PSoC5/BUTTON_1.c ****     *  - BUTTON_1_0_INTR       (First pin in the list)
 167:Generated_Source\PSoC5/BUTTON_1.c ****     *  - BUTTON_1_1_INTR       (Second pin in the list)
 168:Generated_Source\PSoC5/BUTTON_1.c ****     *  - ...
 169:Generated_Source\PSoC5/BUTTON_1.c ****     *  - BUTTON_1_INTR_ALL     (All pins in Pins component)
 170:Generated_Source\PSoC5/BUTTON_1.c ****     *
 171:Generated_Source\PSoC5/BUTTON_1.c ****     * \param mode
 172:Generated_Source\PSoC5/BUTTON_1.c ****     *  Interrupt mode for the selected pins. Valid options are documented in
 173:Generated_Source\PSoC5/BUTTON_1.c ****     *  \ref intrMode.
 174:Generated_Source\PSoC5/BUTTON_1.c ****     *
 175:Generated_Source\PSoC5/BUTTON_1.c ****     * \return 
 176:Generated_Source\PSoC5/BUTTON_1.c ****     *  None
 177:Generated_Source\PSoC5/BUTTON_1.c ****     *  
 178:Generated_Source\PSoC5/BUTTON_1.c ****     * \sideeffect
ARM GAS  C:\Users\DEREKM~1\AppData\Local\Temp\cc6Opqfm.s 			page 8


 179:Generated_Source\PSoC5/BUTTON_1.c ****     *  It is recommended that the interrupt be disabled before calling this 
 180:Generated_Source\PSoC5/BUTTON_1.c ****     *  function to avoid unintended interrupt requests. Note that the interrupt
 181:Generated_Source\PSoC5/BUTTON_1.c ****     *  type is port wide, and therefore will trigger for any enabled pin on the 
 182:Generated_Source\PSoC5/BUTTON_1.c ****     *  port.
 183:Generated_Source\PSoC5/BUTTON_1.c ****     *
 184:Generated_Source\PSoC5/BUTTON_1.c ****     * \funcusage
 185:Generated_Source\PSoC5/BUTTON_1.c ****     *  \snippet BUTTON_1_SUT.c usage_BUTTON_1_SetInterruptMode
 186:Generated_Source\PSoC5/BUTTON_1.c ****     *******************************************************************************/
 187:Generated_Source\PSoC5/BUTTON_1.c ****     void BUTTON_1_SetInterruptMode(uint16 position, uint16 mode)
 188:Generated_Source\PSoC5/BUTTON_1.c ****     {
 222              		.loc 1 188 0
 223              		.cfi_startproc
 224              		@ args = 0, pretend = 0, frame = 8
 225              		@ frame_needed = 1, uses_anonymous_args = 0
 226              		@ link register save eliminated.
 227 0000 80B4     		push	{r7}
 228              		.cfi_def_cfa_offset 4
 229              		.cfi_offset 7, -4
 230 0002 83B0     		sub	sp, sp, #12
 231              		.cfi_def_cfa_offset 16
 232 0004 00AF     		add	r7, sp, #0
 233              		.cfi_def_cfa_register 7
 234 0006 0346     		mov	r3, r0
 235 0008 0A46     		mov	r2, r1
 236 000a FB80     		strh	r3, [r7, #6]	@ movhi
 237 000c 1346     		mov	r3, r2	@ movhi
 238 000e BB80     		strh	r3, [r7, #4]	@ movhi
 189:Generated_Source\PSoC5/BUTTON_1.c **** 		if((position & BUTTON_1_0_INTR) != 0u) 
 239              		.loc 1 189 0
 240 0010 FB88     		ldrh	r3, [r7, #6]
 241 0012 03F01003 		and	r3, r3, #16
 242 0016 002B     		cmp	r3, #0
 243 0018 03D0     		beq	.L17
 190:Generated_Source\PSoC5/BUTTON_1.c **** 		{ 
 191:Generated_Source\PSoC5/BUTTON_1.c **** 			 BUTTON_1_0_INTTYPE_REG = (uint8)mode; 
 244              		.loc 1 191 0
 245 001a 044B     		ldr	r3, .L18
 246 001c BA88     		ldrh	r2, [r7, #4]	@ movhi
 247 001e D2B2     		uxtb	r2, r2
 248 0020 1A70     		strb	r2, [r3]
 249              	.L17:
 192:Generated_Source\PSoC5/BUTTON_1.c **** 		}
 193:Generated_Source\PSoC5/BUTTON_1.c ****     }
 250              		.loc 1 193 0
 251 0022 00BF     		nop
 252 0024 0C37     		adds	r7, r7, #12
 253              		.cfi_def_cfa_offset 4
 254 0026 BD46     		mov	sp, r7
 255              		.cfi_def_cfa_register 13
 256              		@ sp needed
 257 0028 80BC     		pop	{r7}
 258              		.cfi_restore 7
 259              		.cfi_def_cfa_offset 0
 260 002a 7047     		bx	lr
 261              	.L19:
 262              		.align	2
 263              	.L18:
ARM GAS  C:\Users\DEREKM~1\AppData\Local\Temp\cc6Opqfm.s 			page 9


 264 002c 1C450040 		.word	1073759516
 265              		.cfi_endproc
 266              	.LFE4:
 267              		.size	BUTTON_1_SetInterruptMode, .-BUTTON_1_SetInterruptMode
 268              		.section	.text.BUTTON_1_ClearInterrupt,"ax",%progbits
 269              		.align	2
 270              		.global	BUTTON_1_ClearInterrupt
 271              		.thumb
 272              		.thumb_func
 273              		.type	BUTTON_1_ClearInterrupt, %function
 274              	BUTTON_1_ClearInterrupt:
 275              	.LFB5:
 194:Generated_Source\PSoC5/BUTTON_1.c ****     
 195:Generated_Source\PSoC5/BUTTON_1.c ****     
 196:Generated_Source\PSoC5/BUTTON_1.c ****     /*******************************************************************************
 197:Generated_Source\PSoC5/BUTTON_1.c ****     * Function Name: BUTTON_1_ClearInterrupt
 198:Generated_Source\PSoC5/BUTTON_1.c ****     ****************************************************************************//**
 199:Generated_Source\PSoC5/BUTTON_1.c ****     *
 200:Generated_Source\PSoC5/BUTTON_1.c ****     * \brief Clears any active interrupts attached with the component and returns 
 201:Generated_Source\PSoC5/BUTTON_1.c ****     *  the value of the interrupt status register allowing determination of which
 202:Generated_Source\PSoC5/BUTTON_1.c ****     *  pins generated an interrupt event.
 203:Generated_Source\PSoC5/BUTTON_1.c ****     *
 204:Generated_Source\PSoC5/BUTTON_1.c ****     * \return 
 205:Generated_Source\PSoC5/BUTTON_1.c ****     *  The right-shifted current value of the interrupt status register. Each pin 
 206:Generated_Source\PSoC5/BUTTON_1.c ****     *  has one bit set if it generated an interrupt event. For example, bit 0 is 
 207:Generated_Source\PSoC5/BUTTON_1.c ****     *  for pin 0 and bit 1 is for pin 1 of the Pins component.
 208:Generated_Source\PSoC5/BUTTON_1.c ****     *  
 209:Generated_Source\PSoC5/BUTTON_1.c ****     * \sideeffect
 210:Generated_Source\PSoC5/BUTTON_1.c ****     *  Clears all bits of the physical port's interrupt status register, not just
 211:Generated_Source\PSoC5/BUTTON_1.c ****     *  those associated with the Pins component.
 212:Generated_Source\PSoC5/BUTTON_1.c ****     *
 213:Generated_Source\PSoC5/BUTTON_1.c ****     * \funcusage
 214:Generated_Source\PSoC5/BUTTON_1.c ****     *  \snippet BUTTON_1_SUT.c usage_BUTTON_1_ClearInterrupt
 215:Generated_Source\PSoC5/BUTTON_1.c ****     *******************************************************************************/
 216:Generated_Source\PSoC5/BUTTON_1.c ****     uint8 BUTTON_1_ClearInterrupt(void)
 217:Generated_Source\PSoC5/BUTTON_1.c ****     {
 276              		.loc 1 217 0
 277              		.cfi_startproc
 278              		@ args = 0, pretend = 0, frame = 0
 279              		@ frame_needed = 1, uses_anonymous_args = 0
 280              		@ link register save eliminated.
 281 0000 80B4     		push	{r7}
 282              		.cfi_def_cfa_offset 4
 283              		.cfi_offset 7, -4
 284 0002 00AF     		add	r7, sp, #0
 285              		.cfi_def_cfa_register 7
 218:Generated_Source\PSoC5/BUTTON_1.c ****         return (BUTTON_1_INTSTAT & BUTTON_1_MASK) >> BUTTON_1_SHIFT;
 286              		.loc 1 218 0
 287 0004 054B     		ldr	r3, .L22
 288 0006 1B78     		ldrb	r3, [r3]
 289 0008 DBB2     		uxtb	r3, r3
 290 000a 03F01003 		and	r3, r3, #16
 291 000e 1B09     		lsrs	r3, r3, #4
 292 0010 DBB2     		uxtb	r3, r3
 219:Generated_Source\PSoC5/BUTTON_1.c ****     }
 293              		.loc 1 219 0
 294 0012 1846     		mov	r0, r3
ARM GAS  C:\Users\DEREKM~1\AppData\Local\Temp\cc6Opqfm.s 			page 10


 295 0014 BD46     		mov	sp, r7
 296              		.cfi_def_cfa_register 13
 297              		@ sp needed
 298 0016 80BC     		pop	{r7}
 299              		.cfi_restore 7
 300              		.cfi_def_cfa_offset 0
 301 0018 7047     		bx	lr
 302              	.L23:
 303 001a 00BF     		.align	2
 304              	.L22:
 305 001c 83450040 		.word	1073759619
 306              		.cfi_endproc
 307              	.LFE5:
 308              		.size	BUTTON_1_ClearInterrupt, .-BUTTON_1_ClearInterrupt
 309              		.text
 310              	.Letext0:
 311              		.file 2 "Generated_Source\\PSoC5\\cytypes.h"
