ARM GAS  C:\Users\DEREKM~1\AppData\Local\Temp\ccqd8xXD.s 			page 1


   1              		.syntax unified
   2              		.cpu cortex-m3
   3              		.fpu softvfp
   4              		.eabi_attribute 20, 1
   5              		.eabi_attribute 21, 1
   6              		.eabi_attribute 23, 3
   7              		.eabi_attribute 24, 1
   8              		.eabi_attribute 25, 1
   9              		.eabi_attribute 26, 1
  10              		.eabi_attribute 30, 6
  11              		.eabi_attribute 34, 1
  12              		.eabi_attribute 18, 4
  13              		.thumb
  14              		.syntax unified
  15              		.file	"High_Frequency_PWM_0_PM.c"
  16              		.text
  17              	.Ltext0:
  18              		.cfi_sections	.debug_frame
  19              		.bss
  20              		.align	2
  21              	High_Frequency_PWM_0_backup:
  22 0000 00000000 		.space	8
  22      00000000 
  23              		.section	.text.High_Frequency_PWM_0_SaveConfig,"ax",%progbits
  24              		.align	2
  25              		.global	High_Frequency_PWM_0_SaveConfig
  26              		.thumb
  27              		.thumb_func
  28              		.type	High_Frequency_PWM_0_SaveConfig, %function
  29              	High_Frequency_PWM_0_SaveConfig:
  30              	.LFB0:
  31              		.file 1 "Generated_Source\\PSoC5\\High_Frequency_PWM_0_PM.c"
   1:Generated_Source\PSoC5/High_Frequency_PWM_0_PM.c **** /*******************************************************************************
   2:Generated_Source\PSoC5/High_Frequency_PWM_0_PM.c **** * File Name: High_Frequency_PWM_0_PM.c
   3:Generated_Source\PSoC5/High_Frequency_PWM_0_PM.c **** * Version 3.30
   4:Generated_Source\PSoC5/High_Frequency_PWM_0_PM.c **** *
   5:Generated_Source\PSoC5/High_Frequency_PWM_0_PM.c **** * Description:
   6:Generated_Source\PSoC5/High_Frequency_PWM_0_PM.c **** *  This file provides the power management source code to API for the
   7:Generated_Source\PSoC5/High_Frequency_PWM_0_PM.c **** *  PWM.
   8:Generated_Source\PSoC5/High_Frequency_PWM_0_PM.c **** *
   9:Generated_Source\PSoC5/High_Frequency_PWM_0_PM.c **** * Note:
  10:Generated_Source\PSoC5/High_Frequency_PWM_0_PM.c **** *
  11:Generated_Source\PSoC5/High_Frequency_PWM_0_PM.c **** ********************************************************************************
  12:Generated_Source\PSoC5/High_Frequency_PWM_0_PM.c **** * Copyright 2008-2014, Cypress Semiconductor Corporation.  All rights reserved.
  13:Generated_Source\PSoC5/High_Frequency_PWM_0_PM.c **** * You may use this file only in accordance with the license, terms, conditions,
  14:Generated_Source\PSoC5/High_Frequency_PWM_0_PM.c **** * disclaimers, and limitations in the end user license agreement accompanying
  15:Generated_Source\PSoC5/High_Frequency_PWM_0_PM.c **** * the software package with which this file was provided.
  16:Generated_Source\PSoC5/High_Frequency_PWM_0_PM.c **** *******************************************************************************/
  17:Generated_Source\PSoC5/High_Frequency_PWM_0_PM.c **** 
  18:Generated_Source\PSoC5/High_Frequency_PWM_0_PM.c **** #include "High_Frequency_PWM_0.h"
  19:Generated_Source\PSoC5/High_Frequency_PWM_0_PM.c **** 
  20:Generated_Source\PSoC5/High_Frequency_PWM_0_PM.c **** static High_Frequency_PWM_0_backupStruct High_Frequency_PWM_0_backup;
  21:Generated_Source\PSoC5/High_Frequency_PWM_0_PM.c **** 
  22:Generated_Source\PSoC5/High_Frequency_PWM_0_PM.c **** 
  23:Generated_Source\PSoC5/High_Frequency_PWM_0_PM.c **** /*******************************************************************************
  24:Generated_Source\PSoC5/High_Frequency_PWM_0_PM.c **** * Function Name: High_Frequency_PWM_0_SaveConfig
  25:Generated_Source\PSoC5/High_Frequency_PWM_0_PM.c **** ********************************************************************************
ARM GAS  C:\Users\DEREKM~1\AppData\Local\Temp\ccqd8xXD.s 			page 2


  26:Generated_Source\PSoC5/High_Frequency_PWM_0_PM.c **** *
  27:Generated_Source\PSoC5/High_Frequency_PWM_0_PM.c **** * Summary:
  28:Generated_Source\PSoC5/High_Frequency_PWM_0_PM.c **** *  Saves the current user configuration of the component.
  29:Generated_Source\PSoC5/High_Frequency_PWM_0_PM.c **** *
  30:Generated_Source\PSoC5/High_Frequency_PWM_0_PM.c **** * Parameters:
  31:Generated_Source\PSoC5/High_Frequency_PWM_0_PM.c **** *  None
  32:Generated_Source\PSoC5/High_Frequency_PWM_0_PM.c **** *
  33:Generated_Source\PSoC5/High_Frequency_PWM_0_PM.c **** * Return:
  34:Generated_Source\PSoC5/High_Frequency_PWM_0_PM.c **** *  None
  35:Generated_Source\PSoC5/High_Frequency_PWM_0_PM.c **** *
  36:Generated_Source\PSoC5/High_Frequency_PWM_0_PM.c **** * Global variables:
  37:Generated_Source\PSoC5/High_Frequency_PWM_0_PM.c **** *  High_Frequency_PWM_0_backup:  Variables of this global structure are modified to
  38:Generated_Source\PSoC5/High_Frequency_PWM_0_PM.c **** *  store the values of non retention configuration registers when Sleep() API is
  39:Generated_Source\PSoC5/High_Frequency_PWM_0_PM.c **** *  called.
  40:Generated_Source\PSoC5/High_Frequency_PWM_0_PM.c **** *
  41:Generated_Source\PSoC5/High_Frequency_PWM_0_PM.c **** *******************************************************************************/
  42:Generated_Source\PSoC5/High_Frequency_PWM_0_PM.c **** void High_Frequency_PWM_0_SaveConfig(void) 
  43:Generated_Source\PSoC5/High_Frequency_PWM_0_PM.c **** {
  32              		.loc 1 43 0
  33              		.cfi_startproc
  34              		@ args = 0, pretend = 0, frame = 0
  35              		@ frame_needed = 1, uses_anonymous_args = 0
  36 0000 80B5     		push	{r7, lr}
  37              		.cfi_def_cfa_offset 8
  38              		.cfi_offset 7, -8
  39              		.cfi_offset 14, -4
  40 0002 00AF     		add	r7, sp, #0
  41              		.cfi_def_cfa_register 7
  44:Generated_Source\PSoC5/High_Frequency_PWM_0_PM.c **** 
  45:Generated_Source\PSoC5/High_Frequency_PWM_0_PM.c ****     #if(!High_Frequency_PWM_0_UsingFixedFunction)
  46:Generated_Source\PSoC5/High_Frequency_PWM_0_PM.c ****         #if(!High_Frequency_PWM_0_PWMModeIsCenterAligned)
  47:Generated_Source\PSoC5/High_Frequency_PWM_0_PM.c ****             High_Frequency_PWM_0_backup.PWMPeriod = High_Frequency_PWM_0_ReadPeriod();
  42              		.loc 1 47 0
  43 0004 FFF7FEFF 		bl	High_Frequency_PWM_0_ReadPeriod
  44 0008 0346     		mov	r3, r0
  45 000a 1A46     		mov	r2, r3
  46 000c 0A4B     		ldr	r3, .L2
  47 000e 9A80     		strh	r2, [r3, #4]	@ movhi
  48:Generated_Source\PSoC5/High_Frequency_PWM_0_PM.c ****         #endif /* (!High_Frequency_PWM_0_PWMModeIsCenterAligned) */
  49:Generated_Source\PSoC5/High_Frequency_PWM_0_PM.c ****         High_Frequency_PWM_0_backup.PWMUdb = High_Frequency_PWM_0_ReadCounter();
  48              		.loc 1 49 0
  49 0010 FFF7FEFF 		bl	High_Frequency_PWM_0_ReadCounter
  50 0014 0346     		mov	r3, r0
  51 0016 1A46     		mov	r2, r3
  52 0018 074B     		ldr	r3, .L2
  53 001a 5A80     		strh	r2, [r3, #2]	@ movhi
  50:Generated_Source\PSoC5/High_Frequency_PWM_0_PM.c ****         #if (High_Frequency_PWM_0_UseStatus)
  51:Generated_Source\PSoC5/High_Frequency_PWM_0_PM.c ****             High_Frequency_PWM_0_backup.InterruptMaskValue = High_Frequency_PWM_0_STATUS_MASK;
  54              		.loc 1 51 0
  55 001c 074B     		ldr	r3, .L2+4
  56 001e 1B78     		ldrb	r3, [r3]
  57 0020 DAB2     		uxtb	r2, r3
  58 0022 054B     		ldr	r3, .L2
  59 0024 9A71     		strb	r2, [r3, #6]
  52:Generated_Source\PSoC5/High_Frequency_PWM_0_PM.c ****         #endif /* (High_Frequency_PWM_0_UseStatus) */
  53:Generated_Source\PSoC5/High_Frequency_PWM_0_PM.c **** 
  54:Generated_Source\PSoC5/High_Frequency_PWM_0_PM.c ****         #if(High_Frequency_PWM_0_DeadBandMode == High_Frequency_PWM_0__B_PWM__DBM_256_CLOCKS || \
ARM GAS  C:\Users\DEREKM~1\AppData\Local\Temp\ccqd8xXD.s 			page 3


  55:Generated_Source\PSoC5/High_Frequency_PWM_0_PM.c ****             High_Frequency_PWM_0_DeadBandMode == High_Frequency_PWM_0__B_PWM__DBM_2_4_CLOCKS)
  56:Generated_Source\PSoC5/High_Frequency_PWM_0_PM.c ****             High_Frequency_PWM_0_backup.PWMdeadBandValue = High_Frequency_PWM_0_ReadDeadTime();
  57:Generated_Source\PSoC5/High_Frequency_PWM_0_PM.c ****         #endif /*  deadband count is either 2-4 clocks or 256 clocks */
  58:Generated_Source\PSoC5/High_Frequency_PWM_0_PM.c **** 
  59:Generated_Source\PSoC5/High_Frequency_PWM_0_PM.c ****         #if(High_Frequency_PWM_0_KillModeMinTime)
  60:Generated_Source\PSoC5/High_Frequency_PWM_0_PM.c ****              High_Frequency_PWM_0_backup.PWMKillCounterPeriod = High_Frequency_PWM_0_ReadKillTime()
  61:Generated_Source\PSoC5/High_Frequency_PWM_0_PM.c ****         #endif /* (High_Frequency_PWM_0_KillModeMinTime) */
  62:Generated_Source\PSoC5/High_Frequency_PWM_0_PM.c **** 
  63:Generated_Source\PSoC5/High_Frequency_PWM_0_PM.c ****         #if(High_Frequency_PWM_0_UseControl)
  64:Generated_Source\PSoC5/High_Frequency_PWM_0_PM.c ****             High_Frequency_PWM_0_backup.PWMControlRegister = High_Frequency_PWM_0_ReadControlRegist
  60              		.loc 1 64 0
  61 0026 FFF7FEFF 		bl	High_Frequency_PWM_0_ReadControlRegister
  62 002a 0346     		mov	r3, r0
  63 002c 1A46     		mov	r2, r3
  64 002e 024B     		ldr	r3, .L2
  65 0030 DA71     		strb	r2, [r3, #7]
  65:Generated_Source\PSoC5/High_Frequency_PWM_0_PM.c ****         #endif /* (High_Frequency_PWM_0_UseControl) */
  66:Generated_Source\PSoC5/High_Frequency_PWM_0_PM.c ****     #endif  /* (!High_Frequency_PWM_0_UsingFixedFunction) */
  67:Generated_Source\PSoC5/High_Frequency_PWM_0_PM.c **** }
  66              		.loc 1 67 0
  67 0032 00BF     		nop
  68 0034 80BD     		pop	{r7, pc}
  69              	.L3:
  70 0036 00BF     		.align	2
  71              	.L2:
  72 0038 00000000 		.word	High_Frequency_PWM_0_backup
  73 003c 8B640040 		.word	1073767563
  74              		.cfi_endproc
  75              	.LFE0:
  76              		.size	High_Frequency_PWM_0_SaveConfig, .-High_Frequency_PWM_0_SaveConfig
  77              		.section	.text.High_Frequency_PWM_0_RestoreConfig,"ax",%progbits
  78              		.align	2
  79              		.global	High_Frequency_PWM_0_RestoreConfig
  80              		.thumb
  81              		.thumb_func
  82              		.type	High_Frequency_PWM_0_RestoreConfig, %function
  83              	High_Frequency_PWM_0_RestoreConfig:
  84              	.LFB1:
  68:Generated_Source\PSoC5/High_Frequency_PWM_0_PM.c **** 
  69:Generated_Source\PSoC5/High_Frequency_PWM_0_PM.c **** 
  70:Generated_Source\PSoC5/High_Frequency_PWM_0_PM.c **** /*******************************************************************************
  71:Generated_Source\PSoC5/High_Frequency_PWM_0_PM.c **** * Function Name: High_Frequency_PWM_0_RestoreConfig
  72:Generated_Source\PSoC5/High_Frequency_PWM_0_PM.c **** ********************************************************************************
  73:Generated_Source\PSoC5/High_Frequency_PWM_0_PM.c **** *
  74:Generated_Source\PSoC5/High_Frequency_PWM_0_PM.c **** * Summary:
  75:Generated_Source\PSoC5/High_Frequency_PWM_0_PM.c **** *  Restores the current user configuration of the component.
  76:Generated_Source\PSoC5/High_Frequency_PWM_0_PM.c **** *
  77:Generated_Source\PSoC5/High_Frequency_PWM_0_PM.c **** * Parameters:
  78:Generated_Source\PSoC5/High_Frequency_PWM_0_PM.c **** *  None
  79:Generated_Source\PSoC5/High_Frequency_PWM_0_PM.c **** *
  80:Generated_Source\PSoC5/High_Frequency_PWM_0_PM.c **** * Return:
  81:Generated_Source\PSoC5/High_Frequency_PWM_0_PM.c **** *  None
  82:Generated_Source\PSoC5/High_Frequency_PWM_0_PM.c **** *
  83:Generated_Source\PSoC5/High_Frequency_PWM_0_PM.c **** * Global variables:
  84:Generated_Source\PSoC5/High_Frequency_PWM_0_PM.c **** *  High_Frequency_PWM_0_backup:  Variables of this global structure are used to
  85:Generated_Source\PSoC5/High_Frequency_PWM_0_PM.c **** *  restore the values of non retention registers on wakeup from sleep mode.
  86:Generated_Source\PSoC5/High_Frequency_PWM_0_PM.c **** *
ARM GAS  C:\Users\DEREKM~1\AppData\Local\Temp\ccqd8xXD.s 			page 4


  87:Generated_Source\PSoC5/High_Frequency_PWM_0_PM.c **** *******************************************************************************/
  88:Generated_Source\PSoC5/High_Frequency_PWM_0_PM.c **** void High_Frequency_PWM_0_RestoreConfig(void) 
  89:Generated_Source\PSoC5/High_Frequency_PWM_0_PM.c **** {
  85              		.loc 1 89 0
  86              		.cfi_startproc
  87              		@ args = 0, pretend = 0, frame = 0
  88              		@ frame_needed = 1, uses_anonymous_args = 0
  89 0000 80B5     		push	{r7, lr}
  90              		.cfi_def_cfa_offset 8
  91              		.cfi_offset 7, -8
  92              		.cfi_offset 14, -4
  93 0002 00AF     		add	r7, sp, #0
  94              		.cfi_def_cfa_register 7
  90:Generated_Source\PSoC5/High_Frequency_PWM_0_PM.c ****         #if(!High_Frequency_PWM_0_UsingFixedFunction)
  91:Generated_Source\PSoC5/High_Frequency_PWM_0_PM.c ****             #if(!High_Frequency_PWM_0_PWMModeIsCenterAligned)
  92:Generated_Source\PSoC5/High_Frequency_PWM_0_PM.c ****                 High_Frequency_PWM_0_WritePeriod(High_Frequency_PWM_0_backup.PWMPeriod);
  95              		.loc 1 92 0
  96 0004 0A4B     		ldr	r3, .L5
  97 0006 9B88     		ldrh	r3, [r3, #4]
  98 0008 1846     		mov	r0, r3
  99 000a FFF7FEFF 		bl	High_Frequency_PWM_0_WritePeriod
  93:Generated_Source\PSoC5/High_Frequency_PWM_0_PM.c ****             #endif /* (!High_Frequency_PWM_0_PWMModeIsCenterAligned) */
  94:Generated_Source\PSoC5/High_Frequency_PWM_0_PM.c **** 
  95:Generated_Source\PSoC5/High_Frequency_PWM_0_PM.c ****             High_Frequency_PWM_0_WriteCounter(High_Frequency_PWM_0_backup.PWMUdb);
 100              		.loc 1 95 0
 101 000e 084B     		ldr	r3, .L5
 102 0010 5B88     		ldrh	r3, [r3, #2]
 103 0012 1846     		mov	r0, r3
 104 0014 FFF7FEFF 		bl	High_Frequency_PWM_0_WriteCounter
  96:Generated_Source\PSoC5/High_Frequency_PWM_0_PM.c **** 
  97:Generated_Source\PSoC5/High_Frequency_PWM_0_PM.c ****             #if (High_Frequency_PWM_0_UseStatus)
  98:Generated_Source\PSoC5/High_Frequency_PWM_0_PM.c ****                 High_Frequency_PWM_0_STATUS_MASK = High_Frequency_PWM_0_backup.InterruptMaskValue;
 105              		.loc 1 98 0
 106 0018 064B     		ldr	r3, .L5+4
 107 001a 054A     		ldr	r2, .L5
 108 001c 9279     		ldrb	r2, [r2, #6]	@ zero_extendqisi2
 109 001e 1A70     		strb	r2, [r3]
  99:Generated_Source\PSoC5/High_Frequency_PWM_0_PM.c ****             #endif /* (High_Frequency_PWM_0_UseStatus) */
 100:Generated_Source\PSoC5/High_Frequency_PWM_0_PM.c **** 
 101:Generated_Source\PSoC5/High_Frequency_PWM_0_PM.c ****             #if(High_Frequency_PWM_0_DeadBandMode == High_Frequency_PWM_0__B_PWM__DBM_256_CLOCKS ||
 102:Generated_Source\PSoC5/High_Frequency_PWM_0_PM.c ****                 High_Frequency_PWM_0_DeadBandMode == High_Frequency_PWM_0__B_PWM__DBM_2_4_CLOCKS)
 103:Generated_Source\PSoC5/High_Frequency_PWM_0_PM.c ****                 High_Frequency_PWM_0_WriteDeadTime(High_Frequency_PWM_0_backup.PWMdeadBandValue);
 104:Generated_Source\PSoC5/High_Frequency_PWM_0_PM.c ****             #endif /* deadband count is either 2-4 clocks or 256 clocks */
 105:Generated_Source\PSoC5/High_Frequency_PWM_0_PM.c **** 
 106:Generated_Source\PSoC5/High_Frequency_PWM_0_PM.c ****             #if(High_Frequency_PWM_0_KillModeMinTime)
 107:Generated_Source\PSoC5/High_Frequency_PWM_0_PM.c ****                 High_Frequency_PWM_0_WriteKillTime(High_Frequency_PWM_0_backup.PWMKillCounterPeriod
 108:Generated_Source\PSoC5/High_Frequency_PWM_0_PM.c ****             #endif /* (High_Frequency_PWM_0_KillModeMinTime) */
 109:Generated_Source\PSoC5/High_Frequency_PWM_0_PM.c **** 
 110:Generated_Source\PSoC5/High_Frequency_PWM_0_PM.c ****             #if(High_Frequency_PWM_0_UseControl)
 111:Generated_Source\PSoC5/High_Frequency_PWM_0_PM.c ****                 High_Frequency_PWM_0_WriteControlRegister(High_Frequency_PWM_0_backup.PWMControlReg
 110              		.loc 1 111 0
 111 0020 034B     		ldr	r3, .L5
 112 0022 DB79     		ldrb	r3, [r3, #7]	@ zero_extendqisi2
 113 0024 1846     		mov	r0, r3
 114 0026 FFF7FEFF 		bl	High_Frequency_PWM_0_WriteControlRegister
 112:Generated_Source\PSoC5/High_Frequency_PWM_0_PM.c ****             #endif /* (High_Frequency_PWM_0_UseControl) */
 113:Generated_Source\PSoC5/High_Frequency_PWM_0_PM.c ****         #endif  /* (!High_Frequency_PWM_0_UsingFixedFunction) */
ARM GAS  C:\Users\DEREKM~1\AppData\Local\Temp\ccqd8xXD.s 			page 5


 114:Generated_Source\PSoC5/High_Frequency_PWM_0_PM.c ****     }
 115              		.loc 1 114 0
 116 002a 00BF     		nop
 117 002c 80BD     		pop	{r7, pc}
 118              	.L6:
 119 002e 00BF     		.align	2
 120              	.L5:
 121 0030 00000000 		.word	High_Frequency_PWM_0_backup
 122 0034 8B640040 		.word	1073767563
 123              		.cfi_endproc
 124              	.LFE1:
 125              		.size	High_Frequency_PWM_0_RestoreConfig, .-High_Frequency_PWM_0_RestoreConfig
 126              		.section	.text.High_Frequency_PWM_0_Sleep,"ax",%progbits
 127              		.align	2
 128              		.global	High_Frequency_PWM_0_Sleep
 129              		.thumb
 130              		.thumb_func
 131              		.type	High_Frequency_PWM_0_Sleep, %function
 132              	High_Frequency_PWM_0_Sleep:
 133              	.LFB2:
 115:Generated_Source\PSoC5/High_Frequency_PWM_0_PM.c **** 
 116:Generated_Source\PSoC5/High_Frequency_PWM_0_PM.c **** 
 117:Generated_Source\PSoC5/High_Frequency_PWM_0_PM.c **** /*******************************************************************************
 118:Generated_Source\PSoC5/High_Frequency_PWM_0_PM.c **** * Function Name: High_Frequency_PWM_0_Sleep
 119:Generated_Source\PSoC5/High_Frequency_PWM_0_PM.c **** ********************************************************************************
 120:Generated_Source\PSoC5/High_Frequency_PWM_0_PM.c **** *
 121:Generated_Source\PSoC5/High_Frequency_PWM_0_PM.c **** * Summary:
 122:Generated_Source\PSoC5/High_Frequency_PWM_0_PM.c **** *  Disables block's operation and saves the user configuration. Should be called
 123:Generated_Source\PSoC5/High_Frequency_PWM_0_PM.c **** *  just prior to entering sleep.
 124:Generated_Source\PSoC5/High_Frequency_PWM_0_PM.c **** *
 125:Generated_Source\PSoC5/High_Frequency_PWM_0_PM.c **** * Parameters:
 126:Generated_Source\PSoC5/High_Frequency_PWM_0_PM.c **** *  None
 127:Generated_Source\PSoC5/High_Frequency_PWM_0_PM.c **** *
 128:Generated_Source\PSoC5/High_Frequency_PWM_0_PM.c **** * Return:
 129:Generated_Source\PSoC5/High_Frequency_PWM_0_PM.c **** *  None
 130:Generated_Source\PSoC5/High_Frequency_PWM_0_PM.c **** *
 131:Generated_Source\PSoC5/High_Frequency_PWM_0_PM.c **** * Global variables:
 132:Generated_Source\PSoC5/High_Frequency_PWM_0_PM.c **** *  High_Frequency_PWM_0_backup.PWMEnableState:  Is modified depending on the enable
 133:Generated_Source\PSoC5/High_Frequency_PWM_0_PM.c **** *  state of the block before entering sleep mode.
 134:Generated_Source\PSoC5/High_Frequency_PWM_0_PM.c **** *
 135:Generated_Source\PSoC5/High_Frequency_PWM_0_PM.c **** *******************************************************************************/
 136:Generated_Source\PSoC5/High_Frequency_PWM_0_PM.c **** void High_Frequency_PWM_0_Sleep(void) 
 137:Generated_Source\PSoC5/High_Frequency_PWM_0_PM.c **** {
 134              		.loc 1 137 0
 135              		.cfi_startproc
 136              		@ args = 0, pretend = 0, frame = 0
 137              		@ frame_needed = 1, uses_anonymous_args = 0
 138 0000 80B5     		push	{r7, lr}
 139              		.cfi_def_cfa_offset 8
 140              		.cfi_offset 7, -8
 141              		.cfi_offset 14, -4
 142 0002 00AF     		add	r7, sp, #0
 143              		.cfi_def_cfa_register 7
 138:Generated_Source\PSoC5/High_Frequency_PWM_0_PM.c ****     #if(High_Frequency_PWM_0_UseControl)
 139:Generated_Source\PSoC5/High_Frequency_PWM_0_PM.c ****         if(High_Frequency_PWM_0_CTRL_ENABLE == (High_Frequency_PWM_0_CONTROL & High_Frequency_PWM_0
 144              		.loc 1 139 0
 145 0004 094B     		ldr	r3, .L10
ARM GAS  C:\Users\DEREKM~1\AppData\Local\Temp\ccqd8xXD.s 			page 6


 146 0006 1B78     		ldrb	r3, [r3]
 147 0008 DBB2     		uxtb	r3, r3
 148 000a 5BB2     		sxtb	r3, r3
 149 000c 002B     		cmp	r3, #0
 150 000e 03DA     		bge	.L8
 140:Generated_Source\PSoC5/High_Frequency_PWM_0_PM.c ****         {
 141:Generated_Source\PSoC5/High_Frequency_PWM_0_PM.c ****             /*Component is enabled */
 142:Generated_Source\PSoC5/High_Frequency_PWM_0_PM.c ****             High_Frequency_PWM_0_backup.PWMEnableState = 1u;
 151              		.loc 1 142 0
 152 0010 074B     		ldr	r3, .L10+4
 153 0012 0122     		movs	r2, #1
 154 0014 1A70     		strb	r2, [r3]
 155 0016 02E0     		b	.L9
 156              	.L8:
 143:Generated_Source\PSoC5/High_Frequency_PWM_0_PM.c ****         }
 144:Generated_Source\PSoC5/High_Frequency_PWM_0_PM.c ****         else
 145:Generated_Source\PSoC5/High_Frequency_PWM_0_PM.c ****         {
 146:Generated_Source\PSoC5/High_Frequency_PWM_0_PM.c ****             /* Component is disabled */
 147:Generated_Source\PSoC5/High_Frequency_PWM_0_PM.c ****             High_Frequency_PWM_0_backup.PWMEnableState = 0u;
 157              		.loc 1 147 0
 158 0018 054B     		ldr	r3, .L10+4
 159 001a 0022     		movs	r2, #0
 160 001c 1A70     		strb	r2, [r3]
 161              	.L9:
 148:Generated_Source\PSoC5/High_Frequency_PWM_0_PM.c ****         }
 149:Generated_Source\PSoC5/High_Frequency_PWM_0_PM.c ****     #endif /* (High_Frequency_PWM_0_UseControl) */
 150:Generated_Source\PSoC5/High_Frequency_PWM_0_PM.c **** 
 151:Generated_Source\PSoC5/High_Frequency_PWM_0_PM.c ****     /* Stop component */
 152:Generated_Source\PSoC5/High_Frequency_PWM_0_PM.c ****     High_Frequency_PWM_0_Stop();
 162              		.loc 1 152 0
 163 001e FFF7FEFF 		bl	High_Frequency_PWM_0_Stop
 153:Generated_Source\PSoC5/High_Frequency_PWM_0_PM.c **** 
 154:Generated_Source\PSoC5/High_Frequency_PWM_0_PM.c ****     /* Save registers configuration */
 155:Generated_Source\PSoC5/High_Frequency_PWM_0_PM.c ****     High_Frequency_PWM_0_SaveConfig();
 164              		.loc 1 155 0
 165 0022 FFF7FEFF 		bl	High_Frequency_PWM_0_SaveConfig
 156:Generated_Source\PSoC5/High_Frequency_PWM_0_PM.c **** }
 166              		.loc 1 156 0
 167 0026 00BF     		nop
 168 0028 80BD     		pop	{r7, pc}
 169              	.L11:
 170 002a 00BF     		.align	2
 171              	.L10:
 172 002c 7A640040 		.word	1073767546
 173 0030 00000000 		.word	High_Frequency_PWM_0_backup
 174              		.cfi_endproc
 175              	.LFE2:
 176              		.size	High_Frequency_PWM_0_Sleep, .-High_Frequency_PWM_0_Sleep
 177              		.section	.text.High_Frequency_PWM_0_Wakeup,"ax",%progbits
 178              		.align	2
 179              		.global	High_Frequency_PWM_0_Wakeup
 180              		.thumb
 181              		.thumb_func
 182              		.type	High_Frequency_PWM_0_Wakeup, %function
 183              	High_Frequency_PWM_0_Wakeup:
 184              	.LFB3:
 157:Generated_Source\PSoC5/High_Frequency_PWM_0_PM.c **** 
ARM GAS  C:\Users\DEREKM~1\AppData\Local\Temp\ccqd8xXD.s 			page 7


 158:Generated_Source\PSoC5/High_Frequency_PWM_0_PM.c **** 
 159:Generated_Source\PSoC5/High_Frequency_PWM_0_PM.c **** /*******************************************************************************
 160:Generated_Source\PSoC5/High_Frequency_PWM_0_PM.c **** * Function Name: High_Frequency_PWM_0_Wakeup
 161:Generated_Source\PSoC5/High_Frequency_PWM_0_PM.c **** ********************************************************************************
 162:Generated_Source\PSoC5/High_Frequency_PWM_0_PM.c **** *
 163:Generated_Source\PSoC5/High_Frequency_PWM_0_PM.c **** * Summary:
 164:Generated_Source\PSoC5/High_Frequency_PWM_0_PM.c **** *  Restores and enables the user configuration. Should be called just after
 165:Generated_Source\PSoC5/High_Frequency_PWM_0_PM.c **** *  awaking from sleep.
 166:Generated_Source\PSoC5/High_Frequency_PWM_0_PM.c **** *
 167:Generated_Source\PSoC5/High_Frequency_PWM_0_PM.c **** * Parameters:
 168:Generated_Source\PSoC5/High_Frequency_PWM_0_PM.c **** *  None
 169:Generated_Source\PSoC5/High_Frequency_PWM_0_PM.c **** *
 170:Generated_Source\PSoC5/High_Frequency_PWM_0_PM.c **** * Return:
 171:Generated_Source\PSoC5/High_Frequency_PWM_0_PM.c **** *  None
 172:Generated_Source\PSoC5/High_Frequency_PWM_0_PM.c **** *
 173:Generated_Source\PSoC5/High_Frequency_PWM_0_PM.c **** * Global variables:
 174:Generated_Source\PSoC5/High_Frequency_PWM_0_PM.c **** *  High_Frequency_PWM_0_backup.pwmEnable:  Is used to restore the enable state of
 175:Generated_Source\PSoC5/High_Frequency_PWM_0_PM.c **** *  block on wakeup from sleep mode.
 176:Generated_Source\PSoC5/High_Frequency_PWM_0_PM.c **** *
 177:Generated_Source\PSoC5/High_Frequency_PWM_0_PM.c **** *******************************************************************************/
 178:Generated_Source\PSoC5/High_Frequency_PWM_0_PM.c **** void High_Frequency_PWM_0_Wakeup(void) 
 179:Generated_Source\PSoC5/High_Frequency_PWM_0_PM.c **** {
 185              		.loc 1 179 0
 186              		.cfi_startproc
 187              		@ args = 0, pretend = 0, frame = 0
 188              		@ frame_needed = 1, uses_anonymous_args = 0
 189 0000 80B5     		push	{r7, lr}
 190              		.cfi_def_cfa_offset 8
 191              		.cfi_offset 7, -8
 192              		.cfi_offset 14, -4
 193 0002 00AF     		add	r7, sp, #0
 194              		.cfi_def_cfa_register 7
 180:Generated_Source\PSoC5/High_Frequency_PWM_0_PM.c ****      /* Restore registers values */
 181:Generated_Source\PSoC5/High_Frequency_PWM_0_PM.c ****     High_Frequency_PWM_0_RestoreConfig();
 195              		.loc 1 181 0
 196 0004 FFF7FEFF 		bl	High_Frequency_PWM_0_RestoreConfig
 182:Generated_Source\PSoC5/High_Frequency_PWM_0_PM.c **** 
 183:Generated_Source\PSoC5/High_Frequency_PWM_0_PM.c ****     if(High_Frequency_PWM_0_backup.PWMEnableState != 0u)
 197              		.loc 1 183 0
 198 0008 034B     		ldr	r3, .L15
 199 000a 1B78     		ldrb	r3, [r3]	@ zero_extendqisi2
 200 000c 002B     		cmp	r3, #0
 201 000e 01D0     		beq	.L14
 184:Generated_Source\PSoC5/High_Frequency_PWM_0_PM.c ****     {
 185:Generated_Source\PSoC5/High_Frequency_PWM_0_PM.c ****         /* Enable component's operation */
 186:Generated_Source\PSoC5/High_Frequency_PWM_0_PM.c ****         High_Frequency_PWM_0_Enable();
 202              		.loc 1 186 0
 203 0010 FFF7FEFF 		bl	High_Frequency_PWM_0_Enable
 204              	.L14:
 187:Generated_Source\PSoC5/High_Frequency_PWM_0_PM.c ****     } /* Do nothing if component's block was disabled before */
 188:Generated_Source\PSoC5/High_Frequency_PWM_0_PM.c **** 
 189:Generated_Source\PSoC5/High_Frequency_PWM_0_PM.c **** }
 205              		.loc 1 189 0
 206 0014 00BF     		nop
 207 0016 80BD     		pop	{r7, pc}
 208              	.L16:
 209              		.align	2
ARM GAS  C:\Users\DEREKM~1\AppData\Local\Temp\ccqd8xXD.s 			page 8


 210              	.L15:
 211 0018 00000000 		.word	High_Frequency_PWM_0_backup
 212              		.cfi_endproc
 213              	.LFE3:
 214              		.size	High_Frequency_PWM_0_Wakeup, .-High_Frequency_PWM_0_Wakeup
 215              		.text
 216              	.Letext0:
 217              		.file 2 "Generated_Source\\PSoC5\\cytypes.h"
 218              		.file 3 "Generated_Source\\PSoC5\\High_Frequency_PWM_0.h"
