ARM GAS  C:\Users\DEREKM~1\AppData\Local\Temp\cclMHIkB.s 			page 1


   1              		.syntax unified
   2              		.cpu cortex-m3
   3              		.fpu softvfp
   4              		.eabi_attribute 20, 1
   5              		.eabi_attribute 21, 1
   6              		.eabi_attribute 23, 3
   7              		.eabi_attribute 24, 1
   8              		.eabi_attribute 25, 1
   9              		.eabi_attribute 26, 1
  10              		.eabi_attribute 30, 6
  11              		.eabi_attribute 34, 1
  12              		.eabi_attribute 18, 4
  13              		.thumb
  14              		.syntax unified
  15              		.file	"High_Frequency_PWM_1.c"
  16              		.text
  17              	.Ltext0:
  18              		.cfi_sections	.debug_frame
  19              		.global	High_Frequency_PWM_1_initVar
  20              		.bss
  21              		.type	High_Frequency_PWM_1_initVar, %object
  22              		.size	High_Frequency_PWM_1_initVar, 1
  23              	High_Frequency_PWM_1_initVar:
  24 0000 00       		.space	1
  25              		.section	.text.High_Frequency_PWM_1_Start,"ax",%progbits
  26              		.align	2
  27              		.global	High_Frequency_PWM_1_Start
  28              		.thumb
  29              		.thumb_func
  30              		.type	High_Frequency_PWM_1_Start, %function
  31              	High_Frequency_PWM_1_Start:
  32              	.LFB0:
  33              		.file 1 "Generated_Source\\PSoC5\\High_Frequency_PWM_1.c"
   1:Generated_Source\PSoC5/High_Frequency_PWM_1.c **** /*******************************************************************************
   2:Generated_Source\PSoC5/High_Frequency_PWM_1.c **** * File Name: High_Frequency_PWM_1.c
   3:Generated_Source\PSoC5/High_Frequency_PWM_1.c **** * Version 3.30
   4:Generated_Source\PSoC5/High_Frequency_PWM_1.c **** *
   5:Generated_Source\PSoC5/High_Frequency_PWM_1.c **** * Description:
   6:Generated_Source\PSoC5/High_Frequency_PWM_1.c **** *  The PWM User Module consist of an 8 or 16-bit counter with two 8 or 16-bit
   7:Generated_Source\PSoC5/High_Frequency_PWM_1.c **** *  comparitors. Each instance of this user module is capable of generating
   8:Generated_Source\PSoC5/High_Frequency_PWM_1.c **** *  two PWM outputs with the same period. The pulse width is selectable between
   9:Generated_Source\PSoC5/High_Frequency_PWM_1.c **** *  1 and 255/65535. The period is selectable between 2 and 255/65536 clocks.
  10:Generated_Source\PSoC5/High_Frequency_PWM_1.c **** *  The compare value output may be configured to be active when the present
  11:Generated_Source\PSoC5/High_Frequency_PWM_1.c **** *  counter is less than or less than/equal to the compare value.
  12:Generated_Source\PSoC5/High_Frequency_PWM_1.c **** *  A terminal count output is also provided. It generates a pulse one clock
  13:Generated_Source\PSoC5/High_Frequency_PWM_1.c **** *  width wide when the counter is equal to zero.
  14:Generated_Source\PSoC5/High_Frequency_PWM_1.c **** *
  15:Generated_Source\PSoC5/High_Frequency_PWM_1.c **** * Note:
  16:Generated_Source\PSoC5/High_Frequency_PWM_1.c **** *
  17:Generated_Source\PSoC5/High_Frequency_PWM_1.c **** *******************************************************************************
  18:Generated_Source\PSoC5/High_Frequency_PWM_1.c **** * Copyright 2008-2014, Cypress Semiconductor Corporation.  All rights reserved.
  19:Generated_Source\PSoC5/High_Frequency_PWM_1.c **** * You may use this file only in accordance with the license, terms, conditions,
  20:Generated_Source\PSoC5/High_Frequency_PWM_1.c **** * disclaimers, and limitations in the end user license agreement accompanying
  21:Generated_Source\PSoC5/High_Frequency_PWM_1.c **** * the software package with which this file was provided.
  22:Generated_Source\PSoC5/High_Frequency_PWM_1.c **** ********************************************************************************/
  23:Generated_Source\PSoC5/High_Frequency_PWM_1.c **** 
  24:Generated_Source\PSoC5/High_Frequency_PWM_1.c **** #include "High_Frequency_PWM_1.h"
ARM GAS  C:\Users\DEREKM~1\AppData\Local\Temp\cclMHIkB.s 			page 2


  25:Generated_Source\PSoC5/High_Frequency_PWM_1.c **** 
  26:Generated_Source\PSoC5/High_Frequency_PWM_1.c **** /* Error message for removed <resource> through optimization */
  27:Generated_Source\PSoC5/High_Frequency_PWM_1.c **** #ifdef High_Frequency_PWM_1_PWMUDB_genblk1_ctrlreg__REMOVED
  28:Generated_Source\PSoC5/High_Frequency_PWM_1.c ****     #error PWM_v3_30 detected with a constant 0 for the enable or \
  29:Generated_Source\PSoC5/High_Frequency_PWM_1.c ****          constant 1 for reset. This will prevent the component from operating.
  30:Generated_Source\PSoC5/High_Frequency_PWM_1.c **** #endif /* High_Frequency_PWM_1_PWMUDB_genblk1_ctrlreg__REMOVED */
  31:Generated_Source\PSoC5/High_Frequency_PWM_1.c **** 
  32:Generated_Source\PSoC5/High_Frequency_PWM_1.c **** uint8 High_Frequency_PWM_1_initVar = 0u;
  33:Generated_Source\PSoC5/High_Frequency_PWM_1.c **** 
  34:Generated_Source\PSoC5/High_Frequency_PWM_1.c **** 
  35:Generated_Source\PSoC5/High_Frequency_PWM_1.c **** /*******************************************************************************
  36:Generated_Source\PSoC5/High_Frequency_PWM_1.c **** * Function Name: High_Frequency_PWM_1_Start
  37:Generated_Source\PSoC5/High_Frequency_PWM_1.c **** ********************************************************************************
  38:Generated_Source\PSoC5/High_Frequency_PWM_1.c **** *
  39:Generated_Source\PSoC5/High_Frequency_PWM_1.c **** * Summary:
  40:Generated_Source\PSoC5/High_Frequency_PWM_1.c **** *  The start function initializes the pwm with the default values, the
  41:Generated_Source\PSoC5/High_Frequency_PWM_1.c **** *  enables the counter to begin counting.  It does not enable interrupts,
  42:Generated_Source\PSoC5/High_Frequency_PWM_1.c **** *  the EnableInt command should be called if interrupt generation is required.
  43:Generated_Source\PSoC5/High_Frequency_PWM_1.c **** *
  44:Generated_Source\PSoC5/High_Frequency_PWM_1.c **** * Parameters:
  45:Generated_Source\PSoC5/High_Frequency_PWM_1.c **** *  None
  46:Generated_Source\PSoC5/High_Frequency_PWM_1.c **** *
  47:Generated_Source\PSoC5/High_Frequency_PWM_1.c **** * Return:
  48:Generated_Source\PSoC5/High_Frequency_PWM_1.c **** *  None
  49:Generated_Source\PSoC5/High_Frequency_PWM_1.c **** *
  50:Generated_Source\PSoC5/High_Frequency_PWM_1.c **** * Global variables:
  51:Generated_Source\PSoC5/High_Frequency_PWM_1.c **** *  High_Frequency_PWM_1_initVar: Is modified when this function is called for the
  52:Generated_Source\PSoC5/High_Frequency_PWM_1.c **** *   first time. Is used to ensure that initialization happens only once.
  53:Generated_Source\PSoC5/High_Frequency_PWM_1.c **** *
  54:Generated_Source\PSoC5/High_Frequency_PWM_1.c **** *******************************************************************************/
  55:Generated_Source\PSoC5/High_Frequency_PWM_1.c **** void High_Frequency_PWM_1_Start(void) 
  56:Generated_Source\PSoC5/High_Frequency_PWM_1.c **** {
  34              		.loc 1 56 0
  35              		.cfi_startproc
  36              		@ args = 0, pretend = 0, frame = 0
  37              		@ frame_needed = 1, uses_anonymous_args = 0
  38 0000 80B5     		push	{r7, lr}
  39              		.cfi_def_cfa_offset 8
  40              		.cfi_offset 7, -8
  41              		.cfi_offset 14, -4
  42 0002 00AF     		add	r7, sp, #0
  43              		.cfi_def_cfa_register 7
  57:Generated_Source\PSoC5/High_Frequency_PWM_1.c ****     /* If not Initialized then initialize all required hardware and software */
  58:Generated_Source\PSoC5/High_Frequency_PWM_1.c ****     if(High_Frequency_PWM_1_initVar == 0u)
  44              		.loc 1 58 0
  45 0004 064B     		ldr	r3, .L3
  46 0006 1B78     		ldrb	r3, [r3]	@ zero_extendqisi2
  47 0008 002B     		cmp	r3, #0
  48 000a 04D1     		bne	.L2
  59:Generated_Source\PSoC5/High_Frequency_PWM_1.c ****     {
  60:Generated_Source\PSoC5/High_Frequency_PWM_1.c ****         High_Frequency_PWM_1_Init();
  49              		.loc 1 60 0
  50 000c FFF7FEFF 		bl	High_Frequency_PWM_1_Init
  61:Generated_Source\PSoC5/High_Frequency_PWM_1.c ****         High_Frequency_PWM_1_initVar = 1u;
  51              		.loc 1 61 0
  52 0010 034B     		ldr	r3, .L3
  53 0012 0122     		movs	r2, #1
ARM GAS  C:\Users\DEREKM~1\AppData\Local\Temp\cclMHIkB.s 			page 3


  54 0014 1A70     		strb	r2, [r3]
  55              	.L2:
  62:Generated_Source\PSoC5/High_Frequency_PWM_1.c ****     }
  63:Generated_Source\PSoC5/High_Frequency_PWM_1.c ****     High_Frequency_PWM_1_Enable();
  56              		.loc 1 63 0
  57 0016 FFF7FEFF 		bl	High_Frequency_PWM_1_Enable
  64:Generated_Source\PSoC5/High_Frequency_PWM_1.c **** 
  65:Generated_Source\PSoC5/High_Frequency_PWM_1.c **** }
  58              		.loc 1 65 0
  59 001a 00BF     		nop
  60 001c 80BD     		pop	{r7, pc}
  61              	.L4:
  62 001e 00BF     		.align	2
  63              	.L3:
  64 0020 00000000 		.word	High_Frequency_PWM_1_initVar
  65              		.cfi_endproc
  66              	.LFE0:
  67              		.size	High_Frequency_PWM_1_Start, .-High_Frequency_PWM_1_Start
  68              		.section	.text.High_Frequency_PWM_1_Init,"ax",%progbits
  69              		.align	2
  70              		.global	High_Frequency_PWM_1_Init
  71              		.thumb
  72              		.thumb_func
  73              		.type	High_Frequency_PWM_1_Init, %function
  74              	High_Frequency_PWM_1_Init:
  75              	.LFB1:
  66:Generated_Source\PSoC5/High_Frequency_PWM_1.c **** 
  67:Generated_Source\PSoC5/High_Frequency_PWM_1.c **** 
  68:Generated_Source\PSoC5/High_Frequency_PWM_1.c **** /*******************************************************************************
  69:Generated_Source\PSoC5/High_Frequency_PWM_1.c **** * Function Name: High_Frequency_PWM_1_Init
  70:Generated_Source\PSoC5/High_Frequency_PWM_1.c **** ********************************************************************************
  71:Generated_Source\PSoC5/High_Frequency_PWM_1.c **** *
  72:Generated_Source\PSoC5/High_Frequency_PWM_1.c **** * Summary:
  73:Generated_Source\PSoC5/High_Frequency_PWM_1.c **** *  Initialize component's parameters to the parameters set by user in the
  74:Generated_Source\PSoC5/High_Frequency_PWM_1.c **** *  customizer of the component placed onto schematic. Usually called in
  75:Generated_Source\PSoC5/High_Frequency_PWM_1.c **** *  High_Frequency_PWM_1_Start().
  76:Generated_Source\PSoC5/High_Frequency_PWM_1.c **** *
  77:Generated_Source\PSoC5/High_Frequency_PWM_1.c **** * Parameters:
  78:Generated_Source\PSoC5/High_Frequency_PWM_1.c **** *  None
  79:Generated_Source\PSoC5/High_Frequency_PWM_1.c **** *
  80:Generated_Source\PSoC5/High_Frequency_PWM_1.c **** * Return:
  81:Generated_Source\PSoC5/High_Frequency_PWM_1.c **** *  None
  82:Generated_Source\PSoC5/High_Frequency_PWM_1.c **** *
  83:Generated_Source\PSoC5/High_Frequency_PWM_1.c **** *******************************************************************************/
  84:Generated_Source\PSoC5/High_Frequency_PWM_1.c **** void High_Frequency_PWM_1_Init(void) 
  85:Generated_Source\PSoC5/High_Frequency_PWM_1.c **** {
  76              		.loc 1 85 0
  77              		.cfi_startproc
  78              		@ args = 0, pretend = 0, frame = 8
  79              		@ frame_needed = 1, uses_anonymous_args = 0
  80 0000 80B5     		push	{r7, lr}
  81              		.cfi_def_cfa_offset 8
  82              		.cfi_offset 7, -8
  83              		.cfi_offset 14, -4
  84 0002 82B0     		sub	sp, sp, #8
  85              		.cfi_def_cfa_offset 16
  86 0004 00AF     		add	r7, sp, #0
ARM GAS  C:\Users\DEREKM~1\AppData\Local\Temp\cclMHIkB.s 			page 4


  87              		.cfi_def_cfa_register 7
  86:Generated_Source\PSoC5/High_Frequency_PWM_1.c ****     #if (High_Frequency_PWM_1_UsingFixedFunction || High_Frequency_PWM_1_UseControl)
  87:Generated_Source\PSoC5/High_Frequency_PWM_1.c ****         uint8 ctrl;
  88:Generated_Source\PSoC5/High_Frequency_PWM_1.c ****     #endif /* (High_Frequency_PWM_1_UsingFixedFunction || High_Frequency_PWM_1_UseControl) */
  89:Generated_Source\PSoC5/High_Frequency_PWM_1.c **** 
  90:Generated_Source\PSoC5/High_Frequency_PWM_1.c ****     #if(!High_Frequency_PWM_1_UsingFixedFunction)
  91:Generated_Source\PSoC5/High_Frequency_PWM_1.c ****         #if(High_Frequency_PWM_1_UseStatus)
  92:Generated_Source\PSoC5/High_Frequency_PWM_1.c ****             /* Interrupt State Backup for Critical Region*/
  93:Generated_Source\PSoC5/High_Frequency_PWM_1.c ****             uint8 High_Frequency_PWM_1_interruptState;
  94:Generated_Source\PSoC5/High_Frequency_PWM_1.c ****         #endif /* (High_Frequency_PWM_1_UseStatus) */
  95:Generated_Source\PSoC5/High_Frequency_PWM_1.c ****     #endif /* (!High_Frequency_PWM_1_UsingFixedFunction) */
  96:Generated_Source\PSoC5/High_Frequency_PWM_1.c **** 
  97:Generated_Source\PSoC5/High_Frequency_PWM_1.c ****     #if (High_Frequency_PWM_1_UsingFixedFunction)
  98:Generated_Source\PSoC5/High_Frequency_PWM_1.c ****         /* You are allowed to write the compare value (FF only) */
  99:Generated_Source\PSoC5/High_Frequency_PWM_1.c ****         High_Frequency_PWM_1_CONTROL |= High_Frequency_PWM_1_CFG0_MODE;
 100:Generated_Source\PSoC5/High_Frequency_PWM_1.c ****         #if (High_Frequency_PWM_1_DeadBand2_4)
 101:Generated_Source\PSoC5/High_Frequency_PWM_1.c ****             High_Frequency_PWM_1_CONTROL |= High_Frequency_PWM_1_CFG0_DB;
 102:Generated_Source\PSoC5/High_Frequency_PWM_1.c ****         #endif /* (High_Frequency_PWM_1_DeadBand2_4) */
 103:Generated_Source\PSoC5/High_Frequency_PWM_1.c **** 
 104:Generated_Source\PSoC5/High_Frequency_PWM_1.c ****         ctrl = High_Frequency_PWM_1_CONTROL3 & ((uint8 )(~High_Frequency_PWM_1_CTRL_CMPMODE1_MASK))
 105:Generated_Source\PSoC5/High_Frequency_PWM_1.c ****         High_Frequency_PWM_1_CONTROL3 = ctrl | High_Frequency_PWM_1_DEFAULT_COMPARE1_MODE;
 106:Generated_Source\PSoC5/High_Frequency_PWM_1.c **** 
 107:Generated_Source\PSoC5/High_Frequency_PWM_1.c ****          /* Clear and Set SYNCTC and SYNCCMP bits of RT1 register */
 108:Generated_Source\PSoC5/High_Frequency_PWM_1.c ****         High_Frequency_PWM_1_RT1 &= ((uint8)(~High_Frequency_PWM_1_RT1_MASK));
 109:Generated_Source\PSoC5/High_Frequency_PWM_1.c ****         High_Frequency_PWM_1_RT1 |= High_Frequency_PWM_1_SYNC;
 110:Generated_Source\PSoC5/High_Frequency_PWM_1.c **** 
 111:Generated_Source\PSoC5/High_Frequency_PWM_1.c ****         /*Enable DSI Sync all all inputs of the PWM*/
 112:Generated_Source\PSoC5/High_Frequency_PWM_1.c ****         High_Frequency_PWM_1_RT1 &= ((uint8)(~High_Frequency_PWM_1_SYNCDSI_MASK));
 113:Generated_Source\PSoC5/High_Frequency_PWM_1.c ****         High_Frequency_PWM_1_RT1 |= High_Frequency_PWM_1_SYNCDSI_EN;
 114:Generated_Source\PSoC5/High_Frequency_PWM_1.c **** 
 115:Generated_Source\PSoC5/High_Frequency_PWM_1.c ****     #elif (High_Frequency_PWM_1_UseControl)
 116:Generated_Source\PSoC5/High_Frequency_PWM_1.c ****         /* Set the default compare mode defined in the parameter */
 117:Generated_Source\PSoC5/High_Frequency_PWM_1.c ****         ctrl = High_Frequency_PWM_1_CONTROL & ((uint8)(~High_Frequency_PWM_1_CTRL_CMPMODE2_MASK)) &
  88              		.loc 1 117 0
  89 0006 204B     		ldr	r3, .L6
  90 0008 1B78     		ldrb	r3, [r3]
  91 000a DBB2     		uxtb	r3, r3
  92 000c 23F03F03 		bic	r3, r3, #63
  93 0010 FB71     		strb	r3, [r7, #7]
 118:Generated_Source\PSoC5/High_Frequency_PWM_1.c ****                 ((uint8)(~High_Frequency_PWM_1_CTRL_CMPMODE1_MASK));
 119:Generated_Source\PSoC5/High_Frequency_PWM_1.c ****         High_Frequency_PWM_1_CONTROL = ctrl | High_Frequency_PWM_1_DEFAULT_COMPARE2_MODE |
  94              		.loc 1 119 0
  95 0012 1D4A     		ldr	r2, .L6
  96 0014 FB79     		ldrb	r3, [r7, #7]
  97 0016 43F00903 		orr	r3, r3, #9
  98 001a DBB2     		uxtb	r3, r3
  99 001c 1370     		strb	r3, [r2]
 120:Generated_Source\PSoC5/High_Frequency_PWM_1.c ****                                    High_Frequency_PWM_1_DEFAULT_COMPARE1_MODE;
 121:Generated_Source\PSoC5/High_Frequency_PWM_1.c ****     #endif /* (High_Frequency_PWM_1_UsingFixedFunction) */
 122:Generated_Source\PSoC5/High_Frequency_PWM_1.c **** 
 123:Generated_Source\PSoC5/High_Frequency_PWM_1.c ****     #if (!High_Frequency_PWM_1_UsingFixedFunction)
 124:Generated_Source\PSoC5/High_Frequency_PWM_1.c ****         #if (High_Frequency_PWM_1_Resolution == 8)
 125:Generated_Source\PSoC5/High_Frequency_PWM_1.c ****             /* Set FIFO 0 to 1 byte register for period*/
 126:Generated_Source\PSoC5/High_Frequency_PWM_1.c ****             High_Frequency_PWM_1_AUX_CONTROLDP0 |= (High_Frequency_PWM_1_AUX_CTRL_FIFO0_CLR);
 127:Generated_Source\PSoC5/High_Frequency_PWM_1.c ****         #else /* (High_Frequency_PWM_1_Resolution == 16)*/
 128:Generated_Source\PSoC5/High_Frequency_PWM_1.c ****             /* Set FIFO 0 to 1 byte register for period */
 129:Generated_Source\PSoC5/High_Frequency_PWM_1.c ****             High_Frequency_PWM_1_AUX_CONTROLDP0 |= (High_Frequency_PWM_1_AUX_CTRL_FIFO0_CLR);
ARM GAS  C:\Users\DEREKM~1\AppData\Local\Temp\cclMHIkB.s 			page 5


 100              		.loc 1 129 0
 101 001e 1B4A     		ldr	r2, .L6+4
 102 0020 1A4B     		ldr	r3, .L6+4
 103 0022 1B78     		ldrb	r3, [r3]
 104 0024 DBB2     		uxtb	r3, r3
 105 0026 43F00103 		orr	r3, r3, #1
 106 002a DBB2     		uxtb	r3, r3
 107 002c 1370     		strb	r3, [r2]
 130:Generated_Source\PSoC5/High_Frequency_PWM_1.c ****             High_Frequency_PWM_1_AUX_CONTROLDP1 |= (High_Frequency_PWM_1_AUX_CTRL_FIFO0_CLR);
 108              		.loc 1 130 0
 109 002e 184A     		ldr	r2, .L6+8
 110 0030 174B     		ldr	r3, .L6+8
 111 0032 1B78     		ldrb	r3, [r3]
 112 0034 DBB2     		uxtb	r3, r3
 113 0036 43F00103 		orr	r3, r3, #1
 114 003a DBB2     		uxtb	r3, r3
 115 003c 1370     		strb	r3, [r2]
 131:Generated_Source\PSoC5/High_Frequency_PWM_1.c ****         #endif /* (High_Frequency_PWM_1_Resolution == 8) */
 132:Generated_Source\PSoC5/High_Frequency_PWM_1.c **** 
 133:Generated_Source\PSoC5/High_Frequency_PWM_1.c ****         High_Frequency_PWM_1_WriteCounter(High_Frequency_PWM_1_INIT_PERIOD_VALUE);
 116              		.loc 1 133 0
 117 003e 40F2F510 		movw	r0, #501
 118 0042 FFF7FEFF 		bl	High_Frequency_PWM_1_WriteCounter
 134:Generated_Source\PSoC5/High_Frequency_PWM_1.c ****     #endif /* (!High_Frequency_PWM_1_UsingFixedFunction) */
 135:Generated_Source\PSoC5/High_Frequency_PWM_1.c **** 
 136:Generated_Source\PSoC5/High_Frequency_PWM_1.c ****     High_Frequency_PWM_1_WritePeriod(High_Frequency_PWM_1_INIT_PERIOD_VALUE);
 119              		.loc 1 136 0
 120 0046 40F2F510 		movw	r0, #501
 121 004a FFF7FEFF 		bl	High_Frequency_PWM_1_WritePeriod
 137:Generated_Source\PSoC5/High_Frequency_PWM_1.c **** 
 138:Generated_Source\PSoC5/High_Frequency_PWM_1.c ****         #if (High_Frequency_PWM_1_UseOneCompareMode)
 139:Generated_Source\PSoC5/High_Frequency_PWM_1.c ****             High_Frequency_PWM_1_WriteCompare(High_Frequency_PWM_1_INIT_COMPARE_VALUE1);
 122              		.loc 1 139 0
 123 004e FA20     		movs	r0, #250
 124 0050 FFF7FEFF 		bl	High_Frequency_PWM_1_WriteCompare
 140:Generated_Source\PSoC5/High_Frequency_PWM_1.c ****         #else
 141:Generated_Source\PSoC5/High_Frequency_PWM_1.c ****             High_Frequency_PWM_1_WriteCompare1(High_Frequency_PWM_1_INIT_COMPARE_VALUE1);
 142:Generated_Source\PSoC5/High_Frequency_PWM_1.c ****             High_Frequency_PWM_1_WriteCompare2(High_Frequency_PWM_1_INIT_COMPARE_VALUE2);
 143:Generated_Source\PSoC5/High_Frequency_PWM_1.c ****         #endif /* (High_Frequency_PWM_1_UseOneCompareMode) */
 144:Generated_Source\PSoC5/High_Frequency_PWM_1.c **** 
 145:Generated_Source\PSoC5/High_Frequency_PWM_1.c ****         #if (High_Frequency_PWM_1_KillModeMinTime)
 146:Generated_Source\PSoC5/High_Frequency_PWM_1.c ****             High_Frequency_PWM_1_WriteKillTime(High_Frequency_PWM_1_MinimumKillTime);
 147:Generated_Source\PSoC5/High_Frequency_PWM_1.c ****         #endif /* (High_Frequency_PWM_1_KillModeMinTime) */
 148:Generated_Source\PSoC5/High_Frequency_PWM_1.c **** 
 149:Generated_Source\PSoC5/High_Frequency_PWM_1.c ****         #if (High_Frequency_PWM_1_DeadBandUsed)
 150:Generated_Source\PSoC5/High_Frequency_PWM_1.c ****             High_Frequency_PWM_1_WriteDeadTime(High_Frequency_PWM_1_INIT_DEAD_TIME);
 151:Generated_Source\PSoC5/High_Frequency_PWM_1.c ****         #endif /* (High_Frequency_PWM_1_DeadBandUsed) */
 152:Generated_Source\PSoC5/High_Frequency_PWM_1.c **** 
 153:Generated_Source\PSoC5/High_Frequency_PWM_1.c ****     #if (High_Frequency_PWM_1_UseStatus || High_Frequency_PWM_1_UsingFixedFunction)
 154:Generated_Source\PSoC5/High_Frequency_PWM_1.c ****         High_Frequency_PWM_1_SetInterruptMode(High_Frequency_PWM_1_INIT_INTERRUPTS_MODE);
 125              		.loc 1 154 0
 126 0054 0020     		movs	r0, #0
 127 0056 FFF7FEFF 		bl	High_Frequency_PWM_1_SetInterruptMode
 155:Generated_Source\PSoC5/High_Frequency_PWM_1.c ****     #endif /* (High_Frequency_PWM_1_UseStatus || High_Frequency_PWM_1_UsingFixedFunction) */
 156:Generated_Source\PSoC5/High_Frequency_PWM_1.c **** 
 157:Generated_Source\PSoC5/High_Frequency_PWM_1.c ****     #if (High_Frequency_PWM_1_UsingFixedFunction)
 158:Generated_Source\PSoC5/High_Frequency_PWM_1.c ****         /* Globally Enable the Fixed Function Block chosen */
ARM GAS  C:\Users\DEREKM~1\AppData\Local\Temp\cclMHIkB.s 			page 6


 159:Generated_Source\PSoC5/High_Frequency_PWM_1.c ****         High_Frequency_PWM_1_GLOBAL_ENABLE |= High_Frequency_PWM_1_BLOCK_EN_MASK;
 160:Generated_Source\PSoC5/High_Frequency_PWM_1.c ****         /* Set the Interrupt source to come from the status register */
 161:Generated_Source\PSoC5/High_Frequency_PWM_1.c ****         High_Frequency_PWM_1_CONTROL2 |= High_Frequency_PWM_1_CTRL2_IRQ_SEL;
 162:Generated_Source\PSoC5/High_Frequency_PWM_1.c ****     #else
 163:Generated_Source\PSoC5/High_Frequency_PWM_1.c ****         #if(High_Frequency_PWM_1_UseStatus)
 164:Generated_Source\PSoC5/High_Frequency_PWM_1.c **** 
 165:Generated_Source\PSoC5/High_Frequency_PWM_1.c ****             /* CyEnterCriticalRegion and CyExitCriticalRegion are used to mark following region cri
 166:Generated_Source\PSoC5/High_Frequency_PWM_1.c ****             /* Enter Critical Region*/
 167:Generated_Source\PSoC5/High_Frequency_PWM_1.c ****             High_Frequency_PWM_1_interruptState = CyEnterCriticalSection();
 128              		.loc 1 167 0
 129 005a FFF7FEFF 		bl	CyEnterCriticalSection
 130 005e 0346     		mov	r3, r0
 131 0060 BB71     		strb	r3, [r7, #6]
 168:Generated_Source\PSoC5/High_Frequency_PWM_1.c ****             /* Use the interrupt output of the status register for IRQ output */
 169:Generated_Source\PSoC5/High_Frequency_PWM_1.c ****             High_Frequency_PWM_1_STATUS_AUX_CTRL |= High_Frequency_PWM_1_STATUS_ACTL_INT_EN_MASK;
 132              		.loc 1 169 0
 133 0062 0B4A     		ldr	r2, .L6+8
 134 0064 0A4B     		ldr	r3, .L6+8
 135 0066 1B78     		ldrb	r3, [r3]
 136 0068 DBB2     		uxtb	r3, r3
 137 006a 43F01003 		orr	r3, r3, #16
 138 006e DBB2     		uxtb	r3, r3
 139 0070 1370     		strb	r3, [r2]
 170:Generated_Source\PSoC5/High_Frequency_PWM_1.c **** 
 171:Generated_Source\PSoC5/High_Frequency_PWM_1.c ****              /* Exit Critical Region*/
 172:Generated_Source\PSoC5/High_Frequency_PWM_1.c ****             CyExitCriticalSection(High_Frequency_PWM_1_interruptState);
 140              		.loc 1 172 0
 141 0072 BB79     		ldrb	r3, [r7, #6]	@ zero_extendqisi2
 142 0074 1846     		mov	r0, r3
 143 0076 FFF7FEFF 		bl	CyExitCriticalSection
 173:Generated_Source\PSoC5/High_Frequency_PWM_1.c **** 
 174:Generated_Source\PSoC5/High_Frequency_PWM_1.c ****             /* Clear the FIFO to enable the High_Frequency_PWM_1_STATUS_FIFOFULL
 175:Generated_Source\PSoC5/High_Frequency_PWM_1.c ****                    bit to be set on FIFO full. */
 176:Generated_Source\PSoC5/High_Frequency_PWM_1.c ****             High_Frequency_PWM_1_ClearFIFO();
 144              		.loc 1 176 0
 145 007a FFF7FEFF 		bl	High_Frequency_PWM_1_ClearFIFO
 177:Generated_Source\PSoC5/High_Frequency_PWM_1.c ****         #endif /* (High_Frequency_PWM_1_UseStatus) */
 178:Generated_Source\PSoC5/High_Frequency_PWM_1.c ****     #endif /* (High_Frequency_PWM_1_UsingFixedFunction) */
 179:Generated_Source\PSoC5/High_Frequency_PWM_1.c **** }
 146              		.loc 1 179 0
 147 007e 00BF     		nop
 148 0080 0837     		adds	r7, r7, #8
 149              		.cfi_def_cfa_offset 8
 150 0082 BD46     		mov	sp, r7
 151              		.cfi_def_cfa_register 13
 152              		@ sp needed
 153 0084 80BD     		pop	{r7, pc}
 154              	.L7:
 155 0086 00BF     		.align	2
 156              	.L6:
 157 0088 7F640040 		.word	1073767551
 158 008c 9E640040 		.word	1073767582
 159 0090 9F640040 		.word	1073767583
 160              		.cfi_endproc
 161              	.LFE1:
 162              		.size	High_Frequency_PWM_1_Init, .-High_Frequency_PWM_1_Init
 163              		.section	.text.High_Frequency_PWM_1_Enable,"ax",%progbits
ARM GAS  C:\Users\DEREKM~1\AppData\Local\Temp\cclMHIkB.s 			page 7


 164              		.align	2
 165              		.global	High_Frequency_PWM_1_Enable
 166              		.thumb
 167              		.thumb_func
 168              		.type	High_Frequency_PWM_1_Enable, %function
 169              	High_Frequency_PWM_1_Enable:
 170              	.LFB2:
 180:Generated_Source\PSoC5/High_Frequency_PWM_1.c **** 
 181:Generated_Source\PSoC5/High_Frequency_PWM_1.c **** 
 182:Generated_Source\PSoC5/High_Frequency_PWM_1.c **** /*******************************************************************************
 183:Generated_Source\PSoC5/High_Frequency_PWM_1.c **** * Function Name: High_Frequency_PWM_1_Enable
 184:Generated_Source\PSoC5/High_Frequency_PWM_1.c **** ********************************************************************************
 185:Generated_Source\PSoC5/High_Frequency_PWM_1.c **** *
 186:Generated_Source\PSoC5/High_Frequency_PWM_1.c **** * Summary:
 187:Generated_Source\PSoC5/High_Frequency_PWM_1.c **** *  Enables the PWM block operation
 188:Generated_Source\PSoC5/High_Frequency_PWM_1.c **** *
 189:Generated_Source\PSoC5/High_Frequency_PWM_1.c **** * Parameters:
 190:Generated_Source\PSoC5/High_Frequency_PWM_1.c **** *  None
 191:Generated_Source\PSoC5/High_Frequency_PWM_1.c **** *
 192:Generated_Source\PSoC5/High_Frequency_PWM_1.c **** * Return:
 193:Generated_Source\PSoC5/High_Frequency_PWM_1.c **** *  None
 194:Generated_Source\PSoC5/High_Frequency_PWM_1.c **** *
 195:Generated_Source\PSoC5/High_Frequency_PWM_1.c **** * Side Effects:
 196:Generated_Source\PSoC5/High_Frequency_PWM_1.c **** *  This works only if software enable mode is chosen
 197:Generated_Source\PSoC5/High_Frequency_PWM_1.c **** *
 198:Generated_Source\PSoC5/High_Frequency_PWM_1.c **** *******************************************************************************/
 199:Generated_Source\PSoC5/High_Frequency_PWM_1.c **** void High_Frequency_PWM_1_Enable(void) 
 200:Generated_Source\PSoC5/High_Frequency_PWM_1.c **** {
 171              		.loc 1 200 0
 172              		.cfi_startproc
 173              		@ args = 0, pretend = 0, frame = 0
 174              		@ frame_needed = 1, uses_anonymous_args = 0
 175              		@ link register save eliminated.
 176 0000 80B4     		push	{r7}
 177              		.cfi_def_cfa_offset 4
 178              		.cfi_offset 7, -4
 179 0002 00AF     		add	r7, sp, #0
 180              		.cfi_def_cfa_register 7
 201:Generated_Source\PSoC5/High_Frequency_PWM_1.c ****     /* Globally Enable the Fixed Function Block chosen */
 202:Generated_Source\PSoC5/High_Frequency_PWM_1.c ****     #if (High_Frequency_PWM_1_UsingFixedFunction)
 203:Generated_Source\PSoC5/High_Frequency_PWM_1.c ****         High_Frequency_PWM_1_GLOBAL_ENABLE |= High_Frequency_PWM_1_BLOCK_EN_MASK;
 204:Generated_Source\PSoC5/High_Frequency_PWM_1.c ****         High_Frequency_PWM_1_GLOBAL_STBY_ENABLE |= High_Frequency_PWM_1_BLOCK_STBY_EN_MASK;
 205:Generated_Source\PSoC5/High_Frequency_PWM_1.c ****     #endif /* (High_Frequency_PWM_1_UsingFixedFunction) */
 206:Generated_Source\PSoC5/High_Frequency_PWM_1.c **** 
 207:Generated_Source\PSoC5/High_Frequency_PWM_1.c ****     /* Enable the PWM from the control register  */
 208:Generated_Source\PSoC5/High_Frequency_PWM_1.c ****     #if (High_Frequency_PWM_1_UseControl || High_Frequency_PWM_1_UsingFixedFunction)
 209:Generated_Source\PSoC5/High_Frequency_PWM_1.c ****         High_Frequency_PWM_1_CONTROL |= High_Frequency_PWM_1_CTRL_ENABLE;
 181              		.loc 1 209 0
 182 0004 054A     		ldr	r2, .L9
 183 0006 054B     		ldr	r3, .L9
 184 0008 1B78     		ldrb	r3, [r3]
 185 000a DBB2     		uxtb	r3, r3
 186 000c 63F07F03 		orn	r3, r3, #127
 187 0010 DBB2     		uxtb	r3, r3
 188 0012 1370     		strb	r3, [r2]
 210:Generated_Source\PSoC5/High_Frequency_PWM_1.c ****     #endif /* (High_Frequency_PWM_1_UseControl || High_Frequency_PWM_1_UsingFixedFunction) */
 211:Generated_Source\PSoC5/High_Frequency_PWM_1.c **** }
ARM GAS  C:\Users\DEREKM~1\AppData\Local\Temp\cclMHIkB.s 			page 8


 189              		.loc 1 211 0
 190 0014 00BF     		nop
 191 0016 BD46     		mov	sp, r7
 192              		.cfi_def_cfa_register 13
 193              		@ sp needed
 194 0018 80BC     		pop	{r7}
 195              		.cfi_restore 7
 196              		.cfi_def_cfa_offset 0
 197 001a 7047     		bx	lr
 198              	.L10:
 199              		.align	2
 200              	.L9:
 201 001c 7F640040 		.word	1073767551
 202              		.cfi_endproc
 203              	.LFE2:
 204              		.size	High_Frequency_PWM_1_Enable, .-High_Frequency_PWM_1_Enable
 205              		.section	.text.High_Frequency_PWM_1_Stop,"ax",%progbits
 206              		.align	2
 207              		.global	High_Frequency_PWM_1_Stop
 208              		.thumb
 209              		.thumb_func
 210              		.type	High_Frequency_PWM_1_Stop, %function
 211              	High_Frequency_PWM_1_Stop:
 212              	.LFB3:
 212:Generated_Source\PSoC5/High_Frequency_PWM_1.c **** 
 213:Generated_Source\PSoC5/High_Frequency_PWM_1.c **** 
 214:Generated_Source\PSoC5/High_Frequency_PWM_1.c **** /*******************************************************************************
 215:Generated_Source\PSoC5/High_Frequency_PWM_1.c **** * Function Name: High_Frequency_PWM_1_Stop
 216:Generated_Source\PSoC5/High_Frequency_PWM_1.c **** ********************************************************************************
 217:Generated_Source\PSoC5/High_Frequency_PWM_1.c **** *
 218:Generated_Source\PSoC5/High_Frequency_PWM_1.c **** * Summary:
 219:Generated_Source\PSoC5/High_Frequency_PWM_1.c **** *  The stop function halts the PWM, but does not change any modes or disable
 220:Generated_Source\PSoC5/High_Frequency_PWM_1.c **** *  interrupts.
 221:Generated_Source\PSoC5/High_Frequency_PWM_1.c **** *
 222:Generated_Source\PSoC5/High_Frequency_PWM_1.c **** * Parameters:
 223:Generated_Source\PSoC5/High_Frequency_PWM_1.c **** *  None
 224:Generated_Source\PSoC5/High_Frequency_PWM_1.c **** *
 225:Generated_Source\PSoC5/High_Frequency_PWM_1.c **** * Return:
 226:Generated_Source\PSoC5/High_Frequency_PWM_1.c **** *  None
 227:Generated_Source\PSoC5/High_Frequency_PWM_1.c **** *
 228:Generated_Source\PSoC5/High_Frequency_PWM_1.c **** * Side Effects:
 229:Generated_Source\PSoC5/High_Frequency_PWM_1.c **** *  If the Enable mode is set to Hardware only then this function
 230:Generated_Source\PSoC5/High_Frequency_PWM_1.c **** *  has no effect on the operation of the PWM
 231:Generated_Source\PSoC5/High_Frequency_PWM_1.c **** *
 232:Generated_Source\PSoC5/High_Frequency_PWM_1.c **** *******************************************************************************/
 233:Generated_Source\PSoC5/High_Frequency_PWM_1.c **** void High_Frequency_PWM_1_Stop(void) 
 234:Generated_Source\PSoC5/High_Frequency_PWM_1.c **** {
 213              		.loc 1 234 0
 214              		.cfi_startproc
 215              		@ args = 0, pretend = 0, frame = 0
 216              		@ frame_needed = 1, uses_anonymous_args = 0
 217              		@ link register save eliminated.
 218 0000 80B4     		push	{r7}
 219              		.cfi_def_cfa_offset 4
 220              		.cfi_offset 7, -4
 221 0002 00AF     		add	r7, sp, #0
 222              		.cfi_def_cfa_register 7
ARM GAS  C:\Users\DEREKM~1\AppData\Local\Temp\cclMHIkB.s 			page 9


 235:Generated_Source\PSoC5/High_Frequency_PWM_1.c ****     #if (High_Frequency_PWM_1_UseControl || High_Frequency_PWM_1_UsingFixedFunction)
 236:Generated_Source\PSoC5/High_Frequency_PWM_1.c ****         High_Frequency_PWM_1_CONTROL &= ((uint8)(~High_Frequency_PWM_1_CTRL_ENABLE));
 223              		.loc 1 236 0
 224 0004 054A     		ldr	r2, .L12
 225 0006 054B     		ldr	r3, .L12
 226 0008 1B78     		ldrb	r3, [r3]
 227 000a DBB2     		uxtb	r3, r3
 228 000c 03F07F03 		and	r3, r3, #127
 229 0010 DBB2     		uxtb	r3, r3
 230 0012 1370     		strb	r3, [r2]
 237:Generated_Source\PSoC5/High_Frequency_PWM_1.c ****     #endif /* (High_Frequency_PWM_1_UseControl || High_Frequency_PWM_1_UsingFixedFunction) */
 238:Generated_Source\PSoC5/High_Frequency_PWM_1.c **** 
 239:Generated_Source\PSoC5/High_Frequency_PWM_1.c ****     /* Globally disable the Fixed Function Block chosen */
 240:Generated_Source\PSoC5/High_Frequency_PWM_1.c ****     #if (High_Frequency_PWM_1_UsingFixedFunction)
 241:Generated_Source\PSoC5/High_Frequency_PWM_1.c ****         High_Frequency_PWM_1_GLOBAL_ENABLE &= ((uint8)(~High_Frequency_PWM_1_BLOCK_EN_MASK));
 242:Generated_Source\PSoC5/High_Frequency_PWM_1.c ****         High_Frequency_PWM_1_GLOBAL_STBY_ENABLE &= ((uint8)(~High_Frequency_PWM_1_BLOCK_STBY_EN_MAS
 243:Generated_Source\PSoC5/High_Frequency_PWM_1.c ****     #endif /* (High_Frequency_PWM_1_UsingFixedFunction) */
 244:Generated_Source\PSoC5/High_Frequency_PWM_1.c **** }
 231              		.loc 1 244 0
 232 0014 00BF     		nop
 233 0016 BD46     		mov	sp, r7
 234              		.cfi_def_cfa_register 13
 235              		@ sp needed
 236 0018 80BC     		pop	{r7}
 237              		.cfi_restore 7
 238              		.cfi_def_cfa_offset 0
 239 001a 7047     		bx	lr
 240              	.L13:
 241              		.align	2
 242              	.L12:
 243 001c 7F640040 		.word	1073767551
 244              		.cfi_endproc
 245              	.LFE3:
 246              		.size	High_Frequency_PWM_1_Stop, .-High_Frequency_PWM_1_Stop
 247              		.section	.text.High_Frequency_PWM_1_WriteCounter,"ax",%progbits
 248              		.align	2
 249              		.global	High_Frequency_PWM_1_WriteCounter
 250              		.thumb
 251              		.thumb_func
 252              		.type	High_Frequency_PWM_1_WriteCounter, %function
 253              	High_Frequency_PWM_1_WriteCounter:
 254              	.LFB4:
 245:Generated_Source\PSoC5/High_Frequency_PWM_1.c **** 
 246:Generated_Source\PSoC5/High_Frequency_PWM_1.c **** #if (High_Frequency_PWM_1_UseOneCompareMode)
 247:Generated_Source\PSoC5/High_Frequency_PWM_1.c ****     #if (High_Frequency_PWM_1_CompareMode1SW)
 248:Generated_Source\PSoC5/High_Frequency_PWM_1.c **** 
 249:Generated_Source\PSoC5/High_Frequency_PWM_1.c **** 
 250:Generated_Source\PSoC5/High_Frequency_PWM_1.c ****         /*******************************************************************************
 251:Generated_Source\PSoC5/High_Frequency_PWM_1.c ****         * Function Name: High_Frequency_PWM_1_SetCompareMode
 252:Generated_Source\PSoC5/High_Frequency_PWM_1.c ****         ********************************************************************************
 253:Generated_Source\PSoC5/High_Frequency_PWM_1.c ****         *
 254:Generated_Source\PSoC5/High_Frequency_PWM_1.c ****         * Summary:
 255:Generated_Source\PSoC5/High_Frequency_PWM_1.c ****         *  This function writes the Compare Mode for the pwm output when in Dither mode,
 256:Generated_Source\PSoC5/High_Frequency_PWM_1.c ****         *  Center Align Mode or One Output Mode.
 257:Generated_Source\PSoC5/High_Frequency_PWM_1.c ****         *
 258:Generated_Source\PSoC5/High_Frequency_PWM_1.c ****         * Parameters:
 259:Generated_Source\PSoC5/High_Frequency_PWM_1.c ****         *  comparemode:  The new compare mode for the PWM output. Use the compare types
ARM GAS  C:\Users\DEREKM~1\AppData\Local\Temp\cclMHIkB.s 			page 10


 260:Generated_Source\PSoC5/High_Frequency_PWM_1.c ****         *                defined in the H file as input arguments.
 261:Generated_Source\PSoC5/High_Frequency_PWM_1.c ****         *
 262:Generated_Source\PSoC5/High_Frequency_PWM_1.c ****         * Return:
 263:Generated_Source\PSoC5/High_Frequency_PWM_1.c ****         *  None
 264:Generated_Source\PSoC5/High_Frequency_PWM_1.c ****         *
 265:Generated_Source\PSoC5/High_Frequency_PWM_1.c ****         *******************************************************************************/
 266:Generated_Source\PSoC5/High_Frequency_PWM_1.c ****         void High_Frequency_PWM_1_SetCompareMode(uint8 comparemode) 
 267:Generated_Source\PSoC5/High_Frequency_PWM_1.c ****         {
 268:Generated_Source\PSoC5/High_Frequency_PWM_1.c ****             #if(High_Frequency_PWM_1_UsingFixedFunction)
 269:Generated_Source\PSoC5/High_Frequency_PWM_1.c **** 
 270:Generated_Source\PSoC5/High_Frequency_PWM_1.c ****                 #if(0 != High_Frequency_PWM_1_CTRL_CMPMODE1_SHIFT)
 271:Generated_Source\PSoC5/High_Frequency_PWM_1.c ****                     uint8 comparemodemasked = ((uint8)((uint8)comparemode << High_Frequency_PWM_1_C
 272:Generated_Source\PSoC5/High_Frequency_PWM_1.c ****                 #else
 273:Generated_Source\PSoC5/High_Frequency_PWM_1.c ****                     uint8 comparemodemasked = comparemode;
 274:Generated_Source\PSoC5/High_Frequency_PWM_1.c ****                 #endif /* (0 != High_Frequency_PWM_1_CTRL_CMPMODE1_SHIFT) */
 275:Generated_Source\PSoC5/High_Frequency_PWM_1.c **** 
 276:Generated_Source\PSoC5/High_Frequency_PWM_1.c ****                 High_Frequency_PWM_1_CONTROL3 &= ((uint8)(~High_Frequency_PWM_1_CTRL_CMPMODE1_MASK)
 277:Generated_Source\PSoC5/High_Frequency_PWM_1.c ****                 High_Frequency_PWM_1_CONTROL3 |= comparemodemasked;
 278:Generated_Source\PSoC5/High_Frequency_PWM_1.c **** 
 279:Generated_Source\PSoC5/High_Frequency_PWM_1.c ****             #elif (High_Frequency_PWM_1_UseControl)
 280:Generated_Source\PSoC5/High_Frequency_PWM_1.c **** 
 281:Generated_Source\PSoC5/High_Frequency_PWM_1.c ****                 #if(0 != High_Frequency_PWM_1_CTRL_CMPMODE1_SHIFT)
 282:Generated_Source\PSoC5/High_Frequency_PWM_1.c ****                     uint8 comparemode1masked = ((uint8)((uint8)comparemode << High_Frequency_PWM_1_
 283:Generated_Source\PSoC5/High_Frequency_PWM_1.c ****                                                 High_Frequency_PWM_1_CTRL_CMPMODE1_MASK;
 284:Generated_Source\PSoC5/High_Frequency_PWM_1.c ****                 #else
 285:Generated_Source\PSoC5/High_Frequency_PWM_1.c ****                     uint8 comparemode1masked = comparemode & High_Frequency_PWM_1_CTRL_CMPMODE1_MAS
 286:Generated_Source\PSoC5/High_Frequency_PWM_1.c ****                 #endif /* (0 != High_Frequency_PWM_1_CTRL_CMPMODE1_SHIFT) */
 287:Generated_Source\PSoC5/High_Frequency_PWM_1.c **** 
 288:Generated_Source\PSoC5/High_Frequency_PWM_1.c ****                 #if(0 != High_Frequency_PWM_1_CTRL_CMPMODE2_SHIFT)
 289:Generated_Source\PSoC5/High_Frequency_PWM_1.c ****                     uint8 comparemode2masked = ((uint8)((uint8)comparemode << High_Frequency_PWM_1_
 290:Generated_Source\PSoC5/High_Frequency_PWM_1.c ****                                                High_Frequency_PWM_1_CTRL_CMPMODE2_MASK;
 291:Generated_Source\PSoC5/High_Frequency_PWM_1.c ****                 #else
 292:Generated_Source\PSoC5/High_Frequency_PWM_1.c ****                     uint8 comparemode2masked = comparemode & High_Frequency_PWM_1_CTRL_CMPMODE2_MAS
 293:Generated_Source\PSoC5/High_Frequency_PWM_1.c ****                 #endif /* (0 != High_Frequency_PWM_1_CTRL_CMPMODE2_SHIFT) */
 294:Generated_Source\PSoC5/High_Frequency_PWM_1.c **** 
 295:Generated_Source\PSoC5/High_Frequency_PWM_1.c ****                 /*Clear existing mode */
 296:Generated_Source\PSoC5/High_Frequency_PWM_1.c ****                 High_Frequency_PWM_1_CONTROL &= ((uint8)(~(High_Frequency_PWM_1_CTRL_CMPMODE1_MASK 
 297:Generated_Source\PSoC5/High_Frequency_PWM_1.c ****                                             High_Frequency_PWM_1_CTRL_CMPMODE2_MASK)));
 298:Generated_Source\PSoC5/High_Frequency_PWM_1.c ****                 High_Frequency_PWM_1_CONTROL |= (comparemode1masked | comparemode2masked);
 299:Generated_Source\PSoC5/High_Frequency_PWM_1.c **** 
 300:Generated_Source\PSoC5/High_Frequency_PWM_1.c ****             #else
 301:Generated_Source\PSoC5/High_Frequency_PWM_1.c ****                 uint8 temp = comparemode;
 302:Generated_Source\PSoC5/High_Frequency_PWM_1.c ****             #endif /* (High_Frequency_PWM_1_UsingFixedFunction) */
 303:Generated_Source\PSoC5/High_Frequency_PWM_1.c ****         }
 304:Generated_Source\PSoC5/High_Frequency_PWM_1.c ****     #endif /* High_Frequency_PWM_1_CompareMode1SW */
 305:Generated_Source\PSoC5/High_Frequency_PWM_1.c **** 
 306:Generated_Source\PSoC5/High_Frequency_PWM_1.c **** #else /* UseOneCompareMode */
 307:Generated_Source\PSoC5/High_Frequency_PWM_1.c **** 
 308:Generated_Source\PSoC5/High_Frequency_PWM_1.c ****     #if (High_Frequency_PWM_1_CompareMode1SW)
 309:Generated_Source\PSoC5/High_Frequency_PWM_1.c **** 
 310:Generated_Source\PSoC5/High_Frequency_PWM_1.c **** 
 311:Generated_Source\PSoC5/High_Frequency_PWM_1.c ****         /*******************************************************************************
 312:Generated_Source\PSoC5/High_Frequency_PWM_1.c ****         * Function Name: High_Frequency_PWM_1_SetCompareMode1
 313:Generated_Source\PSoC5/High_Frequency_PWM_1.c ****         ********************************************************************************
 314:Generated_Source\PSoC5/High_Frequency_PWM_1.c ****         *
 315:Generated_Source\PSoC5/High_Frequency_PWM_1.c ****         * Summary:
 316:Generated_Source\PSoC5/High_Frequency_PWM_1.c ****         *  This function writes the Compare Mode for the pwm or pwm1 output
ARM GAS  C:\Users\DEREKM~1\AppData\Local\Temp\cclMHIkB.s 			page 11


 317:Generated_Source\PSoC5/High_Frequency_PWM_1.c ****         *
 318:Generated_Source\PSoC5/High_Frequency_PWM_1.c ****         * Parameters:
 319:Generated_Source\PSoC5/High_Frequency_PWM_1.c ****         *  comparemode:  The new compare mode for the PWM output. Use the compare types
 320:Generated_Source\PSoC5/High_Frequency_PWM_1.c ****         *                defined in the H file as input arguments.
 321:Generated_Source\PSoC5/High_Frequency_PWM_1.c ****         *
 322:Generated_Source\PSoC5/High_Frequency_PWM_1.c ****         * Return:
 323:Generated_Source\PSoC5/High_Frequency_PWM_1.c ****         *  None
 324:Generated_Source\PSoC5/High_Frequency_PWM_1.c ****         *
 325:Generated_Source\PSoC5/High_Frequency_PWM_1.c ****         *******************************************************************************/
 326:Generated_Source\PSoC5/High_Frequency_PWM_1.c ****         void High_Frequency_PWM_1_SetCompareMode1(uint8 comparemode) 
 327:Generated_Source\PSoC5/High_Frequency_PWM_1.c ****         {
 328:Generated_Source\PSoC5/High_Frequency_PWM_1.c ****             #if(0 != High_Frequency_PWM_1_CTRL_CMPMODE1_SHIFT)
 329:Generated_Source\PSoC5/High_Frequency_PWM_1.c ****                 uint8 comparemodemasked = ((uint8)((uint8)comparemode << High_Frequency_PWM_1_CTRL_
 330:Generated_Source\PSoC5/High_Frequency_PWM_1.c ****                                            High_Frequency_PWM_1_CTRL_CMPMODE1_MASK;
 331:Generated_Source\PSoC5/High_Frequency_PWM_1.c ****             #else
 332:Generated_Source\PSoC5/High_Frequency_PWM_1.c ****                 uint8 comparemodemasked = comparemode & High_Frequency_PWM_1_CTRL_CMPMODE1_MASK;
 333:Generated_Source\PSoC5/High_Frequency_PWM_1.c ****             #endif /* (0 != High_Frequency_PWM_1_CTRL_CMPMODE1_SHIFT) */
 334:Generated_Source\PSoC5/High_Frequency_PWM_1.c **** 
 335:Generated_Source\PSoC5/High_Frequency_PWM_1.c ****             #if (High_Frequency_PWM_1_UseControl)
 336:Generated_Source\PSoC5/High_Frequency_PWM_1.c ****                 High_Frequency_PWM_1_CONTROL &= ((uint8)(~High_Frequency_PWM_1_CTRL_CMPMODE1_MASK))
 337:Generated_Source\PSoC5/High_Frequency_PWM_1.c ****                 High_Frequency_PWM_1_CONTROL |= comparemodemasked;
 338:Generated_Source\PSoC5/High_Frequency_PWM_1.c ****             #endif /* (High_Frequency_PWM_1_UseControl) */
 339:Generated_Source\PSoC5/High_Frequency_PWM_1.c ****         }
 340:Generated_Source\PSoC5/High_Frequency_PWM_1.c ****     #endif /* High_Frequency_PWM_1_CompareMode1SW */
 341:Generated_Source\PSoC5/High_Frequency_PWM_1.c **** 
 342:Generated_Source\PSoC5/High_Frequency_PWM_1.c **** #if (High_Frequency_PWM_1_CompareMode2SW)
 343:Generated_Source\PSoC5/High_Frequency_PWM_1.c **** 
 344:Generated_Source\PSoC5/High_Frequency_PWM_1.c **** 
 345:Generated_Source\PSoC5/High_Frequency_PWM_1.c ****     /*******************************************************************************
 346:Generated_Source\PSoC5/High_Frequency_PWM_1.c ****     * Function Name: High_Frequency_PWM_1_SetCompareMode2
 347:Generated_Source\PSoC5/High_Frequency_PWM_1.c ****     ********************************************************************************
 348:Generated_Source\PSoC5/High_Frequency_PWM_1.c ****     *
 349:Generated_Source\PSoC5/High_Frequency_PWM_1.c ****     * Summary:
 350:Generated_Source\PSoC5/High_Frequency_PWM_1.c ****     *  This function writes the Compare Mode for the pwm or pwm2 output
 351:Generated_Source\PSoC5/High_Frequency_PWM_1.c ****     *
 352:Generated_Source\PSoC5/High_Frequency_PWM_1.c ****     * Parameters:
 353:Generated_Source\PSoC5/High_Frequency_PWM_1.c ****     *  comparemode:  The new compare mode for the PWM output. Use the compare types
 354:Generated_Source\PSoC5/High_Frequency_PWM_1.c ****     *                defined in the H file as input arguments.
 355:Generated_Source\PSoC5/High_Frequency_PWM_1.c ****     *
 356:Generated_Source\PSoC5/High_Frequency_PWM_1.c ****     * Return:
 357:Generated_Source\PSoC5/High_Frequency_PWM_1.c ****     *  None
 358:Generated_Source\PSoC5/High_Frequency_PWM_1.c ****     *
 359:Generated_Source\PSoC5/High_Frequency_PWM_1.c ****     *******************************************************************************/
 360:Generated_Source\PSoC5/High_Frequency_PWM_1.c ****     void High_Frequency_PWM_1_SetCompareMode2(uint8 comparemode) 
 361:Generated_Source\PSoC5/High_Frequency_PWM_1.c ****     {
 362:Generated_Source\PSoC5/High_Frequency_PWM_1.c **** 
 363:Generated_Source\PSoC5/High_Frequency_PWM_1.c ****         #if(0 != High_Frequency_PWM_1_CTRL_CMPMODE2_SHIFT)
 364:Generated_Source\PSoC5/High_Frequency_PWM_1.c ****             uint8 comparemodemasked = ((uint8)((uint8)comparemode << High_Frequency_PWM_1_CTRL_CMPM
 365:Generated_Source\PSoC5/High_Frequency_PWM_1.c ****                                                  High_Frequency_PWM_1_CTRL_CMPMODE2_MASK;
 366:Generated_Source\PSoC5/High_Frequency_PWM_1.c ****         #else
 367:Generated_Source\PSoC5/High_Frequency_PWM_1.c ****             uint8 comparemodemasked = comparemode & High_Frequency_PWM_1_CTRL_CMPMODE2_MASK;
 368:Generated_Source\PSoC5/High_Frequency_PWM_1.c ****         #endif /* (0 != High_Frequency_PWM_1_CTRL_CMPMODE2_SHIFT) */
 369:Generated_Source\PSoC5/High_Frequency_PWM_1.c **** 
 370:Generated_Source\PSoC5/High_Frequency_PWM_1.c ****         #if (High_Frequency_PWM_1_UseControl)
 371:Generated_Source\PSoC5/High_Frequency_PWM_1.c ****             High_Frequency_PWM_1_CONTROL &= ((uint8)(~High_Frequency_PWM_1_CTRL_CMPMODE2_MASK)); /*
 372:Generated_Source\PSoC5/High_Frequency_PWM_1.c ****             High_Frequency_PWM_1_CONTROL |= comparemodemasked;
 373:Generated_Source\PSoC5/High_Frequency_PWM_1.c ****         #endif /* (High_Frequency_PWM_1_UseControl) */
ARM GAS  C:\Users\DEREKM~1\AppData\Local\Temp\cclMHIkB.s 			page 12


 374:Generated_Source\PSoC5/High_Frequency_PWM_1.c ****     }
 375:Generated_Source\PSoC5/High_Frequency_PWM_1.c ****     #endif /*High_Frequency_PWM_1_CompareMode2SW */
 376:Generated_Source\PSoC5/High_Frequency_PWM_1.c **** 
 377:Generated_Source\PSoC5/High_Frequency_PWM_1.c **** #endif /* UseOneCompareMode */
 378:Generated_Source\PSoC5/High_Frequency_PWM_1.c **** 
 379:Generated_Source\PSoC5/High_Frequency_PWM_1.c **** 
 380:Generated_Source\PSoC5/High_Frequency_PWM_1.c **** #if (!High_Frequency_PWM_1_UsingFixedFunction)
 381:Generated_Source\PSoC5/High_Frequency_PWM_1.c **** 
 382:Generated_Source\PSoC5/High_Frequency_PWM_1.c **** 
 383:Generated_Source\PSoC5/High_Frequency_PWM_1.c ****     /*******************************************************************************
 384:Generated_Source\PSoC5/High_Frequency_PWM_1.c ****     * Function Name: High_Frequency_PWM_1_WriteCounter
 385:Generated_Source\PSoC5/High_Frequency_PWM_1.c ****     ********************************************************************************
 386:Generated_Source\PSoC5/High_Frequency_PWM_1.c ****     *
 387:Generated_Source\PSoC5/High_Frequency_PWM_1.c ****     * Summary:
 388:Generated_Source\PSoC5/High_Frequency_PWM_1.c ****     *  Writes a new counter value directly to the counter register. This will be
 389:Generated_Source\PSoC5/High_Frequency_PWM_1.c ****     *  implemented for that currently running period and only that period. This API
 390:Generated_Source\PSoC5/High_Frequency_PWM_1.c ****     *  is valid only for UDB implementation and not available for fixed function
 391:Generated_Source\PSoC5/High_Frequency_PWM_1.c ****     *  PWM implementation.
 392:Generated_Source\PSoC5/High_Frequency_PWM_1.c ****     *
 393:Generated_Source\PSoC5/High_Frequency_PWM_1.c ****     * Parameters:
 394:Generated_Source\PSoC5/High_Frequency_PWM_1.c ****     *  counter:  The period new period counter value.
 395:Generated_Source\PSoC5/High_Frequency_PWM_1.c ****     *
 396:Generated_Source\PSoC5/High_Frequency_PWM_1.c ****     * Return:
 397:Generated_Source\PSoC5/High_Frequency_PWM_1.c ****     *  None
 398:Generated_Source\PSoC5/High_Frequency_PWM_1.c ****     *
 399:Generated_Source\PSoC5/High_Frequency_PWM_1.c ****     * Side Effects:
 400:Generated_Source\PSoC5/High_Frequency_PWM_1.c ****     *  The PWM Period will be reloaded when a counter value will be a zero
 401:Generated_Source\PSoC5/High_Frequency_PWM_1.c ****     *
 402:Generated_Source\PSoC5/High_Frequency_PWM_1.c ****     *******************************************************************************/
 403:Generated_Source\PSoC5/High_Frequency_PWM_1.c ****     void High_Frequency_PWM_1_WriteCounter(uint16 counter) \
 404:Generated_Source\PSoC5/High_Frequency_PWM_1.c ****                                        
 405:Generated_Source\PSoC5/High_Frequency_PWM_1.c ****     {
 255              		.loc 1 405 0
 256              		.cfi_startproc
 257              		@ args = 0, pretend = 0, frame = 8
 258              		@ frame_needed = 1, uses_anonymous_args = 0
 259              		@ link register save eliminated.
 260 0000 80B4     		push	{r7}
 261              		.cfi_def_cfa_offset 4
 262              		.cfi_offset 7, -4
 263 0002 83B0     		sub	sp, sp, #12
 264              		.cfi_def_cfa_offset 16
 265 0004 00AF     		add	r7, sp, #0
 266              		.cfi_def_cfa_register 7
 267 0006 0346     		mov	r3, r0
 268 0008 FB80     		strh	r3, [r7, #6]	@ movhi
 406:Generated_Source\PSoC5/High_Frequency_PWM_1.c ****         CY_SET_REG16(High_Frequency_PWM_1_COUNTER_LSB_PTR, counter);
 269              		.loc 1 406 0
 270 000a 044A     		ldr	r2, .L15
 271 000c FB88     		ldrh	r3, [r7, #6]	@ movhi
 272 000e 1380     		strh	r3, [r2]	@ movhi
 407:Generated_Source\PSoC5/High_Frequency_PWM_1.c ****     }
 273              		.loc 1 407 0
 274 0010 00BF     		nop
 275 0012 0C37     		adds	r7, r7, #12
 276              		.cfi_def_cfa_offset 4
 277 0014 BD46     		mov	sp, r7
ARM GAS  C:\Users\DEREKM~1\AppData\Local\Temp\cclMHIkB.s 			page 13


 278              		.cfi_def_cfa_register 13
 279              		@ sp needed
 280 0016 80BC     		pop	{r7}
 281              		.cfi_restore 7
 282              		.cfi_def_cfa_offset 0
 283 0018 7047     		bx	lr
 284              	.L16:
 285 001a 00BF     		.align	2
 286              	.L15:
 287 001c 1C680040 		.word	1073768476
 288              		.cfi_endproc
 289              	.LFE4:
 290              		.size	High_Frequency_PWM_1_WriteCounter, .-High_Frequency_PWM_1_WriteCounter
 291              		.section	.text.High_Frequency_PWM_1_ReadCounter,"ax",%progbits
 292              		.align	2
 293              		.global	High_Frequency_PWM_1_ReadCounter
 294              		.thumb
 295              		.thumb_func
 296              		.type	High_Frequency_PWM_1_ReadCounter, %function
 297              	High_Frequency_PWM_1_ReadCounter:
 298              	.LFB5:
 408:Generated_Source\PSoC5/High_Frequency_PWM_1.c **** 
 409:Generated_Source\PSoC5/High_Frequency_PWM_1.c **** 
 410:Generated_Source\PSoC5/High_Frequency_PWM_1.c ****     /*******************************************************************************
 411:Generated_Source\PSoC5/High_Frequency_PWM_1.c ****     * Function Name: High_Frequency_PWM_1_ReadCounter
 412:Generated_Source\PSoC5/High_Frequency_PWM_1.c ****     ********************************************************************************
 413:Generated_Source\PSoC5/High_Frequency_PWM_1.c ****     *
 414:Generated_Source\PSoC5/High_Frequency_PWM_1.c ****     * Summary:
 415:Generated_Source\PSoC5/High_Frequency_PWM_1.c ****     *  This function returns the current value of the counter.  It doesn't matter
 416:Generated_Source\PSoC5/High_Frequency_PWM_1.c ****     *  if the counter is enabled or running.
 417:Generated_Source\PSoC5/High_Frequency_PWM_1.c ****     *
 418:Generated_Source\PSoC5/High_Frequency_PWM_1.c ****     * Parameters:
 419:Generated_Source\PSoC5/High_Frequency_PWM_1.c ****     *  None
 420:Generated_Source\PSoC5/High_Frequency_PWM_1.c ****     *
 421:Generated_Source\PSoC5/High_Frequency_PWM_1.c ****     * Return:
 422:Generated_Source\PSoC5/High_Frequency_PWM_1.c ****     *  The current value of the counter.
 423:Generated_Source\PSoC5/High_Frequency_PWM_1.c ****     *
 424:Generated_Source\PSoC5/High_Frequency_PWM_1.c ****     *******************************************************************************/
 425:Generated_Source\PSoC5/High_Frequency_PWM_1.c ****     uint16 High_Frequency_PWM_1_ReadCounter(void) 
 426:Generated_Source\PSoC5/High_Frequency_PWM_1.c ****     {
 299              		.loc 1 426 0
 300              		.cfi_startproc
 301              		@ args = 0, pretend = 0, frame = 0
 302              		@ frame_needed = 1, uses_anonymous_args = 0
 303              		@ link register save eliminated.
 304 0000 80B4     		push	{r7}
 305              		.cfi_def_cfa_offset 4
 306              		.cfi_offset 7, -4
 307 0002 00AF     		add	r7, sp, #0
 308              		.cfi_def_cfa_register 7
 427:Generated_Source\PSoC5/High_Frequency_PWM_1.c ****         /* Force capture by reading Accumulator */
 428:Generated_Source\PSoC5/High_Frequency_PWM_1.c ****         /* Must first do a software capture to be able to read the counter */
 429:Generated_Source\PSoC5/High_Frequency_PWM_1.c ****         /* It is up to the user code to make sure there isn't already captured data in the FIFO */
 430:Generated_Source\PSoC5/High_Frequency_PWM_1.c ****           (void)CY_GET_REG8(High_Frequency_PWM_1_COUNTERCAP_LSB_PTR_8BIT);
 309              		.loc 1 430 0
 310 0004 044B     		ldr	r3, .L19
 311 0006 1B78     		ldrb	r3, [r3]
ARM GAS  C:\Users\DEREKM~1\AppData\Local\Temp\cclMHIkB.s 			page 14


 431:Generated_Source\PSoC5/High_Frequency_PWM_1.c **** 
 432:Generated_Source\PSoC5/High_Frequency_PWM_1.c ****         /* Read the data from the FIFO */
 433:Generated_Source\PSoC5/High_Frequency_PWM_1.c ****         return (CY_GET_REG16(High_Frequency_PWM_1_CAPTURE_LSB_PTR));
 312              		.loc 1 433 0
 313 0008 044B     		ldr	r3, .L19+4
 314 000a 1B88     		ldrh	r3, [r3]	@ movhi
 315 000c 9BB2     		uxth	r3, r3
 434:Generated_Source\PSoC5/High_Frequency_PWM_1.c ****     }
 316              		.loc 1 434 0
 317 000e 1846     		mov	r0, r3
 318 0010 BD46     		mov	sp, r7
 319              		.cfi_def_cfa_register 13
 320              		@ sp needed
 321 0012 80BC     		pop	{r7}
 322              		.cfi_restore 7
 323              		.cfi_def_cfa_offset 0
 324 0014 7047     		bx	lr
 325              	.L20:
 326 0016 00BF     		.align	2
 327              	.L19:
 328 0018 1E640040 		.word	1073767454
 329 001c BC680040 		.word	1073768636
 330              		.cfi_endproc
 331              	.LFE5:
 332              		.size	High_Frequency_PWM_1_ReadCounter, .-High_Frequency_PWM_1_ReadCounter
 333              		.section	.text.High_Frequency_PWM_1_ClearFIFO,"ax",%progbits
 334              		.align	2
 335              		.global	High_Frequency_PWM_1_ClearFIFO
 336              		.thumb
 337              		.thumb_func
 338              		.type	High_Frequency_PWM_1_ClearFIFO, %function
 339              	High_Frequency_PWM_1_ClearFIFO:
 340              	.LFB6:
 435:Generated_Source\PSoC5/High_Frequency_PWM_1.c **** 
 436:Generated_Source\PSoC5/High_Frequency_PWM_1.c ****     #if (High_Frequency_PWM_1_UseStatus)
 437:Generated_Source\PSoC5/High_Frequency_PWM_1.c **** 
 438:Generated_Source\PSoC5/High_Frequency_PWM_1.c **** 
 439:Generated_Source\PSoC5/High_Frequency_PWM_1.c ****         /*******************************************************************************
 440:Generated_Source\PSoC5/High_Frequency_PWM_1.c ****         * Function Name: High_Frequency_PWM_1_ClearFIFO
 441:Generated_Source\PSoC5/High_Frequency_PWM_1.c ****         ********************************************************************************
 442:Generated_Source\PSoC5/High_Frequency_PWM_1.c ****         *
 443:Generated_Source\PSoC5/High_Frequency_PWM_1.c ****         * Summary:
 444:Generated_Source\PSoC5/High_Frequency_PWM_1.c ****         *  This function clears all capture data from the capture FIFO
 445:Generated_Source\PSoC5/High_Frequency_PWM_1.c ****         *
 446:Generated_Source\PSoC5/High_Frequency_PWM_1.c ****         * Parameters:
 447:Generated_Source\PSoC5/High_Frequency_PWM_1.c ****         *  None
 448:Generated_Source\PSoC5/High_Frequency_PWM_1.c ****         *
 449:Generated_Source\PSoC5/High_Frequency_PWM_1.c ****         * Return:
 450:Generated_Source\PSoC5/High_Frequency_PWM_1.c ****         *  None
 451:Generated_Source\PSoC5/High_Frequency_PWM_1.c ****         *
 452:Generated_Source\PSoC5/High_Frequency_PWM_1.c ****         *******************************************************************************/
 453:Generated_Source\PSoC5/High_Frequency_PWM_1.c ****         void High_Frequency_PWM_1_ClearFIFO(void) 
 454:Generated_Source\PSoC5/High_Frequency_PWM_1.c ****         {
 341              		.loc 1 454 0
 342              		.cfi_startproc
 343              		@ args = 0, pretend = 0, frame = 0
 344              		@ frame_needed = 1, uses_anonymous_args = 0
ARM GAS  C:\Users\DEREKM~1\AppData\Local\Temp\cclMHIkB.s 			page 15


 345 0000 80B5     		push	{r7, lr}
 346              		.cfi_def_cfa_offset 8
 347              		.cfi_offset 7, -8
 348              		.cfi_offset 14, -4
 349 0002 00AF     		add	r7, sp, #0
 350              		.cfi_def_cfa_register 7
 455:Generated_Source\PSoC5/High_Frequency_PWM_1.c ****             while(0u != (High_Frequency_PWM_1_ReadStatusRegister() & High_Frequency_PWM_1_STATUS_FI
 351              		.loc 1 455 0
 352 0004 01E0     		b	.L22
 353              	.L23:
 456:Generated_Source\PSoC5/High_Frequency_PWM_1.c ****             {
 457:Generated_Source\PSoC5/High_Frequency_PWM_1.c ****                 (void)High_Frequency_PWM_1_ReadCapture();
 354              		.loc 1 457 0
 355 0006 FFF7FEFF 		bl	High_Frequency_PWM_1_ReadCapture
 356              	.L22:
 455:Generated_Source\PSoC5/High_Frequency_PWM_1.c ****             while(0u != (High_Frequency_PWM_1_ReadStatusRegister() & High_Frequency_PWM_1_STATUS_FI
 357              		.loc 1 455 0
 358 000a FFF7FEFF 		bl	High_Frequency_PWM_1_ReadStatusRegister
 359 000e 0346     		mov	r3, r0
 360 0010 03F01003 		and	r3, r3, #16
 361 0014 002B     		cmp	r3, #0
 362 0016 F6D1     		bne	.L23
 458:Generated_Source\PSoC5/High_Frequency_PWM_1.c ****             }
 459:Generated_Source\PSoC5/High_Frequency_PWM_1.c ****         }
 363              		.loc 1 459 0
 364 0018 00BF     		nop
 365 001a 80BD     		pop	{r7, pc}
 366              		.cfi_endproc
 367              	.LFE6:
 368              		.size	High_Frequency_PWM_1_ClearFIFO, .-High_Frequency_PWM_1_ClearFIFO
 369              		.section	.text.High_Frequency_PWM_1_WritePeriod,"ax",%progbits
 370              		.align	2
 371              		.global	High_Frequency_PWM_1_WritePeriod
 372              		.thumb
 373              		.thumb_func
 374              		.type	High_Frequency_PWM_1_WritePeriod, %function
 375              	High_Frequency_PWM_1_WritePeriod:
 376              	.LFB7:
 460:Generated_Source\PSoC5/High_Frequency_PWM_1.c **** 
 461:Generated_Source\PSoC5/High_Frequency_PWM_1.c ****     #endif /* High_Frequency_PWM_1_UseStatus */
 462:Generated_Source\PSoC5/High_Frequency_PWM_1.c **** 
 463:Generated_Source\PSoC5/High_Frequency_PWM_1.c **** #endif /* !High_Frequency_PWM_1_UsingFixedFunction */
 464:Generated_Source\PSoC5/High_Frequency_PWM_1.c **** 
 465:Generated_Source\PSoC5/High_Frequency_PWM_1.c **** 
 466:Generated_Source\PSoC5/High_Frequency_PWM_1.c **** /*******************************************************************************
 467:Generated_Source\PSoC5/High_Frequency_PWM_1.c **** * Function Name: High_Frequency_PWM_1_WritePeriod
 468:Generated_Source\PSoC5/High_Frequency_PWM_1.c **** ********************************************************************************
 469:Generated_Source\PSoC5/High_Frequency_PWM_1.c **** *
 470:Generated_Source\PSoC5/High_Frequency_PWM_1.c **** * Summary:
 471:Generated_Source\PSoC5/High_Frequency_PWM_1.c **** *  This function is used to change the period of the counter.  The new period
 472:Generated_Source\PSoC5/High_Frequency_PWM_1.c **** *  will be loaded the next time terminal count is detected.
 473:Generated_Source\PSoC5/High_Frequency_PWM_1.c **** *
 474:Generated_Source\PSoC5/High_Frequency_PWM_1.c **** * Parameters:
 475:Generated_Source\PSoC5/High_Frequency_PWM_1.c **** *  period:  Period value. May be between 1 and (2^Resolution)-1.  A value of 0
 476:Generated_Source\PSoC5/High_Frequency_PWM_1.c **** *           will result in the counter remaining at zero.
 477:Generated_Source\PSoC5/High_Frequency_PWM_1.c **** *
 478:Generated_Source\PSoC5/High_Frequency_PWM_1.c **** * Return:
ARM GAS  C:\Users\DEREKM~1\AppData\Local\Temp\cclMHIkB.s 			page 16


 479:Generated_Source\PSoC5/High_Frequency_PWM_1.c **** *  None
 480:Generated_Source\PSoC5/High_Frequency_PWM_1.c **** *
 481:Generated_Source\PSoC5/High_Frequency_PWM_1.c **** *******************************************************************************/
 482:Generated_Source\PSoC5/High_Frequency_PWM_1.c **** void High_Frequency_PWM_1_WritePeriod(uint16 period) 
 483:Generated_Source\PSoC5/High_Frequency_PWM_1.c **** {
 377              		.loc 1 483 0
 378              		.cfi_startproc
 379              		@ args = 0, pretend = 0, frame = 8
 380              		@ frame_needed = 1, uses_anonymous_args = 0
 381              		@ link register save eliminated.
 382 0000 80B4     		push	{r7}
 383              		.cfi_def_cfa_offset 4
 384              		.cfi_offset 7, -4
 385 0002 83B0     		sub	sp, sp, #12
 386              		.cfi_def_cfa_offset 16
 387 0004 00AF     		add	r7, sp, #0
 388              		.cfi_def_cfa_register 7
 389 0006 0346     		mov	r3, r0
 390 0008 FB80     		strh	r3, [r7, #6]	@ movhi
 484:Generated_Source\PSoC5/High_Frequency_PWM_1.c ****     #if(High_Frequency_PWM_1_UsingFixedFunction)
 485:Generated_Source\PSoC5/High_Frequency_PWM_1.c ****         CY_SET_REG16(High_Frequency_PWM_1_PERIOD_LSB_PTR, (uint16)period);
 486:Generated_Source\PSoC5/High_Frequency_PWM_1.c ****     #else
 487:Generated_Source\PSoC5/High_Frequency_PWM_1.c ****         CY_SET_REG16(High_Frequency_PWM_1_PERIOD_LSB_PTR, period);
 391              		.loc 1 487 0
 392 000a 044A     		ldr	r2, .L25
 393 000c FB88     		ldrh	r3, [r7, #6]	@ movhi
 394 000e 1380     		strh	r3, [r2]	@ movhi
 488:Generated_Source\PSoC5/High_Frequency_PWM_1.c ****     #endif /* (High_Frequency_PWM_1_UsingFixedFunction) */
 489:Generated_Source\PSoC5/High_Frequency_PWM_1.c **** }
 395              		.loc 1 489 0
 396 0010 00BF     		nop
 397 0012 0C37     		adds	r7, r7, #12
 398              		.cfi_def_cfa_offset 4
 399 0014 BD46     		mov	sp, r7
 400              		.cfi_def_cfa_register 13
 401              		@ sp needed
 402 0016 80BC     		pop	{r7}
 403              		.cfi_restore 7
 404              		.cfi_def_cfa_offset 0
 405 0018 7047     		bx	lr
 406              	.L26:
 407 001a 00BF     		.align	2
 408              	.L25:
 409 001c 9C680040 		.word	1073768604
 410              		.cfi_endproc
 411              	.LFE7:
 412              		.size	High_Frequency_PWM_1_WritePeriod, .-High_Frequency_PWM_1_WritePeriod
 413              		.section	.text.High_Frequency_PWM_1_WriteCompare,"ax",%progbits
 414              		.align	2
 415              		.global	High_Frequency_PWM_1_WriteCompare
 416              		.thumb
 417              		.thumb_func
 418              		.type	High_Frequency_PWM_1_WriteCompare, %function
 419              	High_Frequency_PWM_1_WriteCompare:
 420              	.LFB8:
 490:Generated_Source\PSoC5/High_Frequency_PWM_1.c **** 
 491:Generated_Source\PSoC5/High_Frequency_PWM_1.c **** #if (High_Frequency_PWM_1_UseOneCompareMode)
ARM GAS  C:\Users\DEREKM~1\AppData\Local\Temp\cclMHIkB.s 			page 17


 492:Generated_Source\PSoC5/High_Frequency_PWM_1.c **** 
 493:Generated_Source\PSoC5/High_Frequency_PWM_1.c **** 
 494:Generated_Source\PSoC5/High_Frequency_PWM_1.c ****     /*******************************************************************************
 495:Generated_Source\PSoC5/High_Frequency_PWM_1.c ****     * Function Name: High_Frequency_PWM_1_WriteCompare
 496:Generated_Source\PSoC5/High_Frequency_PWM_1.c ****     ********************************************************************************
 497:Generated_Source\PSoC5/High_Frequency_PWM_1.c ****     *
 498:Generated_Source\PSoC5/High_Frequency_PWM_1.c ****     * Summary:
 499:Generated_Source\PSoC5/High_Frequency_PWM_1.c ****     *  This funtion is used to change the compare1 value when the PWM is in Dither
 500:Generated_Source\PSoC5/High_Frequency_PWM_1.c ****     *  mode. The compare output will reflect the new value on the next UDB clock.
 501:Generated_Source\PSoC5/High_Frequency_PWM_1.c ****     *  The compare output will be driven high when the present counter value is
 502:Generated_Source\PSoC5/High_Frequency_PWM_1.c ****     *  compared to the compare value based on the compare mode defined in
 503:Generated_Source\PSoC5/High_Frequency_PWM_1.c ****     *  Dither Mode.
 504:Generated_Source\PSoC5/High_Frequency_PWM_1.c ****     *
 505:Generated_Source\PSoC5/High_Frequency_PWM_1.c ****     * Parameters:
 506:Generated_Source\PSoC5/High_Frequency_PWM_1.c ****     *  compare:  New compare value.
 507:Generated_Source\PSoC5/High_Frequency_PWM_1.c ****     *
 508:Generated_Source\PSoC5/High_Frequency_PWM_1.c ****     * Return:
 509:Generated_Source\PSoC5/High_Frequency_PWM_1.c ****     *  None
 510:Generated_Source\PSoC5/High_Frequency_PWM_1.c ****     *
 511:Generated_Source\PSoC5/High_Frequency_PWM_1.c ****     * Side Effects:
 512:Generated_Source\PSoC5/High_Frequency_PWM_1.c ****     *  This function is only available if the PWM mode parameter is set to
 513:Generated_Source\PSoC5/High_Frequency_PWM_1.c ****     *  Dither Mode, Center Aligned Mode or One Output Mode
 514:Generated_Source\PSoC5/High_Frequency_PWM_1.c ****     *
 515:Generated_Source\PSoC5/High_Frequency_PWM_1.c ****     *******************************************************************************/
 516:Generated_Source\PSoC5/High_Frequency_PWM_1.c ****     void High_Frequency_PWM_1_WriteCompare(uint16 compare) \
 517:Generated_Source\PSoC5/High_Frequency_PWM_1.c ****                                        
 518:Generated_Source\PSoC5/High_Frequency_PWM_1.c ****     {
 421              		.loc 1 518 0
 422              		.cfi_startproc
 423              		@ args = 0, pretend = 0, frame = 8
 424              		@ frame_needed = 1, uses_anonymous_args = 0
 425              		@ link register save eliminated.
 426 0000 80B4     		push	{r7}
 427              		.cfi_def_cfa_offset 4
 428              		.cfi_offset 7, -4
 429 0002 83B0     		sub	sp, sp, #12
 430              		.cfi_def_cfa_offset 16
 431 0004 00AF     		add	r7, sp, #0
 432              		.cfi_def_cfa_register 7
 433 0006 0346     		mov	r3, r0
 434 0008 FB80     		strh	r3, [r7, #6]	@ movhi
 519:Generated_Source\PSoC5/High_Frequency_PWM_1.c ****         #if(High_Frequency_PWM_1_UsingFixedFunction)
 520:Generated_Source\PSoC5/High_Frequency_PWM_1.c ****             CY_SET_REG16(High_Frequency_PWM_1_COMPARE1_LSB_PTR, (uint16)compare);
 521:Generated_Source\PSoC5/High_Frequency_PWM_1.c ****         #else
 522:Generated_Source\PSoC5/High_Frequency_PWM_1.c ****             CY_SET_REG16(High_Frequency_PWM_1_COMPARE1_LSB_PTR, compare);
 435              		.loc 1 522 0
 436 000a 044A     		ldr	r2, .L28
 437 000c FB88     		ldrh	r3, [r7, #6]	@ movhi
 438 000e 1380     		strh	r3, [r2]	@ movhi
 523:Generated_Source\PSoC5/High_Frequency_PWM_1.c ****         #endif /* (High_Frequency_PWM_1_UsingFixedFunction) */
 524:Generated_Source\PSoC5/High_Frequency_PWM_1.c **** 
 525:Generated_Source\PSoC5/High_Frequency_PWM_1.c ****         #if (High_Frequency_PWM_1_PWMMode == High_Frequency_PWM_1__B_PWM__DITHER)
 526:Generated_Source\PSoC5/High_Frequency_PWM_1.c ****             #if(High_Frequency_PWM_1_UsingFixedFunction)
 527:Generated_Source\PSoC5/High_Frequency_PWM_1.c ****                 CY_SET_REG16(High_Frequency_PWM_1_COMPARE2_LSB_PTR, (uint16)(compare + 1u));
 528:Generated_Source\PSoC5/High_Frequency_PWM_1.c ****             #else
 529:Generated_Source\PSoC5/High_Frequency_PWM_1.c ****                 CY_SET_REG16(High_Frequency_PWM_1_COMPARE2_LSB_PTR, (compare + 1u));
 530:Generated_Source\PSoC5/High_Frequency_PWM_1.c ****             #endif /* (High_Frequency_PWM_1_UsingFixedFunction) */
ARM GAS  C:\Users\DEREKM~1\AppData\Local\Temp\cclMHIkB.s 			page 18


 531:Generated_Source\PSoC5/High_Frequency_PWM_1.c ****         #endif /* (High_Frequency_PWM_1_PWMMode == High_Frequency_PWM_1__B_PWM__DITHER) */
 532:Generated_Source\PSoC5/High_Frequency_PWM_1.c ****     }
 439              		.loc 1 532 0
 440 0010 00BF     		nop
 441 0012 0C37     		adds	r7, r7, #12
 442              		.cfi_def_cfa_offset 4
 443 0014 BD46     		mov	sp, r7
 444              		.cfi_def_cfa_register 13
 445              		@ sp needed
 446 0016 80BC     		pop	{r7}
 447              		.cfi_restore 7
 448              		.cfi_def_cfa_offset 0
 449 0018 7047     		bx	lr
 450              	.L29:
 451 001a 00BF     		.align	2
 452              	.L28:
 453 001c 5C680040 		.word	1073768540
 454              		.cfi_endproc
 455              	.LFE8:
 456              		.size	High_Frequency_PWM_1_WriteCompare, .-High_Frequency_PWM_1_WriteCompare
 457              		.section	.text.High_Frequency_PWM_1_SetInterruptMode,"ax",%progbits
 458              		.align	2
 459              		.global	High_Frequency_PWM_1_SetInterruptMode
 460              		.thumb
 461              		.thumb_func
 462              		.type	High_Frequency_PWM_1_SetInterruptMode, %function
 463              	High_Frequency_PWM_1_SetInterruptMode:
 464              	.LFB9:
 533:Generated_Source\PSoC5/High_Frequency_PWM_1.c **** 
 534:Generated_Source\PSoC5/High_Frequency_PWM_1.c **** 
 535:Generated_Source\PSoC5/High_Frequency_PWM_1.c **** #else
 536:Generated_Source\PSoC5/High_Frequency_PWM_1.c **** 
 537:Generated_Source\PSoC5/High_Frequency_PWM_1.c **** 
 538:Generated_Source\PSoC5/High_Frequency_PWM_1.c ****     /*******************************************************************************
 539:Generated_Source\PSoC5/High_Frequency_PWM_1.c ****     * Function Name: High_Frequency_PWM_1_WriteCompare1
 540:Generated_Source\PSoC5/High_Frequency_PWM_1.c ****     ********************************************************************************
 541:Generated_Source\PSoC5/High_Frequency_PWM_1.c ****     *
 542:Generated_Source\PSoC5/High_Frequency_PWM_1.c ****     * Summary:
 543:Generated_Source\PSoC5/High_Frequency_PWM_1.c ****     *  This funtion is used to change the compare1 value.  The compare output will
 544:Generated_Source\PSoC5/High_Frequency_PWM_1.c ****     *  reflect the new value on the next UDB clock.  The compare output will be
 545:Generated_Source\PSoC5/High_Frequency_PWM_1.c ****     *  driven high when the present counter value is less than or less than or
 546:Generated_Source\PSoC5/High_Frequency_PWM_1.c ****     *  equal to the compare register, depending on the mode.
 547:Generated_Source\PSoC5/High_Frequency_PWM_1.c ****     *
 548:Generated_Source\PSoC5/High_Frequency_PWM_1.c ****     * Parameters:
 549:Generated_Source\PSoC5/High_Frequency_PWM_1.c ****     *  compare:  New compare value.
 550:Generated_Source\PSoC5/High_Frequency_PWM_1.c ****     *
 551:Generated_Source\PSoC5/High_Frequency_PWM_1.c ****     * Return:
 552:Generated_Source\PSoC5/High_Frequency_PWM_1.c ****     *  None
 553:Generated_Source\PSoC5/High_Frequency_PWM_1.c ****     *
 554:Generated_Source\PSoC5/High_Frequency_PWM_1.c ****     *******************************************************************************/
 555:Generated_Source\PSoC5/High_Frequency_PWM_1.c ****     void High_Frequency_PWM_1_WriteCompare1(uint16 compare) \
 556:Generated_Source\PSoC5/High_Frequency_PWM_1.c ****                                         
 557:Generated_Source\PSoC5/High_Frequency_PWM_1.c ****     {
 558:Generated_Source\PSoC5/High_Frequency_PWM_1.c ****         #if(High_Frequency_PWM_1_UsingFixedFunction)
 559:Generated_Source\PSoC5/High_Frequency_PWM_1.c ****             CY_SET_REG16(High_Frequency_PWM_1_COMPARE1_LSB_PTR, (uint16)compare);
 560:Generated_Source\PSoC5/High_Frequency_PWM_1.c ****         #else
 561:Generated_Source\PSoC5/High_Frequency_PWM_1.c ****             CY_SET_REG16(High_Frequency_PWM_1_COMPARE1_LSB_PTR, compare);
ARM GAS  C:\Users\DEREKM~1\AppData\Local\Temp\cclMHIkB.s 			page 19


 562:Generated_Source\PSoC5/High_Frequency_PWM_1.c ****         #endif /* (High_Frequency_PWM_1_UsingFixedFunction) */
 563:Generated_Source\PSoC5/High_Frequency_PWM_1.c ****     }
 564:Generated_Source\PSoC5/High_Frequency_PWM_1.c **** 
 565:Generated_Source\PSoC5/High_Frequency_PWM_1.c **** 
 566:Generated_Source\PSoC5/High_Frequency_PWM_1.c ****     /*******************************************************************************
 567:Generated_Source\PSoC5/High_Frequency_PWM_1.c ****     * Function Name: High_Frequency_PWM_1_WriteCompare2
 568:Generated_Source\PSoC5/High_Frequency_PWM_1.c ****     ********************************************************************************
 569:Generated_Source\PSoC5/High_Frequency_PWM_1.c ****     *
 570:Generated_Source\PSoC5/High_Frequency_PWM_1.c ****     * Summary:
 571:Generated_Source\PSoC5/High_Frequency_PWM_1.c ****     *  This funtion is used to change the compare value, for compare1 output.
 572:Generated_Source\PSoC5/High_Frequency_PWM_1.c ****     *  The compare output will reflect the new value on the next UDB clock.
 573:Generated_Source\PSoC5/High_Frequency_PWM_1.c ****     *  The compare output will be driven high when the present counter value is
 574:Generated_Source\PSoC5/High_Frequency_PWM_1.c ****     *  less than or less than or equal to the compare register, depending on the
 575:Generated_Source\PSoC5/High_Frequency_PWM_1.c ****     *  mode.
 576:Generated_Source\PSoC5/High_Frequency_PWM_1.c ****     *
 577:Generated_Source\PSoC5/High_Frequency_PWM_1.c ****     * Parameters:
 578:Generated_Source\PSoC5/High_Frequency_PWM_1.c ****     *  compare:  New compare value.
 579:Generated_Source\PSoC5/High_Frequency_PWM_1.c ****     *
 580:Generated_Source\PSoC5/High_Frequency_PWM_1.c ****     * Return:
 581:Generated_Source\PSoC5/High_Frequency_PWM_1.c ****     *  None
 582:Generated_Source\PSoC5/High_Frequency_PWM_1.c ****     *
 583:Generated_Source\PSoC5/High_Frequency_PWM_1.c ****     *******************************************************************************/
 584:Generated_Source\PSoC5/High_Frequency_PWM_1.c ****     void High_Frequency_PWM_1_WriteCompare2(uint16 compare) \
 585:Generated_Source\PSoC5/High_Frequency_PWM_1.c ****                                         
 586:Generated_Source\PSoC5/High_Frequency_PWM_1.c ****     {
 587:Generated_Source\PSoC5/High_Frequency_PWM_1.c ****         #if(High_Frequency_PWM_1_UsingFixedFunction)
 588:Generated_Source\PSoC5/High_Frequency_PWM_1.c ****             CY_SET_REG16(High_Frequency_PWM_1_COMPARE2_LSB_PTR, compare);
 589:Generated_Source\PSoC5/High_Frequency_PWM_1.c ****         #else
 590:Generated_Source\PSoC5/High_Frequency_PWM_1.c ****             CY_SET_REG16(High_Frequency_PWM_1_COMPARE2_LSB_PTR, compare);
 591:Generated_Source\PSoC5/High_Frequency_PWM_1.c ****         #endif /* (High_Frequency_PWM_1_UsingFixedFunction) */
 592:Generated_Source\PSoC5/High_Frequency_PWM_1.c ****     }
 593:Generated_Source\PSoC5/High_Frequency_PWM_1.c **** #endif /* UseOneCompareMode */
 594:Generated_Source\PSoC5/High_Frequency_PWM_1.c **** 
 595:Generated_Source\PSoC5/High_Frequency_PWM_1.c **** #if (High_Frequency_PWM_1_DeadBandUsed)
 596:Generated_Source\PSoC5/High_Frequency_PWM_1.c **** 
 597:Generated_Source\PSoC5/High_Frequency_PWM_1.c **** 
 598:Generated_Source\PSoC5/High_Frequency_PWM_1.c ****     /*******************************************************************************
 599:Generated_Source\PSoC5/High_Frequency_PWM_1.c ****     * Function Name: High_Frequency_PWM_1_WriteDeadTime
 600:Generated_Source\PSoC5/High_Frequency_PWM_1.c ****     ********************************************************************************
 601:Generated_Source\PSoC5/High_Frequency_PWM_1.c ****     *
 602:Generated_Source\PSoC5/High_Frequency_PWM_1.c ****     * Summary:
 603:Generated_Source\PSoC5/High_Frequency_PWM_1.c ****     *  This function writes the dead-band counts to the corresponding register
 604:Generated_Source\PSoC5/High_Frequency_PWM_1.c ****     *
 605:Generated_Source\PSoC5/High_Frequency_PWM_1.c ****     * Parameters:
 606:Generated_Source\PSoC5/High_Frequency_PWM_1.c ****     *  deadtime:  Number of counts for dead time
 607:Generated_Source\PSoC5/High_Frequency_PWM_1.c ****     *
 608:Generated_Source\PSoC5/High_Frequency_PWM_1.c ****     * Return:
 609:Generated_Source\PSoC5/High_Frequency_PWM_1.c ****     *  None
 610:Generated_Source\PSoC5/High_Frequency_PWM_1.c ****     *
 611:Generated_Source\PSoC5/High_Frequency_PWM_1.c ****     *******************************************************************************/
 612:Generated_Source\PSoC5/High_Frequency_PWM_1.c ****     void High_Frequency_PWM_1_WriteDeadTime(uint8 deadtime) 
 613:Generated_Source\PSoC5/High_Frequency_PWM_1.c ****     {
 614:Generated_Source\PSoC5/High_Frequency_PWM_1.c ****         /* If using the Dead Band 1-255 mode then just write the register */
 615:Generated_Source\PSoC5/High_Frequency_PWM_1.c ****         #if(!High_Frequency_PWM_1_DeadBand2_4)
 616:Generated_Source\PSoC5/High_Frequency_PWM_1.c ****             CY_SET_REG8(High_Frequency_PWM_1_DEADBAND_COUNT_PTR, deadtime);
 617:Generated_Source\PSoC5/High_Frequency_PWM_1.c ****         #else
 618:Generated_Source\PSoC5/High_Frequency_PWM_1.c ****             /* Otherwise the data has to be masked and offset */
ARM GAS  C:\Users\DEREKM~1\AppData\Local\Temp\cclMHIkB.s 			page 20


 619:Generated_Source\PSoC5/High_Frequency_PWM_1.c ****             /* Clear existing data */
 620:Generated_Source\PSoC5/High_Frequency_PWM_1.c ****             High_Frequency_PWM_1_DEADBAND_COUNT &= ((uint8)(~High_Frequency_PWM_1_DEADBAND_COUNT_MA
 621:Generated_Source\PSoC5/High_Frequency_PWM_1.c **** 
 622:Generated_Source\PSoC5/High_Frequency_PWM_1.c ****             /* Set new dead time */
 623:Generated_Source\PSoC5/High_Frequency_PWM_1.c ****             #if(High_Frequency_PWM_1_DEADBAND_COUNT_SHIFT)
 624:Generated_Source\PSoC5/High_Frequency_PWM_1.c ****                 High_Frequency_PWM_1_DEADBAND_COUNT |= ((uint8)((uint8)deadtime << High_Frequency_P
 625:Generated_Source\PSoC5/High_Frequency_PWM_1.c ****                                                     High_Frequency_PWM_1_DEADBAND_COUNT_MASK;
 626:Generated_Source\PSoC5/High_Frequency_PWM_1.c ****             #else
 627:Generated_Source\PSoC5/High_Frequency_PWM_1.c ****                 High_Frequency_PWM_1_DEADBAND_COUNT |= deadtime & High_Frequency_PWM_1_DEADBAND_COU
 628:Generated_Source\PSoC5/High_Frequency_PWM_1.c ****             #endif /* (High_Frequency_PWM_1_DEADBAND_COUNT_SHIFT) */
 629:Generated_Source\PSoC5/High_Frequency_PWM_1.c **** 
 630:Generated_Source\PSoC5/High_Frequency_PWM_1.c ****         #endif /* (!High_Frequency_PWM_1_DeadBand2_4) */
 631:Generated_Source\PSoC5/High_Frequency_PWM_1.c ****     }
 632:Generated_Source\PSoC5/High_Frequency_PWM_1.c **** 
 633:Generated_Source\PSoC5/High_Frequency_PWM_1.c **** 
 634:Generated_Source\PSoC5/High_Frequency_PWM_1.c ****     /*******************************************************************************
 635:Generated_Source\PSoC5/High_Frequency_PWM_1.c ****     * Function Name: High_Frequency_PWM_1_ReadDeadTime
 636:Generated_Source\PSoC5/High_Frequency_PWM_1.c ****     ********************************************************************************
 637:Generated_Source\PSoC5/High_Frequency_PWM_1.c ****     *
 638:Generated_Source\PSoC5/High_Frequency_PWM_1.c ****     * Summary:
 639:Generated_Source\PSoC5/High_Frequency_PWM_1.c ****     *  This function reads the dead-band counts from the corresponding register
 640:Generated_Source\PSoC5/High_Frequency_PWM_1.c ****     *
 641:Generated_Source\PSoC5/High_Frequency_PWM_1.c ****     * Parameters:
 642:Generated_Source\PSoC5/High_Frequency_PWM_1.c ****     *  None
 643:Generated_Source\PSoC5/High_Frequency_PWM_1.c ****     *
 644:Generated_Source\PSoC5/High_Frequency_PWM_1.c ****     * Return:
 645:Generated_Source\PSoC5/High_Frequency_PWM_1.c ****     *  Dead Band Counts
 646:Generated_Source\PSoC5/High_Frequency_PWM_1.c ****     *
 647:Generated_Source\PSoC5/High_Frequency_PWM_1.c ****     *******************************************************************************/
 648:Generated_Source\PSoC5/High_Frequency_PWM_1.c ****     uint8 High_Frequency_PWM_1_ReadDeadTime(void) 
 649:Generated_Source\PSoC5/High_Frequency_PWM_1.c ****     {
 650:Generated_Source\PSoC5/High_Frequency_PWM_1.c ****         /* If using the Dead Band 1-255 mode then just read the register */
 651:Generated_Source\PSoC5/High_Frequency_PWM_1.c ****         #if(!High_Frequency_PWM_1_DeadBand2_4)
 652:Generated_Source\PSoC5/High_Frequency_PWM_1.c ****             return (CY_GET_REG8(High_Frequency_PWM_1_DEADBAND_COUNT_PTR));
 653:Generated_Source\PSoC5/High_Frequency_PWM_1.c ****         #else
 654:Generated_Source\PSoC5/High_Frequency_PWM_1.c **** 
 655:Generated_Source\PSoC5/High_Frequency_PWM_1.c ****             /* Otherwise the data has to be masked and offset */
 656:Generated_Source\PSoC5/High_Frequency_PWM_1.c ****             #if(High_Frequency_PWM_1_DEADBAND_COUNT_SHIFT)
 657:Generated_Source\PSoC5/High_Frequency_PWM_1.c ****                 return ((uint8)(((uint8)(High_Frequency_PWM_1_DEADBAND_COUNT & High_Frequency_PWM_1
 658:Generated_Source\PSoC5/High_Frequency_PWM_1.c ****                                                                            High_Frequency_PWM_1_DEA
 659:Generated_Source\PSoC5/High_Frequency_PWM_1.c ****             #else
 660:Generated_Source\PSoC5/High_Frequency_PWM_1.c ****                 return (High_Frequency_PWM_1_DEADBAND_COUNT & High_Frequency_PWM_1_DEADBAND_COUNT_M
 661:Generated_Source\PSoC5/High_Frequency_PWM_1.c ****             #endif /* (High_Frequency_PWM_1_DEADBAND_COUNT_SHIFT) */
 662:Generated_Source\PSoC5/High_Frequency_PWM_1.c ****         #endif /* (!High_Frequency_PWM_1_DeadBand2_4) */
 663:Generated_Source\PSoC5/High_Frequency_PWM_1.c ****     }
 664:Generated_Source\PSoC5/High_Frequency_PWM_1.c **** #endif /* DeadBandUsed */
 665:Generated_Source\PSoC5/High_Frequency_PWM_1.c **** 
 666:Generated_Source\PSoC5/High_Frequency_PWM_1.c **** #if (High_Frequency_PWM_1_UseStatus || High_Frequency_PWM_1_UsingFixedFunction)
 667:Generated_Source\PSoC5/High_Frequency_PWM_1.c **** 
 668:Generated_Source\PSoC5/High_Frequency_PWM_1.c **** 
 669:Generated_Source\PSoC5/High_Frequency_PWM_1.c ****     /*******************************************************************************
 670:Generated_Source\PSoC5/High_Frequency_PWM_1.c ****     * Function Name: High_Frequency_PWM_1_SetInterruptMode
 671:Generated_Source\PSoC5/High_Frequency_PWM_1.c ****     ********************************************************************************
 672:Generated_Source\PSoC5/High_Frequency_PWM_1.c ****     *
 673:Generated_Source\PSoC5/High_Frequency_PWM_1.c ****     * Summary:
 674:Generated_Source\PSoC5/High_Frequency_PWM_1.c ****     *  This function configures the interrupts mask control of theinterrupt
 675:Generated_Source\PSoC5/High_Frequency_PWM_1.c ****     *  source status register.
ARM GAS  C:\Users\DEREKM~1\AppData\Local\Temp\cclMHIkB.s 			page 21


 676:Generated_Source\PSoC5/High_Frequency_PWM_1.c ****     *
 677:Generated_Source\PSoC5/High_Frequency_PWM_1.c ****     * Parameters:
 678:Generated_Source\PSoC5/High_Frequency_PWM_1.c ****     *  uint8 interruptMode: Bit field containing the interrupt sources enabled
 679:Generated_Source\PSoC5/High_Frequency_PWM_1.c ****     *
 680:Generated_Source\PSoC5/High_Frequency_PWM_1.c ****     * Return:
 681:Generated_Source\PSoC5/High_Frequency_PWM_1.c ****     *  None
 682:Generated_Source\PSoC5/High_Frequency_PWM_1.c ****     *
 683:Generated_Source\PSoC5/High_Frequency_PWM_1.c ****     *******************************************************************************/
 684:Generated_Source\PSoC5/High_Frequency_PWM_1.c ****     void High_Frequency_PWM_1_SetInterruptMode(uint8 interruptMode) 
 685:Generated_Source\PSoC5/High_Frequency_PWM_1.c ****     {
 465              		.loc 1 685 0
 466              		.cfi_startproc
 467              		@ args = 0, pretend = 0, frame = 8
 468              		@ frame_needed = 1, uses_anonymous_args = 0
 469              		@ link register save eliminated.
 470 0000 80B4     		push	{r7}
 471              		.cfi_def_cfa_offset 4
 472              		.cfi_offset 7, -4
 473 0002 83B0     		sub	sp, sp, #12
 474              		.cfi_def_cfa_offset 16
 475 0004 00AF     		add	r7, sp, #0
 476              		.cfi_def_cfa_register 7
 477 0006 0346     		mov	r3, r0
 478 0008 FB71     		strb	r3, [r7, #7]
 686:Generated_Source\PSoC5/High_Frequency_PWM_1.c ****         CY_SET_REG8(High_Frequency_PWM_1_STATUS_MASK_PTR, interruptMode);
 479              		.loc 1 686 0
 480 000a 044A     		ldr	r2, .L31
 481 000c FB79     		ldrb	r3, [r7, #7]
 482 000e 1370     		strb	r3, [r2]
 687:Generated_Source\PSoC5/High_Frequency_PWM_1.c ****     }
 483              		.loc 1 687 0
 484 0010 00BF     		nop
 485 0012 0C37     		adds	r7, r7, #12
 486              		.cfi_def_cfa_offset 4
 487 0014 BD46     		mov	sp, r7
 488              		.cfi_def_cfa_register 13
 489              		@ sp needed
 490 0016 80BC     		pop	{r7}
 491              		.cfi_restore 7
 492              		.cfi_def_cfa_offset 0
 493 0018 7047     		bx	lr
 494              	.L32:
 495 001a 00BF     		.align	2
 496              	.L31:
 497 001c 8F640040 		.word	1073767567
 498              		.cfi_endproc
 499              	.LFE9:
 500              		.size	High_Frequency_PWM_1_SetInterruptMode, .-High_Frequency_PWM_1_SetInterruptMode
 501              		.section	.text.High_Frequency_PWM_1_ReadStatusRegister,"ax",%progbits
 502              		.align	2
 503              		.global	High_Frequency_PWM_1_ReadStatusRegister
 504              		.thumb
 505              		.thumb_func
 506              		.type	High_Frequency_PWM_1_ReadStatusRegister, %function
 507              	High_Frequency_PWM_1_ReadStatusRegister:
 508              	.LFB10:
 688:Generated_Source\PSoC5/High_Frequency_PWM_1.c **** 
ARM GAS  C:\Users\DEREKM~1\AppData\Local\Temp\cclMHIkB.s 			page 22


 689:Generated_Source\PSoC5/High_Frequency_PWM_1.c **** 
 690:Generated_Source\PSoC5/High_Frequency_PWM_1.c ****     /*******************************************************************************
 691:Generated_Source\PSoC5/High_Frequency_PWM_1.c ****     * Function Name: High_Frequency_PWM_1_ReadStatusRegister
 692:Generated_Source\PSoC5/High_Frequency_PWM_1.c ****     ********************************************************************************
 693:Generated_Source\PSoC5/High_Frequency_PWM_1.c ****     *
 694:Generated_Source\PSoC5/High_Frequency_PWM_1.c ****     * Summary:
 695:Generated_Source\PSoC5/High_Frequency_PWM_1.c ****     *  This function returns the current state of the status register.
 696:Generated_Source\PSoC5/High_Frequency_PWM_1.c ****     *
 697:Generated_Source\PSoC5/High_Frequency_PWM_1.c ****     * Parameters:
 698:Generated_Source\PSoC5/High_Frequency_PWM_1.c ****     *  None
 699:Generated_Source\PSoC5/High_Frequency_PWM_1.c ****     *
 700:Generated_Source\PSoC5/High_Frequency_PWM_1.c ****     * Return:
 701:Generated_Source\PSoC5/High_Frequency_PWM_1.c ****     *  uint8 : Current status register value. The status register bits are:
 702:Generated_Source\PSoC5/High_Frequency_PWM_1.c ****     *  [7:6] : Unused(0)
 703:Generated_Source\PSoC5/High_Frequency_PWM_1.c ****     *  [5]   : Kill event output
 704:Generated_Source\PSoC5/High_Frequency_PWM_1.c ****     *  [4]   : FIFO not empty
 705:Generated_Source\PSoC5/High_Frequency_PWM_1.c ****     *  [3]   : FIFO full
 706:Generated_Source\PSoC5/High_Frequency_PWM_1.c ****     *  [2]   : Terminal count
 707:Generated_Source\PSoC5/High_Frequency_PWM_1.c ****     *  [1]   : Compare output 2
 708:Generated_Source\PSoC5/High_Frequency_PWM_1.c ****     *  [0]   : Compare output 1
 709:Generated_Source\PSoC5/High_Frequency_PWM_1.c ****     *
 710:Generated_Source\PSoC5/High_Frequency_PWM_1.c ****     *******************************************************************************/
 711:Generated_Source\PSoC5/High_Frequency_PWM_1.c ****     uint8 High_Frequency_PWM_1_ReadStatusRegister(void) 
 712:Generated_Source\PSoC5/High_Frequency_PWM_1.c ****     {
 509              		.loc 1 712 0
 510              		.cfi_startproc
 511              		@ args = 0, pretend = 0, frame = 0
 512              		@ frame_needed = 1, uses_anonymous_args = 0
 513              		@ link register save eliminated.
 514 0000 80B4     		push	{r7}
 515              		.cfi_def_cfa_offset 4
 516              		.cfi_offset 7, -4
 517 0002 00AF     		add	r7, sp, #0
 518              		.cfi_def_cfa_register 7
 713:Generated_Source\PSoC5/High_Frequency_PWM_1.c ****         return (CY_GET_REG8(High_Frequency_PWM_1_STATUS_PTR));
 519              		.loc 1 713 0
 520 0004 034B     		ldr	r3, .L35
 521 0006 1B78     		ldrb	r3, [r3]
 522 0008 DBB2     		uxtb	r3, r3
 714:Generated_Source\PSoC5/High_Frequency_PWM_1.c ****     }
 523              		.loc 1 714 0
 524 000a 1846     		mov	r0, r3
 525 000c BD46     		mov	sp, r7
 526              		.cfi_def_cfa_register 13
 527              		@ sp needed
 528 000e 80BC     		pop	{r7}
 529              		.cfi_restore 7
 530              		.cfi_def_cfa_offset 0
 531 0010 7047     		bx	lr
 532              	.L36:
 533 0012 00BF     		.align	2
 534              	.L35:
 535 0014 6F640040 		.word	1073767535
 536              		.cfi_endproc
 537              	.LFE10:
 538              		.size	High_Frequency_PWM_1_ReadStatusRegister, .-High_Frequency_PWM_1_ReadStatusRegister
 539              		.section	.text.High_Frequency_PWM_1_ReadControlRegister,"ax",%progbits
ARM GAS  C:\Users\DEREKM~1\AppData\Local\Temp\cclMHIkB.s 			page 23


 540              		.align	2
 541              		.global	High_Frequency_PWM_1_ReadControlRegister
 542              		.thumb
 543              		.thumb_func
 544              		.type	High_Frequency_PWM_1_ReadControlRegister, %function
 545              	High_Frequency_PWM_1_ReadControlRegister:
 546              	.LFB11:
 715:Generated_Source\PSoC5/High_Frequency_PWM_1.c **** 
 716:Generated_Source\PSoC5/High_Frequency_PWM_1.c **** #endif /* (High_Frequency_PWM_1_UseStatus || High_Frequency_PWM_1_UsingFixedFunction) */
 717:Generated_Source\PSoC5/High_Frequency_PWM_1.c **** 
 718:Generated_Source\PSoC5/High_Frequency_PWM_1.c **** 
 719:Generated_Source\PSoC5/High_Frequency_PWM_1.c **** #if (High_Frequency_PWM_1_UseControl)
 720:Generated_Source\PSoC5/High_Frequency_PWM_1.c **** 
 721:Generated_Source\PSoC5/High_Frequency_PWM_1.c **** 
 722:Generated_Source\PSoC5/High_Frequency_PWM_1.c ****     /*******************************************************************************
 723:Generated_Source\PSoC5/High_Frequency_PWM_1.c ****     * Function Name: High_Frequency_PWM_1_ReadControlRegister
 724:Generated_Source\PSoC5/High_Frequency_PWM_1.c ****     ********************************************************************************
 725:Generated_Source\PSoC5/High_Frequency_PWM_1.c ****     *
 726:Generated_Source\PSoC5/High_Frequency_PWM_1.c ****     * Summary:
 727:Generated_Source\PSoC5/High_Frequency_PWM_1.c ****     *  Returns the current state of the control register. This API is available
 728:Generated_Source\PSoC5/High_Frequency_PWM_1.c ****     *  only if the control register is not removed.
 729:Generated_Source\PSoC5/High_Frequency_PWM_1.c ****     *
 730:Generated_Source\PSoC5/High_Frequency_PWM_1.c ****     * Parameters:
 731:Generated_Source\PSoC5/High_Frequency_PWM_1.c ****     *  None
 732:Generated_Source\PSoC5/High_Frequency_PWM_1.c ****     *
 733:Generated_Source\PSoC5/High_Frequency_PWM_1.c ****     * Return:
 734:Generated_Source\PSoC5/High_Frequency_PWM_1.c ****     *  uint8 : Current control register value
 735:Generated_Source\PSoC5/High_Frequency_PWM_1.c ****     *
 736:Generated_Source\PSoC5/High_Frequency_PWM_1.c ****     *******************************************************************************/
 737:Generated_Source\PSoC5/High_Frequency_PWM_1.c ****     uint8 High_Frequency_PWM_1_ReadControlRegister(void) 
 738:Generated_Source\PSoC5/High_Frequency_PWM_1.c ****     {
 547              		.loc 1 738 0
 548              		.cfi_startproc
 549              		@ args = 0, pretend = 0, frame = 8
 550              		@ frame_needed = 1, uses_anonymous_args = 0
 551              		@ link register save eliminated.
 552 0000 80B4     		push	{r7}
 553              		.cfi_def_cfa_offset 4
 554              		.cfi_offset 7, -4
 555 0002 83B0     		sub	sp, sp, #12
 556              		.cfi_def_cfa_offset 16
 557 0004 00AF     		add	r7, sp, #0
 558              		.cfi_def_cfa_register 7
 739:Generated_Source\PSoC5/High_Frequency_PWM_1.c ****         uint8 result;
 740:Generated_Source\PSoC5/High_Frequency_PWM_1.c **** 
 741:Generated_Source\PSoC5/High_Frequency_PWM_1.c ****         result = CY_GET_REG8(High_Frequency_PWM_1_CONTROL_PTR);
 559              		.loc 1 741 0
 560 0006 044B     		ldr	r3, .L39
 561 0008 1B78     		ldrb	r3, [r3]
 562 000a FB71     		strb	r3, [r7, #7]
 742:Generated_Source\PSoC5/High_Frequency_PWM_1.c ****         return (result);
 563              		.loc 1 742 0
 564 000c FB79     		ldrb	r3, [r7, #7]	@ zero_extendqisi2
 743:Generated_Source\PSoC5/High_Frequency_PWM_1.c ****     }
 565              		.loc 1 743 0
 566 000e 1846     		mov	r0, r3
 567 0010 0C37     		adds	r7, r7, #12
ARM GAS  C:\Users\DEREKM~1\AppData\Local\Temp\cclMHIkB.s 			page 24


 568              		.cfi_def_cfa_offset 4
 569 0012 BD46     		mov	sp, r7
 570              		.cfi_def_cfa_register 13
 571              		@ sp needed
 572 0014 80BC     		pop	{r7}
 573              		.cfi_restore 7
 574              		.cfi_def_cfa_offset 0
 575 0016 7047     		bx	lr
 576              	.L40:
 577              		.align	2
 578              	.L39:
 579 0018 7F640040 		.word	1073767551
 580              		.cfi_endproc
 581              	.LFE11:
 582              		.size	High_Frequency_PWM_1_ReadControlRegister, .-High_Frequency_PWM_1_ReadControlRegister
 583              		.section	.text.High_Frequency_PWM_1_WriteControlRegister,"ax",%progbits
 584              		.align	2
 585              		.global	High_Frequency_PWM_1_WriteControlRegister
 586              		.thumb
 587              		.thumb_func
 588              		.type	High_Frequency_PWM_1_WriteControlRegister, %function
 589              	High_Frequency_PWM_1_WriteControlRegister:
 590              	.LFB12:
 744:Generated_Source\PSoC5/High_Frequency_PWM_1.c **** 
 745:Generated_Source\PSoC5/High_Frequency_PWM_1.c **** 
 746:Generated_Source\PSoC5/High_Frequency_PWM_1.c ****     /*******************************************************************************
 747:Generated_Source\PSoC5/High_Frequency_PWM_1.c ****     * Function Name: High_Frequency_PWM_1_WriteControlRegister
 748:Generated_Source\PSoC5/High_Frequency_PWM_1.c ****     ********************************************************************************
 749:Generated_Source\PSoC5/High_Frequency_PWM_1.c ****     *
 750:Generated_Source\PSoC5/High_Frequency_PWM_1.c ****     * Summary:
 751:Generated_Source\PSoC5/High_Frequency_PWM_1.c ****     *  Sets the bit field of the control register. This API is available only if
 752:Generated_Source\PSoC5/High_Frequency_PWM_1.c ****     *  the control register is not removed.
 753:Generated_Source\PSoC5/High_Frequency_PWM_1.c ****     *
 754:Generated_Source\PSoC5/High_Frequency_PWM_1.c ****     * Parameters:
 755:Generated_Source\PSoC5/High_Frequency_PWM_1.c ****     *  uint8 control: Control register bit field, The status register bits are:
 756:Generated_Source\PSoC5/High_Frequency_PWM_1.c ****     *  [7]   : PWM Enable
 757:Generated_Source\PSoC5/High_Frequency_PWM_1.c ****     *  [6]   : Reset
 758:Generated_Source\PSoC5/High_Frequency_PWM_1.c ****     *  [5:3] : Compare Mode2
 759:Generated_Source\PSoC5/High_Frequency_PWM_1.c ****     *  [2:0] : Compare Mode2
 760:Generated_Source\PSoC5/High_Frequency_PWM_1.c ****     *
 761:Generated_Source\PSoC5/High_Frequency_PWM_1.c ****     * Return:
 762:Generated_Source\PSoC5/High_Frequency_PWM_1.c ****     *  None
 763:Generated_Source\PSoC5/High_Frequency_PWM_1.c ****     *
 764:Generated_Source\PSoC5/High_Frequency_PWM_1.c ****     *******************************************************************************/
 765:Generated_Source\PSoC5/High_Frequency_PWM_1.c ****     void High_Frequency_PWM_1_WriteControlRegister(uint8 control) 
 766:Generated_Source\PSoC5/High_Frequency_PWM_1.c ****     {
 591              		.loc 1 766 0
 592              		.cfi_startproc
 593              		@ args = 0, pretend = 0, frame = 8
 594              		@ frame_needed = 1, uses_anonymous_args = 0
 595              		@ link register save eliminated.
 596 0000 80B4     		push	{r7}
 597              		.cfi_def_cfa_offset 4
 598              		.cfi_offset 7, -4
 599 0002 83B0     		sub	sp, sp, #12
 600              		.cfi_def_cfa_offset 16
 601 0004 00AF     		add	r7, sp, #0
ARM GAS  C:\Users\DEREKM~1\AppData\Local\Temp\cclMHIkB.s 			page 25


 602              		.cfi_def_cfa_register 7
 603 0006 0346     		mov	r3, r0
 604 0008 FB71     		strb	r3, [r7, #7]
 767:Generated_Source\PSoC5/High_Frequency_PWM_1.c ****         CY_SET_REG8(High_Frequency_PWM_1_CONTROL_PTR, control);
 605              		.loc 1 767 0
 606 000a 044A     		ldr	r2, .L42
 607 000c FB79     		ldrb	r3, [r7, #7]
 608 000e 1370     		strb	r3, [r2]
 768:Generated_Source\PSoC5/High_Frequency_PWM_1.c ****     }
 609              		.loc 1 768 0
 610 0010 00BF     		nop
 611 0012 0C37     		adds	r7, r7, #12
 612              		.cfi_def_cfa_offset 4
 613 0014 BD46     		mov	sp, r7
 614              		.cfi_def_cfa_register 13
 615              		@ sp needed
 616 0016 80BC     		pop	{r7}
 617              		.cfi_restore 7
 618              		.cfi_def_cfa_offset 0
 619 0018 7047     		bx	lr
 620              	.L43:
 621 001a 00BF     		.align	2
 622              	.L42:
 623 001c 7F640040 		.word	1073767551
 624              		.cfi_endproc
 625              	.LFE12:
 626              		.size	High_Frequency_PWM_1_WriteControlRegister, .-High_Frequency_PWM_1_WriteControlRegister
 627              		.section	.text.High_Frequency_PWM_1_ReadCapture,"ax",%progbits
 628              		.align	2
 629              		.global	High_Frequency_PWM_1_ReadCapture
 630              		.thumb
 631              		.thumb_func
 632              		.type	High_Frequency_PWM_1_ReadCapture, %function
 633              	High_Frequency_PWM_1_ReadCapture:
 634              	.LFB13:
 769:Generated_Source\PSoC5/High_Frequency_PWM_1.c **** 
 770:Generated_Source\PSoC5/High_Frequency_PWM_1.c **** #endif /* (High_Frequency_PWM_1_UseControl) */
 771:Generated_Source\PSoC5/High_Frequency_PWM_1.c **** 
 772:Generated_Source\PSoC5/High_Frequency_PWM_1.c **** 
 773:Generated_Source\PSoC5/High_Frequency_PWM_1.c **** #if (!High_Frequency_PWM_1_UsingFixedFunction)
 774:Generated_Source\PSoC5/High_Frequency_PWM_1.c **** 
 775:Generated_Source\PSoC5/High_Frequency_PWM_1.c **** 
 776:Generated_Source\PSoC5/High_Frequency_PWM_1.c ****     /*******************************************************************************
 777:Generated_Source\PSoC5/High_Frequency_PWM_1.c ****     * Function Name: High_Frequency_PWM_1_ReadCapture
 778:Generated_Source\PSoC5/High_Frequency_PWM_1.c ****     ********************************************************************************
 779:Generated_Source\PSoC5/High_Frequency_PWM_1.c ****     *
 780:Generated_Source\PSoC5/High_Frequency_PWM_1.c ****     * Summary:
 781:Generated_Source\PSoC5/High_Frequency_PWM_1.c ****     *  Reads the capture value from the capture FIFO.
 782:Generated_Source\PSoC5/High_Frequency_PWM_1.c ****     *
 783:Generated_Source\PSoC5/High_Frequency_PWM_1.c ****     * Parameters:
 784:Generated_Source\PSoC5/High_Frequency_PWM_1.c ****     *  None
 785:Generated_Source\PSoC5/High_Frequency_PWM_1.c ****     *
 786:Generated_Source\PSoC5/High_Frequency_PWM_1.c ****     * Return:
 787:Generated_Source\PSoC5/High_Frequency_PWM_1.c ****     *  uint8/uint16: The current capture value
 788:Generated_Source\PSoC5/High_Frequency_PWM_1.c ****     *
 789:Generated_Source\PSoC5/High_Frequency_PWM_1.c ****     *******************************************************************************/
 790:Generated_Source\PSoC5/High_Frequency_PWM_1.c ****     uint16 High_Frequency_PWM_1_ReadCapture(void) 
ARM GAS  C:\Users\DEREKM~1\AppData\Local\Temp\cclMHIkB.s 			page 26


 791:Generated_Source\PSoC5/High_Frequency_PWM_1.c ****     {
 635              		.loc 1 791 0
 636              		.cfi_startproc
 637              		@ args = 0, pretend = 0, frame = 0
 638              		@ frame_needed = 1, uses_anonymous_args = 0
 639              		@ link register save eliminated.
 640 0000 80B4     		push	{r7}
 641              		.cfi_def_cfa_offset 4
 642              		.cfi_offset 7, -4
 643 0002 00AF     		add	r7, sp, #0
 644              		.cfi_def_cfa_register 7
 792:Generated_Source\PSoC5/High_Frequency_PWM_1.c ****         return (CY_GET_REG16(High_Frequency_PWM_1_CAPTURE_LSB_PTR));
 645              		.loc 1 792 0
 646 0004 034B     		ldr	r3, .L46
 647 0006 1B88     		ldrh	r3, [r3]	@ movhi
 648 0008 9BB2     		uxth	r3, r3
 793:Generated_Source\PSoC5/High_Frequency_PWM_1.c ****     }
 649              		.loc 1 793 0
 650 000a 1846     		mov	r0, r3
 651 000c BD46     		mov	sp, r7
 652              		.cfi_def_cfa_register 13
 653              		@ sp needed
 654 000e 80BC     		pop	{r7}
 655              		.cfi_restore 7
 656              		.cfi_def_cfa_offset 0
 657 0010 7047     		bx	lr
 658              	.L47:
 659 0012 00BF     		.align	2
 660              	.L46:
 661 0014 BC680040 		.word	1073768636
 662              		.cfi_endproc
 663              	.LFE13:
 664              		.size	High_Frequency_PWM_1_ReadCapture, .-High_Frequency_PWM_1_ReadCapture
 665              		.section	.text.High_Frequency_PWM_1_ReadCompare,"ax",%progbits
 666              		.align	2
 667              		.global	High_Frequency_PWM_1_ReadCompare
 668              		.thumb
 669              		.thumb_func
 670              		.type	High_Frequency_PWM_1_ReadCompare, %function
 671              	High_Frequency_PWM_1_ReadCompare:
 672              	.LFB14:
 794:Generated_Source\PSoC5/High_Frequency_PWM_1.c **** 
 795:Generated_Source\PSoC5/High_Frequency_PWM_1.c **** #endif /* (!High_Frequency_PWM_1_UsingFixedFunction) */
 796:Generated_Source\PSoC5/High_Frequency_PWM_1.c **** 
 797:Generated_Source\PSoC5/High_Frequency_PWM_1.c **** 
 798:Generated_Source\PSoC5/High_Frequency_PWM_1.c **** #if (High_Frequency_PWM_1_UseOneCompareMode)
 799:Generated_Source\PSoC5/High_Frequency_PWM_1.c **** 
 800:Generated_Source\PSoC5/High_Frequency_PWM_1.c **** 
 801:Generated_Source\PSoC5/High_Frequency_PWM_1.c ****     /*******************************************************************************
 802:Generated_Source\PSoC5/High_Frequency_PWM_1.c ****     * Function Name: High_Frequency_PWM_1_ReadCompare
 803:Generated_Source\PSoC5/High_Frequency_PWM_1.c ****     ********************************************************************************
 804:Generated_Source\PSoC5/High_Frequency_PWM_1.c ****     *
 805:Generated_Source\PSoC5/High_Frequency_PWM_1.c ****     * Summary:
 806:Generated_Source\PSoC5/High_Frequency_PWM_1.c ****     *  Reads the compare value for the compare output when the PWM Mode parameter is
 807:Generated_Source\PSoC5/High_Frequency_PWM_1.c ****     *  set to Dither mode, Center Aligned mode, or One Output mode.
 808:Generated_Source\PSoC5/High_Frequency_PWM_1.c ****     *
 809:Generated_Source\PSoC5/High_Frequency_PWM_1.c ****     * Parameters:
ARM GAS  C:\Users\DEREKM~1\AppData\Local\Temp\cclMHIkB.s 			page 27


 810:Generated_Source\PSoC5/High_Frequency_PWM_1.c ****     *  None
 811:Generated_Source\PSoC5/High_Frequency_PWM_1.c ****     *
 812:Generated_Source\PSoC5/High_Frequency_PWM_1.c ****     * Return:
 813:Generated_Source\PSoC5/High_Frequency_PWM_1.c ****     *  uint8/uint16: Current compare value
 814:Generated_Source\PSoC5/High_Frequency_PWM_1.c ****     *
 815:Generated_Source\PSoC5/High_Frequency_PWM_1.c ****     *******************************************************************************/
 816:Generated_Source\PSoC5/High_Frequency_PWM_1.c ****     uint16 High_Frequency_PWM_1_ReadCompare(void) 
 817:Generated_Source\PSoC5/High_Frequency_PWM_1.c ****     {
 673              		.loc 1 817 0
 674              		.cfi_startproc
 675              		@ args = 0, pretend = 0, frame = 0
 676              		@ frame_needed = 1, uses_anonymous_args = 0
 677              		@ link register save eliminated.
 678 0000 80B4     		push	{r7}
 679              		.cfi_def_cfa_offset 4
 680              		.cfi_offset 7, -4
 681 0002 00AF     		add	r7, sp, #0
 682              		.cfi_def_cfa_register 7
 818:Generated_Source\PSoC5/High_Frequency_PWM_1.c ****         #if(High_Frequency_PWM_1_UsingFixedFunction)
 819:Generated_Source\PSoC5/High_Frequency_PWM_1.c ****             return ((uint16)CY_GET_REG16(High_Frequency_PWM_1_COMPARE1_LSB_PTR));
 820:Generated_Source\PSoC5/High_Frequency_PWM_1.c ****         #else
 821:Generated_Source\PSoC5/High_Frequency_PWM_1.c ****             return (CY_GET_REG16(High_Frequency_PWM_1_COMPARE1_LSB_PTR));
 683              		.loc 1 821 0
 684 0004 034B     		ldr	r3, .L50
 685 0006 1B88     		ldrh	r3, [r3]	@ movhi
 686 0008 9BB2     		uxth	r3, r3
 822:Generated_Source\PSoC5/High_Frequency_PWM_1.c ****         #endif /* (High_Frequency_PWM_1_UsingFixedFunction) */
 823:Generated_Source\PSoC5/High_Frequency_PWM_1.c ****     }
 687              		.loc 1 823 0
 688 000a 1846     		mov	r0, r3
 689 000c BD46     		mov	sp, r7
 690              		.cfi_def_cfa_register 13
 691              		@ sp needed
 692 000e 80BC     		pop	{r7}
 693              		.cfi_restore 7
 694              		.cfi_def_cfa_offset 0
 695 0010 7047     		bx	lr
 696              	.L51:
 697 0012 00BF     		.align	2
 698              	.L50:
 699 0014 5C680040 		.word	1073768540
 700              		.cfi_endproc
 701              	.LFE14:
 702              		.size	High_Frequency_PWM_1_ReadCompare, .-High_Frequency_PWM_1_ReadCompare
 703              		.section	.text.High_Frequency_PWM_1_ReadPeriod,"ax",%progbits
 704              		.align	2
 705              		.global	High_Frequency_PWM_1_ReadPeriod
 706              		.thumb
 707              		.thumb_func
 708              		.type	High_Frequency_PWM_1_ReadPeriod, %function
 709              	High_Frequency_PWM_1_ReadPeriod:
 710              	.LFB15:
 824:Generated_Source\PSoC5/High_Frequency_PWM_1.c **** 
 825:Generated_Source\PSoC5/High_Frequency_PWM_1.c **** #else
 826:Generated_Source\PSoC5/High_Frequency_PWM_1.c **** 
 827:Generated_Source\PSoC5/High_Frequency_PWM_1.c **** 
 828:Generated_Source\PSoC5/High_Frequency_PWM_1.c ****     /*******************************************************************************
ARM GAS  C:\Users\DEREKM~1\AppData\Local\Temp\cclMHIkB.s 			page 28


 829:Generated_Source\PSoC5/High_Frequency_PWM_1.c ****     * Function Name: High_Frequency_PWM_1_ReadCompare1
 830:Generated_Source\PSoC5/High_Frequency_PWM_1.c ****     ********************************************************************************
 831:Generated_Source\PSoC5/High_Frequency_PWM_1.c ****     *
 832:Generated_Source\PSoC5/High_Frequency_PWM_1.c ****     * Summary:
 833:Generated_Source\PSoC5/High_Frequency_PWM_1.c ****     *  Reads the compare value for the compare1 output.
 834:Generated_Source\PSoC5/High_Frequency_PWM_1.c ****     *
 835:Generated_Source\PSoC5/High_Frequency_PWM_1.c ****     * Parameters:
 836:Generated_Source\PSoC5/High_Frequency_PWM_1.c ****     *  None
 837:Generated_Source\PSoC5/High_Frequency_PWM_1.c ****     *
 838:Generated_Source\PSoC5/High_Frequency_PWM_1.c ****     * Return:
 839:Generated_Source\PSoC5/High_Frequency_PWM_1.c ****     *  uint8/uint16: Current compare value.
 840:Generated_Source\PSoC5/High_Frequency_PWM_1.c ****     *
 841:Generated_Source\PSoC5/High_Frequency_PWM_1.c ****     *******************************************************************************/
 842:Generated_Source\PSoC5/High_Frequency_PWM_1.c ****     uint16 High_Frequency_PWM_1_ReadCompare1(void) 
 843:Generated_Source\PSoC5/High_Frequency_PWM_1.c ****     {
 844:Generated_Source\PSoC5/High_Frequency_PWM_1.c ****         return (CY_GET_REG16(High_Frequency_PWM_1_COMPARE1_LSB_PTR));
 845:Generated_Source\PSoC5/High_Frequency_PWM_1.c ****     }
 846:Generated_Source\PSoC5/High_Frequency_PWM_1.c **** 
 847:Generated_Source\PSoC5/High_Frequency_PWM_1.c **** 
 848:Generated_Source\PSoC5/High_Frequency_PWM_1.c ****     /*******************************************************************************
 849:Generated_Source\PSoC5/High_Frequency_PWM_1.c ****     * Function Name: High_Frequency_PWM_1_ReadCompare2
 850:Generated_Source\PSoC5/High_Frequency_PWM_1.c ****     ********************************************************************************
 851:Generated_Source\PSoC5/High_Frequency_PWM_1.c ****     *
 852:Generated_Source\PSoC5/High_Frequency_PWM_1.c ****     * Summary:
 853:Generated_Source\PSoC5/High_Frequency_PWM_1.c ****     *  Reads the compare value for the compare2 output.
 854:Generated_Source\PSoC5/High_Frequency_PWM_1.c ****     *
 855:Generated_Source\PSoC5/High_Frequency_PWM_1.c ****     * Parameters:
 856:Generated_Source\PSoC5/High_Frequency_PWM_1.c ****     *  None
 857:Generated_Source\PSoC5/High_Frequency_PWM_1.c ****     *
 858:Generated_Source\PSoC5/High_Frequency_PWM_1.c ****     * Return:
 859:Generated_Source\PSoC5/High_Frequency_PWM_1.c ****     *  uint8/uint16: Current compare value.
 860:Generated_Source\PSoC5/High_Frequency_PWM_1.c ****     *
 861:Generated_Source\PSoC5/High_Frequency_PWM_1.c ****     *******************************************************************************/
 862:Generated_Source\PSoC5/High_Frequency_PWM_1.c ****     uint16 High_Frequency_PWM_1_ReadCompare2(void) 
 863:Generated_Source\PSoC5/High_Frequency_PWM_1.c ****     {
 864:Generated_Source\PSoC5/High_Frequency_PWM_1.c ****         return (CY_GET_REG16(High_Frequency_PWM_1_COMPARE2_LSB_PTR));
 865:Generated_Source\PSoC5/High_Frequency_PWM_1.c ****     }
 866:Generated_Source\PSoC5/High_Frequency_PWM_1.c **** 
 867:Generated_Source\PSoC5/High_Frequency_PWM_1.c **** #endif /* (High_Frequency_PWM_1_UseOneCompareMode) */
 868:Generated_Source\PSoC5/High_Frequency_PWM_1.c **** 
 869:Generated_Source\PSoC5/High_Frequency_PWM_1.c **** 
 870:Generated_Source\PSoC5/High_Frequency_PWM_1.c **** /*******************************************************************************
 871:Generated_Source\PSoC5/High_Frequency_PWM_1.c **** * Function Name: High_Frequency_PWM_1_ReadPeriod
 872:Generated_Source\PSoC5/High_Frequency_PWM_1.c **** ********************************************************************************
 873:Generated_Source\PSoC5/High_Frequency_PWM_1.c **** *
 874:Generated_Source\PSoC5/High_Frequency_PWM_1.c **** * Summary:
 875:Generated_Source\PSoC5/High_Frequency_PWM_1.c **** *  Reads the period value used by the PWM hardware.
 876:Generated_Source\PSoC5/High_Frequency_PWM_1.c **** *
 877:Generated_Source\PSoC5/High_Frequency_PWM_1.c **** * Parameters:
 878:Generated_Source\PSoC5/High_Frequency_PWM_1.c **** *  None
 879:Generated_Source\PSoC5/High_Frequency_PWM_1.c **** *
 880:Generated_Source\PSoC5/High_Frequency_PWM_1.c **** * Return:
 881:Generated_Source\PSoC5/High_Frequency_PWM_1.c **** *  uint8/16: Period value
 882:Generated_Source\PSoC5/High_Frequency_PWM_1.c **** *
 883:Generated_Source\PSoC5/High_Frequency_PWM_1.c **** *******************************************************************************/
 884:Generated_Source\PSoC5/High_Frequency_PWM_1.c **** uint16 High_Frequency_PWM_1_ReadPeriod(void) 
 885:Generated_Source\PSoC5/High_Frequency_PWM_1.c **** {
ARM GAS  C:\Users\DEREKM~1\AppData\Local\Temp\cclMHIkB.s 			page 29


 711              		.loc 1 885 0
 712              		.cfi_startproc
 713              		@ args = 0, pretend = 0, frame = 0
 714              		@ frame_needed = 1, uses_anonymous_args = 0
 715              		@ link register save eliminated.
 716 0000 80B4     		push	{r7}
 717              		.cfi_def_cfa_offset 4
 718              		.cfi_offset 7, -4
 719 0002 00AF     		add	r7, sp, #0
 720              		.cfi_def_cfa_register 7
 886:Generated_Source\PSoC5/High_Frequency_PWM_1.c ****     #if(High_Frequency_PWM_1_UsingFixedFunction)
 887:Generated_Source\PSoC5/High_Frequency_PWM_1.c ****         return ((uint16)CY_GET_REG16(High_Frequency_PWM_1_PERIOD_LSB_PTR));
 888:Generated_Source\PSoC5/High_Frequency_PWM_1.c ****     #else
 889:Generated_Source\PSoC5/High_Frequency_PWM_1.c ****         return (CY_GET_REG16(High_Frequency_PWM_1_PERIOD_LSB_PTR));
 721              		.loc 1 889 0
 722 0004 034B     		ldr	r3, .L54
 723 0006 1B88     		ldrh	r3, [r3]	@ movhi
 724 0008 9BB2     		uxth	r3, r3
 890:Generated_Source\PSoC5/High_Frequency_PWM_1.c ****     #endif /* (High_Frequency_PWM_1_UsingFixedFunction) */
 891:Generated_Source\PSoC5/High_Frequency_PWM_1.c **** }
 725              		.loc 1 891 0
 726 000a 1846     		mov	r0, r3
 727 000c BD46     		mov	sp, r7
 728              		.cfi_def_cfa_register 13
 729              		@ sp needed
 730 000e 80BC     		pop	{r7}
 731              		.cfi_restore 7
 732              		.cfi_def_cfa_offset 0
 733 0010 7047     		bx	lr
 734              	.L55:
 735 0012 00BF     		.align	2
 736              	.L54:
 737 0014 9C680040 		.word	1073768604
 738              		.cfi_endproc
 739              	.LFE15:
 740              		.size	High_Frequency_PWM_1_ReadPeriod, .-High_Frequency_PWM_1_ReadPeriod
 741              		.text
 742              	.Letext0:
 743              		.file 2 "Generated_Source\\PSoC5\\cytypes.h"
