ARM GAS  C:\Users\DEREKM~1\AppData\Local\Temp\ccqkvYAI.s 			page 1


   1              		.syntax unified
   2              		.cpu cortex-m3
   3              		.fpu softvfp
   4              		.eabi_attribute 20, 1
   5              		.eabi_attribute 21, 1
   6              		.eabi_attribute 23, 3
   7              		.eabi_attribute 24, 1
   8              		.eabi_attribute 25, 1
   9              		.eabi_attribute 26, 1
  10              		.eabi_attribute 30, 6
  11              		.eabi_attribute 34, 1
  12              		.eabi_attribute 18, 4
  13              		.thumb
  14              		.syntax unified
  15              		.file	"main.c"
  16              		.text
  17              	.Ltext0:
  18              		.cfi_sections	.debug_frame
  19              		.global	awake_flag
  20              		.bss
  21              		.align	2
  22              		.type	awake_flag, %object
  23              		.size	awake_flag, 4
  24              	awake_flag:
  25 0000 00000000 		.space	4
  26              		.global	awake
  27              		.data
  28              		.align	2
  29              		.type	awake, %object
  30              		.size	awake, 4
  31              	awake:
  32 0000 01000000 		.word	1
  33              		.comm	disp,5,4
  34              		.comm	disp2,5,4
  35              		.comm	mode,4,4
  36              		.comm	setpoint,1,1
  37              		.comm	speed,4,4
  38              		.comm	animate,4,4
  39              		.comm	TOL,1,1
  40              		.comm	TH,1,1
  41              		.comm	TL,1,1
  42              		.global	slave_address
  43              		.type	slave_address, %object
  44              		.size	slave_address, 1
  45              	slave_address:
  46 0004 48       		.byte	72
  47              		.comm	tempBuf,9,4
  48              		.global	delay_time
  49 0005 00       		.align	1
  50              		.type	delay_time, %object
  51              		.size	delay_time, 2
  52              	delay_time:
  53 0006 1400     		.short	20
  54              		.section	.rodata
  55              		.align	2
  56              	.LC0:
  57 0000 AC       		.byte	-84
ARM GAS  C:\Users\DEREKM~1\AppData\Local\Temp\ccqkvYAI.s 			page 2


  58 0001 02       		.byte	2
  59 0002 0000     		.align	2
  60              	.LC1:
  61 0004 A1       		.byte	-95
  62 0005 37       		.byte	55
  63 0006 80       		.byte	-128
  64 0007 00       		.align	2
  65              	.LC2:
  66 0008 A2       		.byte	-94
  67 0009 36       		.byte	54
  68 000a 80       		.byte	-128
  69              		.section	.text.temp_initialize,"ax",%progbits
  70              		.align	2
  71              		.global	temp_initialize
  72              		.thumb
  73              		.thumb_func
  74              		.type	temp_initialize, %function
  75              	temp_initialize:
  76              	.LFB69:
  77              		.file 1 "main.c"
   1:main.c        **** /*
   2:main.c        ****  * FreeRTOS Kernel V10.2.1
   3:main.c        ****  * Copyright (C) 2019 Amazon.com, Inc. or its affiliates.  All Rights Reserved.
   4:main.c        ****  *
   5:main.c        ****  * Permission is hereby granted, free of charge, to any person obtaining a copy of
   6:main.c        ****  * this software and associated documentation files (the "Software"), to deal in
   7:main.c        ****  * the Software without restriction, including without limitation the rights to
   8:main.c        ****  * use, copy, modify, merge, publish, distribute, sublicense, and/or sell copies of
   9:main.c        ****  * the Software, and to permit persons to whom the Software is furnished to do so,
  10:main.c        ****  * subject to the following conditions:
  11:main.c        ****  *
  12:main.c        ****  * The above copyright notice and this permission notice shall be included in all
  13:main.c        ****  * copies or substantial portions of the Software.
  14:main.c        ****  *
  15:main.c        ****  * THE SOFTWARE IS PROVIDED "AS IS", WITHOUT WARRANTY OF ANY KIND, EXPRESS OR
  16:main.c        ****  * IMPLIED, INCLUDING BUT NOT LIMITED TO THE WARRANTIES OF MERCHANTABILITY, FITNESS
  17:main.c        ****  * FOR A PARTICULAR PURPOSE AND NONINFRINGEMENT. IN NO EVENT SHALL THE AUTHORS OR
  18:main.c        ****  * COPYRIGHT HOLDERS BE LIABLE FOR ANY CLAIM, DAMAGES OR OTHER LIABILITY, WHETHER
  19:main.c        ****  * IN AN ACTION OF CONTRACT, TORT OR OTHERWISE, ARISING FROM, OUT OF OR IN
  20:main.c        ****  * CONNECTION WITH THE SOFTWARE OR THE USE OR OTHER DEALINGS IN THE SOFTWARE.
  21:main.c        ****  *
  22:main.c        ****  * http://www.FreeRTOS.org
  23:main.c        ****  * http://aws.amazon.com/freertos
  24:main.c        ****  *
  25:main.c        ****  * 1 tab == 4 spaces!
  26:main.c        ****  */
  27:main.c        **** 
  28:main.c        **** #include <device.h>
  29:main.c        **** #include "project.h"
  30:main.c        **** #include <stdio.h>
  31:main.c        **** #include "FreeRTOS.h" /* RTOS includes. */
  32:main.c        **** #include "task.h"
  33:main.c        **** 
  34:main.c        **** #define ENC_TASK_PRIORTIY       (tskIDLE_PRIORITY)
  35:main.c        **** #define POLL_TASK_PRIORITY      (tskIDLE_PRIORITY + 2)
  36:main.c        **** #define TOL_TASK_PRIORITY       (tskIDLE_PRIORITY)
  37:main.c        **** #define MODE_TASK_PRIORITY      (tskIDLE_PRIORITY)
ARM GAS  C:\Users\DEREKM~1\AppData\Local\Temp\ccqkvYAI.s 			page 3


  38:main.c        **** #define SPEED_TASK_PRIORITY     (tskIDLE_PRIORITY) 
  39:main.c        **** #define TOUT_TASK_PRIORITY      (tskIDLE_PRIORITY + 1)
  40:main.c        **** #define UPDATE_TASK_PRIORITY    (tskIDLE_PRIORITY + 3)
  41:main.c        **** #define MOTOR_TASK_PRIORITY     (tskIDLE_PRIORITY + 4)  //highest priority task to keep the motor t
  42:main.c        **** 
  43:main.c        **** #define OFF     0
  44:main.c        **** #define COOLING 1
  45:main.c        **** #define HEATING 2
  46:main.c        **** #define LOW     3
  47:main.c        **** #define MEDIUM  4
  48:main.c        **** #define HIGH    5
  49:main.c        **** 
  50:main.c        **** #define MIN_TEMP_SETPOINT   15
  51:main.c        **** #define MAX_TEMP_SETPOINT   40
  52:main.c        **** 
  53:main.c        **** #define DELAY_TIME  200
  54:main.c        **** 
  55:main.c        **** volatile int awake_flag =  0;
  56:main.c        **** int awake = 1;
  57:main.c        **** char disp[5];
  58:main.c        **** char disp2[5];
  59:main.c        **** int mode;
  60:main.c        **** uint8 setpoint;
  61:main.c        **** int speed;
  62:main.c        **** int animate;
  63:main.c        **** uint8 TOL;
  64:main.c        **** uint8 TH;
  65:main.c        **** uint8 TL;
  66:main.c        **** uint8 slave_address = 0x48;
  67:main.c        **** char tempBuf[9];
  68:main.c        **** uint16 delay_time = 20;
  69:main.c        **** 
  70:main.c        **** void temp_initialize(uint8 slave_address)
  71:main.c        **** {
  78              		.loc 1 71 0
  79              		.cfi_startproc
  80              		@ args = 0, pretend = 0, frame = 24
  81              		@ frame_needed = 1, uses_anonymous_args = 0
  82 0000 80B5     		push	{r7, lr}
  83              		.cfi_def_cfa_offset 8
  84              		.cfi_offset 7, -8
  85              		.cfi_offset 14, -4
  86 0002 86B0     		sub	sp, sp, #24
  87              		.cfi_def_cfa_offset 32
  88 0004 00AF     		add	r7, sp, #0
  89              		.cfi_def_cfa_register 7
  90 0006 0346     		mov	r3, r0
  91 0008 FB71     		strb	r3, [r7, #7]
  72:main.c        ****         uint8 Buffer1[]= {0xAC,0x02};           //sets polarity
  92              		.loc 1 72 0
  93 000a 2E4A     		ldr	r2, .L6
  94 000c 07F11403 		add	r3, r7, #20
  95 0010 1288     		ldrh	r2, [r2]	@ unaligned
  96 0012 1A80     		strh	r2, [r3]	@ unaligned
  73:main.c        ****         I2C_MasterWriteBuf((uint8)slave_address,(uint8*)Buffer1,2, I2C_MODE_COMPLETE_XFER);
  97              		.loc 1 73 0
  98 0014 07F11401 		add	r1, r7, #20
ARM GAS  C:\Users\DEREKM~1\AppData\Local\Temp\ccqkvYAI.s 			page 4


  99 0018 F879     		ldrb	r0, [r7, #7]	@ zero_extendqisi2
 100 001a 0023     		movs	r3, #0
 101 001c 0222     		movs	r2, #2
 102 001e FFF7FEFF 		bl	I2C_MasterWriteBuf
  74:main.c        ****         while (!(I2C_MasterStatus() & I2C_MSTAT_WR_CMPLT));
 103              		.loc 1 74 0
 104 0022 00BF     		nop
 105              	.L2:
 106              		.loc 1 74 0 is_stmt 0 discriminator 1
 107 0024 FFF7FEFF 		bl	I2C_MasterStatus
 108 0028 0346     		mov	r3, r0
 109 002a 03F00203 		and	r3, r3, #2
 110 002e 002B     		cmp	r3, #0
 111 0030 F8D0     		beq	.L2
  75:main.c        ****         I2C_MasterClearStatus();
 112              		.loc 1 75 0 is_stmt 1
 113 0032 FFF7FEFF 		bl	I2C_MasterClearStatus
  76:main.c        ****         
  77:main.c        ****         uint8 Buffer2[]= {0xA1,0x37,0x80};      //sets TH limit to 25.5 degrees
 114              		.loc 1 77 0
 115 0036 244A     		ldr	r2, .L6+4
 116 0038 07F11003 		add	r3, r7, #16
 117 003c 1188     		ldrh	r1, [r2]	@ unaligned
 118 003e 9278     		ldrb	r2, [r2, #2]
 119 0040 1980     		strh	r1, [r3]	@ unaligned
 120 0042 9A70     		strb	r2, [r3, #2]
  78:main.c        ****         I2C_MasterWriteBuf((uint8)slave_address,(uint8*)Buffer2,3, I2C_MODE_COMPLETE_XFER);
 121              		.loc 1 78 0
 122 0044 07F11001 		add	r1, r7, #16
 123 0048 F879     		ldrb	r0, [r7, #7]	@ zero_extendqisi2
 124 004a 0023     		movs	r3, #0
 125 004c 0322     		movs	r2, #3
 126 004e FFF7FEFF 		bl	I2C_MasterWriteBuf
  79:main.c        ****         while (!(I2C_MasterStatus() & I2C_MSTAT_WR_CMPLT));
 127              		.loc 1 79 0
 128 0052 00BF     		nop
 129              	.L3:
 130              		.loc 1 79 0 is_stmt 0 discriminator 1
 131 0054 FFF7FEFF 		bl	I2C_MasterStatus
 132 0058 0346     		mov	r3, r0
 133 005a 03F00203 		and	r3, r3, #2
 134 005e 002B     		cmp	r3, #0
 135 0060 F8D0     		beq	.L3
  80:main.c        ****         I2C_MasterClearStatus();
 136              		.loc 1 80 0 is_stmt 1
 137 0062 FFF7FEFF 		bl	I2C_MasterClearStatus
  81:main.c        ****         
  82:main.c        ****         uint8 Buffer3[]= {0xA2,0x36,0x80};      //sets the TL limit to 24.5 degrees
 138              		.loc 1 82 0
 139 0066 194A     		ldr	r2, .L6+8
 140 0068 07F10C03 		add	r3, r7, #12
 141 006c 1188     		ldrh	r1, [r2]	@ unaligned
 142 006e 9278     		ldrb	r2, [r2, #2]
 143 0070 1980     		strh	r1, [r3]	@ unaligned
 144 0072 9A70     		strb	r2, [r3, #2]
  83:main.c        ****         I2C_MasterWriteBuf((uint8)slave_address,(uint8*)Buffer3,3, I2C_MODE_COMPLETE_XFER);
 145              		.loc 1 83 0
ARM GAS  C:\Users\DEREKM~1\AppData\Local\Temp\ccqkvYAI.s 			page 5


 146 0074 07F10C01 		add	r1, r7, #12
 147 0078 F879     		ldrb	r0, [r7, #7]	@ zero_extendqisi2
 148 007a 0023     		movs	r3, #0
 149 007c 0322     		movs	r2, #3
 150 007e FFF7FEFF 		bl	I2C_MasterWriteBuf
  84:main.c        ****         while (!(I2C_MasterStatus() & I2C_MSTAT_WR_CMPLT));
 151              		.loc 1 84 0
 152 0082 00BF     		nop
 153              	.L4:
 154              		.loc 1 84 0 is_stmt 0 discriminator 1
 155 0084 FFF7FEFF 		bl	I2C_MasterStatus
 156 0088 0346     		mov	r3, r0
 157 008a 03F00203 		and	r3, r3, #2
 158 008e 002B     		cmp	r3, #0
 159 0090 F8D0     		beq	.L4
  85:main.c        ****         I2C_MasterClearStatus();
 160              		.loc 1 85 0 is_stmt 1
 161 0092 FFF7FEFF 		bl	I2C_MasterClearStatus
  86:main.c        ****         
  87:main.c        ****         uint8 Buffer4[]= {0xEE};                //starts convert T command
 162              		.loc 1 87 0
 163 0096 EE23     		movs	r3, #238
 164 0098 3B72     		strb	r3, [r7, #8]
  88:main.c        ****         I2C_MasterWriteBuf((uint8)slave_address,(uint8*)Buffer4,1, I2C_MODE_COMPLETE_XFER);
 165              		.loc 1 88 0
 166 009a 07F10801 		add	r1, r7, #8
 167 009e F879     		ldrb	r0, [r7, #7]	@ zero_extendqisi2
 168 00a0 0023     		movs	r3, #0
 169 00a2 0122     		movs	r2, #1
 170 00a4 FFF7FEFF 		bl	I2C_MasterWriteBuf
  89:main.c        ****         while (!(I2C_MasterStatus() & I2C_MSTAT_WR_CMPLT));
 171              		.loc 1 89 0
 172 00a8 00BF     		nop
 173              	.L5:
 174              		.loc 1 89 0 is_stmt 0 discriminator 1
 175 00aa FFF7FEFF 		bl	I2C_MasterStatus
 176 00ae 0346     		mov	r3, r0
 177 00b0 03F00203 		and	r3, r3, #2
 178 00b4 002B     		cmp	r3, #0
 179 00b6 F8D0     		beq	.L5
  90:main.c        ****         I2C_MasterClearStatus();
 180              		.loc 1 90 0 is_stmt 1
 181 00b8 FFF7FEFF 		bl	I2C_MasterClearStatus
  91:main.c        **** }
 182              		.loc 1 91 0
 183 00bc 00BF     		nop
 184 00be 1837     		adds	r7, r7, #24
 185              		.cfi_def_cfa_offset 8
 186 00c0 BD46     		mov	sp, r7
 187              		.cfi_def_cfa_register 13
 188              		@ sp needed
 189 00c2 80BD     		pop	{r7, pc}
 190              	.L7:
 191              		.align	2
 192              	.L6:
 193 00c4 00000000 		.word	.LC0
 194 00c8 04000000 		.word	.LC1
ARM GAS  C:\Users\DEREKM~1\AppData\Local\Temp\ccqkvYAI.s 			page 6


 195 00cc 08000000 		.word	.LC2
 196              		.cfi_endproc
 197              	.LFE69:
 198              		.size	temp_initialize, .-temp_initialize
 199              		.section	.rodata
 200 000b 00       		.align	2
 201              	.LC3:
 202 000c 54656D70 		.ascii	"Temp: %2d.%d\000"
 202      3A202532 
 202      642E2564 
 202      00
 203              		.section	.text.read_temp,"ax",%progbits
 204              		.align	2
 205              		.global	read_temp
 206              		.thumb
 207              		.thumb_func
 208              		.type	read_temp, %function
 209              	read_temp:
 210              	.LFB70:
  92:main.c        **** 
  93:main.c        **** void read_temp(uint8 slave_address, char* dataArray)
  94:main.c        **** {
 211              		.loc 1 94 0
 212              		.cfi_startproc
 213              		@ args = 0, pretend = 0, frame = 32
 214              		@ frame_needed = 1, uses_anonymous_args = 0
 215 0000 80B5     		push	{r7, lr}
 216              		.cfi_def_cfa_offset 8
 217              		.cfi_offset 7, -8
 218              		.cfi_offset 14, -4
 219 0002 88B0     		sub	sp, sp, #32
 220              		.cfi_def_cfa_offset 40
 221 0004 00AF     		add	r7, sp, #0
 222              		.cfi_def_cfa_register 7
 223 0006 0346     		mov	r3, r0
 224 0008 3960     		str	r1, [r7]
 225 000a FB71     		strb	r3, [r7, #7]
  95:main.c        ****     char disp[17];
  96:main.c        ****     memset(dataArray, 0, 9);                                         //clear string before saving r
 226              		.loc 1 96 0
 227 000c 0922     		movs	r2, #9
 228 000e 0021     		movs	r1, #0
 229 0010 3868     		ldr	r0, [r7]
 230 0012 FFF7FEFF 		bl	memset
  97:main.c        ****     uint8 command[1];
  98:main.c        ****     command[0] = 0xAA;                                              //read current temp command
 231              		.loc 1 98 0
 232 0016 AA23     		movs	r3, #170
 233 0018 3B72     		strb	r3, [r7, #8]
  99:main.c        **** 
 100:main.c        ****     I2C_MasterWriteBuf((uint8)slave_address,command,1, I2C_MODE_COMPLETE_XFER);
 234              		.loc 1 100 0
 235 001a 07F10801 		add	r1, r7, #8
 236 001e F879     		ldrb	r0, [r7, #7]	@ zero_extendqisi2
 237 0020 0023     		movs	r3, #0
 238 0022 0122     		movs	r2, #1
 239 0024 FFF7FEFF 		bl	I2C_MasterWriteBuf
ARM GAS  C:\Users\DEREKM~1\AppData\Local\Temp\ccqkvYAI.s 			page 7


 101:main.c        ****     while (!(I2C_MasterStatus() & I2C_MSTAT_WR_CMPLT));
 240              		.loc 1 101 0
 241 0028 00BF     		nop
 242              	.L9:
 243              		.loc 1 101 0 is_stmt 0 discriminator 1
 244 002a FFF7FEFF 		bl	I2C_MasterStatus
 245 002e 0346     		mov	r3, r0
 246 0030 03F00203 		and	r3, r3, #2
 247 0034 002B     		cmp	r3, #0
 248 0036 F8D0     		beq	.L9
 102:main.c        ****     I2C_MasterClearStatus();
 249              		.loc 1 102 0 is_stmt 1
 250 0038 FFF7FEFF 		bl	I2C_MasterClearStatus
 103:main.c        ****     
 104:main.c        ****     I2C_MasterReadBuf((uint8)slave_address,(uint8*)dataArray,2,I2C_MODE_COMPLETE_XFER);     //gets 
 251              		.loc 1 104 0
 252 003c F879     		ldrb	r0, [r7, #7]	@ zero_extendqisi2
 253 003e 0023     		movs	r3, #0
 254 0040 0222     		movs	r2, #2
 255 0042 3968     		ldr	r1, [r7]
 256 0044 FFF7FEFF 		bl	I2C_MasterReadBuf
 105:main.c        ****     while (!(I2C_MasterStatus() & I2C_MSTAT_RD_CMPLT));
 257              		.loc 1 105 0
 258 0048 00BF     		nop
 259              	.L10:
 260              		.loc 1 105 0 is_stmt 0 discriminator 1
 261 004a FFF7FEFF 		bl	I2C_MasterStatus
 262 004e 0346     		mov	r3, r0
 263 0050 03F00103 		and	r3, r3, #1
 264 0054 002B     		cmp	r3, #0
 265 0056 F8D0     		beq	.L10
 106:main.c        ****     I2C_MasterClearStatus();
 266              		.loc 1 106 0 is_stmt 1
 267 0058 FFF7FEFF 		bl	I2C_MasterClearStatus
 107:main.c        **** 
 108:main.c        ****     if (dataArray[1] == 128) dataArray[1] = 5;                                              //if th
 268              		.loc 1 108 0
 269 005c 3B68     		ldr	r3, [r7]
 270 005e 0133     		adds	r3, r3, #1
 271 0060 1B78     		ldrb	r3, [r3]	@ zero_extendqisi2
 272 0062 802B     		cmp	r3, #128
 273 0064 03D1     		bne	.L11
 274              		.loc 1 108 0 is_stmt 0 discriminator 1
 275 0066 3B68     		ldr	r3, [r7]
 276 0068 0133     		adds	r3, r3, #1
 277 006a 0522     		movs	r2, #5
 278 006c 1A70     		strb	r2, [r3]
 279              	.L11:
 109:main.c        ****     sprintf(disp, "Temp: %2d.%d",dataArray[0],dataArray[1]);                                //mashi
 280              		.loc 1 109 0 is_stmt 1
 281 006e 3B68     		ldr	r3, [r7]
 282 0070 1B78     		ldrb	r3, [r3]	@ zero_extendqisi2
 283 0072 1A46     		mov	r2, r3
 284 0074 3B68     		ldr	r3, [r7]
 285 0076 0133     		adds	r3, r3, #1
 286 0078 1B78     		ldrb	r3, [r3]	@ zero_extendqisi2
 287 007a 07F10C00 		add	r0, r7, #12
ARM GAS  C:\Users\DEREKM~1\AppData\Local\Temp\ccqkvYAI.s 			page 8


 288 007e 0849     		ldr	r1, .L12
 289 0080 FFF7FEFF 		bl	sprintf
 110:main.c        ****     LCD_Position(0,0);
 290              		.loc 1 110 0
 291 0084 0021     		movs	r1, #0
 292 0086 0020     		movs	r0, #0
 293 0088 FFF7FEFF 		bl	LCD_Position
 111:main.c        ****     LCD_PrintString(disp);
 294              		.loc 1 111 0
 295 008c 07F10C03 		add	r3, r7, #12
 296 0090 1846     		mov	r0, r3
 297 0092 FFF7FEFF 		bl	LCD_PrintString
 112:main.c        **** }
 298              		.loc 1 112 0
 299 0096 00BF     		nop
 300 0098 2037     		adds	r7, r7, #32
 301              		.cfi_def_cfa_offset 8
 302 009a BD46     		mov	sp, r7
 303              		.cfi_def_cfa_register 13
 304              		@ sp needed
 305 009c 80BD     		pop	{r7, pc}
 306              	.L13:
 307 009e 00BF     		.align	2
 308              	.L12:
 309 00a0 0C000000 		.word	.LC3
 310              		.cfi_endproc
 311              	.LFE70:
 312              		.size	read_temp, .-read_temp
 313              		.section	.text.write_deadband,"ax",%progbits
 314              		.align	2
 315              		.global	write_deadband
 316              		.thumb
 317              		.thumb_func
 318              		.type	write_deadband, %function
 319              	write_deadband:
 320              	.LFB71:
 113:main.c        **** 
 114:main.c        **** void write_deadband(uint8 slave_address, uint8 set, uint8 tol)
 115:main.c        **** {
 321              		.loc 1 115 0
 322              		.cfi_startproc
 323              		@ args = 0, pretend = 0, frame = 16
 324              		@ frame_needed = 1, uses_anonymous_args = 0
 325 0000 80B5     		push	{r7, lr}
 326              		.cfi_def_cfa_offset 8
 327              		.cfi_offset 7, -8
 328              		.cfi_offset 14, -4
 329 0002 84B0     		sub	sp, sp, #16
 330              		.cfi_def_cfa_offset 24
 331 0004 00AF     		add	r7, sp, #0
 332              		.cfi_def_cfa_register 7
 333 0006 0346     		mov	r3, r0
 334 0008 FB71     		strb	r3, [r7, #7]
 335 000a 0B46     		mov	r3, r1
 336 000c BB71     		strb	r3, [r7, #6]
 337 000e 1346     		mov	r3, r2
 338 0010 7B71     		strb	r3, [r7, #5]
ARM GAS  C:\Users\DEREKM~1\AppData\Local\Temp\ccqkvYAI.s 			page 9


 116:main.c        ****     uint8 command[3];
 117:main.c        ****     TH = set + tol/2;
 339              		.loc 1 117 0
 340 0012 7B79     		ldrb	r3, [r7, #5]	@ zero_extendqisi2
 341 0014 5B08     		lsrs	r3, r3, #1
 342 0016 DAB2     		uxtb	r2, r3
 343 0018 BB79     		ldrb	r3, [r7, #6]
 344 001a 1344     		add	r3, r3, r2
 345 001c DAB2     		uxtb	r2, r3
 346 001e 274B     		ldr	r3, .L21
 347 0020 1A70     		strb	r2, [r3]
 118:main.c        ****     TL = set - tol/2;
 348              		.loc 1 118 0
 349 0022 7B79     		ldrb	r3, [r7, #5]	@ zero_extendqisi2
 350 0024 5B08     		lsrs	r3, r3, #1
 351 0026 DBB2     		uxtb	r3, r3
 352 0028 BA79     		ldrb	r2, [r7, #6]
 353 002a D31A     		subs	r3, r2, r3
 354 002c DAB2     		uxtb	r2, r3
 355 002e 244B     		ldr	r3, .L21+4
 356 0030 1A70     		strb	r2, [r3]
 119:main.c        ****     
 120:main.c        ****     command[0] = 0xA1;        
 357              		.loc 1 120 0
 358 0032 A123     		movs	r3, #161
 359 0034 3B73     		strb	r3, [r7, #12]
 121:main.c        ****     command[1] = TH;
 360              		.loc 1 121 0
 361 0036 214B     		ldr	r3, .L21
 362 0038 1B78     		ldrb	r3, [r3]	@ zero_extendqisi2
 363 003a 7B73     		strb	r3, [r7, #13]
 122:main.c        ****     command[2] = (tol % 2) == 0 ? 0x00 : 0x80;                  //check if there's a decimal which 
 364              		.loc 1 122 0
 365 003c 7B79     		ldrb	r3, [r7, #5]
 366 003e 03F00103 		and	r3, r3, #1
 367 0042 DBB2     		uxtb	r3, r3
 368 0044 002B     		cmp	r3, #0
 369 0046 01D1     		bne	.L15
 370              		.loc 1 122 0 is_stmt 0 discriminator 1
 371 0048 0023     		movs	r3, #0
 372 004a 00E0     		b	.L16
 373              	.L15:
 374              		.loc 1 122 0 discriminator 2
 375 004c 8023     		movs	r3, #128
 376              	.L16:
 377              		.loc 1 122 0 discriminator 4
 378 004e BB73     		strb	r3, [r7, #14]
 123:main.c        ****     I2C_MasterWriteBuf((uint8)slave_address, command,3, I2C_MODE_COMPLETE_XFER);
 379              		.loc 1 123 0 is_stmt 1 discriminator 4
 380 0050 07F10C01 		add	r1, r7, #12
 381 0054 F879     		ldrb	r0, [r7, #7]	@ zero_extendqisi2
 382 0056 0023     		movs	r3, #0
 383 0058 0322     		movs	r2, #3
 384 005a FFF7FEFF 		bl	I2C_MasterWriteBuf
 124:main.c        ****     while (!(I2C_MasterStatus() & I2C_MSTAT_WR_CMPLT));
 385              		.loc 1 124 0 discriminator 4
 386 005e 00BF     		nop
ARM GAS  C:\Users\DEREKM~1\AppData\Local\Temp\ccqkvYAI.s 			page 10


 387              	.L17:
 388              		.loc 1 124 0 is_stmt 0 discriminator 1
 389 0060 FFF7FEFF 		bl	I2C_MasterStatus
 390 0064 0346     		mov	r3, r0
 391 0066 03F00203 		and	r3, r3, #2
 392 006a 002B     		cmp	r3, #0
 393 006c F8D0     		beq	.L17
 125:main.c        ****     I2C_MasterClearStatus();
 394              		.loc 1 125 0 is_stmt 1
 395 006e FFF7FEFF 		bl	I2C_MasterClearStatus
 126:main.c        ****  
 127:main.c        ****     command[0] = 0xA2;        
 396              		.loc 1 127 0
 397 0072 A223     		movs	r3, #162
 398 0074 3B73     		strb	r3, [r7, #12]
 128:main.c        ****     command[1] = TL;
 399              		.loc 1 128 0
 400 0076 124B     		ldr	r3, .L21+4
 401 0078 1B78     		ldrb	r3, [r3]	@ zero_extendqisi2
 402 007a 7B73     		strb	r3, [r7, #13]
 129:main.c        ****     command[2] = (tol % 2) == 0 ? 0x00 : 0x80;
 403              		.loc 1 129 0
 404 007c 7B79     		ldrb	r3, [r7, #5]
 405 007e 03F00103 		and	r3, r3, #1
 406 0082 DBB2     		uxtb	r3, r3
 407 0084 002B     		cmp	r3, #0
 408 0086 01D1     		bne	.L18
 409              		.loc 1 129 0 is_stmt 0 discriminator 1
 410 0088 0023     		movs	r3, #0
 411 008a 00E0     		b	.L19
 412              	.L18:
 413              		.loc 1 129 0 discriminator 2
 414 008c 8023     		movs	r3, #128
 415              	.L19:
 416              		.loc 1 129 0 discriminator 4
 417 008e BB73     		strb	r3, [r7, #14]
 130:main.c        ****     I2C_MasterWriteBuf((uint8)slave_address, command,3, I2C_MODE_COMPLETE_XFER);
 418              		.loc 1 130 0 is_stmt 1 discriminator 4
 419 0090 07F10C01 		add	r1, r7, #12
 420 0094 F879     		ldrb	r0, [r7, #7]	@ zero_extendqisi2
 421 0096 0023     		movs	r3, #0
 422 0098 0322     		movs	r2, #3
 423 009a FFF7FEFF 		bl	I2C_MasterWriteBuf
 131:main.c        ****     while (!(I2C_MasterStatus() & I2C_MSTAT_WR_CMPLT));
 424              		.loc 1 131 0 discriminator 4
 425 009e 00BF     		nop
 426              	.L20:
 427              		.loc 1 131 0 is_stmt 0 discriminator 1
 428 00a0 FFF7FEFF 		bl	I2C_MasterStatus
 429 00a4 0346     		mov	r3, r0
 430 00a6 03F00203 		and	r3, r3, #2
 431 00aa 002B     		cmp	r3, #0
 432 00ac F8D0     		beq	.L20
 132:main.c        ****     I2C_MasterClearStatus();
 433              		.loc 1 132 0 is_stmt 1
 434 00ae FFF7FEFF 		bl	I2C_MasterClearStatus
 133:main.c        **** }
ARM GAS  C:\Users\DEREKM~1\AppData\Local\Temp\ccqkvYAI.s 			page 11


 435              		.loc 1 133 0
 436 00b2 00BF     		nop
 437 00b4 1037     		adds	r7, r7, #16
 438              		.cfi_def_cfa_offset 8
 439 00b6 BD46     		mov	sp, r7
 440              		.cfi_def_cfa_register 13
 441              		@ sp needed
 442 00b8 80BD     		pop	{r7, pc}
 443              	.L22:
 444 00ba 00BF     		.align	2
 445              	.L21:
 446 00bc 00000000 		.word	TH
 447 00c0 00000000 		.word	TL
 448              		.cfi_endproc
 449              	.LFE71:
 450              		.size	write_deadband, .-write_deadband
 451              		.section	.text.access_config,"ax",%progbits
 452              		.align	2
 453              		.global	access_config
 454              		.thumb
 455              		.thumb_func
 456              		.type	access_config, %function
 457              	access_config:
 458              	.LFB72:
 134:main.c        **** 
 135:main.c        **** void access_config(uint8 slave_address, uint8 setting)
 136:main.c        **** {
 459              		.loc 1 136 0
 460              		.cfi_startproc
 461              		@ args = 0, pretend = 0, frame = 16
 462              		@ frame_needed = 1, uses_anonymous_args = 0
 463 0000 80B5     		push	{r7, lr}
 464              		.cfi_def_cfa_offset 8
 465              		.cfi_offset 7, -8
 466              		.cfi_offset 14, -4
 467 0002 84B0     		sub	sp, sp, #16
 468              		.cfi_def_cfa_offset 24
 469 0004 00AF     		add	r7, sp, #0
 470              		.cfi_def_cfa_register 7
 471 0006 0346     		mov	r3, r0
 472 0008 0A46     		mov	r2, r1
 473 000a FB71     		strb	r3, [r7, #7]
 474 000c 1346     		mov	r3, r2
 475 000e BB71     		strb	r3, [r7, #6]
 137:main.c        ****     uint8 command[2];
 138:main.c        ****     command[0] = 0xAC;
 476              		.loc 1 138 0
 477 0010 AC23     		movs	r3, #172
 478 0012 3B73     		strb	r3, [r7, #12]
 139:main.c        ****     I2C_MasterWriteBuf((uint8)slave_address,command,1, I2C_MODE_COMPLETE_XFER);     //write the com
 479              		.loc 1 139 0
 480 0014 07F10C01 		add	r1, r7, #12
 481 0018 F879     		ldrb	r0, [r7, #7]	@ zero_extendqisi2
 482 001a 0023     		movs	r3, #0
 483 001c 0122     		movs	r2, #1
 484 001e FFF7FEFF 		bl	I2C_MasterWriteBuf
 140:main.c        ****     while (!(I2C_MasterStatus() & I2C_MSTAT_WR_CMPLT));
ARM GAS  C:\Users\DEREKM~1\AppData\Local\Temp\ccqkvYAI.s 			page 12


 485              		.loc 1 140 0
 486 0022 00BF     		nop
 487              	.L24:
 488              		.loc 1 140 0 is_stmt 0 discriminator 1
 489 0024 FFF7FEFF 		bl	I2C_MasterStatus
 490 0028 0346     		mov	r3, r0
 491 002a 03F00203 		and	r3, r3, #2
 492 002e 002B     		cmp	r3, #0
 493 0030 F8D0     		beq	.L24
 141:main.c        ****     I2C_MasterClearStatus();
 494              		.loc 1 141 0 is_stmt 1
 495 0032 FFF7FEFF 		bl	I2C_MasterClearStatus
 142:main.c        ****     
 143:main.c        ****     command[0] = 0xAC;                                                              //access the co
 496              		.loc 1 143 0
 497 0036 AC23     		movs	r3, #172
 498 0038 3B73     		strb	r3, [r7, #12]
 144:main.c        ****     command[1] = setting;                                                           //write setting
 499              		.loc 1 144 0
 500 003a BB79     		ldrb	r3, [r7, #6]
 501 003c 7B73     		strb	r3, [r7, #13]
 145:main.c        ****     I2C_MasterWriteBuf((uint8)slave_address,command,2, I2C_MODE_COMPLETE_XFER);
 502              		.loc 1 145 0
 503 003e 07F10C01 		add	r1, r7, #12
 504 0042 F879     		ldrb	r0, [r7, #7]	@ zero_extendqisi2
 505 0044 0023     		movs	r3, #0
 506 0046 0222     		movs	r2, #2
 507 0048 FFF7FEFF 		bl	I2C_MasterWriteBuf
 146:main.c        ****     while (!(I2C_MasterStatus() & I2C_MSTAT_WR_CMPLT));
 508              		.loc 1 146 0
 509 004c 00BF     		nop
 510              	.L25:
 511              		.loc 1 146 0 is_stmt 0 discriminator 1
 512 004e FFF7FEFF 		bl	I2C_MasterStatus
 513 0052 0346     		mov	r3, r0
 514 0054 03F00203 		and	r3, r3, #2
 515 0058 002B     		cmp	r3, #0
 516 005a F8D0     		beq	.L25
 147:main.c        ****     I2C_MasterClearStatus();
 517              		.loc 1 147 0 is_stmt 1
 518 005c FFF7FEFF 		bl	I2C_MasterClearStatus
 148:main.c        **** }
 519              		.loc 1 148 0
 520 0060 00BF     		nop
 521 0062 1037     		adds	r7, r7, #16
 522              		.cfi_def_cfa_offset 8
 523 0064 BD46     		mov	sp, r7
 524              		.cfi_def_cfa_register 13
 525              		@ sp needed
 526 0066 80BD     		pop	{r7, pc}
 527              		.cfi_endproc
 528              	.LFE72:
 529              		.size	access_config, .-access_config
 530              		.global	UpdateTaskHandle
 531              		.bss
 532              		.align	2
 533              		.type	UpdateTaskHandle, %object
ARM GAS  C:\Users\DEREKM~1\AppData\Local\Temp\ccqkvYAI.s 			page 13


 534              		.size	UpdateTaskHandle, 4
 535              	UpdateTaskHandle:
 536 0004 00000000 		.space	4
 537              		.global	MotorTaskHandle
 538              		.align	2
 539              		.type	MotorTaskHandle, %object
 540              		.size	MotorTaskHandle, 4
 541              	MotorTaskHandle:
 542 0008 00000000 		.space	4
 543              		.global	SpeedTaskHandle
 544              		.align	2
 545              		.type	SpeedTaskHandle, %object
 546              		.size	SpeedTaskHandle, 4
 547              	SpeedTaskHandle:
 548 000c 00000000 		.space	4
 549              		.global	ModeTaskHandle
 550              		.align	2
 551              		.type	ModeTaskHandle, %object
 552              		.size	ModeTaskHandle, 4
 553              	ModeTaskHandle:
 554 0010 00000000 		.space	4
 555              		.global	TOutTaskHandle
 556              		.align	2
 557              		.type	TOutTaskHandle, %object
 558              		.size	TOutTaskHandle, 4
 559              	TOutTaskHandle:
 560 0014 00000000 		.space	4
 561              		.global	TOLTaskHandle
 562              		.align	2
 563              		.type	TOLTaskHandle, %object
 564              		.size	TOLTaskHandle, 4
 565              	TOLTaskHandle:
 566 0018 00000000 		.space	4
 567              		.global	PollTaskHandle
 568              		.align	2
 569              		.type	PollTaskHandle, %object
 570              		.size	PollTaskHandle, 4
 571              	PollTaskHandle:
 572 001c 00000000 		.space	4
 573              		.global	EncTaskHandle
 574              		.align	2
 575              		.type	EncTaskHandle, %object
 576              		.size	EncTaskHandle, 4
 577              	EncTaskHandle:
 578 0020 00000000 		.space	4
 579              		.section	.rodata
 580 0019 000000   		.align	2
 581              	.LC4:
 582 001c 55706461 		.ascii	"Update\000"
 582      746500
 583 0023 00       		.align	2
 584              	.LC5:
 585 0024 4D6F746F 		.ascii	"Motor\000"
 585      7200
 586 002a 0000     		.align	2
 587              	.LC6:
 588 002c 4D6F6465 		.ascii	"Mode\000"
ARM GAS  C:\Users\DEREKM~1\AppData\Local\Temp\ccqkvYAI.s 			page 14


 588      00
 589 0031 000000   		.align	2
 590              	.LC7:
 591 0034 544F7574 		.ascii	"TOut\000"
 591      00
 592 0039 000000   		.align	2
 593              	.LC8:
 594 003c 506F6C6C 		.ascii	"Poll\000"
 594      00
 595 0041 000000   		.align	2
 596              	.LC9:
 597 0044 456E6300 		.ascii	"Enc\000"
 598              		.section	.text.main,"ax",%progbits
 599              		.align	2
 600              		.global	main
 601              		.thumb
 602              		.thumb_func
 603              		.type	main, %function
 604              	main:
 605              	.LFB73:
 149:main.c        **** 
 150:main.c        **** /*---------------------------------------------------------------------------*/
 151:main.c        **** void vUpdate(void *pvParameters);
 152:main.c        **** void vMotor(void *pvParameters);
 153:main.c        **** void vSpeed(void *pvParameters);
 154:main.c        **** void vMode(void *pvParameters);
 155:main.c        **** void vTOut(void *pvParameters);
 156:main.c        **** void vTOL(void *pvParameters);
 157:main.c        **** void vPoll(void *pvParameters);
 158:main.c        **** void vEnc(void *pvParameters);
 159:main.c        **** TaskHandle_t UpdateTaskHandle = NULL;
 160:main.c        **** TaskHandle_t MotorTaskHandle = NULL;
 161:main.c        **** TaskHandle_t SpeedTaskHandle = NULL;
 162:main.c        **** TaskHandle_t ModeTaskHandle = NULL;
 163:main.c        **** TaskHandle_t TOutTaskHandle = NULL;
 164:main.c        **** TaskHandle_t TOLTaskHandle = NULL;
 165:main.c        **** TaskHandle_t PollTaskHandle = NULL;
 166:main.c        **** TaskHandle_t EncTaskHandle = NULL;
 167:main.c        **** 
 168:main.c        **** /*---------------------------------------------------------------------------*/
 169:main.c        **** /*
 170:main.c        ****  * Installs the RTOS interrupt handlers and starts the peripherals.
 171:main.c        ****  */
 172:main.c        **** static void prvHardwareSetup( void );
 173:main.c        **** /*---------------------------------------------------------------------------*/
 174:main.c        **** void main( void )
 175:main.c        **** {
 606              		.loc 1 175 0
 607              		.cfi_startproc
 608              		@ args = 0, pretend = 0, frame = 0
 609              		@ frame_needed = 1, uses_anonymous_args = 0
 610 0000 80B5     		push	{r7, lr}
 611              		.cfi_def_cfa_offset 8
 612              		.cfi_offset 7, -8
 613              		.cfi_offset 14, -4
 614 0002 82B0     		sub	sp, sp, #8
 615              		.cfi_def_cfa_offset 16
ARM GAS  C:\Users\DEREKM~1\AppData\Local\Temp\ccqkvYAI.s 			page 15


 616 0004 02AF     		add	r7, sp, #8
 617              		.cfi_def_cfa 7, 8
 176:main.c        ****     /* Place your initialization/startup code here (e.g. MyInst_Start()) */
 177:main.c        **** 	    prvHardwareSetup();
 618              		.loc 1 177 0
 619 0006 FFF7FEFF 		bl	prvHardwareSetup
 178:main.c        ****         
 179:main.c        **** 	/* Start the standard demo tasks.  These are just here to exercise the
 180:main.c        **** 	kernel port and provide examples of how the FreeRTOS API can be used. */
 181:main.c        ****     xTaskCreate(vUpdate,"Update",configMINIMAL_STACK_SIZE,(void*) 0, UPDATE_TASK_PRIORITY, &UpdateT
 620              		.loc 1 181 0
 621 000a 244B     		ldr	r3, .L28
 622 000c 0193     		str	r3, [sp, #4]
 623 000e 0323     		movs	r3, #3
 624 0010 0093     		str	r3, [sp]
 625 0012 0023     		movs	r3, #0
 626 0014 6422     		movs	r2, #100
 627 0016 2249     		ldr	r1, .L28+4
 628 0018 2248     		ldr	r0, .L28+8
 629 001a FFF7FEFF 		bl	xTaskCreate
 182:main.c        ****     xTaskCreate(vMotor,"Motor",configMINIMAL_STACK_SIZE,(void*) 0,MOTOR_TASK_PRIORITY,&MotorTaskHan
 630              		.loc 1 182 0
 631 001e 224B     		ldr	r3, .L28+12
 632 0020 0193     		str	r3, [sp, #4]
 633 0022 0423     		movs	r3, #4
 634 0024 0093     		str	r3, [sp]
 635 0026 0023     		movs	r3, #0
 636 0028 6422     		movs	r2, #100
 637 002a 2049     		ldr	r1, .L28+16
 638 002c 2048     		ldr	r0, .L28+20
 639 002e FFF7FEFF 		bl	xTaskCreate
 183:main.c        ****     xTaskCreate(vSpeed,"Motor",configMINIMAL_STACK_SIZE,(void*) 0, SPEED_TASK_PRIORITY,&SpeedTaskHa
 640              		.loc 1 183 0
 641 0032 204B     		ldr	r3, .L28+24
 642 0034 0193     		str	r3, [sp, #4]
 643 0036 0023     		movs	r3, #0
 644 0038 0093     		str	r3, [sp]
 645 003a 0023     		movs	r3, #0
 646 003c 6422     		movs	r2, #100
 647 003e 1B49     		ldr	r1, .L28+16
 648 0040 1D48     		ldr	r0, .L28+28
 649 0042 FFF7FEFF 		bl	xTaskCreate
 184:main.c        ****     xTaskCreate(vMode,"Mode",configMINIMAL_STACK_SIZE,(void*) 0, MODE_TASK_PRIORITY,&ModeTaskHandle
 650              		.loc 1 184 0
 651 0046 1D4B     		ldr	r3, .L28+32
 652 0048 0193     		str	r3, [sp, #4]
 653 004a 0023     		movs	r3, #0
 654 004c 0093     		str	r3, [sp]
 655 004e 0023     		movs	r3, #0
 656 0050 6422     		movs	r2, #100
 657 0052 1B49     		ldr	r1, .L28+36
 658 0054 1B48     		ldr	r0, .L28+40
 659 0056 FFF7FEFF 		bl	xTaskCreate
 185:main.c        ****     xTaskCreate(vTOut,"TOut",configMINIMAL_STACK_SIZE,(void*) 0, TOUT_TASK_PRIORITY, &TOutTaskHandl
 660              		.loc 1 185 0
 661 005a 1B4B     		ldr	r3, .L28+44
 662 005c 0193     		str	r3, [sp, #4]
ARM GAS  C:\Users\DEREKM~1\AppData\Local\Temp\ccqkvYAI.s 			page 16


 663 005e 0123     		movs	r3, #1
 664 0060 0093     		str	r3, [sp]
 665 0062 0023     		movs	r3, #0
 666 0064 6422     		movs	r2, #100
 667 0066 1949     		ldr	r1, .L28+48
 668 0068 1948     		ldr	r0, .L28+52
 669 006a FFF7FEFF 		bl	xTaskCreate
 186:main.c        ****     xTaskCreate(vPoll,"Poll",configMINIMAL_STACK_SIZE, (void*) 0, POLL_TASK_PRIORITY,&PollTaskHandl
 670              		.loc 1 186 0
 671 006e 194B     		ldr	r3, .L28+56
 672 0070 0193     		str	r3, [sp, #4]
 673 0072 0223     		movs	r3, #2
 674 0074 0093     		str	r3, [sp]
 675 0076 0023     		movs	r3, #0
 676 0078 6422     		movs	r2, #100
 677 007a 1749     		ldr	r1, .L28+60
 678 007c 1748     		ldr	r0, .L28+64
 679 007e FFF7FEFF 		bl	xTaskCreate
 187:main.c        ****     xTaskCreate(vEnc,"Enc",configMINIMAL_STACK_SIZE,(void*) 0, ENC_TASK_PRIORTIY,&EncTaskHandle);  
 680              		.loc 1 187 0
 681 0082 174B     		ldr	r3, .L28+68
 682 0084 0193     		str	r3, [sp, #4]
 683 0086 0023     		movs	r3, #0
 684 0088 0093     		str	r3, [sp]
 685 008a 0023     		movs	r3, #0
 686 008c 6422     		movs	r2, #100
 687 008e 1549     		ldr	r1, .L28+72
 688 0090 1548     		ldr	r0, .L28+76
 689 0092 FFF7FEFF 		bl	xTaskCreate
 188:main.c        **** 
 189:main.c        **** 	/* Will only get here if there was insufficient memory to create the idle
 190:main.c        ****     task.  The idle task is created within vTaskStartScheduler(). */
 191:main.c        **** 	vTaskStartScheduler();
 690              		.loc 1 191 0
 691 0096 FFF7FEFF 		bl	vTaskStartScheduler
 692              	.L27:
 192:main.c        **** 
 193:main.c        **** 	/* Should never reach here as the kernel will now be running.  If
 194:main.c        **** 	vTaskStartScheduler() does return then it is very likely that there was
 195:main.c        **** 	insufficient (FreeRTOS) heap space available to create all the tasks,
 196:main.c        **** 	including the idle task that is created within vTaskStartScheduler() itself. */
 197:main.c        **** 	for( ;; );
 693              		.loc 1 197 0 discriminator 1
 694 009a FEE7     		b	.L27
 695              	.L29:
 696              		.align	2
 697              	.L28:
 698 009c 00000000 		.word	UpdateTaskHandle
 699 00a0 1C000000 		.word	.LC4
 700 00a4 00000000 		.word	vUpdate
 701 00a8 00000000 		.word	MotorTaskHandle
 702 00ac 24000000 		.word	.LC5
 703 00b0 00000000 		.word	vMotor
 704 00b4 00000000 		.word	SpeedTaskHandle
 705 00b8 00000000 		.word	vSpeed
 706 00bc 00000000 		.word	ModeTaskHandle
 707 00c0 2C000000 		.word	.LC6
ARM GAS  C:\Users\DEREKM~1\AppData\Local\Temp\ccqkvYAI.s 			page 17


 708 00c4 00000000 		.word	vMode
 709 00c8 00000000 		.word	TOutTaskHandle
 710 00cc 34000000 		.word	.LC7
 711 00d0 00000000 		.word	vTOut
 712 00d4 00000000 		.word	PollTaskHandle
 713 00d8 3C000000 		.word	.LC8
 714 00dc 00000000 		.word	vPoll
 715 00e0 00000000 		.word	EncTaskHandle
 716 00e4 44000000 		.word	.LC9
 717 00e8 00000000 		.word	vEnc
 718              		.cfi_endproc
 719              	.LFE73:
 720              		.size	main, .-main
 721              		.section	.text.prvHardwareSetup,"ax",%progbits
 722              		.align	2
 723              		.thumb
 724              		.thumb_func
 725              		.type	prvHardwareSetup, %function
 726              	prvHardwareSetup:
 727              	.LFB74:
 198:main.c        **** }
 199:main.c        **** /*---------------------------------------------------------------------------*/
 200:main.c        **** 
 201:main.c        **** void prvHardwareSetup( void )
 202:main.c        **** {
 728              		.loc 1 202 0
 729              		.cfi_startproc
 730              		@ args = 0, pretend = 0, frame = 0
 731              		@ frame_needed = 1, uses_anonymous_args = 0
 732 0000 80B5     		push	{r7, lr}
 733              		.cfi_def_cfa_offset 8
 734              		.cfi_offset 7, -8
 735              		.cfi_offset 14, -4
 736 0002 00AF     		add	r7, sp, #0
 737              		.cfi_def_cfa_register 7
 203:main.c        **** /* Port layer functions that need to be copied into the vector table. */
 204:main.c        **** extern void xPortPendSVHandler( void );
 205:main.c        **** extern void xPortSysTickHandler( void );
 206:main.c        **** extern void vPortSVCHandler( void );
 207:main.c        **** extern cyisraddress CyRamVectors[];
 208:main.c        **** 
 209:main.c        **** 	/* Install the OS Interrupt Handlers. */
 210:main.c        **** 	CyRamVectors[ 11 ] = ( cyisraddress ) vPortSVCHandler;
 738              		.loc 1 210 0
 739 0004 164B     		ldr	r3, .L31
 740 0006 174A     		ldr	r2, .L31+4
 741 0008 DA62     		str	r2, [r3, #44]
 211:main.c        **** 	CyRamVectors[ 14 ] = ( cyisraddress ) xPortPendSVHandler;
 742              		.loc 1 211 0
 743 000a 154B     		ldr	r3, .L31
 744 000c 164A     		ldr	r2, .L31+8
 745 000e 9A63     		str	r2, [r3, #56]
 212:main.c        **** 	CyRamVectors[ 15 ] = ( cyisraddress ) xPortSysTickHandler;
 746              		.loc 1 212 0
 747 0010 134B     		ldr	r3, .L31
 748 0012 164A     		ldr	r2, .L31+12
 749 0014 DA63     		str	r2, [r3, #60]
ARM GAS  C:\Users\DEREKM~1\AppData\Local\Temp\ccqkvYAI.s 			page 18


 213:main.c        ****     
 214:main.c        ****     /*Initialize Variables & Start Peripherals */
 215:main.c        ****     speed = LOW;
 750              		.loc 1 215 0
 751 0016 164B     		ldr	r3, .L31+16
 752 0018 0322     		movs	r2, #3
 753 001a 1A60     		str	r2, [r3]
 216:main.c        ****     mode = OFF;
 754              		.loc 1 216 0
 755 001c 154B     		ldr	r3, .L31+20
 756 001e 0022     		movs	r2, #0
 757 0020 1A60     		str	r2, [r3]
 217:main.c        ****     TOL = 1;
 758              		.loc 1 217 0
 759 0022 154B     		ldr	r3, .L31+24
 760 0024 0122     		movs	r2, #1
 761 0026 1A70     		strb	r2, [r3]
 218:main.c        ****     setpoint = 25;
 762              		.loc 1 218 0
 763 0028 144B     		ldr	r3, .L31+28
 764 002a 1922     		movs	r2, #25
 765 002c 1A70     		strb	r2, [r3]
 219:main.c        ****     
 220:main.c        ****     CyGlobalIntEnable; /* Enable global interrupts. */
 766              		.loc 1 220 0
 767              		.syntax unified
 768              	@ 220 "main.c" 1
 769 002e 62B6     		CPSIE   i
 770              	@ 0 "" 2
 221:main.c        ****     Timer_48MHz_Start();
 771              		.loc 1 221 0
 772              		.thumb
 773              		.syntax unified
 774 0030 FFF7FEFF 		bl	Timer_48MHz_Start
 222:main.c        ****     QuadDec_Start();
 775              		.loc 1 222 0
 776 0034 FFF7FEFF 		bl	QuadDec_Start
 223:main.c        ****     LCD_Start();
 777              		.loc 1 223 0
 778 0038 FFF7FEFF 		bl	LCD_Start
 224:main.c        ****     I2C_Start();
 779              		.loc 1 224 0
 780 003c FFF7FEFF 		bl	I2C_Start
 225:main.c        ****     POWER_ISR_Start();
 781              		.loc 1 225 0
 782 0040 FFF7FEFF 		bl	POWER_ISR_Start
 226:main.c        ****     QuadDec_SetCounter(setpoint);
 783              		.loc 1 226 0
 784 0044 0D4B     		ldr	r3, .L31+28
 785 0046 1B78     		ldrb	r3, [r3]	@ zero_extendqisi2
 786 0048 5BB2     		sxtb	r3, r3
 787 004a 1846     		mov	r0, r3
 788 004c FFF7FEFF 		bl	QuadDec_SetCounter
 227:main.c        ****     temp_initialize(slave_address);
 789              		.loc 1 227 0
 790 0050 0B4B     		ldr	r3, .L31+32
 791 0052 1B78     		ldrb	r3, [r3]	@ zero_extendqisi2
ARM GAS  C:\Users\DEREKM~1\AppData\Local\Temp\ccqkvYAI.s 			page 19


 792 0054 1846     		mov	r0, r3
 793 0056 FFF7FEFF 		bl	temp_initialize
 228:main.c        **** }
 794              		.loc 1 228 0
 795 005a 00BF     		nop
 796 005c 80BD     		pop	{r7, pc}
 797              	.L32:
 798 005e 00BF     		.align	2
 799              	.L31:
 800 0060 00000000 		.word	CyRamVectors
 801 0064 00000000 		.word	vPortSVCHandler
 802 0068 00000000 		.word	xPortPendSVHandler
 803 006c 00000000 		.word	xPortSysTickHandler
 804 0070 00000000 		.word	speed
 805 0074 00000000 		.word	mode
 806 0078 00000000 		.word	TOL
 807 007c 00000000 		.word	setpoint
 808 0080 00000000 		.word	slave_address
 809              		.cfi_endproc
 810              	.LFE74:
 811              		.size	prvHardwareSetup, .-prvHardwareSetup
 812              		.section	.rodata
 813              		.align	2
 814              	.LC10:
 815 0048 4C4F5720 		.ascii	"LOW \000"
 815      00
 816 004d 000000   		.align	2
 817              	.LC11:
 818 0050 4D454420 		.ascii	"MED \000"
 818      00
 819 0055 000000   		.align	2
 820              	.LC12:
 821 0058 48494748 		.ascii	"HIGH\000"
 821      00
 822 005d 000000   		.align	2
 823              	.LC13:
 824 0060 434F4F4C 		.ascii	"COOL\000"
 824      00
 825 0065 000000   		.align	2
 826              	.LC14:
 827 0068 48454154 		.ascii	"HEAT\000"
 827      00
 828 006d 000000   		.align	2
 829              	.LC15:
 830 0070 4F464620 		.ascii	"OFF \000"
 830      00
 831              		.section	.text.vUpdate,"ax",%progbits
 832              		.align	2
 833              		.global	vUpdate
 834              		.thumb
 835              		.thumb_func
 836              		.type	vUpdate, %function
 837              	vUpdate:
 838              	.LFB75:
 229:main.c        **** 
 230:main.c        **** /*---------------------------------------------------------------------------*/
 231:main.c        **** /*---------------------------------------------------------------------------*/
ARM GAS  C:\Users\DEREKM~1\AppData\Local\Temp\ccqkvYAI.s 			page 20


 232:main.c        **** void vUpdate(void *pvParameters){ //Update the LCD with values
 839              		.loc 1 232 0
 840              		.cfi_startproc
 841              		@ args = 0, pretend = 0, frame = 16
 842              		@ frame_needed = 1, uses_anonymous_args = 0
 843 0000 80B5     		push	{r7, lr}
 844              		.cfi_def_cfa_offset 8
 845              		.cfi_offset 7, -8
 846              		.cfi_offset 14, -4
 847 0002 84B0     		sub	sp, sp, #16
 848              		.cfi_def_cfa_offset 24
 849 0004 00AF     		add	r7, sp, #0
 850              		.cfi_def_cfa_register 7
 851 0006 7860     		str	r0, [r7, #4]
 852              	.L52:
 233:main.c        ****     TickType_t xLastWakeTime;
 234:main.c        **** 
 235:main.c        ****     for(;;){
 236:main.c        ****         taskENTER_CRITICAL();
 853              		.loc 1 236 0
 854 0008 FFF7FEFF 		bl	vPortEnterCritical
 237:main.c        ****             switch(speed)
 855              		.loc 1 237 0
 856 000c 5D4B     		ldr	r3, .L56
 857 000e 1B68     		ldr	r3, [r3]
 858 0010 042B     		cmp	r3, #4
 859 0012 0AD0     		beq	.L35
 860 0014 052B     		cmp	r3, #5
 861 0016 0FD0     		beq	.L36
 862 0018 032B     		cmp	r3, #3
 863 001a 14D1     		bne	.L53
 238:main.c        ****             {
 239:main.c        ****                 case LOW:
 240:main.c        ****                     sprintf(disp,"LOW ");
 864              		.loc 1 240 0
 865 001c 5A4B     		ldr	r3, .L56+4
 866 001e 5B4A     		ldr	r2, .L56+8
 867 0020 1068     		ldr	r0, [r2]	@ unaligned
 868 0022 1860     		str	r0, [r3]	@ unaligned
 869 0024 1279     		ldrb	r2, [r2, #4]
 870 0026 1A71     		strb	r2, [r3, #4]
 241:main.c        ****                     break;
 871              		.loc 1 241 0
 872 0028 14E0     		b	.L38
 873              	.L35:
 242:main.c        ****                 case MEDIUM:
 243:main.c        ****                     sprintf(disp,"MED ");
 874              		.loc 1 243 0
 875 002a 574B     		ldr	r3, .L56+4
 876 002c 584A     		ldr	r2, .L56+12
 877 002e 1068     		ldr	r0, [r2]	@ unaligned
 878 0030 1860     		str	r0, [r3]	@ unaligned
 879 0032 1279     		ldrb	r2, [r2, #4]
 880 0034 1A71     		strb	r2, [r3, #4]
 244:main.c        ****                     break;
 881              		.loc 1 244 0
 882 0036 0DE0     		b	.L38
ARM GAS  C:\Users\DEREKM~1\AppData\Local\Temp\ccqkvYAI.s 			page 21


 883              	.L36:
 245:main.c        ****                 case HIGH:
 246:main.c        ****                     sprintf(disp,"HIGH");
 884              		.loc 1 246 0
 885 0038 534B     		ldr	r3, .L56+4
 886 003a 564A     		ldr	r2, .L56+16
 887 003c 1068     		ldr	r0, [r2]	@ unaligned
 888 003e 1860     		str	r0, [r3]	@ unaligned
 889 0040 1279     		ldrb	r2, [r2, #4]
 890 0042 1A71     		strb	r2, [r3, #4]
 247:main.c        ****                     break;
 891              		.loc 1 247 0
 892 0044 06E0     		b	.L38
 893              	.L53:
 248:main.c        ****                 default:
 249:main.c        ****                     sprintf(disp,"LOW ");
 894              		.loc 1 249 0
 895 0046 504B     		ldr	r3, .L56+4
 896 0048 504A     		ldr	r2, .L56+8
 897 004a 1068     		ldr	r0, [r2]	@ unaligned
 898 004c 1860     		str	r0, [r3]	@ unaligned
 899 004e 1279     		ldrb	r2, [r2, #4]
 900 0050 1A71     		strb	r2, [r3, #4]
 250:main.c        ****                     break;
 901              		.loc 1 250 0
 902 0052 00BF     		nop
 903              	.L38:
 251:main.c        ****             }
 252:main.c        ****             switch(mode)
 904              		.loc 1 252 0
 905 0054 504B     		ldr	r3, .L56+20
 906 0056 1B68     		ldr	r3, [r3]
 907 0058 012B     		cmp	r3, #1
 908 005a 02D0     		beq	.L40
 909 005c 022B     		cmp	r3, #2
 910 005e 07D0     		beq	.L41
 911 0060 0DE0     		b	.L54
 912              	.L40:
 253:main.c        ****             {
 254:main.c        ****                 case COOLING:
 255:main.c        ****                     sprintf(disp2,"COOL");
 913              		.loc 1 255 0
 914 0062 4E4B     		ldr	r3, .L56+24
 915 0064 4E4A     		ldr	r2, .L56+28
 916 0066 1068     		ldr	r0, [r2]	@ unaligned
 917 0068 1860     		str	r0, [r3]	@ unaligned
 918 006a 1279     		ldrb	r2, [r2, #4]
 919 006c 1A71     		strb	r2, [r3, #4]
 256:main.c        ****                     break;
 920              		.loc 1 256 0
 921 006e 0DE0     		b	.L42
 922              	.L41:
 257:main.c        ****                 case HEATING:
 258:main.c        ****                     sprintf(disp2,"HEAT");
 923              		.loc 1 258 0
 924 0070 4A4B     		ldr	r3, .L56+24
 925 0072 4C4A     		ldr	r2, .L56+32
ARM GAS  C:\Users\DEREKM~1\AppData\Local\Temp\ccqkvYAI.s 			page 22


 926 0074 1068     		ldr	r0, [r2]	@ unaligned
 927 0076 1860     		str	r0, [r3]	@ unaligned
 928 0078 1279     		ldrb	r2, [r2, #4]
 929 007a 1A71     		strb	r2, [r3, #4]
 259:main.c        ****                     break;
 930              		.loc 1 259 0
 931 007c 06E0     		b	.L42
 932              	.L54:
 260:main.c        ****                 default:
 261:main.c        ****                     sprintf(disp2,"OFF ");
 933              		.loc 1 261 0
 934 007e 474B     		ldr	r3, .L56+24
 935 0080 494A     		ldr	r2, .L56+36
 936 0082 1068     		ldr	r0, [r2]	@ unaligned
 937 0084 1860     		str	r0, [r3]	@ unaligned
 938 0086 1279     		ldrb	r2, [r2, #4]
 939 0088 1A71     		strb	r2, [r3, #4]
 262:main.c        ****                     break;   
 940              		.loc 1 262 0
 941 008a 00BF     		nop
 942              	.L42:
 263:main.c        ****             }
 264:main.c        ****             if ((mode != OFF) && Tout_Read() == 1)
 943              		.loc 1 264 0
 944 008c 424B     		ldr	r3, .L56+20
 945 008e 1B68     		ldr	r3, [r3]
 946 0090 002B     		cmp	r3, #0
 947 0092 41D0     		beq	.L43
 948              		.loc 1 264 0 is_stmt 0 discriminator 1
 949 0094 FFF7FEFF 		bl	Tout_Read
 950 0098 0346     		mov	r3, r0
 951 009a 012B     		cmp	r3, #1
 952 009c 3CD1     		bne	.L43
 265:main.c        ****             { 
 266:main.c        ****                 switch(animate)
 953              		.loc 1 266 0 is_stmt 1
 954 009e 434B     		ldr	r3, .L56+40
 955 00a0 1B68     		ldr	r3, [r3]
 956 00a2 032B     		cmp	r3, #3
 957 00a4 36D8     		bhi	.L55
 958 00a6 01A2     		adr	r2, .L46
 959 00a8 52F823F0 		ldr	pc, [r2, r3, lsl #2]
 960              		.p2align 2
 961              	.L46:
 962 00ac BD000000 		.word	.L45+1
 963 00b0 D3000000 		.word	.L47+1
 964 00b4 E9000000 		.word	.L48+1
 965 00b8 FF000000 		.word	.L49+1
 966              		.p2align 1
 967              	.L45:
 267:main.c        ****                 {
 268:main.c        ****                     case 0:
 269:main.c        ****                         LCD_Position(1,5);
 968              		.loc 1 269 0
 969 00bc 0521     		movs	r1, #5
 970 00be 0120     		movs	r0, #1
 971 00c0 FFF7FEFF 		bl	LCD_Position
ARM GAS  C:\Users\DEREKM~1\AppData\Local\Temp\ccqkvYAI.s 			page 23


 270:main.c        ****                         //LCD_PrintString("|");
 271:main.c        ****                         LCD_PutChar(LCD_CUSTOM_0);
 972              		.loc 1 271 0
 973 00c4 0020     		movs	r0, #0
 974 00c6 FFF7FEFF 		bl	LCD_PutChar
 272:main.c        ****                         animate = 1;
 975              		.loc 1 272 0
 976 00ca 384B     		ldr	r3, .L56+40
 977 00cc 0122     		movs	r2, #1
 978 00ce 1A60     		str	r2, [r3]
 273:main.c        ****                         break;
 979              		.loc 1 273 0
 980 00d0 21E0     		b	.L50
 981              	.L47:
 274:main.c        ****                     case 1:
 275:main.c        ****                         LCD_Position(1,5);
 982              		.loc 1 275 0
 983 00d2 0521     		movs	r1, #5
 984 00d4 0120     		movs	r0, #1
 985 00d6 FFF7FEFF 		bl	LCD_Position
 276:main.c        ****                         //LCD_PrintString("/");
 277:main.c        ****                         LCD_PutChar(LCD_CUSTOM_2);
 986              		.loc 1 277 0
 987 00da 0220     		movs	r0, #2
 988 00dc FFF7FEFF 		bl	LCD_PutChar
 278:main.c        ****                         animate = 2;     
 989              		.loc 1 278 0
 990 00e0 324B     		ldr	r3, .L56+40
 991 00e2 0222     		movs	r2, #2
 992 00e4 1A60     		str	r2, [r3]
 279:main.c        ****                         break;
 993              		.loc 1 279 0
 994 00e6 16E0     		b	.L50
 995              	.L48:
 280:main.c        ****                     case 2:
 281:main.c        ****                         LCD_Position(1,5);
 996              		.loc 1 281 0
 997 00e8 0521     		movs	r1, #5
 998 00ea 0120     		movs	r0, #1
 999 00ec FFF7FEFF 		bl	LCD_Position
 282:main.c        ****                         //LCD_PrintString("-");
 283:main.c        ****                         LCD_PutChar(LCD_CUSTOM_1);
 1000              		.loc 1 283 0
 1001 00f0 0120     		movs	r0, #1
 1002 00f2 FFF7FEFF 		bl	LCD_PutChar
 284:main.c        ****                         animate = 3;
 1003              		.loc 1 284 0
 1004 00f6 2D4B     		ldr	r3, .L56+40
 1005 00f8 0322     		movs	r2, #3
 1006 00fa 1A60     		str	r2, [r3]
 285:main.c        ****                         break;
 1007              		.loc 1 285 0
 1008 00fc 0BE0     		b	.L50
 1009              	.L49:
 286:main.c        ****                     case 3:
 287:main.c        ****                         LCD_Position(1,5);
 1010              		.loc 1 287 0
ARM GAS  C:\Users\DEREKM~1\AppData\Local\Temp\ccqkvYAI.s 			page 24


 1011 00fe 0521     		movs	r1, #5
 1012 0100 0120     		movs	r0, #1
 1013 0102 FFF7FEFF 		bl	LCD_Position
 288:main.c        ****                         LCD_PutChar(LCD_CUSTOM_3);
 1014              		.loc 1 288 0
 1015 0106 0320     		movs	r0, #3
 1016 0108 FFF7FEFF 		bl	LCD_PutChar
 289:main.c        ****                         animate = 0;
 1017              		.loc 1 289 0
 1018 010c 274B     		ldr	r3, .L56+40
 1019 010e 0022     		movs	r2, #0
 1020 0110 1A60     		str	r2, [r3]
 290:main.c        ****                         break;
 1021              		.loc 1 290 0
 1022 0112 00E0     		b	.L50
 1023              	.L55:
 291:main.c        ****                     default:
 292:main.c        ****                         break;
 1024              		.loc 1 292 0
 1025 0114 00BF     		nop
 1026              	.L50:
 293:main.c        ****                 }
 294:main.c        ****             }
 1027              		.loc 1 294 0 discriminator 1
 1028 0116 02E0     		b	.L51
 1029              	.L43:
 295:main.c        ****             else LCD_ClearDisplay(); 
 1030              		.loc 1 295 0
 1031 0118 0120     		movs	r0, #1
 1032 011a FFF7FEFF 		bl	LCD_WriteControl
 1033              	.L51:
 296:main.c        ****             read_temp(slave_address,tempBuf);
 1034              		.loc 1 296 0
 1035 011e 244B     		ldr	r3, .L56+44
 1036 0120 1B78     		ldrb	r3, [r3]	@ zero_extendqisi2
 1037 0122 2449     		ldr	r1, .L56+48
 1038 0124 1846     		mov	r0, r3
 1039 0126 FFF7FEFF 		bl	read_temp
 297:main.c        ****             LCD_Position(0,12);
 1040              		.loc 1 297 0
 1041 012a 0C21     		movs	r1, #12
 1042 012c 0020     		movs	r0, #0
 1043 012e FFF7FEFF 		bl	LCD_Position
 298:main.c        ****             LCD_PrintString(disp);
 1044              		.loc 1 298 0
 1045 0132 1548     		ldr	r0, .L56+4
 1046 0134 FFF7FEFF 		bl	LCD_PrintString
 299:main.c        ****             LCD_Position(1,0);
 1047              		.loc 1 299 0
 1048 0138 0021     		movs	r1, #0
 1049 013a 0120     		movs	r0, #1
 1050 013c FFF7FEFF 		bl	LCD_Position
 300:main.c        ****             LCD_PrintNumber(setpoint);
 1051              		.loc 1 300 0
 1052 0140 1D4B     		ldr	r3, .L56+52
 1053 0142 1B78     		ldrb	r3, [r3]	@ zero_extendqisi2
 1054 0144 1846     		mov	r0, r3
ARM GAS  C:\Users\DEREKM~1\AppData\Local\Temp\ccqkvYAI.s 			page 25


 1055 0146 FFF7FEFF 		bl	LCD_PrintU32Number
 301:main.c        ****             LCD_Position(1,8);
 1056              		.loc 1 301 0
 1057 014a 0821     		movs	r1, #8
 1058 014c 0120     		movs	r0, #1
 1059 014e FFF7FEFF 		bl	LCD_Position
 302:main.c        ****             LCD_PrintNumber(TOL);
 1060              		.loc 1 302 0
 1061 0152 1A4B     		ldr	r3, .L56+56
 1062 0154 1B78     		ldrb	r3, [r3]	@ zero_extendqisi2
 1063 0156 1846     		mov	r0, r3
 1064 0158 FFF7FEFF 		bl	LCD_PrintU32Number
 303:main.c        ****             LCD_Position(1,12);
 1065              		.loc 1 303 0
 1066 015c 0C21     		movs	r1, #12
 1067 015e 0120     		movs	r0, #1
 1068 0160 FFF7FEFF 		bl	LCD_Position
 304:main.c        ****             LCD_PrintString(disp2);        
 1069              		.loc 1 304 0
 1070 0164 0D48     		ldr	r0, .L56+24
 1071 0166 FFF7FEFF 		bl	LCD_PrintString
 305:main.c        ****         taskEXIT_CRITICAL();
 1072              		.loc 1 305 0
 1073 016a FFF7FEFF 		bl	vPortExitCritical
 306:main.c        ****         xLastWakeTime = xTaskGetTickCount();
 1074              		.loc 1 306 0
 1075 016e FFF7FEFF 		bl	xTaskGetTickCount
 1076 0172 0346     		mov	r3, r0
 1077 0174 FB60     		str	r3, [r7, #12]
 307:main.c        ****         vTaskDelayUntil(&xLastWakeTime,DELAY_TIME/portTICK_PERIOD_MS); //every 0.2 seconds this tas
 1078              		.loc 1 307 0
 1079 0176 07F10C03 		add	r3, r7, #12
 1080 017a C821     		movs	r1, #200
 1081 017c 1846     		mov	r0, r3
 1082 017e FFF7FEFF 		bl	vTaskDelayUntil
 308:main.c        ****     }
 1083              		.loc 1 308 0
 1084 0182 41E7     		b	.L52
 1085              	.L57:
 1086              		.align	2
 1087              	.L56:
 1088 0184 00000000 		.word	speed
 1089 0188 00000000 		.word	disp
 1090 018c 48000000 		.word	.LC10
 1091 0190 50000000 		.word	.LC11
 1092 0194 58000000 		.word	.LC12
 1093 0198 00000000 		.word	mode
 1094 019c 00000000 		.word	disp2
 1095 01a0 60000000 		.word	.LC13
 1096 01a4 68000000 		.word	.LC14
 1097 01a8 70000000 		.word	.LC15
 1098 01ac 00000000 		.word	animate
 1099 01b0 00000000 		.word	slave_address
 1100 01b4 00000000 		.word	tempBuf
 1101 01b8 00000000 		.word	setpoint
 1102 01bc 00000000 		.word	TOL
 1103              		.cfi_endproc
ARM GAS  C:\Users\DEREKM~1\AppData\Local\Temp\ccqkvYAI.s 			page 26


 1104              	.LFE75:
 1105              		.size	vUpdate, .-vUpdate
 1106              		.section	.text.vMotor,"ax",%progbits
 1107              		.align	2
 1108              		.global	vMotor
 1109              		.thumb
 1110              		.thumb_func
 1111              		.type	vMotor, %function
 1112              	vMotor:
 1113              	.LFB76:
 309:main.c        **** }
 310:main.c        ****     
 311:main.c        **** void vMotor(void *pvParameters){    //This is the loop that turns the motor depending on conditions
 1114              		.loc 1 311 0
 1115              		.cfi_startproc
 1116              		@ args = 0, pretend = 0, frame = 16
 1117              		@ frame_needed = 1, uses_anonymous_args = 0
 1118 0000 80B5     		push	{r7, lr}
 1119              		.cfi_def_cfa_offset 8
 1120              		.cfi_offset 7, -8
 1121              		.cfi_offset 14, -4
 1122 0002 84B0     		sub	sp, sp, #16
 1123              		.cfi_def_cfa_offset 24
 1124 0004 00AF     		add	r7, sp, #0
 1125              		.cfi_def_cfa_register 7
 1126 0006 7860     		str	r0, [r7, #4]
 312:main.c        ****     int state = 0;
 1127              		.loc 1 312 0
 1128 0008 0023     		movs	r3, #0
 1129 000a FB60     		str	r3, [r7, #12]
 1130              	.L78:
 313:main.c        ****     TickType_t xLastWakeTime;
 314:main.c        **** 
 315:main.c        ****     for(;;)
 316:main.c        ****     { 
 317:main.c        ****         taskENTER_CRITICAL();
 1131              		.loc 1 317 0
 1132 000c FFF7FEFF 		bl	vPortEnterCritical
 318:main.c        ****             state = MOTOR_Read();
 1133              		.loc 1 318 0
 1134 0010 FFF7FEFF 		bl	MOTOR_Read
 1135 0014 0346     		mov	r3, r0
 1136 0016 FB60     		str	r3, [r7, #12]
 319:main.c        ****             switch(mode)
 1137              		.loc 1 319 0
 1138 0018 384B     		ldr	r3, .L80
 1139 001a 1B68     		ldr	r3, [r3]
 1140 001c 012B     		cmp	r3, #1
 1141 001e 2CD0     		beq	.L60
 1142 0020 022B     		cmp	r3, #2
 1143 0022 02D0     		beq	.L61
 1144 0024 002B     		cmp	r3, #0
 1145 0026 50D0     		beq	.L62
 1146 0028 53E0     		b	.L79
 1147              	.L61:
 320:main.c        ****             {
 321:main.c        ****             case HEATING:
ARM GAS  C:\Users\DEREKM~1\AppData\Local\Temp\ccqkvYAI.s 			page 27


 322:main.c        ****                 switch(state)           //sequence for cw rotation
 1148              		.loc 1 322 0
 1149 002a FB68     		ldr	r3, [r7, #12]
 1150 002c 053B     		subs	r3, r3, #5
 1151 002e 052B     		cmp	r3, #5
 1152 0030 1ED8     		bhi	.L63
 1153 0032 01A2     		adr	r2, .L65
 1154 0034 52F823F0 		ldr	pc, [r2, r3, lsl #2]
 1155              		.p2align 2
 1156              	.L65:
 1157 0038 61000000 		.word	.L64+1
 1158 003c 69000000 		.word	.L66+1
 1159 0040 71000000 		.word	.L63+1
 1160 0044 71000000 		.word	.L63+1
 1161 0048 59000000 		.word	.L67+1
 1162 004c 51000000 		.word	.L68+1
 1163              		.p2align 1
 1164              	.L68:
 323:main.c        ****                 {
 324:main.c        ****                     case 0xA: 
 325:main.c        ****                         MOTOR_Write(0x9);
 1165              		.loc 1 325 0
 1166 0050 0920     		movs	r0, #9
 1167 0052 FFF7FEFF 		bl	MOTOR_Write
 326:main.c        ****                         break;
 1168              		.loc 1 326 0
 1169 0056 0FE0     		b	.L69
 1170              	.L67:
 327:main.c        ****                     case 0x9:
 328:main.c        ****                         MOTOR_Write(0x5);
 1171              		.loc 1 328 0
 1172 0058 0520     		movs	r0, #5
 1173 005a FFF7FEFF 		bl	MOTOR_Write
 329:main.c        ****                         break;
 1174              		.loc 1 329 0
 1175 005e 0BE0     		b	.L69
 1176              	.L64:
 330:main.c        ****                     case 0x5:
 331:main.c        ****                         MOTOR_Write(0x6);
 1177              		.loc 1 331 0
 1178 0060 0620     		movs	r0, #6
 1179 0062 FFF7FEFF 		bl	MOTOR_Write
 332:main.c        ****                         break;
 1180              		.loc 1 332 0
 1181 0066 07E0     		b	.L69
 1182              	.L66:
 333:main.c        ****                     case 0x6:
 334:main.c        ****                         MOTOR_Write(0xA);
 1183              		.loc 1 334 0
 1184 0068 0A20     		movs	r0, #10
 1185 006a FFF7FEFF 		bl	MOTOR_Write
 335:main.c        ****                         break;
 1186              		.loc 1 335 0
 1187 006e 03E0     		b	.L69
 1188              	.L63:
 336:main.c        ****                     default:
 337:main.c        ****                         MOTOR_Write(0xA);
ARM GAS  C:\Users\DEREKM~1\AppData\Local\Temp\ccqkvYAI.s 			page 28


 1189              		.loc 1 337 0
 1190 0070 0A20     		movs	r0, #10
 1191 0072 FFF7FEFF 		bl	MOTOR_Write
 338:main.c        ****                         break;
 1192              		.loc 1 338 0
 1193 0076 00BF     		nop
 1194              	.L69:
 339:main.c        ****                 }
 340:main.c        ****                 break;
 1195              		.loc 1 340 0
 1196 0078 2FE0     		b	.L70
 1197              	.L60:
 341:main.c        ****             case COOLING:
 342:main.c        ****                 switch(state)               //sequence for ccw rotation
 1198              		.loc 1 342 0
 1199 007a FB68     		ldr	r3, [r7, #12]
 1200 007c 053B     		subs	r3, r3, #5
 1201 007e 052B     		cmp	r3, #5
 1202 0080 1ED8     		bhi	.L71
 1203 0082 01A2     		adr	r2, .L73
 1204 0084 52F823F0 		ldr	pc, [r2, r3, lsl #2]
 1205              		.p2align 2
 1206              	.L73:
 1207 0088 B1000000 		.word	.L72+1
 1208 008c B9000000 		.word	.L74+1
 1209 0090 C1000000 		.word	.L71+1
 1210 0094 C1000000 		.word	.L71+1
 1211 0098 A9000000 		.word	.L75+1
 1212 009c A1000000 		.word	.L76+1
 1213              		.p2align 1
 1214              	.L76:
 343:main.c        ****                 {
 344:main.c        ****                     case 0xA: 
 345:main.c        ****                         MOTOR_Write(0x6);
 1215              		.loc 1 345 0
 1216 00a0 0620     		movs	r0, #6
 1217 00a2 FFF7FEFF 		bl	MOTOR_Write
 346:main.c        ****                         break;
 1218              		.loc 1 346 0
 1219 00a6 0FE0     		b	.L77
 1220              	.L75:
 347:main.c        ****                     case 0x9:
 348:main.c        ****                         MOTOR_Write(0xA);
 1221              		.loc 1 348 0
 1222 00a8 0A20     		movs	r0, #10
 1223 00aa FFF7FEFF 		bl	MOTOR_Write
 349:main.c        ****                         break;
 1224              		.loc 1 349 0
 1225 00ae 0BE0     		b	.L77
 1226              	.L72:
 350:main.c        ****                     case 0x5:
 351:main.c        ****                         MOTOR_Write(0x9);
 1227              		.loc 1 351 0
 1228 00b0 0920     		movs	r0, #9
 1229 00b2 FFF7FEFF 		bl	MOTOR_Write
 352:main.c        ****                         break;
 1230              		.loc 1 352 0
ARM GAS  C:\Users\DEREKM~1\AppData\Local\Temp\ccqkvYAI.s 			page 29


 1231 00b6 07E0     		b	.L77
 1232              	.L74:
 353:main.c        ****                     case 0x6:
 354:main.c        ****                         MOTOR_Write(0x5);
 1233              		.loc 1 354 0
 1234 00b8 0520     		movs	r0, #5
 1235 00ba FFF7FEFF 		bl	MOTOR_Write
 355:main.c        ****                         break;
 1236              		.loc 1 355 0
 1237 00be 03E0     		b	.L77
 1238              	.L71:
 356:main.c        ****                     default:
 357:main.c        ****                         MOTOR_Write(0xA);
 1239              		.loc 1 357 0
 1240 00c0 0A20     		movs	r0, #10
 1241 00c2 FFF7FEFF 		bl	MOTOR_Write
 358:main.c        ****                         break;                
 1242              		.loc 1 358 0
 1243 00c6 00BF     		nop
 1244              	.L77:
 359:main.c        ****                 }
 360:main.c        ****                 break;
 1245              		.loc 1 360 0
 1246 00c8 07E0     		b	.L70
 1247              	.L62:
 361:main.c        ****             case OFF:
 362:main.c        ****                 MOTOR_Write(0);
 1248              		.loc 1 362 0
 1249 00ca 0020     		movs	r0, #0
 1250 00cc FFF7FEFF 		bl	MOTOR_Write
 363:main.c        ****                 break;
 1251              		.loc 1 363 0
 1252 00d0 03E0     		b	.L70
 1253              	.L79:
 364:main.c        ****             default:
 365:main.c        ****                 MOTOR_Write(0);
 1254              		.loc 1 365 0
 1255 00d2 0020     		movs	r0, #0
 1256 00d4 FFF7FEFF 		bl	MOTOR_Write
 366:main.c        ****                 break;
 1257              		.loc 1 366 0
 1258 00d8 00BF     		nop
 1259              	.L70:
 367:main.c        ****             }
 368:main.c        ****         taskEXIT_CRITICAL();
 1260              		.loc 1 368 0
 1261 00da FFF7FEFF 		bl	vPortExitCritical
 369:main.c        ****         xLastWakeTime = xTaskGetTickCount();
 1262              		.loc 1 369 0
 1263 00de FFF7FEFF 		bl	xTaskGetTickCount
 1264 00e2 0346     		mov	r3, r0
 1265 00e4 BB60     		str	r3, [r7, #8]
 370:main.c        ****         vTaskDelayUntil(&xLastWakeTime,delay_time/portTICK_PERIOD_MS); 
 1266              		.loc 1 370 0
 1267 00e6 064B     		ldr	r3, .L80+4
 1268 00e8 1B88     		ldrh	r3, [r3]
 1269 00ea 1A46     		mov	r2, r3
ARM GAS  C:\Users\DEREKM~1\AppData\Local\Temp\ccqkvYAI.s 			page 30


 1270 00ec 07F10803 		add	r3, r7, #8
 1271 00f0 1146     		mov	r1, r2
 1272 00f2 1846     		mov	r0, r3
 1273 00f4 FFF7FEFF 		bl	vTaskDelayUntil
 371:main.c        ****         //makes sure the motor spins at the right speed by calling the task at the right period
 372:main.c        ****     }
 1274              		.loc 1 372 0
 1275 00f8 88E7     		b	.L78
 1276              	.L81:
 1277 00fa 00BF     		.align	2
 1278              	.L80:
 1279 00fc 00000000 		.word	mode
 1280 0100 00000000 		.word	delay_time
 1281              		.cfi_endproc
 1282              	.LFE76:
 1283              		.size	vMotor, .-vMotor
 1284              		.section	.text.vSpeed,"ax",%progbits
 1285              		.align	2
 1286              		.global	vSpeed
 1287              		.thumb
 1288              		.thumb_func
 1289              		.type	vSpeed, %function
 1290              	vSpeed:
 1291              	.LFB77:
 373:main.c        **** }
 374:main.c        **** 
 375:main.c        **** void vSpeed(void *pvParameters){        //controls the period at which the vMotor task will be call
 1292              		.loc 1 375 0
 1293              		.cfi_startproc
 1294              		@ args = 0, pretend = 0, frame = 8
 1295              		@ frame_needed = 1, uses_anonymous_args = 0
 1296 0000 80B5     		push	{r7, lr}
 1297              		.cfi_def_cfa_offset 8
 1298              		.cfi_offset 7, -8
 1299              		.cfi_offset 14, -4
 1300 0002 82B0     		sub	sp, sp, #8
 1301              		.cfi_def_cfa_offset 16
 1302 0004 00AF     		add	r7, sp, #0
 1303              		.cfi_def_cfa_register 7
 1304 0006 7860     		str	r0, [r7, #4]
 1305              	.L88:
 376:main.c        ****     for(;;){
 377:main.c        ****         vTaskSuspend(NULL);             //suspend task until speed button is pressed in polling tas
 1306              		.loc 1 377 0
 1307 0008 0020     		movs	r0, #0
 1308 000a FFF7FEFF 		bl	vTaskSuspend
 378:main.c        ****         taskENTER_CRITICAL();
 1309              		.loc 1 378 0
 1310 000e FFF7FEFF 		bl	vPortEnterCritical
 379:main.c        ****             switch(speed)
 1311              		.loc 1 379 0
 1312 0012 134B     		ldr	r3, .L90
 1313 0014 1B68     		ldr	r3, [r3]
 1314 0016 042B     		cmp	r3, #4
 1315 0018 0AD0     		beq	.L84
 1316 001a 052B     		cmp	r3, #5
 1317 001c 0FD0     		beq	.L85
ARM GAS  C:\Users\DEREKM~1\AppData\Local\Temp\ccqkvYAI.s 			page 31


 1318 001e 032B     		cmp	r3, #3
 1319 0020 14D1     		bne	.L89
 380:main.c        ****             {
 381:main.c        ****                 case LOW:
 382:main.c        ****                     speed = MEDIUM;
 1320              		.loc 1 382 0
 1321 0022 0F4B     		ldr	r3, .L90
 1322 0024 0422     		movs	r2, #4
 1323 0026 1A60     		str	r2, [r3]
 383:main.c        ****                     delay_time = 10;
 1324              		.loc 1 383 0
 1325 0028 0E4B     		ldr	r3, .L90+4
 1326 002a 0A22     		movs	r2, #10
 1327 002c 1A80     		strh	r2, [r3]	@ movhi
 384:main.c        ****                     break;
 1328              		.loc 1 384 0
 1329 002e 14E0     		b	.L87
 1330              	.L84:
 385:main.c        ****                 case MEDIUM:
 386:main.c        ****                     speed = HIGH;
 1331              		.loc 1 386 0
 1332 0030 0B4B     		ldr	r3, .L90
 1333 0032 0522     		movs	r2, #5
 1334 0034 1A60     		str	r2, [r3]
 387:main.c        ****                     delay_time = 5;
 1335              		.loc 1 387 0
 1336 0036 0B4B     		ldr	r3, .L90+4
 1337 0038 0522     		movs	r2, #5
 1338 003a 1A80     		strh	r2, [r3]	@ movhi
 388:main.c        ****                     break;
 1339              		.loc 1 388 0
 1340 003c 0DE0     		b	.L87
 1341              	.L85:
 389:main.c        ****                 case HIGH:
 390:main.c        ****                     speed = LOW;
 1342              		.loc 1 390 0
 1343 003e 084B     		ldr	r3, .L90
 1344 0040 0322     		movs	r2, #3
 1345 0042 1A60     		str	r2, [r3]
 391:main.c        ****                     delay_time = 20;
 1346              		.loc 1 391 0
 1347 0044 074B     		ldr	r3, .L90+4
 1348 0046 1422     		movs	r2, #20
 1349 0048 1A80     		strh	r2, [r3]	@ movhi
 392:main.c        ****                     break;
 1350              		.loc 1 392 0
 1351 004a 06E0     		b	.L87
 1352              	.L89:
 393:main.c        ****                 default:
 394:main.c        ****                     speed = LOW;
 1353              		.loc 1 394 0
 1354 004c 044B     		ldr	r3, .L90
 1355 004e 0322     		movs	r2, #3
 1356 0050 1A60     		str	r2, [r3]
 395:main.c        ****                     delay_time = 20;
 1357              		.loc 1 395 0
 1358 0052 044B     		ldr	r3, .L90+4
ARM GAS  C:\Users\DEREKM~1\AppData\Local\Temp\ccqkvYAI.s 			page 32


 1359 0054 1422     		movs	r2, #20
 1360 0056 1A80     		strh	r2, [r3]	@ movhi
 396:main.c        ****                     break;
 1361              		.loc 1 396 0
 1362 0058 00BF     		nop
 1363              	.L87:
 397:main.c        ****             }
 398:main.c        ****         taskEXIT_CRITICAL();
 1364              		.loc 1 398 0
 1365 005a FFF7FEFF 		bl	vPortExitCritical
 399:main.c        ****     }
 1366              		.loc 1 399 0
 1367 005e D3E7     		b	.L88
 1368              	.L91:
 1369              		.align	2
 1370              	.L90:
 1371 0060 00000000 		.word	speed
 1372 0064 00000000 		.word	delay_time
 1373              		.cfi_endproc
 1374              	.LFE77:
 1375              		.size	vSpeed, .-vSpeed
 1376              		.section	.text.vMode,"ax",%progbits
 1377              		.align	2
 1378              		.global	vMode
 1379              		.thumb
 1380              		.thumb_func
 1381              		.type	vMode, %function
 1382              	vMode:
 1383              	.LFB78:
 400:main.c        **** }
 401:main.c        **** 
 402:main.c        **** void vMode(void *pvParameters){ //must have higher priority if going to resume TOut Task? & context
 1384              		.loc 1 402 0
 1385              		.cfi_startproc
 1386              		@ args = 0, pretend = 0, frame = 16
 1387              		@ frame_needed = 1, uses_anonymous_args = 0
 1388 0000 80B5     		push	{r7, lr}
 1389              		.cfi_def_cfa_offset 8
 1390              		.cfi_offset 7, -8
 1391              		.cfi_offset 14, -4
 1392 0002 84B0     		sub	sp, sp, #16
 1393              		.cfi_def_cfa_offset 24
 1394 0004 00AF     		add	r7, sp, #0
 1395              		.cfi_def_cfa_register 7
 1396 0006 7860     		str	r0, [r7, #4]
 1397              	.L98:
 403:main.c        ****     uint8 POL;
 404:main.c        ****     for(;;){
 405:main.c        ****         vTaskSuspend(NULL);     //suspend until mode button pressed in polling task
 1398              		.loc 1 405 0
 1399 0008 0020     		movs	r0, #0
 1400 000a FFF7FEFF 		bl	vTaskSuspend
 406:main.c        ****         taskENTER_CRITICAL();
 1401              		.loc 1 406 0
 1402 000e FFF7FEFF 		bl	vPortEnterCritical
 407:main.c        ****             switch(mode)
 1403              		.loc 1 407 0
ARM GAS  C:\Users\DEREKM~1\AppData\Local\Temp\ccqkvYAI.s 			page 33


 1404 0012 224B     		ldr	r3, .L100
 1405 0014 1B68     		ldr	r3, [r3]
 1406 0016 012B     		cmp	r3, #1
 1407 0018 19D0     		beq	.L94
 1408 001a 022B     		cmp	r3, #2
 1409 001c 2DD0     		beq	.L95
 1410 001e 002B     		cmp	r3, #0
 1411 0020 32D1     		bne	.L99
 408:main.c        ****             {
 409:main.c        ****                 case OFF:
 410:main.c        ****                     mode = COOLING;
 1412              		.loc 1 410 0
 1413 0022 1E4B     		ldr	r3, .L100
 1414 0024 0122     		movs	r2, #1
 1415 0026 1A60     		str	r2, [r3]
 411:main.c        ****                     POL = 2;                    //set polarity bit to 1 for cooling in config regis
 1416              		.loc 1 411 0
 1417 0028 0223     		movs	r3, #2
 1418 002a FB73     		strb	r3, [r7, #15]
 412:main.c        ****                     write_deadband(slave_address, setpoint, TOL);
 1419              		.loc 1 412 0
 1420 002c 1C4B     		ldr	r3, .L100+4
 1421 002e 1878     		ldrb	r0, [r3]	@ zero_extendqisi2
 1422 0030 1C4B     		ldr	r3, .L100+8
 1423 0032 1978     		ldrb	r1, [r3]	@ zero_extendqisi2
 1424 0034 1C4B     		ldr	r3, .L100+12
 1425 0036 1B78     		ldrb	r3, [r3]	@ zero_extendqisi2
 1426 0038 1A46     		mov	r2, r3
 1427 003a FFF7FEFF 		bl	write_deadband
 413:main.c        ****                     access_config(slave_address,POL);       
 1428              		.loc 1 413 0
 1429 003e 184B     		ldr	r3, .L100+4
 1430 0040 1B78     		ldrb	r3, [r3]	@ zero_extendqisi2
 1431 0042 FA7B     		ldrb	r2, [r7, #15]	@ zero_extendqisi2
 1432 0044 1146     		mov	r1, r2
 1433 0046 1846     		mov	r0, r3
 1434 0048 FFF7FEFF 		bl	access_config
 414:main.c        ****                     break;
 1435              		.loc 1 414 0
 1436 004c 23E0     		b	.L97
 1437              	.L94:
 415:main.c        ****                 case COOLING:
 416:main.c        ****                     mode = HEATING;
 1438              		.loc 1 416 0
 1439 004e 134B     		ldr	r3, .L100
 1440 0050 0222     		movs	r2, #2
 1441 0052 1A60     		str	r2, [r3]
 417:main.c        ****                     POL = 0;                    //set polarity bit to 0 for heating
 1442              		.loc 1 417 0
 1443 0054 0023     		movs	r3, #0
 1444 0056 FB73     		strb	r3, [r7, #15]
 418:main.c        ****                     write_deadband(slave_address, setpoint, TOL);
 1445              		.loc 1 418 0
 1446 0058 114B     		ldr	r3, .L100+4
 1447 005a 1878     		ldrb	r0, [r3]	@ zero_extendqisi2
 1448 005c 114B     		ldr	r3, .L100+8
 1449 005e 1978     		ldrb	r1, [r3]	@ zero_extendqisi2
ARM GAS  C:\Users\DEREKM~1\AppData\Local\Temp\ccqkvYAI.s 			page 34


 1450 0060 114B     		ldr	r3, .L100+12
 1451 0062 1B78     		ldrb	r3, [r3]	@ zero_extendqisi2
 1452 0064 1A46     		mov	r2, r3
 1453 0066 FFF7FEFF 		bl	write_deadband
 419:main.c        ****                     access_config(slave_address,POL);
 1454              		.loc 1 419 0
 1455 006a 0D4B     		ldr	r3, .L100+4
 1456 006c 1B78     		ldrb	r3, [r3]	@ zero_extendqisi2
 1457 006e FA7B     		ldrb	r2, [r7, #15]	@ zero_extendqisi2
 1458 0070 1146     		mov	r1, r2
 1459 0072 1846     		mov	r0, r3
 1460 0074 FFF7FEFF 		bl	access_config
 420:main.c        ****                     break;
 1461              		.loc 1 420 0
 1462 0078 0DE0     		b	.L97
 1463              	.L95:
 421:main.c        ****                 case HEATING:
 422:main.c        ****                     mode = OFF;
 1464              		.loc 1 422 0
 1465 007a 084B     		ldr	r3, .L100
 1466 007c 0022     		movs	r2, #0
 1467 007e 1A60     		str	r2, [r3]
 423:main.c        ****                     MOTOR_Write(0);
 1468              		.loc 1 423 0
 1469 0080 0020     		movs	r0, #0
 1470 0082 FFF7FEFF 		bl	MOTOR_Write
 424:main.c        ****                     break;
 1471              		.loc 1 424 0
 1472 0086 06E0     		b	.L97
 1473              	.L99:
 425:main.c        ****                 default:
 426:main.c        ****                     mode = OFF;
 1474              		.loc 1 426 0
 1475 0088 044B     		ldr	r3, .L100
 1476 008a 0022     		movs	r2, #0
 1477 008c 1A60     		str	r2, [r3]
 427:main.c        ****                     MOTOR_Write(0);
 1478              		.loc 1 427 0
 1479 008e 0020     		movs	r0, #0
 1480 0090 FFF7FEFF 		bl	MOTOR_Write
 428:main.c        ****                     break;
 1481              		.loc 1 428 0
 1482 0094 00BF     		nop
 1483              	.L97:
 429:main.c        ****             }
 430:main.c        ****         taskEXIT_CRITICAL();
 1484              		.loc 1 430 0
 1485 0096 FFF7FEFF 		bl	vPortExitCritical
 431:main.c        ****     }
 1486              		.loc 1 431 0
 1487 009a B5E7     		b	.L98
 1488              	.L101:
 1489              		.align	2
 1490              	.L100:
 1491 009c 00000000 		.word	mode
 1492 00a0 00000000 		.word	slave_address
 1493 00a4 00000000 		.word	setpoint
ARM GAS  C:\Users\DEREKM~1\AppData\Local\Temp\ccqkvYAI.s 			page 35


 1494 00a8 00000000 		.word	TOL
 1495              		.cfi_endproc
 1496              	.LFE78:
 1497              		.size	vMode, .-vMode
 1498              		.section	.text.vTOut,"ax",%progbits
 1499              		.align	2
 1500              		.global	vTOut
 1501              		.thumb
 1502              		.thumb_func
 1503              		.type	vTOut, %function
 1504              	vTOut:
 1505              	.LFB79:
 432:main.c        **** }
 433:main.c        **** 
 434:main.c        **** void vTOut(void *pvParameters){                 //poll TOut and resume Motor task if necessary & co
 1506              		.loc 1 434 0
 1507              		.cfi_startproc
 1508              		@ args = 0, pretend = 0, frame = 16
 1509              		@ frame_needed = 1, uses_anonymous_args = 0
 1510 0000 80B5     		push	{r7, lr}
 1511              		.cfi_def_cfa_offset 8
 1512              		.cfi_offset 7, -8
 1513              		.cfi_offset 14, -4
 1514 0002 84B0     		sub	sp, sp, #16
 1515              		.cfi_def_cfa_offset 24
 1516 0004 00AF     		add	r7, sp, #0
 1517              		.cfi_def_cfa_register 7
 1518 0006 7860     		str	r0, [r7, #4]
 1519              	.L105:
 435:main.c        ****     TickType_t xLastWakeTime;
 436:main.c        ****     
 437:main.c        ****     for(;;){
 438:main.c        ****         if (Tout_Read() == 0){
 1520              		.loc 1 438 0
 1521 0008 FFF7FEFF 		bl	Tout_Read
 1522 000c 0346     		mov	r3, r0
 1523 000e 002B     		cmp	r3, #0
 1524 0010 08D1     		bne	.L103
 439:main.c        ****             MOTOR_Write(0);                         //stop the motor to keep it from getting hot
 1525              		.loc 1 439 0
 1526 0012 0020     		movs	r0, #0
 1527 0014 FFF7FEFF 		bl	MOTOR_Write
 440:main.c        ****             vTaskSuspend(MotorTaskHandle);
 1528              		.loc 1 440 0
 1529 0018 0A4B     		ldr	r3, .L106
 1530 001a 1B68     		ldr	r3, [r3]
 1531 001c 1846     		mov	r0, r3
 1532 001e FFF7FEFF 		bl	vTaskSuspend
 1533 0022 04E0     		b	.L104
 1534              	.L103:
 441:main.c        ****         }
 442:main.c        ****         else vTaskResume(MotorTaskHandle);          
 1535              		.loc 1 442 0
 1536 0024 074B     		ldr	r3, .L106
 1537 0026 1B68     		ldr	r3, [r3]
 1538 0028 1846     		mov	r0, r3
 1539 002a FFF7FEFF 		bl	vTaskResume
ARM GAS  C:\Users\DEREKM~1\AppData\Local\Temp\ccqkvYAI.s 			page 36


 1540              	.L104:
 443:main.c        **** 
 444:main.c        ****         xLastWakeTime = xTaskGetTickCount();
 1541              		.loc 1 444 0
 1542 002e FFF7FEFF 		bl	xTaskGetTickCount
 1543 0032 0346     		mov	r3, r0
 1544 0034 FB60     		str	r3, [r7, #12]
 445:main.c        ****         vTaskDelayUntil(&xLastWakeTime,100/portTICK_PERIOD_MS); //call task to read tout pin every 
 1545              		.loc 1 445 0
 1546 0036 07F10C03 		add	r3, r7, #12
 1547 003a 6421     		movs	r1, #100
 1548 003c 1846     		mov	r0, r3
 1549 003e FFF7FEFF 		bl	vTaskDelayUntil
 446:main.c        ****     }
 1550              		.loc 1 446 0
 1551 0042 E1E7     		b	.L105
 1552              	.L107:
 1553              		.align	2
 1554              	.L106:
 1555 0044 00000000 		.word	MotorTaskHandle
 1556              		.cfi_endproc
 1557              	.LFE79:
 1558              		.size	vTOut, .-vTOut
 1559              		.section	.text.vTOL,"ax",%progbits
 1560              		.align	2
 1561              		.global	vTOL
 1562              		.thumb
 1563              		.thumb_func
 1564              		.type	vTOL, %function
 1565              	vTOL:
 1566              	.LFB80:
 447:main.c        **** }
 448:main.c        **** 
 449:main.c        **** void vTOL(void *pvParameters){                              //context switch back to polling task
 1567              		.loc 1 449 0
 1568              		.cfi_startproc
 1569              		@ args = 0, pretend = 0, frame = 8
 1570              		@ frame_needed = 1, uses_anonymous_args = 0
 1571 0000 80B5     		push	{r7, lr}
 1572              		.cfi_def_cfa_offset 8
 1573              		.cfi_offset 7, -8
 1574              		.cfi_offset 14, -4
 1575 0002 82B0     		sub	sp, sp, #8
 1576              		.cfi_def_cfa_offset 16
 1577 0004 00AF     		add	r7, sp, #0
 1578              		.cfi_def_cfa_register 7
 1579 0006 7860     		str	r0, [r7, #4]
 1580              	.L109:
 450:main.c        ****     for(;;){
 451:main.c        ****         vTaskSuspend(NULL);                                 //suspend until TOL button pressed in p
 1581              		.loc 1 451 0 discriminator 1
 1582 0008 0020     		movs	r0, #0
 1583 000a FFF7FEFF 		bl	vTaskSuspend
 452:main.c        ****         taskENTER_CRITICAL();                               //want to make sure I2C completes
 1584              		.loc 1 452 0 discriminator 1
 1585 000e FFF7FEFF 		bl	vPortEnterCritical
 453:main.c        ****             write_deadband(slave_address, setpoint, TOL);   //update TH/TL on the temp chip
ARM GAS  C:\Users\DEREKM~1\AppData\Local\Temp\ccqkvYAI.s 			page 37


 1586              		.loc 1 453 0 discriminator 1
 1587 0012 064B     		ldr	r3, .L110
 1588 0014 1878     		ldrb	r0, [r3]	@ zero_extendqisi2
 1589 0016 064B     		ldr	r3, .L110+4
 1590 0018 1978     		ldrb	r1, [r3]	@ zero_extendqisi2
 1591 001a 064B     		ldr	r3, .L110+8
 1592 001c 1B78     		ldrb	r3, [r3]	@ zero_extendqisi2
 1593 001e 1A46     		mov	r2, r3
 1594 0020 FFF7FEFF 		bl	write_deadband
 454:main.c        ****         taskEXIT_CRITICAL();
 1595              		.loc 1 454 0 discriminator 1
 1596 0024 FFF7FEFF 		bl	vPortExitCritical
 455:main.c        ****     }
 1597              		.loc 1 455 0 discriminator 1
 1598 0028 EEE7     		b	.L109
 1599              	.L111:
 1600 002a 00BF     		.align	2
 1601              	.L110:
 1602 002c 00000000 		.word	slave_address
 1603 0030 00000000 		.word	setpoint
 1604 0034 00000000 		.word	TOL
 1605              		.cfi_endproc
 1606              	.LFE80:
 1607              		.size	vTOL, .-vTOL
 1608              		.section	.text.vEnc,"ax",%progbits
 1609              		.align	2
 1610              		.global	vEnc
 1611              		.thumb
 1612              		.thumb_func
 1613              		.type	vEnc, %function
 1614              	vEnc:
 1615              	.LFB81:
 456:main.c        **** }
 457:main.c        **** 
 458:main.c        **** void vEnc(void *pvParameters){
 1616              		.loc 1 458 0
 1617              		.cfi_startproc
 1618              		@ args = 0, pretend = 0, frame = 8
 1619              		@ frame_needed = 1, uses_anonymous_args = 0
 1620 0000 80B5     		push	{r7, lr}
 1621              		.cfi_def_cfa_offset 8
 1622              		.cfi_offset 7, -8
 1623              		.cfi_offset 14, -4
 1624 0002 82B0     		sub	sp, sp, #8
 1625              		.cfi_def_cfa_offset 16
 1626 0004 00AF     		add	r7, sp, #0
 1627              		.cfi_def_cfa_register 7
 1628 0006 7860     		str	r0, [r7, #4]
 1629              	.L113:
 459:main.c        ****     for(;;){
 460:main.c        ****         vTaskSuspend(NULL);
 1630              		.loc 1 460 0 discriminator 1
 1631 0008 0020     		movs	r0, #0
 1632 000a FFF7FEFF 		bl	vTaskSuspend
 461:main.c        ****         taskENTER_CRITICAL();
 1633              		.loc 1 461 0 discriminator 1
 1634 000e FFF7FEFF 		bl	vPortEnterCritical
ARM GAS  C:\Users\DEREKM~1\AppData\Local\Temp\ccqkvYAI.s 			page 38


 462:main.c        ****             write_deadband(slave_address, setpoint, TOL);   //update TH/TL on the temp chip
 1635              		.loc 1 462 0 discriminator 1
 1636 0012 064B     		ldr	r3, .L114
 1637 0014 1878     		ldrb	r0, [r3]	@ zero_extendqisi2
 1638 0016 064B     		ldr	r3, .L114+4
 1639 0018 1978     		ldrb	r1, [r3]	@ zero_extendqisi2
 1640 001a 064B     		ldr	r3, .L114+8
 1641 001c 1B78     		ldrb	r3, [r3]	@ zero_extendqisi2
 1642 001e 1A46     		mov	r2, r3
 1643 0020 FFF7FEFF 		bl	write_deadband
 463:main.c        ****         taskEXIT_CRITICAL();
 1644              		.loc 1 463 0 discriminator 1
 1645 0024 FFF7FEFF 		bl	vPortExitCritical
 464:main.c        ****     }
 1646              		.loc 1 464 0 discriminator 1
 1647 0028 EEE7     		b	.L113
 1648              	.L115:
 1649 002a 00BF     		.align	2
 1650              	.L114:
 1651 002c 00000000 		.word	slave_address
 1652 0030 00000000 		.word	setpoint
 1653 0034 00000000 		.word	TOL
 1654              		.cfi_endproc
 1655              	.LFE81:
 1656              		.size	vEnc, .-vEnc
 1657              		.section	.text.vPoll,"ax",%progbits
 1658              		.align	2
 1659              		.global	vPoll
 1660              		.thumb
 1661              		.thumb_func
 1662              		.type	vPoll, %function
 1663              	vPoll:
 1664              	.LFB82:
 465:main.c        **** }
 466:main.c        **** 
 467:main.c        **** void vPoll(void *pvParameters){ //this is the main loop that polls the buttons
 1665              		.loc 1 467 0
 1666              		.cfi_startproc
 1667              		@ args = 0, pretend = 0, frame = 16
 1668              		@ frame_needed = 1, uses_anonymous_args = 0
 1669 0000 90B5     		push	{r4, r7, lr}
 1670              		.cfi_def_cfa_offset 12
 1671              		.cfi_offset 4, -12
 1672              		.cfi_offset 7, -8
 1673              		.cfi_offset 14, -4
 1674 0002 85B0     		sub	sp, sp, #20
 1675              		.cfi_def_cfa_offset 32
 1676 0004 00AF     		add	r7, sp, #0
 1677              		.cfi_def_cfa_register 7
 1678 0006 7860     		str	r0, [r7, #4]
 468:main.c        ****     TickType_t xLastWakeTime;
 469:main.c        ****     uint8 speed_value = 0;
 1679              		.loc 1 469 0
 1680 0008 0023     		movs	r3, #0
 1681 000a FB73     		strb	r3, [r7, #15]
 470:main.c        ****     uint8 mode_value = 0;
 1682              		.loc 1 470 0
ARM GAS  C:\Users\DEREKM~1\AppData\Local\Temp\ccqkvYAI.s 			page 39


 1683 000c 0023     		movs	r3, #0
 1684 000e BB73     		strb	r3, [r7, #14]
 471:main.c        ****     uint8 tol_value = 0;
 1685              		.loc 1 471 0
 1686 0010 0023     		movs	r3, #0
 1687 0012 7B73     		strb	r3, [r7, #13]
 1688              	.L124:
 472:main.c        ****     
 473:main.c        ****     for(;;){
 474:main.c        ****         taskENTER_CRITICAL();
 1689              		.loc 1 474 0
 1690 0014 FFF7FEFF 		bl	vPortEnterCritical
 475:main.c        ****             speed_value = SPEED_Read();
 1691              		.loc 1 475 0
 1692 0018 FFF7FEFF 		bl	SPEED_Read
 1693 001c 0346     		mov	r3, r0
 1694 001e FB73     		strb	r3, [r7, #15]
 476:main.c        ****             mode_value = MODE_Read();
 1695              		.loc 1 476 0
 1696 0020 FFF7FEFF 		bl	MODE_Read
 1697 0024 0346     		mov	r3, r0
 1698 0026 BB73     		strb	r3, [r7, #14]
 477:main.c        ****             tol_value = TOL_Read();
 1699              		.loc 1 477 0
 1700 0028 FFF7FEFF 		bl	TOL_Read
 1701 002c 0346     		mov	r3, r0
 1702 002e 7B73     		strb	r3, [r7, #13]
 478:main.c        ****             setpoint = QuadDec_GetCounter();
 1703              		.loc 1 478 0
 1704 0030 FFF7FEFF 		bl	QuadDec_GetCounter
 1705 0034 0346     		mov	r3, r0
 1706 0036 DAB2     		uxtb	r2, r3
 1707 0038 334B     		ldr	r3, .L125
 1708 003a 1A70     		strb	r2, [r3]
 479:main.c        ****             CyDelayUs(50); //debounce the buttons
 1709              		.loc 1 479 0
 1710 003c 3220     		movs	r0, #50
 1711 003e FFF7FEFF 		bl	CyDelayUs
 480:main.c        ****             if ((speed_value == SPEED_Read()) && speed_value == 1){
 1712              		.loc 1 480 0
 1713 0042 FFF7FEFF 		bl	SPEED_Read
 1714 0046 0346     		mov	r3, r0
 1715 0048 1A46     		mov	r2, r3
 1716 004a FB7B     		ldrb	r3, [r7, #15]	@ zero_extendqisi2
 1717 004c 9342     		cmp	r3, r2
 1718 004e 07D1     		bne	.L117
 1719              		.loc 1 480 0 is_stmt 0 discriminator 1
 1720 0050 FB7B     		ldrb	r3, [r7, #15]	@ zero_extendqisi2
 1721 0052 012B     		cmp	r3, #1
 1722 0054 04D1     		bne	.L117
 481:main.c        ****                 vTaskResume(SpeedTaskHandle);               //allow the task to be scheduled wrt pr
 1723              		.loc 1 481 0 is_stmt 1
 1724 0056 2D4B     		ldr	r3, .L125+4
 1725 0058 1B68     		ldr	r3, [r3]
 1726 005a 1846     		mov	r0, r3
 1727 005c FFF7FEFF 		bl	vTaskResume
 1728              	.L117:
ARM GAS  C:\Users\DEREKM~1\AppData\Local\Temp\ccqkvYAI.s 			page 40


 482:main.c        ****             }
 483:main.c        ****             if ((mode_value == MODE_Read()) && mode_value == 1){
 1729              		.loc 1 483 0
 1730 0060 FFF7FEFF 		bl	MODE_Read
 1731 0064 0346     		mov	r3, r0
 1732 0066 1A46     		mov	r2, r3
 1733 0068 BB7B     		ldrb	r3, [r7, #14]	@ zero_extendqisi2
 1734 006a 9342     		cmp	r3, r2
 1735 006c 07D1     		bne	.L118
 1736              		.loc 1 483 0 is_stmt 0 discriminator 1
 1737 006e BB7B     		ldrb	r3, [r7, #14]	@ zero_extendqisi2
 1738 0070 012B     		cmp	r3, #1
 1739 0072 04D1     		bne	.L118
 484:main.c        ****                 vTaskResume(ModeTaskHandle);
 1740              		.loc 1 484 0 is_stmt 1
 1741 0074 264B     		ldr	r3, .L125+8
 1742 0076 1B68     		ldr	r3, [r3]
 1743 0078 1846     		mov	r0, r3
 1744 007a FFF7FEFF 		bl	vTaskResume
 1745              	.L118:
 485:main.c        ****             }
 486:main.c        ****             if ((tol_value == TOL_Read()) && tol_value == 1){
 1746              		.loc 1 486 0
 1747 007e FFF7FEFF 		bl	TOL_Read
 1748 0082 0346     		mov	r3, r0
 1749 0084 1A46     		mov	r2, r3
 1750 0086 7B7B     		ldrb	r3, [r7, #13]	@ zero_extendqisi2
 1751 0088 9342     		cmp	r3, r2
 1752 008a 14D1     		bne	.L119
 1753              		.loc 1 486 0 is_stmt 0 discriminator 1
 1754 008c 7B7B     		ldrb	r3, [r7, #13]	@ zero_extendqisi2
 1755 008e 012B     		cmp	r3, #1
 1756 0090 11D1     		bne	.L119
 487:main.c        ****                 TOL++;
 1757              		.loc 1 487 0 is_stmt 1
 1758 0092 204B     		ldr	r3, .L125+12
 1759 0094 1B78     		ldrb	r3, [r3]	@ zero_extendqisi2
 1760 0096 0133     		adds	r3, r3, #1
 1761 0098 DAB2     		uxtb	r2, r3
 1762 009a 1E4B     		ldr	r3, .L125+12
 1763 009c 1A70     		strb	r2, [r3]
 488:main.c        ****                 if (TOL == 6) TOL = 1;                          //range is 1C to 5C so loop back ar
 1764              		.loc 1 488 0
 1765 009e 1D4B     		ldr	r3, .L125+12
 1766 00a0 1B78     		ldrb	r3, [r3]	@ zero_extendqisi2
 1767 00a2 062B     		cmp	r3, #6
 1768 00a4 02D1     		bne	.L120
 1769              		.loc 1 488 0 is_stmt 0 discriminator 1
 1770 00a6 1B4B     		ldr	r3, .L125+12
 1771 00a8 0122     		movs	r2, #1
 1772 00aa 1A70     		strb	r2, [r3]
 1773              	.L120:
 489:main.c        ****                 vTaskResume(TOLTaskHandle);
 1774              		.loc 1 489 0 is_stmt 1
 1775 00ac 1A4B     		ldr	r3, .L125+16
 1776 00ae 1B68     		ldr	r3, [r3]
 1777 00b0 1846     		mov	r0, r3
ARM GAS  C:\Users\DEREKM~1\AppData\Local\Temp\ccqkvYAI.s 			page 41


 1778 00b2 FFF7FEFF 		bl	vTaskResume
 1779              	.L119:
 490:main.c        ****             }
 491:main.c        ****             if (setpoint == QuadDec_GetCounter()) {
 1780              		.loc 1 491 0
 1781 00b6 144B     		ldr	r3, .L125
 1782 00b8 1B78     		ldrb	r3, [r3]	@ zero_extendqisi2
 1783 00ba 1C46     		mov	r4, r3
 1784 00bc FFF7FEFF 		bl	QuadDec_GetCounter
 1785 00c0 0346     		mov	r3, r0
 1786 00c2 9C42     		cmp	r4, r3
 1787 00c4 13D1     		bne	.L121
 492:main.c        ****                 if (setpoint >= 40) QuadDec_SetCounter(MAX_TEMP_SETPOINT);
 1788              		.loc 1 492 0
 1789 00c6 104B     		ldr	r3, .L125
 1790 00c8 1B78     		ldrb	r3, [r3]	@ zero_extendqisi2
 1791 00ca 272B     		cmp	r3, #39
 1792 00cc 03D9     		bls	.L122
 1793              		.loc 1 492 0 is_stmt 0 discriminator 1
 1794 00ce 2820     		movs	r0, #40
 1795 00d0 FFF7FEFF 		bl	QuadDec_SetCounter
 1796 00d4 06E0     		b	.L123
 1797              	.L122:
 493:main.c        ****                 else if (setpoint <= 15) QuadDec_SetCounter(MIN_TEMP_SETPOINT);
 1798              		.loc 1 493 0 is_stmt 1
 1799 00d6 0C4B     		ldr	r3, .L125
 1800 00d8 1B78     		ldrb	r3, [r3]	@ zero_extendqisi2
 1801 00da 0F2B     		cmp	r3, #15
 1802 00dc 02D8     		bhi	.L123
 1803              		.loc 1 493 0 is_stmt 0 discriminator 1
 1804 00de 0F20     		movs	r0, #15
 1805 00e0 FFF7FEFF 		bl	QuadDec_SetCounter
 1806              	.L123:
 494:main.c        ****                 vTaskResume(EncTaskHandle);
 1807              		.loc 1 494 0 is_stmt 1
 1808 00e4 0D4B     		ldr	r3, .L125+20
 1809 00e6 1B68     		ldr	r3, [r3]
 1810 00e8 1846     		mov	r0, r3
 1811 00ea FFF7FEFF 		bl	vTaskResume
 1812              	.L121:
 495:main.c        ****             }
 496:main.c        ****         taskEXIT_CRITICAL();
 1813              		.loc 1 496 0
 1814 00ee FFF7FEFF 		bl	vPortExitCritical
 497:main.c        ****         xLastWakeTime = xTaskGetTickCount();
 1815              		.loc 1 497 0
 1816 00f2 FFF7FEFF 		bl	xTaskGetTickCount
 1817 00f6 0346     		mov	r3, r0
 1818 00f8 BB60     		str	r3, [r7, #8]
 498:main.c        ****         vTaskDelayUntil(&xLastWakeTime,100/portTICK_PERIOD_MS); //call poll task to read buttons ev
 1819              		.loc 1 498 0
 1820 00fa 07F10803 		add	r3, r7, #8
 1821 00fe 6421     		movs	r1, #100
 1822 0100 1846     		mov	r0, r3
 1823 0102 FFF7FEFF 		bl	vTaskDelayUntil
 499:main.c        ****     }
 1824              		.loc 1 499 0
ARM GAS  C:\Users\DEREKM~1\AppData\Local\Temp\ccqkvYAI.s 			page 42


 1825 0106 85E7     		b	.L124
 1826              	.L126:
 1827              		.align	2
 1828              	.L125:
 1829 0108 00000000 		.word	setpoint
 1830 010c 00000000 		.word	SpeedTaskHandle
 1831 0110 00000000 		.word	ModeTaskHandle
 1832 0114 00000000 		.word	TOL
 1833 0118 00000000 		.word	TOLTaskHandle
 1834 011c 00000000 		.word	EncTaskHandle
 1835              		.cfi_endproc
 1836              	.LFE82:
 1837              		.size	vPoll, .-vPoll
 1838              		.section	.text.vApplicationSleep,"ax",%progbits
 1839              		.align	2
 1840              		.global	vApplicationSleep
 1841              		.thumb
 1842              		.thumb_func
 1843              		.type	vApplicationSleep, %function
 1844              	vApplicationSleep:
 1845              	.LFB83:
 500:main.c        **** }
 501:main.c        **** 
 502:main.c        **** void vApplicationSleep (TickType_t xExpectedIdleTime)
 503:main.c        **** {
 1846              		.loc 1 503 0
 1847              		.cfi_startproc
 1848              		@ args = 0, pretend = 0, frame = 16
 1849              		@ frame_needed = 1, uses_anonymous_args = 0
 1850 0000 80B5     		push	{r7, lr}
 1851              		.cfi_def_cfa_offset 8
 1852              		.cfi_offset 7, -8
 1853              		.cfi_offset 14, -4
 1854 0002 84B0     		sub	sp, sp, #16
 1855              		.cfi_def_cfa_offset 24
 1856 0004 00AF     		add	r7, sp, #0
 1857              		.cfi_def_cfa_register 7
 1858 0006 7860     		str	r0, [r7, #4]
 504:main.c        ****     eSleepModeStatus eSleepStatus;
 505:main.c        ****     Timer_48MHz_Sleep();
 1859              		.loc 1 505 0
 1860 0008 FFF7FEFF 		bl	Timer_48MHz_Sleep
 506:main.c        ****     
 507:main.c        ****     eSleepStatus = eTaskConfirmSleepModeStatus();
 1861              		.loc 1 507 0
 1862 000c FFF7FEFF 		bl	eTaskConfirmSleepModeStatus
 1863 0010 0346     		mov	r3, r0
 1864 0012 FB73     		strb	r3, [r7, #15]
 508:main.c        ****     if (eSleepStatus == eAbortSleep)
 1865              		.loc 1 508 0
 1866 0014 FB7B     		ldrb	r3, [r7, #15]	@ zero_extendqisi2
 1867 0016 002B     		cmp	r3, #0
 1868 0018 02D1     		bne	.L128
 509:main.c        ****     {
 510:main.c        ****         Timer_48MHz_Wakeup();
 1869              		.loc 1 510 0
 1870 001a FFF7FEFF 		bl	Timer_48MHz_Wakeup
ARM GAS  C:\Users\DEREKM~1\AppData\Local\Temp\ccqkvYAI.s 			page 43


 511:main.c        **** //        LCD_ClearDisplay();
 512:main.c        **** //        LCD_PrintString("eAbortSleep");
 513:main.c        ****     }
 514:main.c        ****     else
 515:main.c        ****     {
 516:main.c        ****         if (eSleepStatus == eNoTasksWaitingTimeout)
 517:main.c        ****         {
 518:main.c        **** //            LCD_ClearDisplay();
 519:main.c        **** //            LCD_PrintString("eNoTasks");
 520:main.c        ****             I2C_Sleep();
 521:main.c        ****             LCD_Sleep();
 522:main.c        ****             QuadDec_Sleep();
 523:main.c        ****             CyPmSaveClocks();
 524:main.c        ****             CyPmHibernate(); //makes us have hardware interrupt to wakeup system
 525:main.c        ****         }
 526:main.c        ****         else
 527:main.c        ****         {
 528:main.c        ****             if (awake_flag == 1)
 529:main.c        ****             {
 530:main.c        **** //                LCD_ClearDisplay();
 531:main.c        **** //                LCD_PrintString("flag");
 532:main.c        ****                 awake_flag = 0;
 533:main.c        ****                 
 534:main.c        ****                 if (awake == 1)
 535:main.c        ****                 {
 536:main.c        **** //                    LCD_ClearDisplay();
 537:main.c        **** //                    LCD_PrintString("sleep");
 538:main.c        ****                     awake = 0;
 539:main.c        ****                     LCD_Sleep();
 540:main.c        ****                     I2C_Sleep();
 541:main.c        ****                     QuadDec_Sleep();
 542:main.c        ****                     CyPmSaveClocks();
 543:main.c        ****                     CyPmHibernate();
 544:main.c        ****                 }
 545:main.c        ****                 else
 546:main.c        ****                 {
 547:main.c        ****                     LCD_Wakeup();
 548:main.c        **** //                    LCD_ClearDisplay();
 549:main.c        **** //                    LCD_PrintString("awake");
 550:main.c        ****                     I2C_Wakeup();
 551:main.c        ****                     QuadDec_Wakeup();
 552:main.c        ****                     CyPmRestoreClocks();
 553:main.c        ****                     Timer_48MHz_Wakeup();
 554:main.c        ****                     awake = 1;
 555:main.c        ****                 }
 556:main.c        ****             }
 557:main.c        ****         }
 558:main.c        ****     }
 559:main.c        **** }...
 1871              		.loc 1 559 0
 1872 001e 33E0     		b	.L132
 1873              	.L128:
 516:main.c        ****         if (eSleepStatus == eNoTasksWaitingTimeout)
 1874              		.loc 1 516 0
 1875 0020 FB7B     		ldrb	r3, [r7, #15]	@ zero_extendqisi2
 1876 0022 022B     		cmp	r3, #2
 1877 0024 0AD1     		bne	.L130
ARM GAS  C:\Users\DEREKM~1\AppData\Local\Temp\ccqkvYAI.s 			page 44


 520:main.c        ****             I2C_Sleep();
 1878              		.loc 1 520 0
 1879 0026 FFF7FEFF 		bl	I2C_Sleep
 521:main.c        ****             LCD_Sleep();
 1880              		.loc 1 521 0
 1881 002a FFF7FEFF 		bl	LCD_Sleep
 522:main.c        ****             QuadDec_Sleep();
 1882              		.loc 1 522 0
 1883 002e FFF7FEFF 		bl	QuadDec_Sleep
 523:main.c        ****             CyPmSaveClocks();
 1884              		.loc 1 523 0
 1885 0032 FFF7FEFF 		bl	CyPmSaveClocks
 524:main.c        ****             CyPmHibernate(); //makes us have hardware interrupt to wakeup system
 1886              		.loc 1 524 0
 1887 0036 FFF7FEFF 		bl	CyPmHibernate
 1888              		.loc 1 559 0
 1889 003a 25E0     		b	.L132
 1890              	.L130:
 528:main.c        ****             if (awake_flag == 1)
 1891              		.loc 1 528 0
 1892 003c 144B     		ldr	r3, .L133
 1893 003e 1B68     		ldr	r3, [r3]
 1894 0040 012B     		cmp	r3, #1
 1895 0042 21D1     		bne	.L132
 532:main.c        ****                 awake_flag = 0;
 1896              		.loc 1 532 0
 1897 0044 124B     		ldr	r3, .L133
 1898 0046 0022     		movs	r2, #0
 1899 0048 1A60     		str	r2, [r3]
 534:main.c        ****                 if (awake == 1)
 1900              		.loc 1 534 0
 1901 004a 124B     		ldr	r3, .L133+4
 1902 004c 1B68     		ldr	r3, [r3]
 1903 004e 012B     		cmp	r3, #1
 1904 0050 0DD1     		bne	.L131
 538:main.c        ****                     awake = 0;
 1905              		.loc 1 538 0
 1906 0052 104B     		ldr	r3, .L133+4
 1907 0054 0022     		movs	r2, #0
 1908 0056 1A60     		str	r2, [r3]
 539:main.c        ****                     LCD_Sleep();
 1909              		.loc 1 539 0
 1910 0058 FFF7FEFF 		bl	LCD_Sleep
 540:main.c        ****                     I2C_Sleep();
 1911              		.loc 1 540 0
 1912 005c FFF7FEFF 		bl	I2C_Sleep
 541:main.c        ****                     QuadDec_Sleep();
 1913              		.loc 1 541 0
 1914 0060 FFF7FEFF 		bl	QuadDec_Sleep
 542:main.c        ****                     CyPmSaveClocks();
 1915              		.loc 1 542 0
 1916 0064 FFF7FEFF 		bl	CyPmSaveClocks
 543:main.c        ****                     CyPmHibernate();
 1917              		.loc 1 543 0
 1918 0068 FFF7FEFF 		bl	CyPmHibernate
 1919              		.loc 1 559 0
 1920 006c 0CE0     		b	.L132
ARM GAS  C:\Users\DEREKM~1\AppData\Local\Temp\ccqkvYAI.s 			page 45


 1921              	.L131:
 547:main.c        ****                     LCD_Wakeup();
 1922              		.loc 1 547 0
 1923 006e FFF7FEFF 		bl	LCD_Wakeup
 550:main.c        ****                     I2C_Wakeup();
 1924              		.loc 1 550 0
 1925 0072 FFF7FEFF 		bl	I2C_Wakeup
 551:main.c        ****                     QuadDec_Wakeup();
 1926              		.loc 1 551 0
 1927 0076 FFF7FEFF 		bl	QuadDec_Wakeup
 552:main.c        ****                     CyPmRestoreClocks();
 1928              		.loc 1 552 0
 1929 007a FFF7FEFF 		bl	CyPmRestoreClocks
 553:main.c        ****                     Timer_48MHz_Wakeup();
 1930              		.loc 1 553 0
 1931 007e FFF7FEFF 		bl	Timer_48MHz_Wakeup
 554:main.c        ****                     awake = 1;
 1932              		.loc 1 554 0
 1933 0082 044B     		ldr	r3, .L133+4
 1934 0084 0122     		movs	r2, #1
 1935 0086 1A60     		str	r2, [r3]
 1936              	.L132:
 1937              		.loc 1 559 0
 1938 0088 00BF     		nop
 1939 008a 1037     		adds	r7, r7, #16
 1940              		.cfi_def_cfa_offset 8
 1941 008c BD46     		mov	sp, r7
 1942              		.cfi_def_cfa_register 13
 1943              		@ sp needed
 1944 008e 80BD     		pop	{r7, pc}
 1945              	.L134:
 1946              		.align	2
 1947              	.L133:
 1948 0090 00000000 		.word	awake_flag
 1949 0094 00000000 		.word	awake
 1950              		.cfi_endproc
 1951              	.LFE83:
 1952              		.size	vApplicationSleep, .-vApplicationSleep
 1953              		.text
 1954              	.Letext0:
 1955              		.file 2 "./stdint.h"
 1956              		.file 3 "Generated_Source\\PSoC5/cytypes.h"
 1957              		.file 4 "../../../Source/portable/GCC/ARM_CM3/portmacro.h"
 1958              		.file 5 "../../../Source/include/task.h"
 1959              		.file 6 "Generated_Source\\PSoC5/core_cm3.h"
