ARM GAS  C:\Users\DEREKM~1\AppData\Local\Temp\ccBMzeMc.s 			page 1


   1              		.syntax unified
   2              		.cpu cortex-m3
   3              		.fpu softvfp
   4              		.eabi_attribute 20, 1
   5              		.eabi_attribute 21, 1
   6              		.eabi_attribute 23, 3
   7              		.eabi_attribute 24, 1
   8              		.eabi_attribute 25, 1
   9              		.eabi_attribute 26, 1
  10              		.eabi_attribute 30, 6
  11              		.eabi_attribute 34, 1
  12              		.eabi_attribute 18, 4
  13              		.thumb
  14              		.syntax unified
  15              		.file	"Serial.c"
  16              		.text
  17              	.Ltext0:
  18              		.cfi_sections	.debug_frame
  19              		.bss
  20              		.align	2
  21              	xSerialTxQueue:
  22 0000 00000000 		.space	4
  23              		.align	2
  24              	xSerialRxQueue:
  25 0004 00000000 		.space	4
  26              		.section	.text.xSerialPortInitMinimal,"ax",%progbits
  27              		.align	2
  28              		.global	xSerialPortInitMinimal
  29              		.thumb
  30              		.thumb_func
  31              		.type	xSerialPortInitMinimal, %function
  32              	xSerialPortInitMinimal:
  33              	.LFB68:
  34              		.file 1 "Serial.c"
   1:Serial.c      **** /*
   2:Serial.c      ****  * FreeRTOS Kernel V10.2.1
   3:Serial.c      ****  * Copyright (C) 2019 Amazon.com, Inc. or its affiliates.  All Rights Reserved.
   4:Serial.c      ****  *
   5:Serial.c      ****  * Permission is hereby granted, free of charge, to any person obtaining a copy of
   6:Serial.c      ****  * this software and associated documentation files (the "Software"), to deal in
   7:Serial.c      ****  * the Software without restriction, including without limitation the rights to
   8:Serial.c      ****  * use, copy, modify, merge, publish, distribute, sublicense, and/or sell copies of
   9:Serial.c      ****  * the Software, and to permit persons to whom the Software is furnished to do so,
  10:Serial.c      ****  * subject to the following conditions:
  11:Serial.c      ****  *
  12:Serial.c      ****  * The above copyright notice and this permission notice shall be included in all
  13:Serial.c      ****  * copies or substantial portions of the Software.
  14:Serial.c      ****  *
  15:Serial.c      ****  * THE SOFTWARE IS PROVIDED "AS IS", WITHOUT WARRANTY OF ANY KIND, EXPRESS OR
  16:Serial.c      ****  * IMPLIED, INCLUDING BUT NOT LIMITED TO THE WARRANTIES OF MERCHANTABILITY, FITNESS
  17:Serial.c      ****  * FOR A PARTICULAR PURPOSE AND NONINFRINGEMENT. IN NO EVENT SHALL THE AUTHORS OR
  18:Serial.c      ****  * COPYRIGHT HOLDERS BE LIABLE FOR ANY CLAIM, DAMAGES OR OTHER LIABILITY, WHETHER
  19:Serial.c      ****  * IN AN ACTION OF CONTRACT, TORT OR OTHERWISE, ARISING FROM, OUT OF OR IN
  20:Serial.c      ****  * CONNECTION WITH THE SOFTWARE OR THE USE OR OTHER DEALINGS IN THE SOFTWARE.
  21:Serial.c      ****  *
  22:Serial.c      ****  * http://www.FreeRTOS.org
  23:Serial.c      ****  * http://aws.amazon.com/freertos
ARM GAS  C:\Users\DEREKM~1\AppData\Local\Temp\ccBMzeMc.s 			page 2


  24:Serial.c      ****  *
  25:Serial.c      ****  * 1 tab == 4 spaces!
  26:Serial.c      ****  */
  27:Serial.c      **** 
  28:Serial.c      **** #include <device.h>
  29:Serial.c      **** #include "FreeRTOS.h"
  30:Serial.c      **** #include "queue.h"
  31:Serial.c      **** #include "task.h"
  32:Serial.c      **** #include "serial.h"
  33:Serial.c      **** /*---------------------------------------------------------------------------*/
  34:Serial.c      **** 
  35:Serial.c      **** #define serialSTRING_DELAY_TICKS		( portMAX_DELAY )
  36:Serial.c      **** /*---------------------------------------------------------------------------*/
  37:Serial.c      **** 
  38:Serial.c      **** CY_ISR_PROTO( vUartRxISR );
  39:Serial.c      **** CY_ISR_PROTO( vUartTxISR );
  40:Serial.c      **** /*---------------------------------------------------------------------------*/
  41:Serial.c      **** 
  42:Serial.c      **** static QueueHandle_t xSerialTxQueue = NULL;
  43:Serial.c      **** static QueueHandle_t xSerialRxQueue = NULL;
  44:Serial.c      **** /*---------------------------------------------------------------------------*/
  45:Serial.c      **** 
  46:Serial.c      **** xComPortHandle xSerialPortInitMinimal( unsigned long ulWantedBaud, unsigned portBASE_TYPE uxQueueLe
  47:Serial.c      **** {
  35              		.loc 1 47 0
  36              		.cfi_startproc
  37              		@ args = 0, pretend = 0, frame = 8
  38              		@ frame_needed = 1, uses_anonymous_args = 0
  39 0000 80B5     		push	{r7, lr}
  40              		.cfi_def_cfa_offset 8
  41              		.cfi_offset 7, -8
  42              		.cfi_offset 14, -4
  43 0002 82B0     		sub	sp, sp, #8
  44              		.cfi_def_cfa_offset 16
  45 0004 00AF     		add	r7, sp, #0
  46              		.cfi_def_cfa_register 7
  47 0006 7860     		str	r0, [r7, #4]
  48 0008 3960     		str	r1, [r7]
  48:Serial.c      **** 	/* Configure Rx. */
  49:Serial.c      **** 	xSerialRxQueue = xQueueCreate( uxQueueLength, sizeof( signed char ) );	
  49              		.loc 1 49 0
  50 000a 0022     		movs	r2, #0
  51 000c 0121     		movs	r1, #1
  52 000e 3868     		ldr	r0, [r7]
  53 0010 FFF7FEFF 		bl	xQueueGenericCreate
  54 0014 0246     		mov	r2, r0
  55 0016 134B     		ldr	r3, .L5
  56 0018 1A60     		str	r2, [r3]
  50:Serial.c      **** 	isr_UART1_RX_BYTE_RECEIVED_ClearPending();
  57              		.loc 1 50 0
  58 001a FFF7FEFF 		bl	isr_UART1_RX_BYTE_RECEIVED_ClearPending
  51:Serial.c      **** 	isr_UART1_RX_BYTE_RECEIVED_StartEx(vUartRxISR);
  59              		.loc 1 51 0
  60 001e 1248     		ldr	r0, .L5+4
  61 0020 FFF7FEFF 		bl	isr_UART1_RX_BYTE_RECEIVED_StartEx
  52:Serial.c      **** 
  53:Serial.c      **** 	/* Configure Tx */
ARM GAS  C:\Users\DEREKM~1\AppData\Local\Temp\ccBMzeMc.s 			page 3


  54:Serial.c      **** 	xSerialTxQueue = xQueueCreate( uxQueueLength, sizeof( signed char ) );
  62              		.loc 1 54 0
  63 0024 0022     		movs	r2, #0
  64 0026 0121     		movs	r1, #1
  65 0028 3868     		ldr	r0, [r7]
  66 002a FFF7FEFF 		bl	xQueueGenericCreate
  67 002e 0246     		mov	r2, r0
  68 0030 0E4B     		ldr	r3, .L5+8
  69 0032 1A60     		str	r2, [r3]
  55:Serial.c      **** 	isr_UART1_TX_BYTE_COMPLETE_ClearPending() ;
  70              		.loc 1 55 0
  71 0034 FFF7FEFF 		bl	isr_UART1_TX_BYTE_COMPLETE_ClearPending
  56:Serial.c      **** 	isr_UART1_TX_BYTE_COMPLETE_StartEx(vUartTxISR);
  72              		.loc 1 56 0
  73 0038 0D48     		ldr	r0, .L5+12
  74 003a FFF7FEFF 		bl	isr_UART1_TX_BYTE_COMPLETE_StartEx
  57:Serial.c      **** 
  58:Serial.c      **** 	/* Clear the interrupt modes for the Tx for the time being. */
  59:Serial.c      **** 	UART_1_SetTxInterruptMode( 0 );
  75              		.loc 1 59 0
  76 003e 0020     		movs	r0, #0
  77 0040 FFF7FEFF 		bl	UART_1_SetTxInterruptMode
  60:Serial.c      **** 
  61:Serial.c      **** 	/* Both configured successfully. */
  62:Serial.c      **** 	return ( xComPortHandle )( xSerialTxQueue && xSerialRxQueue );
  78              		.loc 1 62 0
  79 0044 094B     		ldr	r3, .L5+8
  80 0046 1B68     		ldr	r3, [r3]
  81 0048 002B     		cmp	r3, #0
  82 004a 05D0     		beq	.L2
  83              		.loc 1 62 0 is_stmt 0 discriminator 1
  84 004c 054B     		ldr	r3, .L5
  85 004e 1B68     		ldr	r3, [r3]
  86 0050 002B     		cmp	r3, #0
  87 0052 01D0     		beq	.L2
  88              		.loc 1 62 0 discriminator 3
  89 0054 0123     		movs	r3, #1
  90 0056 00E0     		b	.L3
  91              	.L2:
  92              		.loc 1 62 0 discriminator 4
  93 0058 0023     		movs	r3, #0
  94              	.L3:
  63:Serial.c      **** }
  95              		.loc 1 63 0 is_stmt 1 discriminator 6
  96 005a 1846     		mov	r0, r3
  97 005c 0837     		adds	r7, r7, #8
  98              		.cfi_def_cfa_offset 8
  99 005e BD46     		mov	sp, r7
 100              		.cfi_def_cfa_register 13
 101              		@ sp needed
 102 0060 80BD     		pop	{r7, pc}
 103              	.L6:
 104 0062 00BF     		.align	2
 105              	.L5:
 106 0064 04000000 		.word	xSerialRxQueue
 107 0068 00000000 		.word	vUartRxISR
 108 006c 00000000 		.word	xSerialTxQueue
ARM GAS  C:\Users\DEREKM~1\AppData\Local\Temp\ccBMzeMc.s 			page 4


 109 0070 00000000 		.word	vUartTxISR
 110              		.cfi_endproc
 111              	.LFE68:
 112              		.size	xSerialPortInitMinimal, .-xSerialPortInitMinimal
 113              		.section	.text.vSerialPutString,"ax",%progbits
 114              		.align	2
 115              		.global	vSerialPutString
 116              		.thumb
 117              		.thumb_func
 118              		.type	vSerialPutString, %function
 119              	vSerialPutString:
 120              	.LFB69:
  64:Serial.c      **** /*---------------------------------------------------------------------------*/
  65:Serial.c      **** 
  66:Serial.c      **** void vSerialPutString( xComPortHandle pxPort, const signed char * const pcString, unsigned short us
  67:Serial.c      **** {
 121              		.loc 1 67 0
 122              		.cfi_startproc
 123              		@ args = 0, pretend = 0, frame = 24
 124              		@ frame_needed = 1, uses_anonymous_args = 0
 125 0000 80B5     		push	{r7, lr}
 126              		.cfi_def_cfa_offset 8
 127              		.cfi_offset 7, -8
 128              		.cfi_offset 14, -4
 129 0002 86B0     		sub	sp, sp, #24
 130              		.cfi_def_cfa_offset 32
 131 0004 00AF     		add	r7, sp, #0
 132              		.cfi_def_cfa_register 7
 133 0006 F860     		str	r0, [r7, #12]
 134 0008 B960     		str	r1, [r7, #8]
 135 000a 1346     		mov	r3, r2
 136 000c FB80     		strh	r3, [r7, #6]	@ movhi
  68:Serial.c      **** unsigned short usIndex = 0;
 137              		.loc 1 68 0
 138 000e 0023     		movs	r3, #0
 139 0010 FB82     		strh	r3, [r7, #22]	@ movhi
  69:Serial.c      **** 
  70:Serial.c      **** 	for( usIndex = 0; usIndex < usStringLength; usIndex++ )
 140              		.loc 1 70 0
 141 0012 0023     		movs	r3, #0
 142 0014 FB82     		strh	r3, [r7, #22]	@ movhi
 143 0016 14E0     		b	.L8
 144              	.L11:
  71:Serial.c      **** 	{
  72:Serial.c      **** 		/* Check for pre-mature end of line. */
  73:Serial.c      **** 		if( '\0' == pcString[ usIndex ] )
 145              		.loc 1 73 0
 146 0018 FB8A     		ldrh	r3, [r7, #22]
 147 001a BA68     		ldr	r2, [r7, #8]
 148 001c 1344     		add	r3, r3, r2
 149 001e 93F90030 		ldrsb	r3, [r3]
 150 0022 002B     		cmp	r3, #0
 151 0024 12D0     		beq	.L12
  74:Serial.c      **** 		{
  75:Serial.c      **** 			break;
  76:Serial.c      **** 		}
  77:Serial.c      **** 		
ARM GAS  C:\Users\DEREKM~1\AppData\Local\Temp\ccBMzeMc.s 			page 5


  78:Serial.c      **** 		/* Send out, one character at a time. */
  79:Serial.c      **** 		if( pdTRUE != xSerialPutChar( NULL, pcString[ usIndex ], serialSTRING_DELAY_TICKS ) )
 152              		.loc 1 79 0
 153 0026 FB8A     		ldrh	r3, [r7, #22]
 154 0028 BA68     		ldr	r2, [r7, #8]
 155 002a 1344     		add	r3, r3, r2
 156 002c 93F90030 		ldrsb	r3, [r3]
 157 0030 4FF0FF32 		mov	r2, #-1
 158 0034 1946     		mov	r1, r3
 159 0036 0020     		movs	r0, #0
 160 0038 FFF7FEFF 		bl	xSerialPutChar
  70:Serial.c      **** 	{
 161              		.loc 1 70 0
 162 003c FB8A     		ldrh	r3, [r7, #22]
 163 003e 0133     		adds	r3, r3, #1
 164 0040 FB82     		strh	r3, [r7, #22]	@ movhi
 165              	.L8:
  70:Serial.c      **** 	{
 166              		.loc 1 70 0 is_stmt 0 discriminator 1
 167 0042 FA8A     		ldrh	r2, [r7, #22]
 168 0044 FB88     		ldrh	r3, [r7, #6]
 169 0046 9A42     		cmp	r2, r3
 170 0048 E6D3     		bcc	.L11
  80:Serial.c      **** 		{
  81:Serial.c      **** 			/* Failed to send, this will be picked up in the receive comtest task. */
  82:Serial.c      **** 		}
  83:Serial.c      **** 	}
  84:Serial.c      **** }
 171              		.loc 1 84 0 is_stmt 1
 172 004a 00E0     		b	.L10
 173              	.L12:
  75:Serial.c      **** 		}
 174              		.loc 1 75 0
 175 004c 00BF     		nop
 176              	.L10:
 177              		.loc 1 84 0
 178 004e 00BF     		nop
 179 0050 1837     		adds	r7, r7, #24
 180              		.cfi_def_cfa_offset 8
 181 0052 BD46     		mov	sp, r7
 182              		.cfi_def_cfa_register 13
 183              		@ sp needed
 184 0054 80BD     		pop	{r7, pc}
 185              		.cfi_endproc
 186              	.LFE69:
 187              		.size	vSerialPutString, .-vSerialPutString
 188 0056 00BF     		.section	.text.xSerialGetChar,"ax",%progbits
 189              		.align	2
 190              		.global	xSerialGetChar
 191              		.thumb
 192              		.thumb_func
 193              		.type	xSerialGetChar, %function
 194              	xSerialGetChar:
 195              	.LFB70:
  85:Serial.c      **** /*---------------------------------------------------------------------------*/
  86:Serial.c      **** 
  87:Serial.c      **** signed portBASE_TYPE xSerialGetChar( xComPortHandle pxPort, signed char *pcRxedChar, TickType_t xBl
ARM GAS  C:\Users\DEREKM~1\AppData\Local\Temp\ccBMzeMc.s 			page 6


  88:Serial.c      **** {
 196              		.loc 1 88 0
 197              		.cfi_startproc
 198              		@ args = 0, pretend = 0, frame = 24
 199              		@ frame_needed = 1, uses_anonymous_args = 0
 200 0000 80B5     		push	{r7, lr}
 201              		.cfi_def_cfa_offset 8
 202              		.cfi_offset 7, -8
 203              		.cfi_offset 14, -4
 204 0002 86B0     		sub	sp, sp, #24
 205              		.cfi_def_cfa_offset 32
 206 0004 00AF     		add	r7, sp, #0
 207              		.cfi_def_cfa_register 7
 208 0006 F860     		str	r0, [r7, #12]
 209 0008 B960     		str	r1, [r7, #8]
 210 000a 7A60     		str	r2, [r7, #4]
  89:Serial.c      **** portBASE_TYPE xReturn = pdFALSE;
 211              		.loc 1 89 0
 212 000c 0023     		movs	r3, #0
 213 000e 7B61     		str	r3, [r7, #20]
  90:Serial.c      **** 
  91:Serial.c      **** 	if( pdTRUE == xQueueReceive( xSerialRxQueue, pcRxedChar, xBlockTime ) )
 214              		.loc 1 91 0
 215 0010 084B     		ldr	r3, .L16
 216 0012 1B68     		ldr	r3, [r3]
 217 0014 7A68     		ldr	r2, [r7, #4]
 218 0016 B968     		ldr	r1, [r7, #8]
 219 0018 1846     		mov	r0, r3
 220 001a FFF7FEFF 		bl	xQueueReceive
 221 001e 0346     		mov	r3, r0
 222 0020 012B     		cmp	r3, #1
 223 0022 01D1     		bne	.L14
  92:Serial.c      **** 	{
  93:Serial.c      **** 		/* Picked up a character. */
  94:Serial.c      **** 		xReturn = pdTRUE;
 224              		.loc 1 94 0
 225 0024 0123     		movs	r3, #1
 226 0026 7B61     		str	r3, [r7, #20]
 227              	.L14:
  95:Serial.c      **** 	}
  96:Serial.c      **** 	return xReturn;
 228              		.loc 1 96 0
 229 0028 7B69     		ldr	r3, [r7, #20]
  97:Serial.c      **** }
 230              		.loc 1 97 0
 231 002a 1846     		mov	r0, r3
 232 002c 1837     		adds	r7, r7, #24
 233              		.cfi_def_cfa_offset 8
 234 002e BD46     		mov	sp, r7
 235              		.cfi_def_cfa_register 13
 236              		@ sp needed
 237 0030 80BD     		pop	{r7, pc}
 238              	.L17:
 239 0032 00BF     		.align	2
 240              	.L16:
 241 0034 04000000 		.word	xSerialRxQueue
 242              		.cfi_endproc
ARM GAS  C:\Users\DEREKM~1\AppData\Local\Temp\ccBMzeMc.s 			page 7


 243              	.LFE70:
 244              		.size	xSerialGetChar, .-xSerialGetChar
 245              		.section	.text.xSerialPutChar,"ax",%progbits
 246              		.align	2
 247              		.global	xSerialPutChar
 248              		.thumb
 249              		.thumb_func
 250              		.type	xSerialPutChar, %function
 251              	xSerialPutChar:
 252              	.LFB71:
  98:Serial.c      **** /*---------------------------------------------------------------------------*/
  99:Serial.c      **** 
 100:Serial.c      **** signed portBASE_TYPE xSerialPutChar( xComPortHandle pxPort, signed char cOutChar, TickType_t xBlock
 101:Serial.c      **** {
 253              		.loc 1 101 0
 254              		.cfi_startproc
 255              		@ args = 0, pretend = 0, frame = 24
 256              		@ frame_needed = 1, uses_anonymous_args = 0
 257 0000 80B5     		push	{r7, lr}
 258              		.cfi_def_cfa_offset 8
 259              		.cfi_offset 7, -8
 260              		.cfi_offset 14, -4
 261 0002 86B0     		sub	sp, sp, #24
 262              		.cfi_def_cfa_offset 32
 263 0004 00AF     		add	r7, sp, #0
 264              		.cfi_def_cfa_register 7
 265 0006 F860     		str	r0, [r7, #12]
 266 0008 0B46     		mov	r3, r1
 267 000a 7A60     		str	r2, [r7, #4]
 268 000c FB72     		strb	r3, [r7, #11]
 102:Serial.c      **** portBASE_TYPE xReturn = pdFALSE;
 269              		.loc 1 102 0
 270 000e 0023     		movs	r3, #0
 271 0010 7B61     		str	r3, [r7, #20]
 103:Serial.c      **** 
 104:Serial.c      **** 	/* The ISR is processing characters is so just add to the end of the queue. */
 105:Serial.c      **** 	if( pdTRUE == xQueueSend( xSerialTxQueue, &cOutChar, xBlockTime ) )
 272              		.loc 1 105 0
 273 0012 0E4B     		ldr	r3, .L22
 274 0014 1868     		ldr	r0, [r3]
 275 0016 07F10B01 		add	r1, r7, #11
 276 001a 0023     		movs	r3, #0
 277 001c 7A68     		ldr	r2, [r7, #4]
 278 001e FFF7FEFF 		bl	xQueueGenericSend
 279 0022 0346     		mov	r3, r0
 280 0024 012B     		cmp	r3, #1
 281 0026 02D1     		bne	.L19
 106:Serial.c      **** 	{	
 107:Serial.c      **** 		xReturn = pdTRUE;
 282              		.loc 1 107 0
 283 0028 0123     		movs	r3, #1
 284 002a 7B61     		str	r3, [r7, #20]
 285 002c 01E0     		b	.L20
 286              	.L19:
 108:Serial.c      **** 	}
 109:Serial.c      **** 	else
 110:Serial.c      **** 	{
ARM GAS  C:\Users\DEREKM~1\AppData\Local\Temp\ccBMzeMc.s 			page 8


 111:Serial.c      **** 		/* The queue is probably full. */
 112:Serial.c      **** 		xReturn = pdFALSE;
 287              		.loc 1 112 0
 288 002e 0023     		movs	r3, #0
 289 0030 7B61     		str	r3, [r7, #20]
 290              	.L20:
 113:Serial.c      **** 	}
 114:Serial.c      **** 
 115:Serial.c      **** 	/* Make sure that the interrupt will fire in the case where:
 116:Serial.c      **** 	    Currently sending so the Tx Complete will fire.
 117:Serial.c      **** 	    Not sending so the Empty will fire.	*/
 118:Serial.c      **** 	taskENTER_CRITICAL();
 291              		.loc 1 118 0
 292 0032 FFF7FEFF 		bl	vPortEnterCritical
 119:Serial.c      **** 		UART_1_SetTxInterruptMode( UART_1_TX_STS_COMPLETE | UART_1_TX_STS_FIFO_EMPTY );
 293              		.loc 1 119 0
 294 0036 0320     		movs	r0, #3
 295 0038 FFF7FEFF 		bl	UART_1_SetTxInterruptMode
 120:Serial.c      **** 	taskEXIT_CRITICAL();
 296              		.loc 1 120 0
 297 003c FFF7FEFF 		bl	vPortExitCritical
 121:Serial.c      **** 	
 122:Serial.c      **** 	return xReturn;
 298              		.loc 1 122 0
 299 0040 7B69     		ldr	r3, [r7, #20]
 123:Serial.c      **** }
 300              		.loc 1 123 0
 301 0042 1846     		mov	r0, r3
 302 0044 1837     		adds	r7, r7, #24
 303              		.cfi_def_cfa_offset 8
 304 0046 BD46     		mov	sp, r7
 305              		.cfi_def_cfa_register 13
 306              		@ sp needed
 307 0048 80BD     		pop	{r7, pc}
 308              	.L23:
 309 004a 00BF     		.align	2
 310              	.L22:
 311 004c 00000000 		.word	xSerialTxQueue
 312              		.cfi_endproc
 313              	.LFE71:
 314              		.size	xSerialPutChar, .-xSerialPutChar
 315              		.section	.text.vUartRxISR,"ax",%progbits
 316              		.align	2
 317              		.global	vUartRxISR
 318              		.thumb
 319              		.thumb_func
 320              		.type	vUartRxISR, %function
 321              	vUartRxISR:
 322              	.LFB72:
 124:Serial.c      **** /*---------------------------------------------------------------------------*/
 125:Serial.c      **** 
 126:Serial.c      **** CY_ISR(vUartRxISR)
 127:Serial.c      **** {
 323              		.loc 1 127 0
 324              		.cfi_startproc
 325              		@ args = 0, pretend = 0, frame = 24
 326              		@ frame_needed = 1, uses_anonymous_args = 0
ARM GAS  C:\Users\DEREKM~1\AppData\Local\Temp\ccBMzeMc.s 			page 9


 327 0000 80B5     		push	{r7, lr}
 328              		.cfi_def_cfa_offset 8
 329              		.cfi_offset 7, -8
 330              		.cfi_offset 14, -4
 331 0002 86B0     		sub	sp, sp, #24
 332              		.cfi_def_cfa_offset 32
 333 0004 00AF     		add	r7, sp, #0
 334              		.cfi_def_cfa_register 7
 128:Serial.c      **** portBASE_TYPE xHigherPriorityTaskWoken = pdFALSE;
 335              		.loc 1 128 0
 336 0006 0023     		movs	r3, #0
 337 0008 7B60     		str	r3, [r7, #4]
 129:Serial.c      **** volatile unsigned char ucStatus = 0;
 338              		.loc 1 129 0
 339 000a 0023     		movs	r3, #0
 340 000c FB70     		strb	r3, [r7, #3]
 130:Serial.c      **** signed char cInChar = 0;
 341              		.loc 1 130 0
 342 000e 0023     		movs	r3, #0
 343 0010 BB70     		strb	r3, [r7, #2]
 131:Serial.c      **** unsigned long ulMask = 0;
 344              		.loc 1 131 0
 345 0012 0023     		movs	r3, #0
 346 0014 7B61     		str	r3, [r7, #20]
 132:Serial.c      **** 
 133:Serial.c      **** 	/* Read the status to acknowledge. */
 134:Serial.c      **** 	ucStatus = UART_1_ReadRxStatus();
 347              		.loc 1 134 0
 348 0016 FFF7FEFF 		bl	UART_1_ReadRxStatus
 349 001a 0346     		mov	r3, r0
 350 001c FB70     		strb	r3, [r7, #3]
 135:Serial.c      **** 
 136:Serial.c      **** 	/* Only interested in a character being received. */
 137:Serial.c      **** 	if( 0 != ( ucStatus & UART_1_RX_STS_FIFO_NOTEMPTY ) )
 351              		.loc 1 137 0
 352 001e FB78     		ldrb	r3, [r7, #3]
 353 0020 DBB2     		uxtb	r3, r3
 354 0022 03F02003 		and	r3, r3, #32
 355 0026 002B     		cmp	r3, #0
 356 0028 1ED0     		beq	.L25
 138:Serial.c      **** 	{
 139:Serial.c      **** 		/* Get the character. */
 140:Serial.c      **** 		cInChar = UART_1_GetChar();
 357              		.loc 1 140 0
 358 002a FFF7FEFF 		bl	UART_1_GetChar
 359 002e 0346     		mov	r3, r0
 360 0030 5BB2     		sxtb	r3, r3
 361 0032 BB70     		strb	r3, [r7, #2]
 362              	.LBB10:
 363              	.LBB11:
 364              		.file 2 "../../../Source/portable/GCC/ARM_CM3/portmacro.h"
   1:../../../Source/portable/GCC/ARM_CM3/portmacro.h **** /*
   2:../../../Source/portable/GCC/ARM_CM3/portmacro.h ****  * FreeRTOS Kernel V10.2.1
   3:../../../Source/portable/GCC/ARM_CM3/portmacro.h ****  * Copyright (C) 2019 Amazon.com, Inc. or its affiliates.  All Rights Reserved.
   4:../../../Source/portable/GCC/ARM_CM3/portmacro.h ****  *
   5:../../../Source/portable/GCC/ARM_CM3/portmacro.h ****  * Permission is hereby granted, free of charge, to any person obtaining a copy of
   6:../../../Source/portable/GCC/ARM_CM3/portmacro.h ****  * this software and associated documentation files (the "Software"), to deal in
ARM GAS  C:\Users\DEREKM~1\AppData\Local\Temp\ccBMzeMc.s 			page 10


   7:../../../Source/portable/GCC/ARM_CM3/portmacro.h ****  * the Software without restriction, including without limitation the rights to
   8:../../../Source/portable/GCC/ARM_CM3/portmacro.h ****  * use, copy, modify, merge, publish, distribute, sublicense, and/or sell copies of
   9:../../../Source/portable/GCC/ARM_CM3/portmacro.h ****  * the Software, and to permit persons to whom the Software is furnished to do so,
  10:../../../Source/portable/GCC/ARM_CM3/portmacro.h ****  * subject to the following conditions:
  11:../../../Source/portable/GCC/ARM_CM3/portmacro.h ****  *
  12:../../../Source/portable/GCC/ARM_CM3/portmacro.h ****  * The above copyright notice and this permission notice shall be included in all
  13:../../../Source/portable/GCC/ARM_CM3/portmacro.h ****  * copies or substantial portions of the Software.
  14:../../../Source/portable/GCC/ARM_CM3/portmacro.h ****  *
  15:../../../Source/portable/GCC/ARM_CM3/portmacro.h ****  * THE SOFTWARE IS PROVIDED "AS IS", WITHOUT WARRANTY OF ANY KIND, EXPRESS OR
  16:../../../Source/portable/GCC/ARM_CM3/portmacro.h ****  * IMPLIED, INCLUDING BUT NOT LIMITED TO THE WARRANTIES OF MERCHANTABILITY, FITNESS
  17:../../../Source/portable/GCC/ARM_CM3/portmacro.h ****  * FOR A PARTICULAR PURPOSE AND NONINFRINGEMENT. IN NO EVENT SHALL THE AUTHORS OR
  18:../../../Source/portable/GCC/ARM_CM3/portmacro.h ****  * COPYRIGHT HOLDERS BE LIABLE FOR ANY CLAIM, DAMAGES OR OTHER LIABILITY, WHETHER
  19:../../../Source/portable/GCC/ARM_CM3/portmacro.h ****  * IN AN ACTION OF CONTRACT, TORT OR OTHERWISE, ARISING FROM, OUT OF OR IN
  20:../../../Source/portable/GCC/ARM_CM3/portmacro.h ****  * CONNECTION WITH THE SOFTWARE OR THE USE OR OTHER DEALINGS IN THE SOFTWARE.
  21:../../../Source/portable/GCC/ARM_CM3/portmacro.h ****  *
  22:../../../Source/portable/GCC/ARM_CM3/portmacro.h ****  * http://www.FreeRTOS.org
  23:../../../Source/portable/GCC/ARM_CM3/portmacro.h ****  * http://aws.amazon.com/freertos
  24:../../../Source/portable/GCC/ARM_CM3/portmacro.h ****  *
  25:../../../Source/portable/GCC/ARM_CM3/portmacro.h ****  * 1 tab == 4 spaces!
  26:../../../Source/portable/GCC/ARM_CM3/portmacro.h ****  */
  27:../../../Source/portable/GCC/ARM_CM3/portmacro.h **** 
  28:../../../Source/portable/GCC/ARM_CM3/portmacro.h **** 
  29:../../../Source/portable/GCC/ARM_CM3/portmacro.h **** #ifndef PORTMACRO_H
  30:../../../Source/portable/GCC/ARM_CM3/portmacro.h **** #define PORTMACRO_H
  31:../../../Source/portable/GCC/ARM_CM3/portmacro.h **** 
  32:../../../Source/portable/GCC/ARM_CM3/portmacro.h **** #ifdef __cplusplus
  33:../../../Source/portable/GCC/ARM_CM3/portmacro.h **** extern "C" {
  34:../../../Source/portable/GCC/ARM_CM3/portmacro.h **** #endif
  35:../../../Source/portable/GCC/ARM_CM3/portmacro.h **** 
  36:../../../Source/portable/GCC/ARM_CM3/portmacro.h **** /*-----------------------------------------------------------
  37:../../../Source/portable/GCC/ARM_CM3/portmacro.h ****  * Port specific definitions.
  38:../../../Source/portable/GCC/ARM_CM3/portmacro.h ****  *
  39:../../../Source/portable/GCC/ARM_CM3/portmacro.h ****  * The settings in this file configure FreeRTOS correctly for the
  40:../../../Source/portable/GCC/ARM_CM3/portmacro.h ****  * given hardware and compiler.
  41:../../../Source/portable/GCC/ARM_CM3/portmacro.h ****  *
  42:../../../Source/portable/GCC/ARM_CM3/portmacro.h ****  * These settings should not be altered.
  43:../../../Source/portable/GCC/ARM_CM3/portmacro.h ****  *-----------------------------------------------------------
  44:../../../Source/portable/GCC/ARM_CM3/portmacro.h ****  */
  45:../../../Source/portable/GCC/ARM_CM3/portmacro.h **** 
  46:../../../Source/portable/GCC/ARM_CM3/portmacro.h **** /* Type definitions. */
  47:../../../Source/portable/GCC/ARM_CM3/portmacro.h **** #define portCHAR		char
  48:../../../Source/portable/GCC/ARM_CM3/portmacro.h **** #define portFLOAT		float
  49:../../../Source/portable/GCC/ARM_CM3/portmacro.h **** #define portDOUBLE		double
  50:../../../Source/portable/GCC/ARM_CM3/portmacro.h **** #define portLONG		long
  51:../../../Source/portable/GCC/ARM_CM3/portmacro.h **** #define portSHORT		short
  52:../../../Source/portable/GCC/ARM_CM3/portmacro.h **** #define portSTACK_TYPE	uint32_t
  53:../../../Source/portable/GCC/ARM_CM3/portmacro.h **** #define portBASE_TYPE	long
  54:../../../Source/portable/GCC/ARM_CM3/portmacro.h **** 
  55:../../../Source/portable/GCC/ARM_CM3/portmacro.h **** typedef portSTACK_TYPE StackType_t;
  56:../../../Source/portable/GCC/ARM_CM3/portmacro.h **** typedef long BaseType_t;
  57:../../../Source/portable/GCC/ARM_CM3/portmacro.h **** typedef unsigned long UBaseType_t;
  58:../../../Source/portable/GCC/ARM_CM3/portmacro.h **** 
  59:../../../Source/portable/GCC/ARM_CM3/portmacro.h **** #if( configUSE_16_BIT_TICKS == 1 )
  60:../../../Source/portable/GCC/ARM_CM3/portmacro.h **** 	typedef uint16_t TickType_t;
  61:../../../Source/portable/GCC/ARM_CM3/portmacro.h **** 	#define portMAX_DELAY ( TickType_t ) 0xffff
  62:../../../Source/portable/GCC/ARM_CM3/portmacro.h **** #else
  63:../../../Source/portable/GCC/ARM_CM3/portmacro.h **** 	typedef uint32_t TickType_t;
ARM GAS  C:\Users\DEREKM~1\AppData\Local\Temp\ccBMzeMc.s 			page 11


  64:../../../Source/portable/GCC/ARM_CM3/portmacro.h **** 	#define portMAX_DELAY ( TickType_t ) 0xffffffffUL
  65:../../../Source/portable/GCC/ARM_CM3/portmacro.h **** 
  66:../../../Source/portable/GCC/ARM_CM3/portmacro.h **** 	/* 32-bit tick type on a 32-bit architecture, so reads of the tick count do
  67:../../../Source/portable/GCC/ARM_CM3/portmacro.h **** 	not need to be guarded with a critical section. */
  68:../../../Source/portable/GCC/ARM_CM3/portmacro.h **** 	#define portTICK_TYPE_IS_ATOMIC 1
  69:../../../Source/portable/GCC/ARM_CM3/portmacro.h **** #endif
  70:../../../Source/portable/GCC/ARM_CM3/portmacro.h **** /*-----------------------------------------------------------*/
  71:../../../Source/portable/GCC/ARM_CM3/portmacro.h **** 
  72:../../../Source/portable/GCC/ARM_CM3/portmacro.h **** /* Architecture specifics. */
  73:../../../Source/portable/GCC/ARM_CM3/portmacro.h **** #define portSTACK_GROWTH			( -1 )
  74:../../../Source/portable/GCC/ARM_CM3/portmacro.h **** #define portTICK_PERIOD_MS			( ( TickType_t ) 1000 / configTICK_RATE_HZ )
  75:../../../Source/portable/GCC/ARM_CM3/portmacro.h **** #define portBYTE_ALIGNMENT			8
  76:../../../Source/portable/GCC/ARM_CM3/portmacro.h **** /*-----------------------------------------------------------*/
  77:../../../Source/portable/GCC/ARM_CM3/portmacro.h **** 
  78:../../../Source/portable/GCC/ARM_CM3/portmacro.h **** /* Scheduler utilities. */
  79:../../../Source/portable/GCC/ARM_CM3/portmacro.h **** #define portYIELD() 															\
  80:../../../Source/portable/GCC/ARM_CM3/portmacro.h **** {																				\
  81:../../../Source/portable/GCC/ARM_CM3/portmacro.h **** 	/* Set a PendSV to request a context switch. */								\
  82:../../../Source/portable/GCC/ARM_CM3/portmacro.h **** 	portNVIC_INT_CTRL_REG = portNVIC_PENDSVSET_BIT;								\
  83:../../../Source/portable/GCC/ARM_CM3/portmacro.h **** 																				\
  84:../../../Source/portable/GCC/ARM_CM3/portmacro.h **** 	/* Barriers are normally not required but do ensure the code is completely	\
  85:../../../Source/portable/GCC/ARM_CM3/portmacro.h **** 	within the specified behaviour for the architecture. */						\
  86:../../../Source/portable/GCC/ARM_CM3/portmacro.h **** 	__asm volatile( "dsb" ::: "memory" );										\
  87:../../../Source/portable/GCC/ARM_CM3/portmacro.h **** 	__asm volatile( "isb" );													\
  88:../../../Source/portable/GCC/ARM_CM3/portmacro.h **** }
  89:../../../Source/portable/GCC/ARM_CM3/portmacro.h **** 
  90:../../../Source/portable/GCC/ARM_CM3/portmacro.h **** #define portNVIC_INT_CTRL_REG		( * ( ( volatile uint32_t * ) 0xe000ed04 ) )
  91:../../../Source/portable/GCC/ARM_CM3/portmacro.h **** #define portNVIC_PENDSVSET_BIT		( 1UL << 28UL )
  92:../../../Source/portable/GCC/ARM_CM3/portmacro.h **** #define portEND_SWITCHING_ISR( xSwitchRequired ) if( xSwitchRequired != pdFALSE ) portYIELD()
  93:../../../Source/portable/GCC/ARM_CM3/portmacro.h **** #define portYIELD_FROM_ISR( x ) portEND_SWITCHING_ISR( x )
  94:../../../Source/portable/GCC/ARM_CM3/portmacro.h **** /*-----------------------------------------------------------*/
  95:../../../Source/portable/GCC/ARM_CM3/portmacro.h **** 
  96:../../../Source/portable/GCC/ARM_CM3/portmacro.h **** /* Critical section management. */
  97:../../../Source/portable/GCC/ARM_CM3/portmacro.h **** extern void vPortEnterCritical( void );
  98:../../../Source/portable/GCC/ARM_CM3/portmacro.h **** extern void vPortExitCritical( void );
  99:../../../Source/portable/GCC/ARM_CM3/portmacro.h **** #define portSET_INTERRUPT_MASK_FROM_ISR()		ulPortRaiseBASEPRI()
 100:../../../Source/portable/GCC/ARM_CM3/portmacro.h **** #define portCLEAR_INTERRUPT_MASK_FROM_ISR(x)	vPortSetBASEPRI(x)
 101:../../../Source/portable/GCC/ARM_CM3/portmacro.h **** #define portDISABLE_INTERRUPTS()				vPortRaiseBASEPRI()
 102:../../../Source/portable/GCC/ARM_CM3/portmacro.h **** #define portENABLE_INTERRUPTS()					vPortSetBASEPRI(0)
 103:../../../Source/portable/GCC/ARM_CM3/portmacro.h **** #define portENTER_CRITICAL()					vPortEnterCritical()
 104:../../../Source/portable/GCC/ARM_CM3/portmacro.h **** #define portEXIT_CRITICAL()						vPortExitCritical()
 105:../../../Source/portable/GCC/ARM_CM3/portmacro.h **** 
 106:../../../Source/portable/GCC/ARM_CM3/portmacro.h **** /*-----------------------------------------------------------*/
 107:../../../Source/portable/GCC/ARM_CM3/portmacro.h **** 
 108:../../../Source/portable/GCC/ARM_CM3/portmacro.h **** /* Task function macros as described on the FreeRTOS.org WEB site.  These are
 109:../../../Source/portable/GCC/ARM_CM3/portmacro.h **** not necessary for to use this port.  They are defined so the common demo files
 110:../../../Source/portable/GCC/ARM_CM3/portmacro.h **** (which build with all the ports) will build. */
 111:../../../Source/portable/GCC/ARM_CM3/portmacro.h **** #define portTASK_FUNCTION_PROTO( vFunction, pvParameters ) void vFunction( void *pvParameters )
 112:../../../Source/portable/GCC/ARM_CM3/portmacro.h **** #define portTASK_FUNCTION( vFunction, pvParameters ) void vFunction( void *pvParameters )
 113:../../../Source/portable/GCC/ARM_CM3/portmacro.h **** /*-----------------------------------------------------------*/
 114:../../../Source/portable/GCC/ARM_CM3/portmacro.h **** 
 115:../../../Source/portable/GCC/ARM_CM3/portmacro.h **** /* Tickless idle/low power functionality. */
 116:../../../Source/portable/GCC/ARM_CM3/portmacro.h **** #ifndef portSUPPRESS_TICKS_AND_SLEEP
 117:../../../Source/portable/GCC/ARM_CM3/portmacro.h **** 	extern void vPortSuppressTicksAndSleep( TickType_t xExpectedIdleTime );
 118:../../../Source/portable/GCC/ARM_CM3/portmacro.h **** 	#define portSUPPRESS_TICKS_AND_SLEEP( xExpectedIdleTime ) vPortSuppressTicksAndSleep( xExpectedIdl
 119:../../../Source/portable/GCC/ARM_CM3/portmacro.h **** #endif
 120:../../../Source/portable/GCC/ARM_CM3/portmacro.h **** /*-----------------------------------------------------------*/
ARM GAS  C:\Users\DEREKM~1\AppData\Local\Temp\ccBMzeMc.s 			page 12


 121:../../../Source/portable/GCC/ARM_CM3/portmacro.h **** 
 122:../../../Source/portable/GCC/ARM_CM3/portmacro.h **** /* Architecture specific optimisations. */
 123:../../../Source/portable/GCC/ARM_CM3/portmacro.h **** #ifndef configUSE_PORT_OPTIMISED_TASK_SELECTION
 124:../../../Source/portable/GCC/ARM_CM3/portmacro.h **** 	#define configUSE_PORT_OPTIMISED_TASK_SELECTION 1
 125:../../../Source/portable/GCC/ARM_CM3/portmacro.h **** #endif
 126:../../../Source/portable/GCC/ARM_CM3/portmacro.h **** 
 127:../../../Source/portable/GCC/ARM_CM3/portmacro.h **** #if configUSE_PORT_OPTIMISED_TASK_SELECTION == 1
 128:../../../Source/portable/GCC/ARM_CM3/portmacro.h **** 
 129:../../../Source/portable/GCC/ARM_CM3/portmacro.h **** 	/* Generic helper function. */
 130:../../../Source/portable/GCC/ARM_CM3/portmacro.h **** 	__attribute__( ( always_inline ) ) static inline uint8_t ucPortCountLeadingZeros( uint32_t ulBitma
 131:../../../Source/portable/GCC/ARM_CM3/portmacro.h **** 	{
 132:../../../Source/portable/GCC/ARM_CM3/portmacro.h **** 	uint8_t ucReturn;
 133:../../../Source/portable/GCC/ARM_CM3/portmacro.h **** 
 134:../../../Source/portable/GCC/ARM_CM3/portmacro.h **** 		__asm volatile ( "clz %0, %1" : "=r" ( ucReturn ) : "r" ( ulBitmap ) : "memory" );
 135:../../../Source/portable/GCC/ARM_CM3/portmacro.h **** 		return ucReturn;
 136:../../../Source/portable/GCC/ARM_CM3/portmacro.h **** 	}
 137:../../../Source/portable/GCC/ARM_CM3/portmacro.h **** 
 138:../../../Source/portable/GCC/ARM_CM3/portmacro.h **** 	/* Check the configuration. */
 139:../../../Source/portable/GCC/ARM_CM3/portmacro.h **** 	#if( configMAX_PRIORITIES > 32 )
 140:../../../Source/portable/GCC/ARM_CM3/portmacro.h **** 		#error configUSE_PORT_OPTIMISED_TASK_SELECTION can only be set to 1 when configMAX_PRIORITIES is 
 141:../../../Source/portable/GCC/ARM_CM3/portmacro.h **** 	#endif
 142:../../../Source/portable/GCC/ARM_CM3/portmacro.h **** 
 143:../../../Source/portable/GCC/ARM_CM3/portmacro.h **** 	/* Store/clear the ready priorities in a bit map. */
 144:../../../Source/portable/GCC/ARM_CM3/portmacro.h **** 	#define portRECORD_READY_PRIORITY( uxPriority, uxReadyPriorities ) ( uxReadyPriorities ) |= ( 1UL 
 145:../../../Source/portable/GCC/ARM_CM3/portmacro.h **** 	#define portRESET_READY_PRIORITY( uxPriority, uxReadyPriorities ) ( uxReadyPriorities ) &= ~( 1UL 
 146:../../../Source/portable/GCC/ARM_CM3/portmacro.h **** 
 147:../../../Source/portable/GCC/ARM_CM3/portmacro.h **** 	/*-----------------------------------------------------------*/
 148:../../../Source/portable/GCC/ARM_CM3/portmacro.h **** 
 149:../../../Source/portable/GCC/ARM_CM3/portmacro.h **** 	#define portGET_HIGHEST_PRIORITY( uxTopPriority, uxReadyPriorities ) uxTopPriority = ( 31UL - ( ui
 150:../../../Source/portable/GCC/ARM_CM3/portmacro.h **** 
 151:../../../Source/portable/GCC/ARM_CM3/portmacro.h **** #endif /* configUSE_PORT_OPTIMISED_TASK_SELECTION */
 152:../../../Source/portable/GCC/ARM_CM3/portmacro.h **** 
 153:../../../Source/portable/GCC/ARM_CM3/portmacro.h **** /*-----------------------------------------------------------*/
 154:../../../Source/portable/GCC/ARM_CM3/portmacro.h **** 
 155:../../../Source/portable/GCC/ARM_CM3/portmacro.h **** #ifdef configASSERT
 156:../../../Source/portable/GCC/ARM_CM3/portmacro.h **** 	void vPortValidateInterruptPriority( void );
 157:../../../Source/portable/GCC/ARM_CM3/portmacro.h **** 	#define portASSERT_IF_INTERRUPT_PRIORITY_INVALID() 	vPortValidateInterruptPriority()
 158:../../../Source/portable/GCC/ARM_CM3/portmacro.h **** #endif
 159:../../../Source/portable/GCC/ARM_CM3/portmacro.h **** 
 160:../../../Source/portable/GCC/ARM_CM3/portmacro.h **** /* portNOP() is not required by this port. */
 161:../../../Source/portable/GCC/ARM_CM3/portmacro.h **** #define portNOP()
 162:../../../Source/portable/GCC/ARM_CM3/portmacro.h **** 
 163:../../../Source/portable/GCC/ARM_CM3/portmacro.h **** #define portINLINE	__inline
 164:../../../Source/portable/GCC/ARM_CM3/portmacro.h **** 
 165:../../../Source/portable/GCC/ARM_CM3/portmacro.h **** #ifndef portFORCE_INLINE
 166:../../../Source/portable/GCC/ARM_CM3/portmacro.h **** 	#define portFORCE_INLINE inline __attribute__(( always_inline))
 167:../../../Source/portable/GCC/ARM_CM3/portmacro.h **** #endif
 168:../../../Source/portable/GCC/ARM_CM3/portmacro.h **** 
 169:../../../Source/portable/GCC/ARM_CM3/portmacro.h **** portFORCE_INLINE static BaseType_t xPortIsInsideInterrupt( void )
 170:../../../Source/portable/GCC/ARM_CM3/portmacro.h **** {
 171:../../../Source/portable/GCC/ARM_CM3/portmacro.h **** uint32_t ulCurrentInterrupt;
 172:../../../Source/portable/GCC/ARM_CM3/portmacro.h **** BaseType_t xReturn;
 173:../../../Source/portable/GCC/ARM_CM3/portmacro.h **** 
 174:../../../Source/portable/GCC/ARM_CM3/portmacro.h **** 	/* Obtain the number of the currently executing interrupt. */
 175:../../../Source/portable/GCC/ARM_CM3/portmacro.h **** 	__asm volatile( "mrs %0, ipsr" : "=r"( ulCurrentInterrupt ) :: "memory" );
 176:../../../Source/portable/GCC/ARM_CM3/portmacro.h **** 
 177:../../../Source/portable/GCC/ARM_CM3/portmacro.h **** 	if( ulCurrentInterrupt == 0 )
ARM GAS  C:\Users\DEREKM~1\AppData\Local\Temp\ccBMzeMc.s 			page 13


 178:../../../Source/portable/GCC/ARM_CM3/portmacro.h **** 	{
 179:../../../Source/portable/GCC/ARM_CM3/portmacro.h **** 		xReturn = pdFALSE;
 180:../../../Source/portable/GCC/ARM_CM3/portmacro.h **** 	}
 181:../../../Source/portable/GCC/ARM_CM3/portmacro.h **** 	else
 182:../../../Source/portable/GCC/ARM_CM3/portmacro.h **** 	{
 183:../../../Source/portable/GCC/ARM_CM3/portmacro.h **** 		xReturn = pdTRUE;
 184:../../../Source/portable/GCC/ARM_CM3/portmacro.h **** 	}
 185:../../../Source/portable/GCC/ARM_CM3/portmacro.h **** 
 186:../../../Source/portable/GCC/ARM_CM3/portmacro.h **** 	return xReturn;
 187:../../../Source/portable/GCC/ARM_CM3/portmacro.h **** }
 188:../../../Source/portable/GCC/ARM_CM3/portmacro.h **** 
 189:../../../Source/portable/GCC/ARM_CM3/portmacro.h **** /*-----------------------------------------------------------*/
 190:../../../Source/portable/GCC/ARM_CM3/portmacro.h **** 
 191:../../../Source/portable/GCC/ARM_CM3/portmacro.h **** portFORCE_INLINE static void vPortRaiseBASEPRI( void )
 192:../../../Source/portable/GCC/ARM_CM3/portmacro.h **** {
 193:../../../Source/portable/GCC/ARM_CM3/portmacro.h **** uint32_t ulNewBASEPRI;
 194:../../../Source/portable/GCC/ARM_CM3/portmacro.h **** 
 195:../../../Source/portable/GCC/ARM_CM3/portmacro.h **** 	__asm volatile
 196:../../../Source/portable/GCC/ARM_CM3/portmacro.h **** 	(
 197:../../../Source/portable/GCC/ARM_CM3/portmacro.h **** 		"	mov %0, %1												\n" \
 198:../../../Source/portable/GCC/ARM_CM3/portmacro.h **** 		"	msr basepri, %0											\n" \
 199:../../../Source/portable/GCC/ARM_CM3/portmacro.h **** 		"	isb														\n" \
 200:../../../Source/portable/GCC/ARM_CM3/portmacro.h **** 		"	dsb														\n" \
 201:../../../Source/portable/GCC/ARM_CM3/portmacro.h **** 		:"=r" (ulNewBASEPRI) : "i" ( configMAX_SYSCALL_INTERRUPT_PRIORITY ) : "memory"
 202:../../../Source/portable/GCC/ARM_CM3/portmacro.h **** 	);
 203:../../../Source/portable/GCC/ARM_CM3/portmacro.h **** }
 204:../../../Source/portable/GCC/ARM_CM3/portmacro.h **** 
 205:../../../Source/portable/GCC/ARM_CM3/portmacro.h **** /*-----------------------------------------------------------*/
 206:../../../Source/portable/GCC/ARM_CM3/portmacro.h **** 
 207:../../../Source/portable/GCC/ARM_CM3/portmacro.h **** portFORCE_INLINE static uint32_t ulPortRaiseBASEPRI( void )
 208:../../../Source/portable/GCC/ARM_CM3/portmacro.h **** {
 209:../../../Source/portable/GCC/ARM_CM3/portmacro.h **** uint32_t ulOriginalBASEPRI, ulNewBASEPRI;
 210:../../../Source/portable/GCC/ARM_CM3/portmacro.h **** 
 211:../../../Source/portable/GCC/ARM_CM3/portmacro.h **** 	__asm volatile
 365              		.loc 2 211 0
 366              		.syntax unified
 367              	@ 211 "../../../Source/portable/GCC/ARM_CM3/portmacro.h" 1
 368 0034 EFF31182 			mrs r2, basepri											
 369 0038 4FF0A003 		mov r3, #160												
 370 003c 83F31188 		msr basepri, r3											
 371 0040 BFF36F8F 		isb														
 372 0044 BFF34F8F 		dsb														
 373              	
 374              	@ 0 "" 2
 375              		.thumb
 376              		.syntax unified
 377 0048 FA60     		str	r2, [r7, #12]
 378 004a BB60     		str	r3, [r7, #8]
 212:../../../Source/portable/GCC/ARM_CM3/portmacro.h **** 	(
 213:../../../Source/portable/GCC/ARM_CM3/portmacro.h **** 		"	mrs %0, basepri											\n" \
 214:../../../Source/portable/GCC/ARM_CM3/portmacro.h **** 		"	mov %1, %2												\n" \
 215:../../../Source/portable/GCC/ARM_CM3/portmacro.h **** 		"	msr basepri, %1											\n" \
 216:../../../Source/portable/GCC/ARM_CM3/portmacro.h **** 		"	isb														\n" \
 217:../../../Source/portable/GCC/ARM_CM3/portmacro.h **** 		"	dsb														\n" \
 218:../../../Source/portable/GCC/ARM_CM3/portmacro.h **** 		:"=r" (ulOriginalBASEPRI), "=r" (ulNewBASEPRI) : "i" ( configMAX_SYSCALL_INTERRUPT_PRIORITY ) : "
 219:../../../Source/portable/GCC/ARM_CM3/portmacro.h **** 	);
 220:../../../Source/portable/GCC/ARM_CM3/portmacro.h **** 
ARM GAS  C:\Users\DEREKM~1\AppData\Local\Temp\ccBMzeMc.s 			page 14


 221:../../../Source/portable/GCC/ARM_CM3/portmacro.h **** 	/* This return will not be reached but is necessary to prevent compiler
 222:../../../Source/portable/GCC/ARM_CM3/portmacro.h **** 	warnings. */
 223:../../../Source/portable/GCC/ARM_CM3/portmacro.h **** 	return ulOriginalBASEPRI;
 379              		.loc 2 223 0
 380 004c FB68     		ldr	r3, [r7, #12]
 381              	.LBE11:
 382              	.LBE10:
 141:Serial.c      **** 		
 142:Serial.c      **** 		/* Mask off the other RTOS interrupts to interact with the queue. */
 143:Serial.c      **** 		ulMask = portSET_INTERRUPT_MASK_FROM_ISR();
 383              		.loc 1 143 0
 384 004e 7B61     		str	r3, [r7, #20]
 144:Serial.c      **** 		{
 145:Serial.c      **** 			/* Try to deliver the character. */
 146:Serial.c      **** 			if( pdTRUE != xQueueSendFromISR( xSerialRxQueue, &cInChar, &xHigherPriorityTaskWoken ) )
 385              		.loc 1 146 0
 386 0050 0D4B     		ldr	r3, .L29
 387 0052 1868     		ldr	r0, [r3]
 388 0054 3A1D     		adds	r2, r7, #4
 389 0056 B91C     		adds	r1, r7, #2
 390 0058 0023     		movs	r3, #0
 391 005a FFF7FEFF 		bl	xQueueGenericSendFromISR
 392 005e 7B69     		ldr	r3, [r7, #20]
 393 0060 3B61     		str	r3, [r7, #16]
 394              	.LBB12:
 395              	.LBB13:
 224:../../../Source/portable/GCC/ARM_CM3/portmacro.h **** }
 225:../../../Source/portable/GCC/ARM_CM3/portmacro.h **** /*-----------------------------------------------------------*/
 226:../../../Source/portable/GCC/ARM_CM3/portmacro.h **** 
 227:../../../Source/portable/GCC/ARM_CM3/portmacro.h **** portFORCE_INLINE static void vPortSetBASEPRI( uint32_t ulNewMaskValue )
 228:../../../Source/portable/GCC/ARM_CM3/portmacro.h **** {
 229:../../../Source/portable/GCC/ARM_CM3/portmacro.h **** 	__asm volatile
 396              		.loc 2 229 0
 397 0062 3B69     		ldr	r3, [r7, #16]
 398              		.syntax unified
 399              	@ 229 "../../../Source/portable/GCC/ARM_CM3/portmacro.h" 1
 400 0064 83F31188 			msr basepri, r3	
 401              	@ 0 "" 2
 402              		.thumb
 403              		.syntax unified
 404              	.L25:
 405              	.LBE13:
 406              	.LBE12:
 147:Serial.c      **** 			{
 148:Serial.c      **** 				/* Run out of space. */
 149:Serial.c      **** 			}
 150:Serial.c      **** 		}
 151:Serial.c      **** 		portCLEAR_INTERRUPT_MASK_FROM_ISR( ulMask );
 152:Serial.c      **** 	}
 153:Serial.c      **** 
 154:Serial.c      **** 	/* If we delivered the character then a context switch might be required.
 155:Serial.c      **** 	xHigherPriorityTaskWoken was set to pdFALSE on interrupt entry.  If calling 
 156:Serial.c      **** 	xQueueSendFromISR() caused a task to unblock, and the unblocked task has
 157:Serial.c      **** 	a priority equal to or higher than the currently running task (the task this
 158:Serial.c      **** 	ISR interrupted), then xHigherPriorityTaskWoken will have been set to pdTRUE and
 159:Serial.c      **** 	portEND_SWITCHING_ISR() will request a context switch to the newly unblocked
 160:Serial.c      **** 	task. */
ARM GAS  C:\Users\DEREKM~1\AppData\Local\Temp\ccBMzeMc.s 			page 15


 161:Serial.c      **** 	portEND_SWITCHING_ISR( xHigherPriorityTaskWoken );
 407              		.loc 1 161 0
 408 0068 7B68     		ldr	r3, [r7, #4]
 409 006a 002B     		cmp	r3, #0
 410 006c 07D0     		beq	.L28
 411              		.loc 1 161 0 is_stmt 0 discriminator 1
 412 006e 074B     		ldr	r3, .L29+4
 413 0070 4FF08052 		mov	r2, #268435456
 414 0074 1A60     		str	r2, [r3]
 415              		.syntax unified
 416              	@ 161 "Serial.c" 1
 417 0076 BFF34F8F 		dsb
 418              	@ 0 "" 2
 419              	@ 161 "Serial.c" 1
 420 007a BFF36F8F 		isb
 421              	@ 0 "" 2
 422              		.thumb
 423              		.syntax unified
 424              	.L28:
 162:Serial.c      **** }
 425              		.loc 1 162 0 is_stmt 1
 426 007e 00BF     		nop
 427 0080 1837     		adds	r7, r7, #24
 428              		.cfi_def_cfa_offset 8
 429 0082 BD46     		mov	sp, r7
 430              		.cfi_def_cfa_register 13
 431              		@ sp needed
 432 0084 80BD     		pop	{r7, pc}
 433              	.L30:
 434 0086 00BF     		.align	2
 435              	.L29:
 436 0088 04000000 		.word	xSerialRxQueue
 437 008c 04ED00E0 		.word	-536810236
 438              		.cfi_endproc
 439              	.LFE72:
 440              		.size	vUartRxISR, .-vUartRxISR
 441              		.section	.text.vUartTxISR,"ax",%progbits
 442              		.align	2
 443              		.global	vUartTxISR
 444              		.thumb
 445              		.thumb_func
 446              		.type	vUartTxISR, %function
 447              	vUartTxISR:
 448              	.LFB73:
 163:Serial.c      **** /*---------------------------------------------------------------------------*/
 164:Serial.c      **** 
 165:Serial.c      **** CY_ISR(vUartTxISR)
 166:Serial.c      **** {
 449              		.loc 1 166 0
 450              		.cfi_startproc
 451              		@ args = 0, pretend = 0, frame = 24
 452              		@ frame_needed = 1, uses_anonymous_args = 0
 453 0000 80B5     		push	{r7, lr}
 454              		.cfi_def_cfa_offset 8
 455              		.cfi_offset 7, -8
 456              		.cfi_offset 14, -4
 457 0002 86B0     		sub	sp, sp, #24
ARM GAS  C:\Users\DEREKM~1\AppData\Local\Temp\ccBMzeMc.s 			page 16


 458              		.cfi_def_cfa_offset 32
 459 0004 00AF     		add	r7, sp, #0
 460              		.cfi_def_cfa_register 7
 167:Serial.c      **** portBASE_TYPE xHigherPriorityTaskWoken = pdFALSE;
 461              		.loc 1 167 0
 462 0006 0023     		movs	r3, #0
 463 0008 7B60     		str	r3, [r7, #4]
 168:Serial.c      **** volatile unsigned char ucStatus = 0;
 464              		.loc 1 168 0
 465 000a 0023     		movs	r3, #0
 466 000c FB70     		strb	r3, [r7, #3]
 169:Serial.c      **** signed char cOutChar = 0;
 467              		.loc 1 169 0
 468 000e 0023     		movs	r3, #0
 469 0010 BB70     		strb	r3, [r7, #2]
 170:Serial.c      **** unsigned long ulMask = 0;
 470              		.loc 1 170 0
 471 0012 0023     		movs	r3, #0
 472 0014 7B61     		str	r3, [r7, #20]
 171:Serial.c      **** 
 172:Serial.c      **** 	/* Read the status to acknowledge. */
 173:Serial.c      **** 	ucStatus = UART_1_ReadTxStatus();
 473              		.loc 1 173 0
 474 0016 FFF7FEFF 		bl	UART_1_ReadTxStatus
 475 001a 0346     		mov	r3, r0
 476 001c FB70     		strb	r3, [r7, #3]
 174:Serial.c      **** 	
 175:Serial.c      **** 	/* Check to see whether this is a genuine interrupt. */
 176:Serial.c      **** 	if( ( 0 != ( ucStatus & UART_1_TX_STS_COMPLETE ) ) || ( 0 != ( ucStatus & UART_1_TX_STS_FIFO_EMPTY
 477              		.loc 1 176 0
 478 001e FB78     		ldrb	r3, [r7, #3]
 479 0020 DBB2     		uxtb	r3, r3
 480 0022 03F00103 		and	r3, r3, #1
 481 0026 002B     		cmp	r3, #0
 482 0028 05D1     		bne	.L32
 483              		.loc 1 176 0 is_stmt 0 discriminator 1
 484 002a FB78     		ldrb	r3, [r7, #3]
 485 002c DBB2     		uxtb	r3, r3
 486 002e 03F00203 		and	r3, r3, #2
 487 0032 002B     		cmp	r3, #0
 488 0034 29D0     		beq	.L33
 489              	.L32:
 490              	.LBB14:
 491              	.LBB15:
 211:../../../Source/portable/GCC/ARM_CM3/portmacro.h **** 	(
 492              		.loc 2 211 0 is_stmt 1
 493              		.syntax unified
 494              	@ 211 "../../../Source/portable/GCC/ARM_CM3/portmacro.h" 1
 495 0036 EFF31182 			mrs r2, basepri											
 496 003a 4FF0A003 		mov r3, #160												
 497 003e 83F31188 		msr basepri, r3											
 498 0042 BFF36F8F 		isb														
 499 0046 BFF34F8F 		dsb														
 500              	
 501              	@ 0 "" 2
 502              		.thumb
 503              		.syntax unified
ARM GAS  C:\Users\DEREKM~1\AppData\Local\Temp\ccBMzeMc.s 			page 17


 504 004a FA60     		str	r2, [r7, #12]
 505 004c BB60     		str	r3, [r7, #8]
 223:../../../Source/portable/GCC/ARM_CM3/portmacro.h **** }
 506              		.loc 2 223 0
 507 004e FB68     		ldr	r3, [r7, #12]
 508              	.LBE15:
 509              	.LBE14:
 177:Serial.c      **** 	{	
 178:Serial.c      **** 		/* Mask off the other RTOS interrupts to interact with the queue. */
 179:Serial.c      **** 		ulMask = portSET_INTERRUPT_MASK_FROM_ISR();
 510              		.loc 1 179 0
 511 0050 7B61     		str	r3, [r7, #20]
 180:Serial.c      **** 		{
 181:Serial.c      **** 			if( pdTRUE == xQueueReceiveFromISR( xSerialTxQueue, &cOutChar, &xHigherPriorityTaskWoken ) )
 512              		.loc 1 181 0
 513 0052 154B     		ldr	r3, .L39
 514 0054 1B68     		ldr	r3, [r3]
 515 0056 3A1D     		adds	r2, r7, #4
 516 0058 B91C     		adds	r1, r7, #2
 517 005a 1846     		mov	r0, r3
 518 005c FFF7FEFF 		bl	xQueueReceiveFromISR
 519 0060 0346     		mov	r3, r0
 520 0062 012B     		cmp	r3, #1
 521 0064 09D1     		bne	.L35
 182:Serial.c      **** 			{
 183:Serial.c      **** 				/* Send the next character. */
 184:Serial.c      **** 				UART_1_PutChar( cOutChar );			
 522              		.loc 1 184 0
 523 0066 97F90230 		ldrsb	r3, [r7, #2]
 524 006a DBB2     		uxtb	r3, r3
 525 006c 1846     		mov	r0, r3
 526 006e FFF7FEFF 		bl	UART_1_PutChar
 185:Serial.c      **** 
 186:Serial.c      **** 				/* If we are firing, then the only interrupt we are interested in
 187:Serial.c      **** 				is the Complete. The application code will add the Empty interrupt
 188:Serial.c      **** 				when there is something else to be done. */
 189:Serial.c      **** 				UART_1_SetTxInterruptMode( UART_1_TX_STS_COMPLETE );
 527              		.loc 1 189 0
 528 0072 0120     		movs	r0, #1
 529 0074 FFF7FEFF 		bl	UART_1_SetTxInterruptMode
 530 0078 02E0     		b	.L36
 531              	.L35:
 190:Serial.c      **** 			}
 191:Serial.c      **** 			else
 192:Serial.c      **** 			{
 193:Serial.c      **** 				/* There is no work left so disable the interrupt until the application 
 194:Serial.c      **** 				puts more into the queue. */
 195:Serial.c      **** 				UART_1_SetTxInterruptMode( 0 );
 532              		.loc 1 195 0
 533 007a 0020     		movs	r0, #0
 534 007c FFF7FEFF 		bl	UART_1_SetTxInterruptMode
 535              	.L36:
 536 0080 7B69     		ldr	r3, [r7, #20]
 537 0082 3B61     		str	r3, [r7, #16]
 538              	.LBB16:
 539              	.LBB17:
 540              		.loc 2 229 0
ARM GAS  C:\Users\DEREKM~1\AppData\Local\Temp\ccBMzeMc.s 			page 18


 541 0084 3B69     		ldr	r3, [r7, #16]
 542              		.syntax unified
 543              	@ 229 "../../../Source/portable/GCC/ARM_CM3/portmacro.h" 1
 544 0086 83F31188 			msr basepri, r3	
 545              	@ 0 "" 2
 546              		.thumb
 547              		.syntax unified
 548              	.L33:
 549              	.LBE17:
 550              	.LBE16:
 196:Serial.c      **** 			}
 197:Serial.c      **** 		}
 198:Serial.c      **** 		portCLEAR_INTERRUPT_MASK_FROM_ISR( ulMask );
 199:Serial.c      **** 	}
 200:Serial.c      **** 
 201:Serial.c      **** 	/* If we delivered the character then a context switch might be required.
 202:Serial.c      **** 	xHigherPriorityTaskWoken was set to pdFALSE on interrupt entry.  If calling 
 203:Serial.c      **** 	xQueueSendFromISR() caused a task to unblock, and the unblocked task has
 204:Serial.c      **** 	a priority equal to or higher than the currently running task (the task this
 205:Serial.c      **** 	ISR interrupted), then xHigherPriorityTaskWoken will have been set to pdTRUE and
 206:Serial.c      **** 	portEND_SWITCHING_ISR() will request a context switch to the newly unblocked
 207:Serial.c      **** 	task. */
 208:Serial.c      **** 	portEND_SWITCHING_ISR( xHigherPriorityTaskWoken );
 551              		.loc 1 208 0
 552 008a 7B68     		ldr	r3, [r7, #4]
 553 008c 002B     		cmp	r3, #0
 554 008e 07D0     		beq	.L38
 555              		.loc 1 208 0 is_stmt 0 discriminator 1
 556 0090 064B     		ldr	r3, .L39+4
 557 0092 4FF08052 		mov	r2, #268435456
 558 0096 1A60     		str	r2, [r3]
 559              		.syntax unified
 560              	@ 208 "Serial.c" 1
 561 0098 BFF34F8F 		dsb
 562              	@ 0 "" 2
 563              	@ 208 "Serial.c" 1
 564 009c BFF36F8F 		isb
 565              	@ 0 "" 2
 566              		.thumb
 567              		.syntax unified
 568              	.L38:
 209:Serial.c      **** }
 569              		.loc 1 209 0 is_stmt 1
 570 00a0 00BF     		nop
 571 00a2 1837     		adds	r7, r7, #24
 572              		.cfi_def_cfa_offset 8
 573 00a4 BD46     		mov	sp, r7
 574              		.cfi_def_cfa_register 13
 575              		@ sp needed
 576 00a6 80BD     		pop	{r7, pc}
 577              	.L40:
 578              		.align	2
 579              	.L39:
 580 00a8 00000000 		.word	xSerialTxQueue
 581 00ac 04ED00E0 		.word	-536810236
 582              		.cfi_endproc
 583              	.LFE73:
ARM GAS  C:\Users\DEREKM~1\AppData\Local\Temp\ccBMzeMc.s 			page 19


 584              		.size	vUartTxISR, .-vUartTxISR
 585              		.text
 586              	.Letext0:
 587              		.file 3 "c:\\program files (x86)\\cypress\\psoc creator\\4.2\\psoc creator\\import\\gnu\\arm\\5.4.
 588              		.file 4 "c:\\program files (x86)\\cypress\\psoc creator\\4.2\\psoc creator\\import\\gnu\\arm\\5.4.
 589              		.file 5 "Generated_Source\\PSoC5/cytypes.h"
 590              		.file 6 "../../../Source/include/queue.h"
 591              		.file 7 "../../Common/include/serial.h"
 592              		.file 8 "Generated_Source\\PSoC5/core_cm3.h"
